:030000000215AC3A
:0C15AC00787FE4F6D8FD7581200215F36D
:10136200E4900059F0A3F0A3F07FF47E011219B1CA
:101372001216B7121B81121AE3121AF87F017E00AD
:101382001219D81217D65387DF7F057E001219B1C2
:1013920090005AE004F07006900059E004F0D390F7
:1013A200005AE094F4900059E09401401390005BDD
:1013B200E0B4010C7F017E001219D8E490005BF0CA
:1013C200E58730E5245387DF7F0A7E001219B1E5F5
:1013D2008730E5151218141218525387DF1218902D
:1013E200E58730E504B29080FC900022E0B401036E
:1013F2001214F2900021E0B40305120D72801990CC
:101402000021E0B40108121A38120A42800A900040
:1014120021E0B40208120A42E4900021F090001E7A
:10142200E06401600302138B121435E490001EF095
:0314320002138B17
:101A1D00EF1FAC0670011E4C601090005FE004F0EB
:0A1A2D0070EE90005EE004F080E629
:011A3700228C
:0819B10090005CEEF0A3EFF0E2
:1019B900E4FBFAD390005DE09B90005CE09A400E56
:0E19C9007FDE7E01121A1D0BBB00010A80E5B5
:0119D70022ED
:1016B700120A42EF705B90000004F0A304F0A3E469
:1016C700F0A37403F0A314F0A37458F0A3E4F0A3F9
:1016D7007464F0A3E4F0A374C8F0A37401F0A374D6
:1016E7002CF0A37401F0A37490F0A374FFF0A3147B
:1016F700F0A3747FF0A374FFF0A3F0A3F0A3F0A30B
:10170700F0A3F0A3F0A3F0A3F0A3F0A3F0A3F0A33A
:10171700F0E490001FF0A3F090002204F090001E68
:07172700F0E4900021F02224
:101A380090005CE4F0A304F0900000E0FDE4FFFEF9
:091A4800121A8590005CA3E0FF76
:011A51002272
:100D720090005CE4F0A304F0900000E0FF7E007CB1
:100D8200387D42121638EF24C0FFEE34C7FE9000C1
:100D92005EF0A3EFF0900004E0FD121A8590005F70
:100DA200E02401FF90005EE03400FE900004A3E026
:100DB200FD121A85900002E0FEA3E0FF7C007D1880
:100DC20012163890005FE02FFF90005EE03ECF24C5
:100DD200EACF34FFFE900060F0A3EFF0900006E04F
:100DE200FD121A85900061E02401FF900060E0345A
:100DF20000FE900006A3E0FD121A85900061E02437
:100E020002FF900060E03400FE900008E0FD121A3C
:100E120085900061E02403FF900060E03400FE90C2
:100E22000008A3E0FD121A85900061E02404FF90FF
:100E32000060E03400FE90000AE0FD121A85900086
:100E420061E02405FF900060E03400FE90000AA3F8
:100E5200E0FD121A85900061E02406FF900060E038
:100E62003400FE90000CE0FD121A85900061E0242F
:100E720007FF900060E03400FE90000CA3E0FD123A
:100E82001A85900061E02408FF900060E03400FEC3
:100E920090000EE0FD121A85900061E02409FF9097
:100EA2000060E03400FE90000EA3E0FD121A85906F
:100EB2000061E0240AFF900060E03400FE90001020
:100EC200E0FD121A85900061E0240BFF900060E0C3
:100ED2003400FE900010A3E0FD121A85900061E03C
:100EE200240CFF900060E03400FE900012E0FD123E
:100EF2001A85900061E0240DFF900060E03400FE4E
:100F0200900012A3E0FD121A85900061E0240EFF0A
:100F1200900060E03400FE900014E0FD121A85900B
:100F22000061E0240FFF900060E03400FE900014A6
:100F3200A3E0FD121A85900061E02410FF9000608A
:100F4200E03400FE900016E0FD121A85900061E088
:100F52002411FF900060E03400FE900016A3E0FD33
:100F6200121A85900061E02412FF900060E03400C4
:100F7200FE900018E0FD121A85900061E02413FF34
:100F8200900060E03400FE900018A3E0FD121A8584
:100F9200900061E02414FF900060E03400FE9000B5
:100FA2001AE0FD121A85900061E02415FF9000609E
:100FB200E03400FE90001AA3E0FD121A8590006151
:100FC200E02416FF900060E03400FE90001CE0FD7B
:100FD200121A85900061E02417FF900060E034004F
:100FE200FE90001CA3E0FD121A8590005CA3E0FFB6
:010FF20022DC
:100A420090005CE4F0A304F0E4FFFE1219FF9000B2
:100A520000EFF07E007C387D42121638EF24C0FF92
:100A6200EE34C7FE90005EF0A3EFF01219FFEF7FA5
:100A720000FEC007C00690005FE02401FF90005E08
:100A8200E03400FE1219FFEFFDD0E0FFD0E04D9000
:100A92000004CFF0A3EFF0900002E0FEA3E0FF7CA1
:100AA200007D1812163890005FE02FFF90005EE084
:100AB2003ECF24EACF34FFFE900060F0A3EFF012A5
:100AC20019FFEF7F00FEC007C006900061E024011D
:100AD200FF900060E03400FE1219FFEFFDD0E0FF4E
:100AE200D0E04D900006CFF0A3EFF0900061E0243B
:100AF20002FF900060E03400FE1219FFEF7F00FE5B
:100B0200C007C006900061E02403FF900060E0345B
:100B120000FE1219FFEFFDD0E0FFD0E04D9000087B
:100B2200CFF0A3EFF0900061E02404FF900060E0BA
:100B32003400FE1219FFEF7F00FEC007C0069000CE
:100B420061E02405FF900060E03400FE1219FFEF1F
:100B5200FDD0E0FFD0E04D90000ACFF0A3EFF0907F
:100B62000061E02406FF900060E03400FE1219FFED
:100B7200EF7F00FEC007C006900061E02407FF90EF
:100B82000060E03400FE1219FFEFFDD0E0FFD0E07C
:100B92004D90000CCFF0A3EFF0900061E02408FF2D
:100BA200900060E03400FE1219FFEF7F00FEC007E4
:100BB200C006900061E02409FF900060E03400FE6E
:100BC2001219FFEFFDD0E0FFD0E04D90000ECFF004
:100BD200A3EFF0900061E0240AFF900060E034008F
:100BE200FE1219FFEF7F00FEC007C006900061E011
:100BF200240BFF900060E03400FE1219FFEFFDD0DD
:100C0200E0FFD0E04D900010CFF0A3EFF090006134
:100C1200E0240CFF900060E03400FE1219FFEF7F29
:100C220000FEC007C006900061E0240DFF90006046
:100C3200E03400FE1219FFEFFDD0E0FFD0E04D904E
:100C42000012CFF0A3EFF0900061E0240EFF9000BD
:100C520060E03400FE1219FFEF7F00FEC007C006FD
:100C6200900061E0240FFF900060E03400FE121952
:100C7200FFEFFDD0E0FFD0E04D900014CFF0A3EFE6
:100C8200F0900061E02410FF900060E03400FE125A
:100C920019FFEF7F00FEC007C006900061E024113B
:100CA200FF900060E03400FE1219FFEFFDD0E0FF7C
:100CB200D0E04D900016CFF0A3EFF0900061E02459
:100CC20012FF900060E03400FE1219FFEF7F00FE79
:100CD200C007C006900061E02413FF900060E0347A
:100CE20000FE1219FFEFFDD0E0FFD0E04D9000189A
:100CF200CFF0A3EFF0900061E02414FF900060E0D9
:100D02003400FE1219FFEF7F00FEC007C0069000FC
:100D120061E02415FF900060E03400FE1219FFEF3D
:100D2200FDD0E0FFD0E04D90001ACFF0A3EFF0909D
:100D32000061E02416FF900060E03400FE1219FF0B
:100D4200EF7F00FEC007C006900061E02417FF900D
:100D52000060E03400FE1219FFEFFDD0E0FFD0E0AA
:0F0D62004D90001CCFF0A3EFF090005CA3E0FFDA
:010D7100225F
:1017D6007F0A121B227FFF7E01121A9EBFEE277F11
:1017E600087E00121A9EEF7F00FEC007C0067F0922
:1017F6007E00121A9EEFFDD0E0FFD0E04D90001F54
:0E180600CFF0A3EFF022E490001FF0A3F02239
:101890007F0A121B22E4FFFE121ACE7F0A121B22BD
:1018A00090001FE0FD7F087E00121A6C90001FA3BD
:1018B000E0FD7F097E00121A6C7DEE7FFF7E011233
:0718C0001A6C7F0A021B22D3
:101B2200AE071FEE600DE4FCFD0DED70010C4C6084
:031B3200EF80F64B
:011B3500228D
:0D000E00E4F5C7F5C5F5C675C380F5C4223D
:101A9E0075C78375C5018FC4EEF5C375C65A75C675
:071AAE00A500AFC212000EFB
:011AB500220E
:101A6C0075C78375C5028FC4EEF5C3AF058FC275FC
:091A7C00C65A75C6A50002000E51
:101ACE0075C78375C5038FC4EEF5C375C65A75C643
:051ADE00A50002000E4E
:1018C700C1004F0049FFFFFFFFFFFFFFFFFFFFFFC3
:1018D700FFFFFFFF4100580041004800410047005B
:0F1B8100759A50759CFD438E1475AF01D2AF223B
:0300430002192C73
:10192C00C0E0C0F0C083C082C0D075D008E59A304A
:10193C00E008539AFEAF9B12172EE59A30E105533F
:0F194C009AFDC201D0D0D082D083D0F0D0E0324B
:101A5200900077E0FCA3E0FDA3E0FEA3E0FF1216F6
:011A62005B28
:091A63002001FDEFD201F59B22E8
:0618FA00A3E0FCA3E0FDE9
:10190000AB07AA067F5A121A637FA5121A637F05D6
:10191000121A637F82121A63EAFF121A63AF03126C
:0C1920001A63ECFF121A63AF05021A6391
:10178900AD07AC067F5A121A637FA5121A637F0749
:10179900121A637F82121A63ECFF121A63AF0512E1
:1017A9001A637818121A527810121A52900077E0B8
:1017B900FCA3E0FDA3E0FEA3E0FF780812165B128C
:0D17C9001A63900077A3A3A3E0FF021A6348
:1019D800AD07AC067F5A121A637FA5121A637F04FB
:1019E800121A637F80121A637F03121A63ECFF12C4
:0719F8001A63AF05021A6338
:10172E00900058E0146011146016146022240370A7
:10173E0043EF645A70448010EFB4A502800A8035DE
:10174E00900047EFF0E4A3F0900058E004F02290F0
:10175E000048E02449F582E43400F583EFF0900070
:10176E0048E004F0900047E0FFA3E0C39F400B1257
:0B177E000046800100E4900058F022BB
:1000460090004DE0FEA3E0FDEDFF90004BE0FDB417
:100056000213D3EF9402EE940040027F0290000058
:10006600EFF0020265EDB40A07900001EF0201BB52
:1000760090004BE0FDB4031D900004E0FAA3E0FB02
:10008600C39FEA9E5004AE02AF03900002EEF0A3B7
:10009600EFF002038DEDB4041DD3EF9458EE9402F5
:1000A60040047E027F58900004EEF0A3EFF090002B
:1000B6002174030201BB90004BE0FDB405109000D3
:1000C60006EEF0A3EFF090002174030201BBEDB43D
:1000D6000610900008EEF0A3EFF0900021740302E2
:1000E60001BB90004BE0FDB4071090000AEEF0A3B0
:1000F600EFF090002174030201BBEDB408109000EC
:100106000CEEF0A3EFF090002174030201BB900007
:100116004BE0FDB4091090000EEEF0A3EFF0900056
:100126002174030201BBEDB4100F900010EEF0A392
:10013600EFF09000217403807C90004BE0FDB41139
:100146000F900012EEF0A3EFF0900021740380658B
:10015600EDB4120F900014EEF0A3EFF090002174AE
:1001660003805290004BE0FDB4130F900016EEF0A2
:10017600A3EFF09000217403803BEDB4140F9000C0
:1001860018EEF0A3EFF09000217403802890004B46
:10019600E0FDB4150F90001AEEF0A3EFF0900021E9
:1001A60074038011EDB4161190001CEEF0A3EFF06D
:1001B6009000217403F00202F090004BE0FFB417A8
:1001C60008B290900022020344EF64187067900012
:1001D60022F09000237402F0A312167A00000000A9
:1001E60090002812167A0000000090002C7402F08D
:1001F600A312167A0000000090003112167A000051
:1002060000009000357402F0A312167A0000000078
:1002160090003A12167A0000000090003E7402F038
:10022600A312167A0000000090004312167A00000E
:1002360000000202F090004BE0FF64197027900066
:100246001EE060030203D7900021E060030203D79B
:10025600900000E004F0E0D3940240037401F090B3
:100266000021020344EF642070030203D790004B81
:10027600E0FF642170030203D7EF642270030203D8
:10028600D7EF6423706D900022F09000237402F083
:10029600A312167A0000000090002812167A0000B9
:1002A600000090002C7402F0A312167A00000000E1
:1002B60090003112167A000000009000357402F0AA
:1002C600A312167A0000000090003A12167A000077
:1002D600000090003E7402F0A312167A000000009F
:1002E60090004312167A0000000090001E7401F080
:1002F6000203D790004BE0FFB4242490001EE06078
:10030600030203D7900000E014F0E0FED3940250FD
:1003160003EE70069000007401F0900021801FEF3C
:10032600B4252590001EE060030203D7900000E08C
:1003360004F0E0D3940240037402F09000217401AB
:10034600F090001EF00203D790004BE0FF64267089
:100356004390001EE0707A900003E024FFF09000C6
:1003660002E034FFF0900004E0FCA3E0FD90000200
:10037600E0FAA3E0FBD39DEA9C5004EB4A70089098
:100386000002E4F0A304F09000217402F090001E35
:1003960014F0803DEFB4273990001EE070339000D2
:1003A60003E004F07006900002E004F0900004E020
:1003B600FEA3E0FFD3900003E09F900002E09E4082
:1003C60005EEF0A3EFF09000217402F090001E14E9
:0303D600F0D20062
:0103D9002201
:10143500900022E0FD7C007F0F7E001219009000D5
:101445001FE0FCA3E0FD7F01121900900000E0FD04
:101455007C007F02121900A3E0FD7F0A1219007FAC
:10146500031218FA7F041218FAA3E0FCA3E0FD7F2B
:1014750005121900A3E0FCA3E0FD7F06121900A3E5
:10148500E0FCA3E0FD7F07121900A3E0FCA3E0FD4B
:101495007F08121900A3E0FCA3E0FD7F09121900E3
:1014A500A3E0FCA3E0FD7F10121900A3E0FCA3E07C
:1014B500FD7F11121900A3E0FCA3E0FD7F121219B4
:1014C50000A3E0FCA3E0FD7F13121900A3E0FCA339
:1014D500E0FD7F14121900A3E0FCA3E0FD7F1512C7
:0D14E5001900A3E0FCA3E0FD7F1602190032
:0418E70041007F003D
:1014F20090007FE014602014602C14700302159E8B
:10150200240360030215AA30A00630A1030215AB22
:1015120090007F7401F02230A00320A10790007F89
:101522007402F022807C20A03090001EE070669051
:101532000003E004F07006900002E004F090000462
:10154200E0FEA3E0FFD3900003E09F900002E09E44
:101552004038E4F0A304F0803120A13990001EE06D
:101562007033900003E004F07006900002E004F093
:10157200900004E0FEA3E0FFD3900003E09F900000
:1015820002E09E4005E4F0A304F09000217402F012
:1015920090001E14F090007F7403F02230A00A30F5
:0A15A200A107E490007FF022002270
:0418EB0041006A143A
:1011F90090006AE01460631470030212A91470036A
:101209000212EE1470030213352404600302136002
:10121900900023E06402600302136190002CE064F3
:10122900026003021361900035E064026003021357
:101239006190003EE064026003021361C294900071
:1012490023F0A312167A002DC6C090002812167A30
:1012590000000000121B4A02132E308003021361A2
:101269001218149000237402F0A312167A000000D9
:101279000090002812167A00000000C295E4900040
:101289002CF0A312167A002DC6C090003112167ADE
:1012990000000000121B4A90001E7401F002132E78
:1012A90030810302136112181490002C7402F0A308
:1012B90012167A0000000090003112167A00000020
:1012C90000C296E4900035F0A312167A002DC6C02C
:1012D90090003A12167A00000000121B5D90001E61
:1012E9007401F08040208270121852900035740207
:1012F900F0A312167A0000000090003A12167A0044
:10130900000000C297E490003EF0A312167A002D67
:10131900C6C090004312167A00000000121B5D90AF
:10132900001E7401F090006AE004F0222083291263
:10133900185290003E7402F0A312167A00000000C1
:1013490090004312167A0000000090001E7401F00C
:0913590090006A7414F0220022D5
:100FF30000000099030304500563063506C8072063
:1010030007460746072606F106AE0663061305C123
:101013000571052204D70490044D040D03D3039BEB
:1010230003670338030C02E202BB029802760257FD
:10103300023A021F020601EE01D801C401B0019D6C
:10104300018D017C016D015F015101440139012CC6
:1010530001230117010E010500FC00F400EC00E47C
:1010630000DD00D600CF00C900C300BE00B800B247
:1010730000AE00A800A400A0009B00A0009B009865
:101083000093008F008C008800850081007F007B27
:101093000078007600720071006D006B00690066D5
:1010A30000640062005F005E005C00590058005657
:1010B300005400530051004F004D004D004A0049B9
:1010C3000048004600450044004200410040003F04
:1010D300003E003C003C003A00390038003800363E
:1010E3000035003400340032003200310030002F6C
:1010F300002E002E002D002C002B002B0029002A8F
:1011030000280028002700270025002600240024AB
:101113000024002300220022002100210020001FC0
:101123000020001E001E001E001D001D001C001CD0
:10113300001B001B001A001A001A001900190018DE
:1011430000180017001700170017001600150015E8
:1011530000150015001400140013001400120013EE
:1011630000120012001200110011001000110010F3
:10117300000F0010000F000F000E000E000E000EF7
:10118300000E000D000D000C000C000D000B000CF8
:10119300000B000B000B000B000A000A000A0009F9
:1011A300000A0009000800090008000800080008F8
:1011B30000070008000600070007000600060006F7
:1011C30000050006000500050005000400050004F5
:1011D30000030004000400030003000300020002F4
:1011E30000030002000100020001000100010001F0
:0611F300000000000001F5
:0A18EF0042007B006442007D0064AB
:03000B000203DA13
:1003DA00C0E0C0F0C083C082C0D075D008900023AE
:1003EA00E0FF700320800EEF6401600302052E20F7
:0503FA00840302052E42
:1003FF00900028E0F8A3E0F9A3E0FAA3E0FB900057
:10040F0024E0FCA3E0FDA3E0FEA3E0C39BFFEE9A74
:10041F00FEED99FDEC98FC90006212166EE47F03DE
:10042F007E01FDFC900028E0F8A3E0F9A3E0FAA319
:10043F00E0FBC312164A502C900028A3A3E0FEA3A2
:10044F00E0900FF375F0021216ABEE25E02583F561
:10045F0083E493FE740193FF90007CE02FF09000F3
:10046F007BE03EF0E47F037E01FDFC900062E0F84C
:10047F00A3E0F9A3E0FAA3E0FBC312164A502D90B4
:10048F000062A3A3E0FEA3E0900FF375F002121633
:10049F00ABEE25E02583F583E493FE740193FFC350
:1004AF0090007CE09FF090007BE09EF0900028E0B1
:1004BF00FCA3E0FDA3E0FEA3E02401FFE43EFEE485
:1004CF003DFDE43CFC90002812166E900024E0FCE9
:1004DF00A3E0FDA3E0FEA3E0FFA3E0F8A3E0F9A3F0
:1004EF00E0FAA3E0FBC312164A4023C28C90007BB4
:1004FF00E4F0A37464F09000237402F0A312167A50
:10050F000000000090002812167A000000009000F2
:0C051F007BE0FEA3E0F58AEEF58CB2B4A0
:10052B0002070390002CE0FF700320810EEF6401A3
:0B053B006003020675208503020675B0
:10054600900031E0F8A3E0F9A3E0FAA3E0FB900005
:100556002DE0FCA3E0FDA3E0FEA3E0C39BFFEE9A23
:10056600FEED99FDEC98FC90006212166EE47F0396
:100576007E01FDFC900031E0F8A3E0F9A3E0FAA3C8
:10058600E0FBC312164A502C900031A3A3E0FEA351
:10059600E0900FF375F0021216ABEE25E02583F519
:1005A60083E493FE740193FF90007CE02FF09000AB
:1005B6007BE03EF0E47F037E01FDFC900062E0F804
:1005C600A3E0F9A3E0FAA3E0FBC312164A502D906C
:1005D6000062A3A3E0FEA3E0900FF375F0021216EB
:1005E600ABEE25E02583F583E493FE740193FFC308
:1005F60090007CE09FF090007BE09EF0900031E060
:10060600FCA3E0FDA3E0FEA3E02401FFE43EFEE43C
:100616003DFDE43CFC90003112166E90002DE0FC8E
:10062600A3E0FDA3E0FEA3E0FFA3E0F8A3E0F9A3A7
:10063600E0FAA3E0FBC312164A4023C28C90007B6B
:10064600E4F0A37464F090002C7402F0A312167AFE
:100656000000000090003112167A000000009000A1
:0C0666007BE0FEA3E0F58AEEF58CB2B557
:10067200020703900023E0FB700790001E740380C2
:1006820009EBB4012490001E7402F0C28C90007B2E
:10069200E4F0A37464F09000237402F0A312167ABB
:1006A20000000000900028805190002CE0FB702494
:1006B20090001E7403F0C28C90007BE4F0A374647B
:1006C200F090002C7402F0A312167A000000009041
:1006D20000318026EBB4012990001E7402F0C28C16
:1006E20090007BE4F0A37464F090002C7402F0A3F9
:1006F20012167A0000000090003112167A000000F3
:0C07020000D0D0D082D083D0F0D0E03204
:03001B0002070ECB
:10070E00C0E0C0F0C083C082C0D075D00890003564
:10071E00E0FF700320820EEF640160030208622086
:05072E008603020862D1
:1007330090003AE0F8A3E0F9A3E0FAA3E0FB90000D
:1007430036E0FCA3E0FDA3E0FEA3E0C39BFFEE9A2B
:10075300FEED99FDEC98FC90006612166EE47F03A3
:100763007E01FDFC90003AE0F8A3E0F9A3E0FAA3D0
:10077300E0FBC312164A502C90003AA3A3E0FEA359
:10078300E0900FF375F0021216ABEE25E02583F52A
:1007930083E493FE740193FF90007EE02FF09000BA
:1007A3007DE03EF0E47F037E01FDFC900066E0F80F
:1007B300A3E0F9A3E0FAA3E0FBC312164A502D907D
:1007C3000066A3A3E0FEA3E0900FF375F0021216F8
:1007D300ABEE25E02583F583E493FE740193FFC319
:1007E30090007EE09FF090007DE09EF090003AE064
:1007F300FCA3E0FDA3E0FEA3E02401FFE43EFEE44E
:100803003DFDE43CFC90003A12166E900036E0FC8D
:10081300A3E0FDA3E0FEA3E0FFA3E0F8A3E0F9A3B8
:10082300E0FAA3E0FBC312164A4023C28E90007D78
:10083300E4F0A37464F09000357402F0A312167A06
:100843000000000090003A12167A000000009000A9
:0C0853007DE0FEA3E0F58BEEF58DB2B663
:10085F00020A3790003EE0FF700320830EEF640121
:0B086F0060030209A92087030209A909
:10087A00900043E0F8A3E0F9A3E0FAA3E0FB9000BC
:10088A003FE0FCA3E0FDA3E0FEA3E0C39BFFEE9ADA
:10089A00FEED99FDEC98FC90006612166EE47F035B
:1008AA007E01FDFC900043E0F8A3E0F9A3E0FAA37F
:1008BA00E0FBC312164A502C900043A3A3E0FEA308
:1008CA00E0900FF375F0021216ABEE25E02583F5E2
:1008DA0083E493FE740193FF90007EE02FF0900072
:1008EA007DE03EF0E47F037E01FDFC900066E0F8C7
:1008FA00A3E0F9A3E0FAA3E0FBC312164A502D9035
:10090A000066A3A3E0FEA3E0900FF375F0021216AF
:10091A00ABEE25E02583F583E493FE740193FFC3D0
:10092A0090007EE09FF090007DE09EF0900043E012
:10093A00FCA3E0FDA3E0FEA3E02401FFE43EFEE405
:10094A003DFDE43CFC90004312166E90003FE0FC33
:10095A00A3E0FDA3E0FEA3E0FFA3E0F8A3E0F9A370
:10096A00E0FAA3E0FBC312164A4023C28E90007D30
:10097A00E4F0A37464F090003E7402F0A312167AB5
:10098A000000000090004312167A00000000900058
:0C099A007DE0FEA3E0F58BEEF58DB2B71A
:1009A600020A37900035E0FB700790001E74038042
:1009B60009EBB4012490001E7402F0C28E90007DF3
:1009C600E4F0A37464F09000357402F0A312167A72
:1009D6000000000090003A805190003EE0FB702439
:1009E60090001E7403F0C28E90007DE4F0A3746440
:1009F600F090003E7402F0A312167A0000000090F8
:100A060000438026EBB4012990001E7402F0C28ECA
:100A160090007DE4F0A37464F090003E7402F0A3AD
:100A260012167A0000000090004312167A000000A9
:0C0A360000D0D0D082D083D0F0D0E032CD
:101AE300438E805389F0758A64E4F58CC28DC28C71
:051AF300C2A9D2AF22E0
:101B4A00758A64E4F58C90007BF0A37464F0D2A9E2
:031B5A00D28C2208
:10181400C2A9C28C90007BE4F0A37464F09000230E
:101824007402F0A312167A00000000900028121629
:101834007A0000000090002C7402F0A312167A00C3
:0E18440000000090003112167A000000002211
:101AF800438E40538910758B64E4F58DC28FC28E76
:051B0800C2ABD2AF22C8
:101B5D00758B64E4F58D90007DF0A37464F0D2ABC9
:031B6D00D28E22F3
:10185200C28EC2AB90007DE4F0A37464F0900035B8
:101862007402F0A312167A0000000090003A1216D9
:101872007A0000000090003E7402F0A312167A0073
:0E18820000000090004312167A0000000022C1
:101B0D00D2A70000D2A60000000000C2A70000006E
:051B1D000000C2A62239
:101B3600C2A700D2A60000000000D2A70000000045
:041B460000C2A62211
:10198800121B0D7FA012001E1219A0EAFF12001EE2
:081998001219A0AF0312001E9A
:1019A000C2A7000000D2A60000000000C2A60000EE
:0119B0002214
:101B7000D2A7000000D2A60000000000C2A600000C
:011B80002242
:10001E007E08AD07C2A60000000000ED30E704D256
:10002E00A78002C2A7D2A6EF25E0FDFFDEE4C2A69E
:01003E00229F
:10195B00E4FFFE7D08D2A7C2A60000000000D2A6BD
:10196B000000000000EF30A7054401FF800354FE88
:0C197B00FFED146005EF25E0FEFFDDDB52
:01198700223D
:101AB600EFD394004011E4FDFC0DBD00010CED6474
:071AC6007D4C70F51F80E963
:011ACD0022F6
:101A8500AB07AA06AC05121988AF0412001E12197D
:091A9500A0121B367F05021AB6EF
:0419FF00AB07AA0682
:101A0300121988121B0D7FA112001E1219A01219A0
:091A13005BC2A6121B70121B3607
:011A1C0022A7
:1015B800021362E493A3F8E493A34003F68001F2D4
:1015C80008DFF48029E493A3F85407240CC8C33334
:1015D800C4540F4420C8834004F456800146F6DF03
:1015E800E4800B01020408102040809018C7E47EB4
:1015F800019360BCA3FF543F30E509541FFEE493F8
:10160800A360010ECF54C025E060A840B8E493A3BE
:10161800FAE493A3F8E493A3C8C582C8CAC583CAE9
:10162800F0A3C8C582C8CAC583CADFE9DEE780BEA1
:0118F90000EE
:10163800EF8DF0A4A8F0CF8CF0A428CE8DF0A42EC6
:02164800FE2280
:10164A00EB9FF5F0EA9E42F0E99D42F0E89C45F0F6
:01165A00226D
:10165B00E8600FECC313FCED13FDEE13FEEF13FF6D
:03166B00D8F12291
:0C166E00ECF0A3EDF0A3EEF0A3EFF022EF
:10167A00A8828583F0D083D0821216911216911215
:10168A001691121691E473E493A3C583C5F0C5833A
:10169A00C8C582C8F0A3C583C5F0C583C8C582C8BA
:0116AA00221D
:0C16AB00A42582F582E5F03583F583224A
:00000001FF
