:030000000218875C
:0C188700787FE4F6D8FD75817A0218CE57
:1012D200E4F566F567F5687FF47E0112001E1219C7
:1012E20092121E3D121DB7121DCCE4FFFE121D4EBE
:1012F2001208B75387DF0567E56770020566D39466
:1013020032E5669400400EE568B40109E4FFFE127E
:101312001D4EE4F568E5266402600AE53664026063
:10132200047F048011E526B40206E53664026004F7
:101332007F0680027F0A7E0012001EE58730E52AC2
:101342005387DF7F0A7E0012001EE58730E51B12FD
:101352001C8C121CBE5387DF12101DE58730E5047A
:10136200B29080FC121E1D121E2DE524B40106123D
:101372001B2E121B80120E8BE521B40105121A0BD3
:10138200804DE521B402047F068022E521B40304E6
:101392007F058019E521B404047F098010E521B49A
:1013A20005047F0A8007E521B406137F0B7E001235
:1013B2001D4EE4F566F567756801F5218014E52197
:1013C200C39407400DE521D3940C50061217F9E49B
:1013D200F521E522640160030212F87F04FE121D6A
:1013E2004E120046EF7F027003FE80027E00121D45
:0713F2004EE4F5220212F89F
:101DA200EF1FAC0670011E4C600A056AE56A70F00E
:041DB200056980EC53
:011DB600220A
:04001E00AB07AA067C
:10002200900000C3E5829BE5839A500A7FDE7E0141
:06003200121DA2A380EDE7
:0100380022A5
:1011A900E4F569F56A7F0A121DE17FFF7E01121DD0
:1011B90075EF64EE60030212CF7FFF7E05121D7585
:1011C900EF64EE60030212CFF56BF56CE4F56DF593
:1011D9006EAE6BAF6C7C007D50121913AC06AD0777
:1011E900E56E25E0FFE56D33FEED2FF570EC3EF57C
:1011F9006FAF70FE121D75EF7F00FEC007C006E5D8
:10120900702401FFE4356FFE121D75EFFDD0E0FC7F
:10121900D0E04DFDE56E25E0FFE56D33FE90000061
:1012290075F050E56C121986E56B75F050A42583AD
:10123900F583E5822FF582E5833EF583ECF0A3ED96
:10124900F0E42570FFE56F3404FE121D75EF7F0091
:10125900FEC007C006E5702401FFE56F3404FE12E5
:101269001D75EFFDD0E0FCD0E04DFDE56E25E0FFFA
:10127900E56D33FE9001E075F050E56C121986E5D5
:101289006B75F050A42583F583E5822FF582E583FC
:101299003EF583ECF0A3EDF0056EE56E7002056D89
:1012A900C39428E56D940050030211DA056CE56CCE
:1012B9007002056BC39406E56B940050030211D5C7
:0812C900756900756A01AF6A46
:0112D10022FA
:101992001211A9EF7064FDFCE4FBFAEB25E0FFEA0B
:1019A20033FE90000075F050ED121986EC75F05080
:1019B200A42583F583E5822FF582E5833EF583E452
:1019C200F0A3F09001E075F050ED121986EC75F07D
:1019D20050A42583F583E5822FF582E5833EF583C6
:1019E200E4F0A3F00BBB00010AEB64284A70AC0DD3
:1019F200BD00010CED64064C709E752401E4F523D4
:081A0200756501752101F52253
:011A0A0022B9
:10004600756900756A017F0A121DE1E4FFFE121D43
:10005600F57F0A121DE1E4F56BF56CE4F56DF56EBE
:10006600AE6BAF6C7C007D50121913AC06AD07E584
:100076006E25E0FFE56D33FEED2FF570EC3EF56F76
:10008600E56E25E0FFE56D33FE90000075F050E566
:100096006C121986E56B75F050A42583F583E5820D
:1000A6002FF582E5833EF583E0FDAF70AE6F121D3E
:1000B6008CE56E25E0FFE56D33FE90000075F0508F
:1000C600E56C121986E56B75F050A42583F583E57A
:1000D600822FF582E5833EF583A3E0FDE5702401DA
:1000E600FFE4356FFE121D8C056EE56E7002056D20
:1000F600C39428E56D94005003020066056CE56C18
:100106007002056BC39406E56B9400500302006110
:100116007DEE7FFF7E01121D8C7F0A121DE1E4F544
:100126006BF56CE4F56DF56EAE6BAF6C7C007D50D7
:10013600121913AC06AD07E56E25E0FFE56D33FE3B
:10014600ED2FF570EC3EF56FAF70FE121D75EF7F6B
:1001560000FEC007C006E5702401FFE4356FFE12FD
:100166001D75EFFDD0E0FCD0E04DFDE56E25E0FF0E
:10017600E56D33FE90000075F050E56C121986E5CA
:100186006B75F050A42583F583E5822FF582E58310
:100196003EF583E0FEA3E06D7002EE6C6005E4F5CB
:1001A60069F56A056EE56E7002056DC39428E56D06
:1001B6009400500302012E056CE56C7002056BC3BA
:1001C6009406E56B940050030201297F0A121DE193
:1001D6007F007E04121DF57F0A121DE1E4F56BF522
:1001E6006CE4F56DF56EAE6BAF6C7C007D5012194C
:1001F60013AC06AD07E56E25E0FFE56D33FEED2F8A
:10020600F570EC3EF56FE56E25E0FFE56D33FE908B
:1002160001E075F050E56C121986E56B75F050A497
:100226002583F583E5822FF582E5833EF583E0FDA0
:10023600E42570FFE56F3404FE121D8CE56E25E0A3
:10024600FFE56D33FE9001E075F050E56C121986FE
:10025600E56B75F050A42583F583E5822FF582E5DD
:10026600833EF583A3E0FDE5702401FFE56F3404CA
:10027600FE121D8C056EE56E7002056DC39428E5B1
:100286006D940050030201EC056CE56C7002056B81
:10029600C39406E56B940050030201E77DEE7FFFF1
:1002A6007E05121D8C7F0A121DE1E4F56BF56CE4E8
:1002B600F56DF56EAE6BAF6C7C007D50121913AC0C
:1002C60006AD07E56E25E0FFE56D33FEED2FF57013
:1002D600EC3EF56FE42570FFE56F3404FE121D75E4
:1002E600EF7F00FEC007C006E5702401FFE56F340E
:1002F60004FE121D75EFFDD0E0FCD0E04DFDE56E6D
:1003060025E0FFE56D33FE9001E075F050E56C12D7
:100316001986E56B75F050A42583F583E5822FF5E4
:1003260082E5833EF583E0FEA3E06D7002EE6C602D
:1003360005E4F569F56A056EE56E7002056DC39410
:1003460028E56D940050030202BA056CE56C700254
:10035600056BC39406E56B940050030202B5AF6AC1
:010366002274
:1008B7007FFF7E03121D75EF64EE6003020A3AFFA5
:1008C7007E02121D758F257F017E02121D758F26F0
:1008D7007402FFFE121D758F277F037E02121D759E
:1008E7008F347F147E02121D758F357F157E02129D
:1008F7001D758F367F167E02121D758F377F177E07
:1009070002121D758F447F287E02121D758F457F49
:10091700297E02121D758F467F2A7E02121D758F52
:10092700477F2B7E02121D758F547F3C7E02121D5E
:10093700758F557F3D7E02121D758F567F3E7E0255
:10094700121D758F577F3F7E02121D758F647F5270
:100957007E02121D759003CFEFF07F547E02121DA9
:10096700757E00EF7810C333CE33CED8F9FFC007BA
:10097700C0067F537E02121D757E00EF7818C333C1
:10098700CE33CED8F9FDD0E04EFED0E04DFFC00704
:10099700C0067F557E02121D75EFFCD0E04CFED0DD
:1009A700E0FFC007C0067F567E02121D75EFFDD01F
:1009B700E0FED0E04DFFE4FCFD9003D01219497F23
:1009C700577E02121D759003D4EFF07F597E0212F5
:1009D7001D757E00EF7810C333CE33CED8F9FFC034
:1009E70007C0067F587E02121D757E00EF7818C378
:1009F70033CE33CED8F9FDD0E04EFED0E04DFFC068
:100A070007C0067F5A7E02121D75EFFCD0E04CFE30
:100A1700D0E0FFC007C0067F5B7E02121D75EFFDA9
:100A2700D0E0FED0E04DFFE4FCFD9003D51219495C
:100A3700020AE3E4F525752602752701F52BF52A49
:100A4700F529F528F52FF52EF52DF52CF533F5328B
:100A5700F531F530F534F535753602753701F53B67
:100A6700F53AF539F538F53FF53EF53DF53CF543F3
:100A7700F542F541F540F544F545754602754701E0
:100A8700F54BF54AF549F548F54FF54EF54DF54C5B
:100A9700F553F552F551F550F554F5557556027560
:100AA7005701F55BF55AF559F558F55FF55EF55DB4
:100AB700F55CF563F562F561F560F5649003CF7455
:100AC70002F09003D0121955000000009003D4746F
:100AD70002F09003D512195500000000752101227C
:10101D007F007E02121DF57F037E0012001EAD259E
:10102D007F007E02121D8CAD267F017E02121D8C6B
:10103D00AD277402FFFE121D8CAD347F037E0212AC
:10104D001D8CAD357F147E02121D8CAD367F157E45
:10105D0002121D8CAD377F167E02121D8CAD447FA2
:10106D00177E02121D8CAD457F287E02121D8CADA0
:10107D00467F297E02121D8CAD477F2A7E02121DEE
:10108D008CAD547F2B7E02121D8CAD557F3C7E02A4
:10109D00121D8CAD567F3D7E02121D8CAD577F3ECD
:1010AD007E02121D8CAD647F3F7E02121D8C90035B
:1010BD00CFE0FD7F527E02121D8C9003D0E0FCA389
:1010CD00E0FDA3E0FEA3E0FF7818121936AD077F0F
:1010DD00537E02121D8C9003D0E0FCA3E0FDA3E033
:1010ED00FEA3E0FF7810121936AD077F547E021271
:1010FD001D8C9003D0E0FCA3E0FDA3E0FEA3E0FF78
:10110D007808121936AD077F557E02121D8C90039B
:10111D00D0A3A3A3E0FD7F567E02121D8C9003D4B5
:10112D00E0FD7F577E02121D8C9003D5E0FCA3E0FD
:10113D00FDA3E0FEA3E0FF7818121936AD077F5826
:10114D007E02121D8C9003D5E0FCA3E0FDA3E0FE12
:10115D00A3E0FF7810121936AD077F597E02121DDC
:10116D008C9003D5E0FCA3E0FDA3E0FEA3E0FF78A7
:10117D0008121936AD077F5A7E02121D8C9003D5C9
:10118D00A3A3A3E0FD7F5B7E02121D8C7DEE7FFF8E
:0C119D007E03121D8C7F0A7E0002001EE3
:101DE100AE071FEE600DE4FCFD0DED70010C4C60C3
:031DF100EF80F68A
:011DF40022CC
:0D000E00E4F5C7F5C5F5C675C380F5C4223D
:101D750075C78375C5018FC48EC375C65A75C6A54B
:061D850000AFC212000EC7
:011D8B002235
:101D8C0075C78375C5028FC48EC38DC275C65A754F
:061D9C00C6A50002000EC6
:101DF50075C78375C5038FC48EC375C65A75C6A5C9
:041E05000002000EC9
:101D1F00C1004F03C0FFFFFFFFFFFFFFFFFFFFFFEC
:0D1D2F00FFFFFFFF011C00011B00011A0057
:0F1E3D00759A50759CFD438E1475AF01D2AF227C
:03004300021CF0AC
:101CF000C0E0C0F0C083C082C0D075D008E59A3083
:101D0000E008539AFEAF9B121BD2E59A30E10553CF
:0F1D10009AFDC201D0D0D082D083D0F0D0E03283
:0B1E0900AF15AE14AD13AC1212193669
:091E14002001FDEFD201F59B2233
:061C5A002401FDEE33FC45
:101C6000AB07AA067F5A121E147FA5121E147F0509
:101C7000121E147F82121E14AF02121E14AF031222
:0C1C80001E14AF04121E14AF05021E1447
:101C1900AD07AC067F5A121E147FA5121E147F074A
:101C2900121E147F82121E14AF04121E14AF051265
:101C39001E147818121E097810121E09AF15AE1459
:101C4900AD13AC127808121936121E14AF15021E04
:011C59001476
:101D4E00AD07AC067F5A121E147FA5121E147F0417
:101D5E00121E147F80121E147F03121E14AF041263
:071D6E001E14AF05021E1454
:101BD200E51C14601214601714601C24037033EFA8
:101BE200645A7032051C22BFA503051C2280248F73
:101BF2001AE4F51B051C2274C0251BF582E434038C
:101C0200F583EFF0051BE51BC3951A4009120CED95
:071C1200800100E4F51C2233
:100CED009003C4E0FEA3E0FDEEF571EDF572900307
:100CFD00C2E0FFB4070EE51F64146003020E88F511
:100D0D001F020E88EFB40806752401020DADEF64C5
:100D1D000A6003020DB3F524F5257526027527012A
:100D2D00F52BF52AF529F528F52FF52EF52DF52CB2
:100D3D00F533F532F531F530F534F5357536027597
:100D4D003701F53BF53AF539F538F53FF53EF53D0B
:100D5D00F53CF543F542F541F540F544F54575464D
:100D6D0002754701F54BF54AF549F548F54FF54E36
:100D7D00F54DF54CF553F552F551F550F554F55536
:100D8D00755602755701F55BF55AF559F558F55F2E
:100D9D00F55EF55DF55CF563F562F561F560F5649D
:100DAD00752101020E889003C2E0B40C0FE5246496
:100DBD00016003020E88121627020E889003C2E00E
:100DCD00B40E0FE52464016003020E881213F902BC
:100DDD000E889003C2E0B4100FE524640160030295
:100DED000E88121A7A020E889003C2E0FFB41E0616
:100DFD00752201020E88EF64207003020E88EFB495
:100E0D008411E565B401057565028003756501E51D
:100E1D00238013EFC394124013EFD3941C500DEFA6
:100E2D0024EEC313F5232407F521804F9003C2E070
:100E3D00FFC3942E4045EFD3947C503FE56575F08C
:100E4D0050B4010DE523A42400F582E5F0340080B3
:100E5D000BE523A424E0F582E5F03401F583C0838E
:100E6D00C0829003C2E024D2C313D082D08375F028
:0D0E7D0002121986E571F0A3E572F0D200B3
:010E8A002245
:1017F900E4FDFC7F22FE121C607F24121C607F2600
:10180900121C607F28121C607F2A121C607F2C1218
:101819001C60E52325E0FFEE33FEEF2422FFE43EC2
:10182900FE0D121C60E565FD7F857E00121C60E4DB
:10183900F569E565640175F050700DE523A4240090
:10184900F582E5F03400800BE523A424E0F582E578
:10185900F03401F58375F002E569121986E0FCA3FD
:10186900E0FDE56925E0FFE433FEEF242EFFE43EC9
:0D187900FE121C600569E569C3942840B5A6
:01188600223F
:101A0B00E524FD7C00E4FFFE121C60E565FD7F858F
:101A1B00121C60E5347F01121C5AE5447F02121C34
:101A2B005AE5252401FDEE33FC7F03121C60E535DE
:101A3B002401FDEE33FC7F05121C60E5542401FDEF
:101A4B00EE33FC7F80121C60E5642401FDEE33FC59
:101A5B007F81121C60E5452401FDEE33FC7F821271
:0F1A6B001C60E5552401FDEE33FC7F83021C60F7
:061D3C00011D00011E0064
:101B2E00E51D1460171460211460382403704130D1
:101B3E008206308303208439751D012230820630DF
:101B4E008303208427751D0222208205121627800A
:101B5E000E2083051213F98006208403121A7A755B
:101B6E001D032230820B308308308405E4F51D22DC
:021B7E00002243
:101B8000E51E14601714602114603824037041307E
:101B9000870630A00320A139751E01223087063048
:101BA000A00320A127751E0222208705121710808E
:101BB0000E20A005121510800620A103121AD4755C
:101BC0001E032230870B30A00830A105E4F51E2249
:021BD0000022F1
:031D4200011F146A
:100E8B00E51F147003020F11147003020F5A147034
:100E9B0003020FA2147003020FEB24046003021071
:100EAB001BE5266402600302101CE5366402600336
:100EBB0002101CE5466402600302101CE556640236
:100ECB00600302101CE5256535600302101CE54527
:100EDB006555600302101CE5346544600302101C69
:100EEB00E5546564600302101CC294F526752BC093
:100EFB00752AC675292DF528F52FF52EF52DF52C10
:100F0B00121E1D051F2230800302101C121C8CE4C4
:100F1B00F525752602752701F52BF52AF529F528F8
:100F2B00F52FF52EF52DF52CF533F532F531F53092
:100F3B00F534C295F536753BC0753AC675392DF546
:100F4B0038F53FF53EF53DF53C121E1D020FE53021
:100F5B00810302101C121C8CE4F5357536027537B3
:100F6B0001F53BF53AF539F538F53FF53EF53DF52D
:100F7B003CF543F542F541F540F544C296F546750F
:100F8B004BC0754AC675492DF548F54FF54EF54DD5
:100F9B00F54C121E2D8043208577121CBEE4F545BF
:100FAB00754602754701F54BF54AF549F548F54F7E
:100FBB00F54EF54DF54CF553F552F551F550F554FD
:100FCB00C297F556755BC0755AC675592DF558F510
:100FDB005FF55EF55DF55C121E2D752101051F2277
:100FEB0020862E121CBEE4F555755602755701F579
:100FFB005BF55AF559F558F55FF55EF55DF55CF562
:10100B0063F562F561F560F564752101751F1422B6
:02101B000022B1
:10162700E5266402600302170CE5366402600302D4
:10163700170CE5256535600302170CE53465446032
:101647000302170CE53430E003021708D29475261D
:10165700019003CF7401F0E4F52775F050E534A449
:101667002400F582E5F03400F58375F002E52512D4
:101677001986A3E025E0FF0582D58202158315822E
:10168700E033FEE48F2B8E2AF529F528AD29AC2807
:101697009003D0121949E4F52FF52EF52DF52C7589
:1016A700F050E534A42400F582E5F03400F58375A5
:1016B700F002E525121986E0FEA3E0FFE4FCFDE554
:1016C700332FF533E5323EF532ED3531F531EC3573
:1016D70030F53075F050E534A42402F582E5F03496
:1016E70000F58375F002E525121986E0FEA3E04EAA
:1016F70070060534F52580020525121E1D7521018A
:091707002275210522752106223C
:1013F900E5266402600302150CE536640260030207
:10140900150CE5256535600302150CE53465446066
:101419000302150CE53420E003021508C294E4F533
:10142900269003CFF075F050E534A42400F582E549
:10143900F03400F58375F002E525121986A3E0253D
:10144900E0FF0582D5820215831582E033FEE48F21
:101459002B8E2AF529F528AD29AC289003D012192D
:1014690049E4F52FF52EF52DF52C75F050E534A44A
:101479002400F582E5F03400F58375F002E52512C4
:101489001986E0FEA3E0FFFBAA06C3E5339BF5330B
:10149900E5329AF532E5319400F531E5309400F5FD
:1014A9003075F050E534A42402F582E5F03400F5F6
:1014B9008375F002E525121986E0FEA3E04E703629
:1014C900752701F5250534E534D394054005E4F580
:1014D90034802575F050E534A42400F582E5F03414
:1014E90000F58375F002E525121986E0FEA3E04EAA
:1014F9007006F53480020525121E1D75210122751D
:0715090021042275210622D6
:101A7A00E52664027053E5366402704DE525B535F6
:101A8A0006E534654460429003CFE0FF24FF929557
:101A9A008525358F36852737A3E0FCA3E0FDA3E033
:101AAA00FEA3E0F53B8E3A8D398C38E4F53FF53EDE
:101ABA00F53DF53C853343853242853141853040D9
:0A1ACA00853444121E1D752101220F
:10171000E546640260030217F5E5566402600302C1
:1017200017F5E545655560030217F5E554656460F6
:10173000030217F5E55430E0030217F1D29675461F
:10174000019003D47401F0E4F54775F050E554A41A
:1017500024E0F582E5F03401F58375F002E54512E9
:101760001986A3E025E0FF0582D582021583158244
:10177000E033FEE48F4B8E4AF549F548AD49AC485D
:101780009003D5121949E4F54FF54EF54DF54C751A
:10179000F050E554A424E0F582E5F03401F58375BA
:1017A000F002E545121986E0FEA3E0FFE4FCFDE54A
:1017B000532FF553E5523EF552ED3551F551EC35C9
:1017C00050F55075F050E554A424E2F582E5F0346C
:1017D00001F58375F002E545121986E0FEA3E04E9F
:1017E00070060554F54580020545121E2D75210130
:0917F00022752105227521062253
:10151000E54664026003021623E556640260030296
:101520001623E54565556003021623E5546564609E
:1015300003021623E55420E00302161FC296E4F5C9
:10154000469003D4F075F050E554A424E0F582E50C
:10155000F03401F58375F002E545121986A3E02504
:10156000E0FF0582D5820215831582E033FEE48F09
:101570004B8E4AF549F548AD49AC489003D5121950
:1015800049E4F54FF54EF54DF54C75F050E554A492
:1015900024E0F582E5F03401F58375F002E54512AB
:1015A0001986E0FEA3E0FFFBAA06C3E5539BF553B3
:1015B000E5529AF552E5519400F551E5509400F545
:1015C0005075F050E554A424E2F582E5F03401F5BD
:1015D0008375F002E545121986E0FEA3E04E7036F1
:1015E000754701F5450554E554D394054005E4F5E8
:1015F00054802575F050E554A424E0F582E5F034DC
:1016000001F58375F002E545121986E0FEA3E04E70
:101610007006F55480020545121E2D7521012275B4
:0716200021042275210622BE
:101AD400E54664027053E5566402704DE545B5551C
:101AE40006E554656460429003D4E0FF24FF9297B6
:101AF4008545558F56854757A3E0FCA3E0FDA3E039
:101B0400FEA3E0F55B8E5A8D598C58E4F55FF55EC3
:101B1400F55DF55C8553638552628551618550603E
:0A1B2400855464121E2D7521012264
:100AE70000000099030304500563063506C8072074
:100AF70007460746072606F106AE0663061305C135
:100B07000571052204D70490044D040D03D3039BFC
:100B170003670338030C02E202BB0298027602570E
:100B2700023A021F020601EE01D801C401B0019D7D
:100B3700018D017C016D015F015101440139012CD7
:100B470001230117010E010500FC00F400EC00E48D
:100B570000DD00D600CF00C900C300BE00B800B258
:100B670000AE00A800A400A0009B00A0009B009876
:100B77000093008F008C008800850081007F007B38
:100B87000078007600720071006D006B00690066E6
:100B970000640062005F005E005C00590058005668
:100BA700005400530051004F004D004D004A0049CA
:100BB7000048004600450044004200410040003F15
:100BC700003E003C003C003A00390038003800364F
:100BD7000035003400340032003200310030002F7D
:100BE700002E002E002D002C002B002B0029002AA0
:100BF70000280028002700270025002600240024BD
:100C07000024002300220022002100210020001FD1
:100C17000020001E001E001E001D001D001C001CE1
:100C2700001B001B001A001A001A001900190018EF
:100C370000180017001700170017001600150015F9
:100C470000150015001400140013001400120013FF
:100C57000012001200120011001100100011001004
:100C6700000F0010000F000F000E000E000E000E08
:100C7700000E000D000D000C000C000D000B000C09
:100C8700000B000B000B000B000A000A000A00090A
:100C9700000A000900080009000800080008000809
:100CA7000007000800060007000700060006000608
:100CB7000005000600050005000500040005000406
:100CC7000003000400040003000300030002000205
:100CD7000003000200010002000100010001000101
:060CE70000000000000106
:081D450002160064021800649C
:03000B0002036786
:10036700C0E0C0F0C083C082C0D075D008E5267059
:100377000320800FE5266401600302046D20A203B9
:0303870002046D00
:10038A00C3E52B952FF576E52A952EF575E5299582
:10039A002DF574E528952CF573E47F037E01FDFCA9
:1003AA00AB2FAA2EA92DA82CC31219255022900AC8
:1003BA00E775F002E52F121986E52E25E02583F56B
:1003CA0083E493FE7401932517F517EE3516F51697
:1003DA00E47F037E01FDFCAB76AA75A974A873C3FA
:1003EA001219255025900AE775F002E5761219864A
:1003FA00E57525E02583F583E493FE740193FFC335
:10040A00E5179FF517E5169EF516E52F2401F52F3A
:10041A00E4352EF52EE4352DF52DE4352CF52CAFEB
:10042A002BAE2AAD29AC28AB2FAA2EA92DF8C312C0
:10043A0019254023C28C7516007517647526027536
:10044A002B00752A00752900752800752F00752E56
:10045A0000752D00752C0085178AE516F58CB2B447
:10046A00020604E536700320810FE5366401600355
:09047A0002056620A303020566D9
:10048300C3E53B953FF576E53A953EF575E5399538
:100493003DF574E538953CF573E47F037E01FDFC7F
:1004A300AB3FAA3EA93DA83CC31219255022900A8E
:1004B300E775F002E53F121986E53E25E02583F551
:1004C30083E493FE7401932517F517EE3516F5169D
:1004D300E47F037E01FDFCAB76AA75A974A873C300
:1004E3001219255025900AE775F002E57612198650
:1004F300E57525E02583F583E493FE740193FFC33B
:10050300E5179FF517E5169EF516E53F2401F53F20
:10051300E4353EF53EE4353DF53DE4353CF53CAF91
:100523003BAE3AAD39AC38AB3FAA3EA93DF8C31256
:1005330019254023C28C751600751764753602752C
:100543003B00753A00753900753800753F00753EFC
:1005530000753D00753C0085178AE516F58CB2B52C
:10056300020604E526701F752103C28CF516751764
:1005730064752602F52BF52AF529F528F52FF52EB6
:10058300F52DF52C807BE526B40128752102C28C5C
:10059300751600751764752602752B00752A00758C
:1005A3002900752800752F00752E00752D00752CF8
:1005B30000804EE536701F752103C28CF516751742
:1005C30064753602F53BF53AF539F538F53FF53EF6
:1005D300F53DF53C802BE536B40126752102C28C2E
:1005E300751600751764753602753B00753A00750C
:1005F3003900753800753F00753E00753D00753C48
:0C06030000D0D0D082D083D0F0D0E03204
:03001B0002060FCB
:10060F00C0E0C0F0C083C082C0D075D008E546708E
:10061F000320850FE5466401600302071520A4033C
:03062F00020715AA
:10063200C3E54B954FF57AE54A954EF579E549952F
:100642004DF578E548954CF577E47F037E01FDFC96
:10065200AB4FAA4EA94DA84CC31219255022900A9D
:10066200E775F002E54F121986E54E25E02583F580
:1006720083E493FE7401932519F519EE3518F518E4
:10068200E47F037E01FDFCAB7AAA79A978A877C33F
:100692001219255025900AE775F002E57A1219869B
:1006A200E57925E02583F583E493FE740193FFC386
:1006B200E5199FF519E5189EF518E54F2401F54F48
:1006C200E4354EF54EE4354DF54DE4354CF54CAF81
:1006D2004BAE4AAD49AC48AB4FAA4EA94DF8C31236
:1006E20019254023C28E7518007519647546027566
:1006F2004B00754A00754900754800754F00754EEC
:1007020000754D00754C0085198BE518F58DB2B654
:100712000208ACE556700320860FE55664016003BB
:0907220002080E20A50302080ED6
:10072B00C3E55B955FF57AE55A955EF579E55995E5
:10073B005DF578E558955CF577E47F037E01FDFC6C
:10074B00AB5FAA5EA95DA85CC31219255022900A63
:10075B00E775F002E55F121986E55E25E02583F566
:10076B0083E493FE7401932519F519EE3518F518EA
:10077B00E47F037E01FDFCAB7AAA79A978A877C345
:10078B001219255025900AE775F002E57A121986A1
:10079B00E57925E02583F583E493FE740193FFC38C
:1007AB00E5199FF519E5189EF518E55F2401F55F2E
:1007BB00E4355EF55EE4355DF55DE4355CF55CAF27
:1007CB005BAE5AAD59AC58AB5FAA5EA95DF8C312CC
:1007DB0019254023C28E751800751964755602755C
:1007EB005B00755A00755900755800755F00755E92
:1007FB0000755D00755C0085198BE518F58DB2B73A
:10080B000208ACE546701F752103C28EF5187519E9
:10081B0064754602F54BF54AF549F548F54FF54E2B
:10082B00F54DF54C807BE546B40128752102C28E4F
:10083B00751800751964754602754B00754A00757D
:10084B004900754800754F00754E00754D00754C8D
:10085B0000804EE556701F752103C28EF518751971
:10086B0064755602F55BF55AF559F558F55FF55E6B
:10087B00F55DF55C802BE556B40126752102C28E21
:10088B00751800751964755602755B00755A0075FD
:10089B005900755800755F00755E00755D00755CDD
:0C08AB0000D0D0D082D083D0F0D0E0325A
:101DB700438E805389F0758A64E4F58CC28DC28C9A
:051DC700C2A9D2AF2209
:101E1D00758A64E4F58CF516751764D2A9D28C22F7
:101C8C00C2A9C28C751600751764752602E4F52B73
:101C9C00F52AF529F528F52FF52EF52DF52C7536A9
:101CAC0002F53BF53AF539F538F53FF53EF53DF5DE
:021CBC003C22C8
:101DCC00438E40538910758B64E4F58DC28FC28E9F
:051DDC00C2ABD2AF22F2
:101E2D00758B64E4F58DF518751964D2ABD28E22DD
:101CBE00C28EC2AB751800751964754602E4F54BF9
:101CCE00F54AF549F548F54FF54EF54DF54C755677
:101CDE0002F55BF55AF559F558F55FF55EF55DF5CC
:021CEE005C2276
:101893000212D2E493A3F8E493A34003F68001F287
:1018A30008DFF48029E493A3F85407240CC8C33356
:1018B300C4540F4420C8834004F456800146F6DF25
:1018C300E4800B0102040810204080901D1FE47E79
:1018D300019360BCA3FF543F30E509541FFEE4931A
:1018E300A360010ECF54C025E060A840B8E493A3E1
:1018F300FAE493A3F8E493A3C8C582C8CAC583CA0C
:10190300F0A3C8C582C8CAC583CADFE9DEE780BEC3
:011D4D000095
:10191300EF8DF0A4A8F0CF8CF0A428CE8DF0A42EE8
:02192300FE22A2
:10192500EB9FF5F0EA9E42F0E99D42F0E89C45F018
:01193500228F
:10193600E8600FECC313FCED13FDEE13FEEF13FF8F
:03194600D8F122B3
:0C194900ECF0A3EDF0A3EEF0A3EFF02211
:10195500A8828583F0D083D08212196C12196C127B
:10196500196C12196CE473E493A3C583C5F0C583A0
:10197500C8C582C8F0A3C583C5F0C583C8C582C8DC
:01198500223F
:0C198600A42582F582E5F03583F583226C
:00000001FF
