:030000000217796B
:0C177900787FE4F6D8FD7581200217C0CF
:1014E500E4900059F0A3F0A3F07FD07E07121BD53E
:1014F500121805121DA5121D07121D1C7F017E0065
:10150500121BFC1219FA5387DF7F0A7E00121BD5C6
:1015150090005AE004F07006900059E004F0D39072
:10152500005AE094F4900059E09401401390005B58
:10153500E0B4010C7F017E00121BFCE490005BF01F
:10154500E58730E52EB2905387DF7F0A7E00121BB8
:10155500D5E58730E51DB290121A38121A765387F1
:10156500DF121AB4E58730E504B29080FC121D6ED7
:10157500121D81900022E0B401031219AF12137CF1
:10158500900021E0B403177F057E00121BFC120DAD
:1015950070E4900021F07F03FE121BFC801B90007D
:1015A50021E0B40105121C5C8007900021E0B40223
:1015B50008120A46E4900021F090001EE0B40105EF
:1015C50012160D801890001EE0B402197F087E00E7
:1015D500121BFCE4900059F0A3F0A304F0E4900082
:1015E5001EF002150E90001EE06403600302150E46
:1015F5007F07FE121BFCE4900059F0A3F0A304F052
:08160500E490001EF002150E36
:101C4100EF1FAC0670011E4C601090005FE004F0C5
:0A1C510070EE90005EE004F080E603
:011C5B002266
:081BD50090005CEEF0A3EFF0BC
:101BDD00E4FBFAD390005DE09B90005CE09A400E30
:0E1BED007FDE7E01121C410BBB00010A80E569
:011BFB0022C7
:10180500E4FFFE121C23900000EFF0900002E4F0CC
:10181500A304F090000104F0120A46EF7053900003
:101825000004F090000404F0A37458F0A3E4F0A3BE
:101835007464F0A3E4F0A374C8F0A37401F0A37476
:101845002CF0A37401F0A37490F0A374FFF0A3141B
:10185500F0A3747FF0A374FFF0A3F0A3F0A3F0A3AB
:10186500F0A3F0A3F0A3F0A3F0A3F0A3F0A3F0A3DB
:10187500F09000227401F0C29190001EF0E49000F7
:0318850021F0222D
:101C5C0090005CE4F0A304F0900000E0FDE4FFFED3
:091C6C00121CA990005CA3E0FF2A
:011C7500224C
:100D700090005CE4F0A304F0900000E0FF7E007CB3
:100D8000387D42121888EF24C0FFEE34C7FE900071
:100D90005EF0A3EFF0900004E0FD121CA990005F4C
:100DA000E02401FF90005EE03400FE900004A3E028
:100DB000FD121CA9900002E0FEA3E0FF7C007D185C
:100DC00012188890005FE02FFF90005EE03ECF2475
:100DD000EACF34FFFE900060F0A3EFF0900006E051
:100DE000FD121CA9900061E02401FF900060E03436
:100DF00000FE900006A3E0FD121CA9900061E02413
:100E000002FF900060E03400FE900008E0FD121C3C
:100E1000A9900061E02403FF900060E03400FE90A0
:100E20000008A3E0FD121CA9900061E02404FF90DB
:100E30000060E03400FE90000AE0FD121CA9900062
:100E400061E02405FF900060E03400FE90000AA3FA
:100E5000E0FD121CA9900061E02406FF900060E014
:100E60003400FE90000CE0FD121CA9900061E0240B
:100E700007FF900060E03400FE90000CA3E0FD123C
:100E80001CA9900061E02408FF900060E03400FE9F
:100E900090000EE0FD121CA9900061E02409FF9073
:100EA0000060E03400FE90000EA3E0FD121CA9904B
:100EB0000061E0240AFF900060E03400FE90001022
:100EC000E0FD121CA9900061E0240BFF900060E09F
:100ED0003400FE900010A3E0FD121CA9900061E018
:100EE000240CFF900060E03400FE900012E0FD1240
:100EF0001CA9900061E0240DFF900060E03400FE2A
:100F0000900012A3E0FD121CA9900061E0240EFFE6
:100F1000900060E03400FE900014E0FD121CA990E7
:100F20000061E0240FFF900060E03400FE900014A8
:100F3000A3E0FD121CA9900061E02410FF90006066
:100F4000E03400FE900016E0FD121CA9900061E064
:100F50002411FF900060E03400FE900016A3E0FD35
:100F6000121CA9900061E02412FF900060E03400A0
:100F7000FE900018E0FD121CA9900061E02413FF10
:100F8000900060E03400FE900018A3E0FD121CA960
:100F9000900061E02414FF900060E03400FE9000B7
:100FA0001AE0FD121CA9900061E02415FF9000607A
:100FB000E03400FE90001AA3E0FD121CA99000612D
:100FC000E02416FF900060E03400FE90001CE0FD7D
:100FD000121CA9900061E02417FF900060E034002B
:100FE000FE90001CA3E0FD121CA990005CA3E0FF92
:010FF00022DE
:100A460090005CE4F0A304F0900000E0FF7E007CE0
:100A5600387D42121888EF24C0FFEE34C7FE90009E
:100A66005EF0A3EFF0121C23EF7F00FEC007C00666
:100A760090005FE02401FF90005EE03400FE121C4F
:100A860023EFFDD0E0FFD0E04D900004CFF0A3EFC0
:100A9600F0900002E0FEA3E0FF7C007D18121888AB
:100AA60090005FE02FFF90005EE03ECF24EACF3457
:100AB600FFFE900060F0A3EFF0121C23EF7F00FE14
:100AC600C007C006900061E02401FF900060E0349A
:100AD60000FE121C23EFFDD0E0FFD0E04D90000693
:100AE600CFF0A3EFF0900061E02402FF900060E0F9
:100AF6003400FE121C23EF7F00FEC007C0069000E4
:100B060061E02403FF900060E03400FE121C23EF36
:100B1600FDD0E0FFD0E04D900008CFF0A3EFF090BD
:100B26000061E02404FF900060E03400FE121C2304
:100B3600EF7F00FEC007C006900061E02405FF902D
:100B46000060E03400FE121C23EFFDD0E0FFD0E091
:100B56004D90000ACFF0A3EFF0900061E02406FF6D
:100B6600900060E03400FE121C23EF7F00FEC007F9
:100B7600C006900061E02407FF900060E03400FEAC
:100B8600121C23EFFDD0E0FFD0E04D90000CCFF01B
:100B9600A3EFF0900061E02408FF900060E03400CD
:100BA600FE121C23EF7F00FEC007C006900061E026
:100BB6002409FF900060E03400FE121C23EFFDD0F4
:100BC600E0FFD0E04D90000ECFF0A3EFF090006173
:100BD600E0240AFF900060E03400FE121C23EF7F41
:100BE60000FEC007C006900061E0240BFF90006085
:100BF600E03400FE121C23EFFDD0E0FFD0E04D9064
:100C06000010CFF0A3EFF0900061E0240CFF9000FD
:100C160060E03400FE121C23EF7F00FEC007C00612
:100C2600900061E0240DFF900060E03400FE121C8D
:100C360023EFFDD0E0FFD0E04D900012CFF0A3EF00
:100C4600F0900061E0240EFF900060E03400FE1298
:100C56001C23EF7F00FEC007C006900061E0240F52
:100C6600FF900060E03400FE121C23EFFDD0E0FF91
:100C7600D0E04D900014CFF0A3EFF0900061E02497
:100C860010FF900060E03400FE121C23EF7F00FE90
:100C9600C007C006900061E02411FF900060E034B8
:100CA60000FE121C23EFFDD0E0FFD0E04D900016B1
:100CB600CFF0A3EFF0900061E02412FF900060E017
:100CC6003400FE121C23EF7F00FEC007C006900012
:100CD60061E02413FF900060E03400FE121C23EF55
:100CE600FDD0E0FFD0E04D900018CFF0A3EFF090DC
:100CF6000061E02414FF900060E03400FE121C2323
:100D0600EF7F00FEC007C006900061E02415FF904B
:100D16000060E03400FE121C23EFFDD0E0FFD0E0BF
:100D26004D90001ACFF0A3EFF0900061E02416FF7B
:100D3600900060E03400FE121C23EF7F00FEC00727
:100D4600C006900061E02417FF900060E03400FECA
:100D5600121C23EFFDD0E0FFD0E04D90001CCFF039
:090D6600A3EFF090005CA3E0FF94
:010D6F002261
:1019FA007F0A121D467FFF7E01121CC2BFAA277FE3
:101A0A00087E00121CC2EF7F00FEC007C0067F09D5
:101A1A007E00121CC2EFFDD0E0FFD0E04D90001F07
:0E1A2A00CFF0A3EFF022E490001FF0A3F02213
:101AB4007F0A121D46E4FFFE121CF27F0A121D4625
:101AC40090001FE0FD7F087E00121C9090001FA371
:101AD400E0FD7F097E00121C907DAA7FFF7E01122B
:071AE4001C907F0A021D4661
:101D4600AE071FEE600DE4FCFD0DED70010C4C605E
:031D5600EF80F625
:011D59002267
:0D000E00E4F5C7F5C5F5C675C380F5C4223D
:101CC20075C78375C5018FC4EEF5C375C65A75C64F
:071CD200A500AFC212000ED5
:011CD90022E8
:101C900075C78375C5028FC4EEF5C3AF058FC275D6
:091CA000C65A75C6A50002000E2B
:101CF20075C78375C5038FC4EEF5C375C65A75C61D
:051D0200A50002000E27
:101AEB00C1004F0049FFFFFFFFFFFFFFFFFFFFFF9D
:101AFB00FFFFFFFF41005800410048004100470035
:0F1DA500759A50759CFD438E1475AF01D2AF2215
:03004300021B504D
:101B5000C0E0C0F0C083C082C0D075D008E59A3024
:101B6000E008539AFEAF9B121907E59A30E105533E
:0F1B70009AFDC201D0D0D082D083D0F0D0E03225
:101C760090006CE0FCA3E0FDA3E0FEA3E0FF1218D9
:011C8600ABB2
:091C87002001FDEFD201F59B22C2
:061B1E00A3E0FCA3E0FDC2
:101B2400AB07AA067F5A121C877FA5121C877F0564
:101B3400121C877F82121C87EAFF121C87AF0312D4
:0C1B44001C87ECFF121C87AF05021C87F9
:10196200AD07AC067F5A121C877FA5121C877F0722
:10197200121C877F82121C87ECFF121C87AF051294
:101982001C877818121C767810121C7690006CE076
:10199200FCA3E0FDA3E0FEA3E0FF78081218AB125F
:0D19A2001C8790006CA3A3A3E0FF021C872C
:101BFC00AD07AC067F5A121C877FA5121C877F0489
:101C0C00121C877F80121C877F03121C87ECFF122B
:071C1C001C87AF05021C87C5
:10190700900058E0146011146016146022240370CC
:1019170043EF645A70448010EFB4A502800A803503
:10192700900047EFF0E4A3F0900058E004F0229015
:101937000048E02449F582E43400F583EFF0900095
:1019470048E004F0900047E0FFA3E0C39F400B127C
:0B1957000046800100E4900058F022E0
:1000460090004DE0FEA3E0FDEDFF90004BE0FDB417
:100056000213D3EF9402EE940040027F0290000058
:10006600EFF00201F2EDB40A05900001803C900029
:100076004BE0FDB4031D900004E0FAA3E0FBC39F30
:10008600EA9E5004AE02AF03900002EEF0A3EFF03A
:10009600020317EDB40417D3EF9458EE940240040C
:1000A6007E027F58900004EEF0A3EF02036D9000ED
:1000B6004BE0FDB405059000068075EDB40605908D
:1000C6000008806C90004BE0FDB4070590000A80A4
:1000D6005FEDB4080590000C805690004BE0FDB42F
:1000E600090590000E8049EDB4100590001080407F
:1000F60090004BE0FDB411059000128033EDB41270
:1001060005900014802A90004BE0FDB41305900082
:1001160016801DEDB41405900018801490004BE075
:10012600FDB4150590001A8007EDB4160B90001C5F
:10013600EEF0A3EFF00203DB90004BE0FFB41708EC
:10014600C2919000220202CBEF64187075900022D3
:10015600F0D2919000237402F0A31218CA00000096
:10016600009000281218CA0000000090002C7402AB
:10017600F0A31218CA000000009000311218CA003D
:100186000000009000357402F0A31218CA000000A7
:100196000090003A1218CA0000000090003E740257
:1001A600F0A31218CA000000009000431218CA00FB
:1001B600000000900002E4F0A304F0900021040285
:1001C600035890004BE0FF6419702790001EE06012
:1001D600030203DB900021E060030203DB900000D2
:1001E600E004F0E0D3940240037401F09000210291
:1001F60002CBEF642070030203DB90004BE0FF6448
:100206002170030203DBEF642270030203DBEF6459
:10021600237067900022F09000237402F0A3121856
:10022600CA000000009000281218CA0000000090C2
:10023600002C7402F0A31218CA00000000900031CE
:100246001218CA000000009000357402F0A31218BC
:10025600CA0000000090003A1218CA000000009080
:10026600003E7402F0A31218CA000000009000437A
:100276001218CA000000000203C690004BE0FFB44B
:10028600242490001EE060030203DB900000E014CB
:10029600F0E0FED394025003EE7006900000740165
:1002A600F0900021801FEFB4252590001EE060032A
:1002B6000203DB900000E004F0E0D39402400374F4
:1002C60002F09000217401F090001EF00203DB9012
:1002D600004BE0FF6426704090001EE060030203BE
:1002E600DB900003E024FFF0900002E034FFF09082
:1002F6000004E0FCA3E0FD900002E0FAA3E0FBD3DB
:100306009DEA9C5004EB4A7008900002E4F0A304B6
:10031600F09000217402803AEFB4273E90001EE070
:1003260060030203DB900003E004F0700690000215
:10033600E004F0900004E0FEA3E0FFD3900003E0A9
:100346009F900002E09E4005EEF0A3EFF0900021A2
:100356007402F090001E14F0807B90004BE0FFB416
:1003660028089000217403F08056EFB4292AE490FF
:10037600000EF0A3F0A3F0A3F0A3F0A3F0A3F0A364
:10038600F0A3F0A3F0A3F0A3F0A3F0A3F0A3F0A3CF
:10039600F090001E04F0803DEFB4302C74FF900006
:1003A6000EF0A3F0A3F0A3F0A3F0A3F0A3F0A3F044
:1003B600A3F0A3F0A3F0A3F0A3F0A3F0A3F0A3F09F
:1003C60090001E7401F0800DEFB43109900075E0C5
:0703D600B41402E4F0D200B0
:0103DD0022FD
:10160D00900022E0FD7C007F0F7E00121B249000D5
:10161D001FE0FCA3E0FD7F0E121B24900000E0FDF7
:10162D007C007F02121B24A3E0FD7F0A121B247F86
:10163D0003121B1E7F04121B1EA3E0FCA3E0FD7F03
:10164D0005121B24A3E0FCA3E0FD7F06121B24A3BF
:10165D00E0FCA3E0FD7F07121B24A3E0FCA3E0FD4B
:10166D007F08121B24A3E0FCA3E0FD7F09121B24BD
:10167D00A3E0FCA3E0FD7F10121B24A3E0FCA3E07C
:10168D00FD7F11121B24A3E0FCA3E0FD7F12121BB2
:10169D0024A3E0FCA3E0FD7F13121B24A3E0FCA315
:1016AD00E0FD7F14121B24A3E0FCA3E0FD7F1512C7
:0D16BD001B24A3E0FCA3E0FD7F16021B240C
:041B0B004100740021
:1019AF00900074E0146017146021146030240370E9
:1019BF003830A00320A1339000747401F02230A0BE
:1019CF000320A11F9000747402F02220A002800354
:1019DF0020A1031211F79000747403F02230A00AB3
:0B19EF0030A107E4900074F0220022F9
:1011F7001216CA900023E06402600302129A90005C
:101207002CE06402600302129A900006E0FEA3E05D
:10121700FF4E6036D3EF94FFEE947F400FC294E405
:10122700900023F0E49FFFE49EFE8010D29490008C
:10123700237401F0900006E0FEA3E0FFE4FCFD90BC
:1012470000241218BE900028803F900008E0FEA3FB
:10125700E0FF4E603ED3EF94FFEE947F400FC296BF
:10126700E490002CF0E49FFFE49EFE8010D296905D
:10127700002C7401F0900008E0FEA3E0FFE4FCFD01
:1012870090002D1218BE9000311218CA00000000FD
:10129700121D6E900035E06402600302133A90005D
:1012A7003EE06402600302133A90000AE0FEA3E006
:1012B700FF4E6036D3EF94FFEE947F400FC2B3E446
:1012C700900035F0E49FFFE49EFE8010D2B39000BB
:1012D700357401F090000AE0FEA3E0FFE4FCFD9006
:1012E70000361218BE90003A803F90000CE0FEA333
:1012F700E0FF4E603ED3EF94FFEE947F400FC2B500
:10130700E490003EF0E49FFFE49EFE8010D2B5908B
:10131700003E7401F090000CE0FEA3E0FFE4FCFD4A
:1013270090003F1218BE9000431218CA0000000038
:10133700121D81900003E004F07006900002E004A3
:10134700F0900004E0FEA3E0FFD3900003E09F903D
:101357000002E09E4013E4F0A304F0900020E004B4
:10136700F0700690001FE004F09000217402F090E6
:05137700001E14F0222D
:041B0F004100751408
:10137C00900075E014606314700302142C14700355
:10138C000214711470030214B8240460030214E3F1
:10139C00900023E0640260030214E490002CE064EB
:1013AC000260030214E4900035E06402600302144E
:1013BC00E490003EE0640260030214E4C2949000E6
:1013CC0023F0A31218CA002DC6C09000281218CA08
:1013DC0000000000121D6E0214B13080030214E4F0
:1013EC00121A389000237402F0A31218CA000000DD
:1013FC00009000281218CA00000000C296E4900069
:10140C002CF0A31218CA002DC6C09000311218CAB5
:10141C0000000000121D6E90001E7401F00214B149
:10142C003081030214E4121A3890002C7402F0A3D9
:10143C001218CA000000009000311218CA000000F7
:10144C0000C2B3E4900035F0A31218CA002DC6C038
:10145C0090003A1218CA00000000121D8190001E64
:10146C007401F08040208270121A7690003574025C
:10147C00F0A31218CA0000000090003A1218CA001B
:10148C00000000C2B5E490003EF0A31218CA002D73
:10149C00C6C09000431218CA00000000121D8190B3
:1014AC00001E7401F0900075E004F02220832912D4
:1014BC001A7690003E7402F0A31218CA00000000C5
:1014CC009000431218CA0000000090001E7401F036
:0914DC009000757414F022002246
:1016CA00E4FDE490005CF0C2A3ED25E0240EF5826F
:1016DA00E43400F583E033B392A5D2A3ED25E024E8
:1016EA000EF582E43400F583C083C082A3E025E0CE
:1016FA00FF0582D5820215831582E033D082D0831A
:10170A00F0A3EFF090005CE004F0E0B410B90DED46
:10171A00B404AFC2A4D2A47D04E490005CF0C2B0C9
:10172A00ED25E0240EF582E43400F583E033B3922C
:10173A00B2D2B0ED25E0240EF582E43400F583C080
:10174A0083C082A3E025E0FF0582D58202158315B6
:10175A0082E033D082D083F0A3EFF090005CE00403
:0E176A00F0E0B410B90DEDB408AFC2B1D2B1C9
:01177800224E
:100FF10000000099030304500563063506C8072065
:1010010007460746072606F106AE0663061305C125
:101011000571052204D70490044D040D03D3039BED
:1010210003670338030C02E202BB029802760257FF
:10103100023A021F020601EE01D801C401B0019D6E
:10104100018D017C016D015F015101440139012CC8
:1010510001230117010E010500FC00F400EC00E47E
:1010610000DD00D600CF00C900C300BE00B800B249
:1010710000AE00A800A400A0009B00A0009B009867
:101081000093008F008C008800850081007F007B29
:101091000078007600720071006D006B00690066D7
:1010A10000640062005F005E005C00590058005659
:1010B100005400530051004F004D004D004A0049BB
:1010C1000048004600450044004200410040003F06
:1010D100003E003C003C003A003900380038003640
:1010E1000035003400340032003200310030002F6E
:1010F100002E002E002D002C002B002B0029002A91
:1011010000280028002700270025002600240024AD
:101111000024002300220022002100210020001FC2
:101121000020001E001E001E001D001D001C001CD2
:10113100001B001B001A001A001A001900190018E0
:1011410000180017001700170017001600150015EA
:1011510000150015001400140013001400120013F0
:1011610000120012001200110011001000110010F5
:10117100000F0010000F000F000E000E000E000EF9
:10118100000E000D000D000C000C000D000B000CFA
:10119100000B000B000B000B000A000A000A0009FB
:1011A100000A0009000800090008000800080008FA
:1011B10000070008000600070007000600060006F9
:1011C10000050006000500050005000400050004F7
:1011D10000030004000400030003000300020002F6
:1011E10000030002000100020001000100010001F2
:0611F100000000000001F7
:0A1B1300420070006442007200649A
:03000B000203DE0F
:1003DE00C0E0C0F0C083C082C0D075D008900023AA
:1003EE00E0FF700320800EEF6401600302053220EF
:0503FE0084030205323A
:10040300900028E0F8A3E0F9A3E0FAA3E0FB900052
:1004130024E0FCA3E0FDA3E0FEA3E0C39BFFEE9A70
:10042300FEED99FDEC98FC9000621218BEE47F0388
:100433007E01FDFC900028E0F8A3E0F9A3E0FAA315
:10044300E0FBC312189A502C900028A3A3E0FEA34C
:10045300E0900FF175F0021218FBEE25E02583F50D
:1004630083E493FE740193FF900071E02FF09000FA
:1004730070E03EF0E47F037E01FDFC900062E0F853
:10048300A3E0F9A3E0FAA3E0FBC312189A502D905E
:100493000062A3A3E0FEA3E0900FF175F00212182F
:1004A300FBEE25E02583F583E493FE740193FFC3FC
:1004B300900071E09FF0900070E09EF0900028E0C3
:1004C300FCA3E0FDA3E0FEA3E02401FFE43EFEE481
:1004D3003DFDE43CFC9000281218BE900024E0FC93
:1004E300A3E0FDA3E0FEA3E0FFA3E0F8A3E0F9A3EC
:1004F300E0FAA3E0FBC312189A4023C28C90007069
:10050300E4F0A37464F09000237402F0A31218CAF9
:10051300000000009000281218CA0000000090009C
:0C05230070E0FEA3E0F58AEEF58CB295C6
:10052F0002070790002CE0FF700320810EEF64019B
:0B053F006003020679208503020679A4
:10054A00900031E0F8A3E0F9A3E0FAA3E0FB900001
:10055A002DE0FCA3E0FDA3E0FEA3E0C39BFFEE9A1F
:10056A00FEED99FDEC98FC9000621218BEE47F0340
:10057A007E01FDFC900031E0F8A3E0F9A3E0FAA3C4
:10058A00E0FBC312189A502C900031A3A3E0FEA3FB
:10059A00E0900FF175F0021218FBEE25E02583F5C5
:1005AA0083E493FE740193FF900071E02FF09000B2
:1005BA0070E03EF0E47F037E01FDFC900062E0F80B
:1005CA00A3E0F9A3E0FAA3E0FBC312189A502D9016
:1005DA000062A3A3E0FEA3E0900FF175F0021218E7
:1005EA00FBEE25E02583F583E493FE740193FFC3B4
:1005FA00900071E09FF0900070E09EF0900031E072
:10060A00FCA3E0FDA3E0FEA3E02401FFE43EFEE438
:10061A003DFDE43CFC9000311218BE90002DE0FC38
:10062A00A3E0FDA3E0FEA3E0FFA3E0F8A3E0F9A3A3
:10063A00E0FAA3E0FBC312189A4023C28C90007020
:10064A00E4F0A37464F090002C7402F0A31218CAA8
:10065A00000000009000311218CA0000000090004B
:0C066A0070E0FEA3E0F58AEEF58CB2977C
:10067600020707900023E0FB700790001E740380BA
:1006860009EBB4012490001E7402F0C28C90007035
:10069600E4F0A37464F09000237402F0A31218CA65
:1006A60000000000900028805190002CE0FB702490
:1006B60090001E7403F0C28C900070E4F0A3746482
:1006C600F090002C7402F0A31218CA0000000090EB
:1006D60000318026EBB4012990001E7402F0C28C12
:1006E600900070E4F0A37464F090002C7402F0A300
:1006F6001218CA000000009000311218CA0000004B
:0C07060000D0D0D082D083D0F0D0E03200
:03001B00020712C7
:10071200C0E0C0F0C083C082C0D075D00890003560
:10072200E0FF700320820EEF64016003020866207E
:050732008603020866C9
:1007370090003AE0F8A3E0F9A3E0FAA3E0FB900009
:1007470036E0FCA3E0FDA3E0FEA3E0C39BFFEE9A27
:10075700FEED99FDEC98FC9000661218BEE47F034D
:100767007E01FDFC90003AE0F8A3E0F9A3E0FAA3CC
:10077700E0FBC312189A502C90003AA3A3E0FEA303
:10078700E0900FF175F0021218FBEE25E02583F5D6
:1007970083E493FE740193FF900073E02FF09000C1
:1007A70072E03EF0E47F037E01FDFC900066E0F816
:1007B700A3E0F9A3E0FAA3E0FBC312189A502D9027
:1007C7000066A3A3E0FEA3E0900FF175F0021218F4
:1007D700FBEE25E02583F583E493FE740193FFC3C5
:1007E700900073E09FF0900072E09EF090003AE076
:1007F700FCA3E0FDA3E0FEA3E02401FFE43EFEE44A
:100807003DFDE43CFC90003A1218BE900036E0FC37
:10081700A3E0FDA3E0FEA3E0FFA3E0F8A3E0F9A3B4
:10082700E0FAA3E0FBC312189A4023C28E9000722D
:10083700E4F0A37464F09000357402F0A31218CAB0
:100847000000000090003A1218CA00000000900053
:0C08570072E0FEA3E0F58BEEF58DB2B46C
:10086300020A3B90003EE0FF700320830EEF640119
:0B08730060030209AD2087030209ADFD
:10087E00900043E0F8A3E0F9A3E0FAA3E0FB9000B8
:10088E003FE0FCA3E0FDA3E0FEA3E0C39BFFEE9AD6
:10089E00FEED99FDEC98FC9000661218BEE47F0305
:1008AE007E01FDFC900043E0F8A3E0F9A3E0FAA37B
:1008BE00E0FBC312189A502C900043A3A3E0FEA3B2
:1008CE00E0900FF175F0021218FBEE25E02583F58E
:1008DE0083E493FE740193FF900073E02FF0900079
:1008EE0072E03EF0E47F037E01FDFC900066E0F8CE
:1008FE00A3E0F9A3E0FAA3E0FBC312189A502D90DF
:10090E000066A3A3E0FEA3E0900FF175F0021218AB
:10091E00FBEE25E02583F583E493FE740193FFC37C
:10092E00900073E09FF0900072E09EF0900043E024
:10093E00FCA3E0FDA3E0FEA3E02401FFE43EFEE401
:10094E003DFDE43CFC9000431218BE90003FE0FCDD
:10095E00A3E0FDA3E0FEA3E0FFA3E0F8A3E0F9A36C
:10096E00E0FAA3E0FBC312189A4023C28E900072E5
:10097E00E4F0A37464F090003E7402F0A31218CA5F
:10098E00000000009000431218CA00000000900002
:0C099E0072E0FEA3E0F58BEEF58DB2B622
:1009AA00020A3B900035E0FB700790001E7403803A
:1009BA0009EBB4012490001E7402F0C28E900072FA
:1009CA00E4F0A37464F09000357402F0A31218CA1C
:1009DA000000000090003A805190003EE0FB702435
:1009EA0090001E7403F0C28E900072E4F0A3746447
:1009FA00F090003E7402F0A31218CA0000000090A2
:100A0A0000438026EBB4012990001E7402F0C28EC6
:100A1A00900072E4F0A37464F090003E7402F0A3B4
:100A2A001218CA000000009000431218CA00000001
:0C0A3A0000D0D0D082D083D0F0D0E032C9
:101D0700438E805389F0758A64E4F58CC28DC28C4A
:051D1700C2A9D2AF22B9
:101D6E00758A64E4F58C900070F0A37464F0D2A9C7
:031D7E00D28C22E2
:101A3800C2A9C28C900070E4F0A37464F0900023F3
:101A48007402F0A31218CA000000009000281218AF
:101A5800CA0000000090002C7402F0A31218CA00FB
:0E1A68000000009000311218CA000000002299
:101D1C00438E40538910758B64E4F58DC28FC28E4F
:051D2C00C2ABD2AF22A2
:101D8100758B64E4F58D900072F0A37464F0D2ABAE
:031D9100D28E22CD
:101A7600C28EC2AB900072E4F0A37464F09000359D
:101A86007402F0A31218CA0000000090003A12185F
:101A9600CA0000000090003E7402F0A31218CA00AB
:0E1AA6000000009000431218CA000000002249
:101D3100D2A60000D2A70000000000C2A600000049
:051D41000000C2A72212
:101D5A00C2A600D2A70000000000D2A60000000020
:041D6A0000C2A722EA
:101BAC00121D317FA012001E121BC4EAFF12001E70
:081BBC00121BC4AF0312001E4E
:101BC400C2A6000000D2A70000000000C2A70000C7
:011BD40022EE
:101D9400D2A6000000D2A70000000000C2A70000E5
:011DA400221C
:10001E007E08AD07C2A70000000000ED30E704D255
:10002E00A68002C2A6D2A7EF25E0FDFFDEE4C2A79E
:01003E00229F
:101B7F00E4FFFE7D08D2A6C2A70000000000D2A796
:101B8F000000000000EF30A6054401FF800354FE63
:0C1B9F00FFED146005EF25E0FEFFDDDB2C
:011BAB002217
:101CDA00EFD394004011E4FDFC0DBD00010CED644E
:071CEA007D4C70F51F80E93D
:011CF10022D0
:101CA900AB07AA06AC05121BACAF0412001E121B2F
:091CB900C4121D5A7F0F021CDA4F
:041C2300AB07AA065B
:101C2700121BAC121D317FA112001E121BC4121B06
:091C37007FC2A7121D94121D5A70
:011C40002281
:101785000214E5E493A3F8E493A34003F68001F281
:1017950008DFF48029E493A3F85407240CC8C33365
:1017A500C4540F4420C8834004F456800146F6DF34
:1017B500E4800B0102040810204080901AEBE47EBF
:1017C500019360BCA3FF543F30E509541FFEE49329
:1017D500A360010ECF54C025E060A840B8E493A3F0
:1017E500FAE493A3F8E493A3C8C582C8CAC583CA1B
:1017F500F0A3C8C582C8CAC583CADFE9DEE780BED3
:011B1D0000C7
:10188800EF8DF0A4A8F0CF8CF0A428CE8DF0A42E74
:02189800FE222E
:10189A00EB9FF5F0EA9E42F0E99D42F0E89C45F0A4
:0118AA00221B
:1018AB00E8600FECC313FCED13FDEE13FEEF13FF1B
:0318BB00D8F1223F
:0C18BE00ECF0A3EDF0A3EEF0A3EFF0229D
:1018CA00A8828583F0D083D0821218E11218E1121F
:1018DA0018E11218E1E473E493A3C583C5F0C58344
:1018EA00C8C582C8F0A3C583C5F0C583C8C582C868
:0118FA0022CB
:0C18FB00A42582F582E5F03583F58322F8
:00000001FF
