:030000000208E112
:0C08E100787FE4F6D8FD7581200209281C
:0100090022D4
:10096D007FF47E01120BA6120844120C9C120C4E41
:10097D00120C63E4FFFE120BCD900005120AA400C9
:10098D00007D00900009120AA4000000001200036F
:10099D00900015120AA400000C80900019120AA4F0
:1009AD0000000000120006900000E0FFC39402401A
:1009BD000EEFD3940750081209F1E4900000F09067
:1009CD000204E0B401E17F047E00120BCD12024C53
:1009DD00EF7F027003FE80027E00120BCDE49002C9
:0409ED0004F080C3CF
:100BED00EF1FAC0670011E4C6010900219E004F06E
:0A0BFD0070EE900218E004F080E6AC
:010C070022CA
:080BA600900216EEF0A3EFF03F
:100BAE00E4FBFAD3900217E09B900216E09A400EF7
:0E0BBE007FDE7E01120BED0BBB00010A80E50D
:010BCC002206
:1006A700E4900216F0A3F07F0A120C787FFF7E0118
:1006B700120C21EF64EE600302079F900218F0A36B
:1006C700F0E490021AF0A3F090021AE0FAA3E0FB1C
:1006D700C39428EA94004003020777900218E0FECB
:1006E700A3E0FF7C007D50120A75AC06AD07EB2531
:1006F700E0FFEA33FEED2FFFEC3EFE90021CF0A375
:10070700EFF0120C21EF7F00FEC007C00690021D1C
:10071700E02401FF90021CE03400FE120C21EFFDE3
:10072700D0E0FCD0E04DFD90021BE025E0FF9002F9
:100737001AE033FE900218E0FAA3E090002275F069
:1007470050120AD5EA75F050A42583F583E5822F68
:10075700F582E5833EF583ECF0A3EDF090021BE014
:1007670004F060030206CF90021AE004F00206CFFD
:10077700900219E004F07006900218E004F0C390AC
:100787000219E09406900218E0940050030206C88C
:0E079700900216E4F0A304F0900216A3E0FF17
:0107A5002231
:100844001206A7EF7043FDFCE4FBFAEB25E0FFEA98
:1008540033FE90002275F050ED120AD5EC75F0507D
:10086400A42583F583E5822FF582E5833EF583E4B1
:10087400F0A3F00BBB00010AEB64284A70CD0DBD58
:1008840000010CED64064C70BFE4900002F0A3F08C
:10089400A304F0A3120AA400000000900009120AA5
:1008A400A40000000090000D120AA400000000E45F
:1008B400900011F0A3F0A3F0A304F0A3120AA40083
:1008C400000000900019120AA40000000090001D0E
:0C08D400120AA400000000E4900021F0D3
:0108E00022F5
:10024C00900216E4F0A304F07F0A120C78E4FFFE8F
:10025C00120C397F0A120C78E4900218F0A3F0E427
:10026C0090021AF0A3F0900218E0FAA3E0FB7C00D5
:10027C007D50FFAE02120A75AC06AD0790021BE072
:10028C0025E0FF90021AE033FEED2FFFEC3E9002CA
:10029C001CF0A3EFF090021BE025E0FF90021AE0A7
:1002AC0033FE90002275F050EB120AD5EA75F0502F
:1002BC00A42583F583E5822FF582E5833EF583E063
:1002CC00FD90021CE0FEA3E0FF120C0890021BE064
:1002DC0025E0FF90021AE033FE900218E0FCA3E048
:1002EC0090002275F050120AD5EC75F050A42583BD
:1002FC00F583E5822FF582E5833EF583A3E0FD903F
:10030C00021DE02401FF90021CE03400FE120C08D8
:10031C0090021BE004F0700690021AE004F0C39007
:10032C00021BE0942890021AE0940050030202721F
:10033C00900219E004F07006900218E004F0C390EB
:10034C000219E09406900218E09400500302026B2C
:10035C007DEE7FFF7E01120C087F0A120C78E49070
:10036C000218F0A3F0E490021AF0A3F090021AE045
:10037C00FAA3E0FBC39428EA9400400302042A90F9
:10038C000218E0FEA3E0FF7C007D50120A75AC065B
:10039C00AD07EB25E0FFEA33FEED2FFFEC3EFE90C0
:1003AC00021CF0A3EFF0120C21EF7F00FEC007C07F
:1003BC000690021DE02401FF90021CE03400FE12A6
:1003CC000C21EFFDD0E0FCD0E04DFD90021BE025B0
:1003DC00E0FF90021AE033FE900218E0FAA3E090DE
:1003EC00002275F050120AD5EA75F050A42583F559
:1003FC0083E5822FF582E5833EF583E0FEA3E06D75
:10040C007002EE6C6007E4900216F0A3F090021BF1
:10041C00E004F0700690021AE004F00203789002F7
:10042C0019E004F07006900218E004F0C390021971
:10043C00E09406900218E0940050030203719002BD
:04044C0016A3E0FF14
:010450002289
:100C7800AE071FEE600DE4FCFD0DED70010C4C603D
:030C8800EF80F604
:010C8B002246
:0D000E00E4F5C7F5C5F5C675C380F5C4223D
:100C210075C78375C5018FC4EEF5C375C65A75C600
:070C3100A500AFC212000E86
:010C38002299
:100C080075C78375C5028FC4EEF5C3AF058FC2756E
:090C1800C65A75C6A50002000EC3
:100C390075C78375C5038FC4EEF5C375C65A75C6E6
:050C4900A50002000EF1
:100B4000C100410204004F0206FFFFFFFFFFFFFF4D
:100B5000FFFFFFFFFFFFFFFF4102150041020500FD
:040B6000410203004B
:0F0C9C00759A50759CFD438E1475AF01D2AF222F
:03004300020B7736
:100B7700C0E0C0F0C083C082C0D075D008E59A300D
:100B8700E008539AFEAF9B120AE1E59A30E105535C
:0F0B97009AFDC201D0D0D082D083D0F0D0E0320E
:070C8C007F5A120C937FA5B3
:090C93002001FDEFD201F59B22C6
:10001E00AB07AA06120C8C7F05120C937F82120C72
:10002E0093EAFF120C93AF03120C93ECFF120C9396
:05003E00AF05020C9368
:100BCD00AD07AC06120C8C7F04120C937F80120CB7
:100BDD00937F03120C93ECFF120C93AF05020C9351
:100AE100900215E014601114601614602424037040
:100AF10047EF645A70488012EFB4A502800C803928
:100B0100900203EFF0E4900205F0900215E004F08A
:100B110022900205E02406F582E43402F583EFF029
:100B2100900205E004F0900203E0FF900205E0C3AB
:0F0B31009F400B1207A6800100E4900215F022EE
:1007A60090020AE0FEA3E0FDEDFF900208E0FD6482
:1007B600067003020841ED64087003020841ED6407
:1007C6000A6078ED640C6073ED6410606EEDB41E23
:1007D600089002047401F08062ED6420605DEDC350
:1007E6009412401AEDD3941C5014900208E024EEA3
:1007F600C313900202F02402900000F0803D9002A4
:1008060008E0FDC3942E4033EDD3947C502D900226
:1008160002E075F050A42422F582E5F03400F58359
:10082600C083C082900208E024D2C313D082D08352
:0D08360075F002120AD5EEF0A3EFF0D2002B
:010843002292
:1009F100E4FDFC7F22FE12001E7F2412001E7F26D2
:100A010012001E7F2812001E7F2A12001E7F2C1248
:100A1100001E900202E025E0FFEE33FEEF2422FFEC
:100A2100E43EFE0D12001EE4900216F0900202E078
:100A310075F050A42422F582E5F03400F583C083DB
:100A4100C082900216E0FFD082D08375F002120AB4
:100A5100D5E0FCA3E0FDEF25E0FFE433FEEF242E1B
:100A6100FFE43EFE12001E900216E004F0E0C39483
:030A71002840B961
:010A7400225F
:01000A0022D3
:040B640041022F001B
:010CAB002226
:0E0B680042022900004202270000410226142A
:010CAC002225
:1000460000000099030304500563063506C807201F
:1000560007460746072606F106AE0663061305C1E0
:100066000571052204D70490044D040D03D3039BA8
:1000760003670338030C02E202BB029802760257BA
:10008600023A021F020601EE01D801C401B0019D29
:10009600018D017C016D015F015101440139012C83
:1000A60001230117010E010500FC00F400EC00E439
:1000B60000DD00D600CF00C900C300BE00B800B204
:1000C60000AE00A800A400A0009B00A0009B009822
:1000D6000093008F008C008800850081007F007BE4
:1000E6000078007600720071006D006B0069006692
:1000F60000640062005F005E005C00590058005614
:10010600005400530051004F004D004D004A004975
:100116000048004600450044004200410040003FC0
:10012600003E003C003C003A0039003800380036FA
:100136000035003400340032003200310030002F28
:10014600002E002E002D002C002B002B0029002A4B
:100156000028002800270027002500260024002468
:100166000024002300220022002100210020001F7D
:100176000020001E001E001E001D001D001C001C8D
:10018600001B001B001A001A001A0019001900189B
:1001960000180017001700170017001600150015A5
:1001A60000150015001400140013001400120013AB
:1001B60000120012001200110011001000110010B0
:1001C600000F0010000F000F000E000E000E000EB4
:1001D600000E000D000D000C000C000D000B000CB5
:1001E600000B000B000B000B000A000A000A0009B6
:1001F600000A0009000800090008000800080008B5
:1002060000070008000600070007000600060006B3
:1002160000050006000500050005000400050004B1
:1002260000030004000400030003000300020002B0
:1002360000030002000100020001000100010001AC
:06024600000000000001B1
:03000B000204519B
:0D045100C0E0C0F0C083C082C0D075D008EC
:10045E00900009E0F8A3E0F9A3E0FAA3E0FB900016
:10046E0005E0FCA3E0FDA3E0FEA3E0C39BFFEE9A34
:10047E00FEED99FDEC98FC90021E120A98E47F03A3
:10048E007E01FDFC900009E0F8A3E0F9A3E0FAA3D9
:10049E00E0FBC3120A87502C900009A3A3E0FEA331
:1004AE00E090004675F002120AD5EE25E02583F5A0
:1004BE0083E493FE740193FF90022CE02FF09002E0
:1004CE002BE03EF0E47F037E01FDFC90021EE0F87F
:1004DE00A3E0F9A3E0FAA3E0FBC3120A87502D9024
:1004EE00021EA3A3E0FEA3E090004675F002120ADE
:1004FE00D5EE25E02583F583E493FE740193FFC3C7
:10050E0090022CE09FF090022BE09EF0900009E00C
:10051E00FCA3E0FDA3E0FEA3E02401FFE43EFEE425
:10052E003DFDE43CFC900009120A98900005E0FCA9
:10053E00A3E0FDA3E0FEA3E0FFA3E0F8A3E0F9A390
:10054E00E0FAA3E0FBC3120A87700AC28C90022B5A
:10055E00F0A37464F090022BE0FEA3E0F58AEEF5B2
:03056E008CB2A6A6
:0B057100D0D0D082D083D0F0D0E03298
:03001B0002057C5F
:0D057C00C0E0C0F0C083C082C0D075D008C0
:10058900900019E0F8A3E0F9A3E0FAA3E0FB9000DA
:1005990015E0FCA3E0FDA3E0FEA3E0C39BFFEE9AF8
:1005A900FEED99FDEC98FC900222120A98E47F0373
:1005B9007E01FDFC900019E0F8A3E0F9A3E0FAA39D
:1005C900E0FBC3120A87502C900019A3A3E0FEA3F5
:1005D900E090004675F002120AD5EE25E02583F574
:1005E90083E493FE740193FF90022EE02FF09002B2
:1005F9002DE03EF0E47F037E01FDFC900222E0F84D
:10060900A3E0F9A3E0FAA3E0FBC3120A87502D90F7
:100619000222A3A3E0FEA3E090004675F002120AAD
:10062900D5EE25E02583F583E493FE740193FFC39A
:1006390090022EE09FF090022DE09EF0900019E0CC
:10064900FCA3E0FDA3E0FEA3E02401FFE43EFEE4F9
:100659003DFDE43CFC900019120A98900015E0FC5D
:10066900A3E0FDA3E0FEA3E0FFA3E0F8A3E0F9A364
:10067900E0FAA3E0FBC3120A87700AC28E90022D2A
:10068900F0A37464F090022DE0FEA3E0F58BEEF583
:030699008DB2A17E
:0B069C00D0D0D082D083D0F0D0E0326C
:100C4E00438E805389F0758A64E4F58CC28DC28C14
:050C5E00D2A9D2AF2273
:03000300D28C227A
:100C6300438E40538910758B64E4F58DC28FC28E19
:050C7300D2ABD2AF225C
:03000600D28E2275
:1008ED0002096DE493A3F8E493A34003F68001F2AB
:1008FD0008DFF48029E493A3F85407240CC8C3330C
:10090D00C4540F4420C8834004F456800146F6DFDA
:10091D00E4800B0102040810204080900B40E47E1F
:10092D00019360BCA3FF543F30E509541FFEE493CF
:10093D00A360010ECF54C025E060A840B8E493A396
:10094D00FAE493A3F8E493A3C8C582C8CAC583CAC1
:10095D00F0A3C8C582C8CAC583CADFE9DEE780BE79
:010B7600007E
:100A7500EF8DF0A4A8F0CF8CF0A428CE8DF0A42E95
:020A8500FE224F
:100A8700EB9FF5F0EA9E42F0E99D42F0E89C45F0C5
:010A9700223C
:0C0A9800ECF0A3EDF0A3EEF0A3EFF022D1
:100AA400A8828583F0D083D082120ABB120ABB12BB
:100AB4000ABB120ABBE473E493A3C583C5F0C583E0
:100AC400C8C582C8F0A3C583C5F0C583C8C582C89C
:010AD40022FF
:0C0AD500A42582F582E5F03583F583222C
:00000001FF
