:030000000217984C
:0C179800787FE4F6D8FD7581200217DF91
:10121100E4900047F0A3F0A3F07FD07E07121C2ECC
:10122100121B78121A22121824121DFE121D6012AE
:101231001D757F017E00121C555387DF7F0A7E00DA
:10124100121C2E900048E004F07006900047E00464
:10125100F0D3900048E094F4900047E094014013EB
:10126100900049E0B4010C7F017E00121C55E4900E
:101271000049F0E58730E52EB2905387DF7F0A7E83
:1012810000121C2EE58730E51DB290121A60121A69
:101291009E5387DF121ADCE58730E504B29080FCAB
:1012A100121DC7121DDA900022E0B4010312198148
:1012B100121381900021E0B403177F057E00121CF8
:1012C10055120D8AE4900021F07F03FE121C558017
:1012D10060900021E0B40105121CB5800790002147
:1012E100E0B40205120A608043900021E0B4054198
:1012F100900003E004F07006900002E004F090001A
:1013010004E0FEA3E0FFD3900003E09F900002E021
:101311009E4013E4F0A304F0900020E004F0700676
:1013210090001FE004F0120A601214EAE490002118
:10133100F090001EE0B4010512162E801890001ED8
:10134100E0B402197F087E00121C55E4900047F0BA
:10135100A3F0A304F0E490001EF002123D90001EE1
:10136100E06403600302123D7F07FE121C55E49006
:101371000047F0A3F0A304F0E490001EF002123D38
:101C9A00EF1FAC0670011E4C601090004DE004F07E
:0A1CAA0070EE90004CE004F080E6BC
:011CB400220D
:081C2E0090004AEEF0A3EFF074
:101C3600E4FBFAD390004BE09B90004AE09A400EFA
:0E1C46007FDE7E01121C9A0BBB00010A80E5B6
:011C5400226D
:10182400E4FFFE121C7C900000EFF0900002E4F054
:10183400A304F090000104F0120A60EF70539000CA
:101844000004F090000404F0A37458F0A3E4F0A39F
:101854007464F0A3E4F0A374C8F0A37401F0A37457
:101864002CF0A37401F0A37490F0A374FFF0A314FC
:10187400F0A3747FF0A374FFF0A3F0A3F0A3F0A38C
:10188400F0A3F0A3F0A3F0A3F0A3F0A3F0A3F0A3BC
:10189400F0E4900022F0C29190001E04F0E4900065
:0318A40021F0220E
:101CB50090004AE4F0A304F0900000E0FDE4FFFE8C
:091CC500121D0290004AA3E0FF89
:011CCE0022F3
:100D8A0090004AE4F0A304F0900000E0FF7E007CAB
:100D9A00387D421218A7EF24C0FFEE34C7FE900038
:100DAA004CF0A3EFF0900004E0FD121D0290004DFC
:100DBA00E02401FF90004CE03400FE900004A3E020
:100DCA00FD121D02900002E0FEA3E0FF7C007D18E8
:100DDA001218A790004DE02FFF90004CE03ECF2460
:100DEA00EACF34FFFE90004EF0A3EFF0900006E049
:100DFA00FD121D0290004FE02401FF90004EE034E6
:100E0A0000FE900006A3E0FD121D0290004FE024B0
:100E1A0002FF90004EE03400FE900008E0FD121D33
:100E2A000290004FE02403FF90004EE03400FE9051
:100E3A000008A3E0FD121D0290004FE02404FF9079
:100E4A00004EE03400FE90000AE0FD121D02900000
:100E5A004FE02405FF90004EE03400FE90000AA304
:100E6A00E0FD121D0290004FE02406FF90004EE0C4
:100E7A003400FE90000CE0FD121D0290004FE024A9
:100E8A0007FF90004EE03400FE90000CA3E0FD1234
:100E9A001D0290004FE02408FF90004EE03400FE4F
:100EAA0090000EE0FD121D0290004FE02409FF9011
:100EBA00004EE03400FE90000EA3E0FD121D0290E9
:100ECA00004FE0240AFF90004EE03400FE9000102C
:100EDA00E0FD121D0290004FE0240BFF90004EE04F
:100EEA003400FE900010A3E0FD121D0290004FE0B6
:100EFA00240CFF90004EE03400FE900012E0FD1238
:100F0A001D0290004FE0240DFF90004EE03400FED9
:100F1A00900012A3E0FD121D0290004FE0240EFF84
:100F2A0090004EE03400FE900014E0FD121D029085
:100F3A00004FE0240FFF90004EE03400FE900014B2
:100F4A00A3E0FD121D0290004FE02410FF90004E16
:100F5A00E03400FE900016E0FD121D0290004FE002
:100F6A002411FF90004EE03400FE900016A3E0FD2D
:100F7A00121D0290004FE02412FF90004EE0340050
:100F8A00FE900018E0FD121D0290004FE02413FFAE
:100F9A0090004EE03400FE900018A3E0FD121D02FE
:100FAA0090004FE02414FF90004EE03400FE9000C1
:100FBA001AE0FD121D0290004FE02415FF90004E2A
:100FCA00E03400FE90001AA3E0FD121D0290004FCB
:100FDA00E02416FF90004EE03400FE90001CE0FD75
:100FEA00121D0290004FE02417FF90004EE03400DB
:100FFA00FE90001CA3E0FD121D0290004AA3E0FF30
:01100A0022C3
:100A600090004AE4F0A304F0900000E0FF7E007CD8
:100A7000387D421218A7EF24C0FFEE34C7FE900065
:100A80004CF0A3EFF0121C7CEF7F00FEC007C00605
:100A900090004DE02401FF90004CE03400FE121C59
:100AA0007CEFFDD0E0FFD0E04D900004CFF0A3EF4D
:100AB000F0900002E0FEA3E0FF7C007D181218A772
:100AC00090004DE02FFF90004CE03ECF24EACF3461
:100AD000FFFE90004EF0A3EFF0121C7CEF7F00FEB3
:100AE000C007C00690004FE02401FF90004EE034A4
:100AF00000FE121C7CEFFDD0E0FFD0E04D90000620
:100B0000CFF0A3EFF090004FE02402FF90004EE002
:100B10003400FE121C7CEF7F00FEC007C006900070
:100B20004FE02403FF90004EE03400FE121C7CEFE7
:100B3000FDD0E0FFD0E04D900008CFF0A3EFF090A3
:100B4000004FE02404FF90004EE03400FE121C7CB5
:100B5000EF7F00FEC007C00690004FE02405FF9025
:100B6000004EE03400FE121C7CEFFDD0E0FFD0E030
:100B70004D90000ACFF0A3EFF090004FE02406FF65
:100B800090004EE03400FE121C7CEF7F00FEC00798
:100B9000C00690004FE02407FF90004EE03400FEB6
:100BA000121C7CEFFDD0E0FFD0E04D90000CCFF0A8
:100BB000A3EFF090004FE02408FF90004EE03400D7
:100BC000FE121C7CEF7F00FEC007C00690004FE0C5
:100BD0002409FF90004EE03400FE121C7CEFFDD093
:100BE000E0FFD0E04D90000ECFF0A3EFF090004F6B
:100BF000E0240AFF90004EE03400FE121C7CEF7FE0
:100C000000FEC007C00690004FE0240BFF90004E8E
:100C1000E03400FE121C7CEFFDD0E0FFD0E04D90F0
:100C20000010CFF0A3EFF090004FE0240CFF9000F5
:100C30004EE03400FE121C7CEF7F00FEC007C006B1
:100C400090004FE0240DFF90004EE03400FE121C97
:100C50007CEFFDD0E0FFD0E04D900012CFF0A3EF8D
:100C6000F090004FE0240EFF90004EE03400FE12A2
:100C70001C7CEF7F00FEC007C00690004FE0240FF1
:100C8000FF90004EE03400FE121C7CEFFDD0E0FF30
:100C9000D0E04D900014CFF0A3EFF090004FE0248F
:100CA00010FF90004EE03400FE121C7CEF7F00FE2F
:100CB000C007C00690004FE02411FF90004EE034C2
:100CC00000FE121C7CEFFDD0E0FFD0E04D9000163E
:100CD000CFF0A3EFF090004FE02412FF90004EE021
:100CE0003400FE121C7CEF7F00FEC007C00690009F
:100CF0004FE02413FF90004EE03400FE121C7CEF06
:100D0000FDD0E0FFD0E04D900018CFF0A3EFF090C1
:100D1000004FE02414FF90004EE03400FE121C7CD3
:100D2000EF7F00FEC007C00690004FE02415FF9043
:100D3000004EE03400FE121C7CEFFDD0E0FFD0E05E
:100D40004D90001ACFF0A3EFF090004FE02416FF73
:100D500090004EE03400FE121C7CEF7F00FEC007C6
:100D6000C00690004FE02417FF90004EE03400FED4
:100D7000121C7CEFFDD0E0FFD0E04D90001CCFF0C6
:090D8000A3EFF090004AA3E0FF8C
:010D89002247
:101A22007F0A121D9F7FFF7E01121D1BBFAA277F07
:101A3200087E00121D1BEF7F00FEC007C0067F0953
:101A42007E00121D1BEFFDD0E0FFD0E04D90001F85
:0E1A5200CFF0A3EFF022E490001FF0A3F022EB
:101ADC007F0A121D9FE4FFFE121D4B7F0A121D9FF1
:101AEC0090001FE0FD7F087E00121CE990001FA3F0
:101AFC00E0FD7F097E00121CE97DAA7FFF7E0112AA
:071B0C001CE97F0A021D9F86
:101D9F00AE071FEE600DE4FCFD0DED70010C4C6005
:031DAF00EF80F6CC
:011DB200220E
:0D000E00E4F5C7F5C5F5C675C380F5C4223D
:101D1B0075C78375C5018FC4EEF5C375C65A75C6F5
:071D2B00A500AFC212000E7B
:011D3200228E
:101CE90075C78375C5028FC4EEF5C3AF058FC2757D
:091CF900C65A75C6A50002000ED2
:101D4B0075C78375C5038FC4EEF5C375C65A75C6C3
:051D5B00A50002000ECE
:101B1300C1004F005CFFFFFFFFFFFFFFFFFFFFFF61
:101B2300FFFFFFFF41006B0041005B0041005A00D3
:0F1DFE00759A50759CFD438E1475AF01D2AF22BC
:03004300021BA9F4
:101BA900C0E0C0F0C083C082C0D075D008E59A30CB
:101BB900E008539AFEAF9B121926E59A30E10553C6
:0F1BC9009AFDC201D0D0D082D083D0F0D0E032CC
:101CCF0090006EE0FCA3E0FDA3E0FEA3E0FF12187E
:011CDF00CA3A
:091CE0002001FDEFD201F59B2269
:061B4600A3E0FCA3E0FD9A
:101B4C00AB07AA067F5A121CE07FA5121CE07F058A
:101B5C00121CE07F82121CE0EAFF121CE0AF0312A1
:0C1B6C001CE0ECFF121CE0AF05021CE0C6
:1019D500AD07AC067F5A121CE07FA5121CE07F07FD
:1019E500121CE07F82121CE0ECFF121CE0AF051216
:1019F5001CE07818121CCF7810121CCF90006EE0F6
:101A0500FCA3E0FDA3E0FEA3E0FF78081218CA12CC
:0D1A15001CE090006EA3A3A3E0FF021CE004
:101C5500AD07AC067F5A121CE07FA5121CE07F047D
:101C6500121CE07F80121CE07F03121CE0ECFF12C7
:071C75001CE0AF05021CE0BA
:1019260090006BE01460111460161460222403709A
:1019360043EF645A70448010EFB4A502800A8035E4
:1019460090005AEFF0E4A3F090006BE004F02290D0
:10195600005BE0245CF582E43400F583EFF0900050
:101966005BE004F090005AE0FFA3E0C39F400B1237
:0B1976000046800100E490006BF022AE
:10004600900060E0FEA3E0FDEDFF90005EE0FDB4F1
:100056000213D3EF9402EE940040027F0290000058
:10006600EFF00202D6EDB40A05900001803C900044
:100076005EE0FDB4031D900004E0FAA3E0FBC39F1D
:10008600EA9E5004AE02AF03900002EEF0A3EFF03A
:1000960002035CEDB40417D3EF9458EE94024004C7
:1000A6007E027F58900004EEF0A3EF0203779000E3
:1000B6005EE0FDB405059000068075EDB40605907A
:1000C6000008806C90005EE0FDB4070590000A8091
:1000D6005FEDB4080590000C805690005EE0FDB41C
:1000E600090590000E8049EDB4100590001080407F
:1000F60090005EE0FDB411059000128033EDB4125D
:1001060005900014802A90005EE0FDB4130590006F
:1001160016801DEDB41405900018801490005EE062
:10012600FDB4150590001A8007EDB4160B90001C5F
:10013600EEF0A3EFF00203F590005EE0B4170EC2F6
:10014600919000227401F01214EA0203E090005E1E
:10015600E0641860030201DC900022F0D291900066
:10016600237402F0A31218E9000000009000281280
:1001760018E90000000090002C7402F0A31218E9A0
:10018600000000009000311218E900000000900005
:10019600357402F0A31218E90000000090003A122C
:1001A60018E90000000090003E7402F0A31218E95E
:1001B600000000009000431218E9000000009000C3
:1001C60002E4F0A304F090002104F090001E14F065
:1001D600121B780203F590005EE0FF64197024900C
:1001E600001EE060030203F5900021E060030203B5
:1001F600F5900000E004F0E0D3940240037401F0AF
:100206000202D6EF642070030203F590005EE0FF61
:10021600642170030203F5EF642270030203F5EF15
:1002260064237067900022F09000237402F0A312FA
:1002360018E9000000009000281218E900000000EC
:1002460090002C7402F0A31218E900000000900040
:10025600311218E9000000009000357402F0A31274
:1002660018E90000000090003A1218E900000000AA
:1002760090003E7402F0A31218E9000000009000FE
:10028600431218E9000000000203E090005EE0FF60
:10029600B4242190001EE060030203F5900000E004
:1002A60014F0E0FED394025003EE70069000007442
:1002B60001F0801CEFB4252590001EE060030203C8
:1002C600F5900000E004F0E0D3940240037402F0DD
:1002D6009000217401F090001EF00203F590005E7C
:1002E600E0FF6426703B90001EE060030203F59079
:1002F6000003E024FFF0900002E034FFF0900004D9
:10030600E0FCA3E0FD900002E0FAA3E0FBD39DEA47
:100316009C5004EB4A7008900002E4F0A304F080BD
:1003260035EFB4273F90001EE060030203F590000E
:1003360003E004F07006900002E004F0900004E090
:10034600FEA3E0FFD3900003E09F900002E09E40F2
:1003560005EEF0A3EFF09000217402F090001E1459
:10036600F00203F590005EE0FFB4280890002174C7
:1003760003F08066EF64297039900006F0A3F0A3BD
:10038600F0A3F0A3F0A3F0A3F0A3F0A3F0A3F0A3CF
:10039600F0A3F0A3F0A3F0A3F0A3F0A3F0A3F0A3BF
:1003A600F0A3F0A3F0A3F0A3F0A3F090001E04F0D6
:1003B600803DEFB4302C74FF90000EF0A3F0A3F054
:1003C600A3F0A3F0A3F0A3F0A3F0A3F0A3F0A3F08F
:1003D600A3F0A3F0A3F0A3F0A3F090001E7401F025
:1003E600800DEFB43109900077E0B41402E4F0D246
:0103F6000006
:0103F70022E3
:10162E00900022E0FD7C007F0F7E00121B4C90008C
:10163E001FE0FCA3E0FD7F0E121B4C900000E0FDAE
:10164E007C007F02121B4CA3E0FD7F0A121B4C7F15
:10165E0003121B467F04121B46A3E0FCA3E0FD7F92
:10166E0005121B4CA3E0FCA3E0FD7F06121B4CA34E
:10167E00E0FCA3E0FD7F07121B4CA3E0FCA3E0FD02
:10168E007F08121B4CA3E0FCA3E0FD7F09121B4C4C
:10169E00A3E0FCA3E0FD7F10121B4CA3E0FCA3E033
:1016AE00FD7F11121B4CA3E0FCA3E0FD7F12121B69
:1016BE004CA3E0FCA3E0FD7F13121B4CA3E0FCA3A4
:1016CE00E0FD7F14121B4CA3E0FCA3E0FD7F15127E
:0D16DE001B4CA3E0FCA3E0FD7F16021B4C9B
:041B330041007600F7
:10198100900076E01460171460211460392403700C
:101991004130A00320A13C9000767401F02230A0D8
:1019A1000320A1289000767402F02220A002800377
:1019B10020A10C9000217405F090001E7401F0909C
:1019C10000767403F02230A00A30A107E49000767B
:0419D100F0220022DE
:1014EA001216EB900023E06402600302158D90004F
:1014FA002CE06402600302158D900006E0FEA3E072
:10150A00FF4E6036D3EF94FFEE947F400FC294E40F
:10151A00900023F0E49FFFE49EFE8010D294900096
:10152A00237401F0900006E0FEA3E0FFE4FCFD90C6
:10153A0000241218DD900028803F900008E0FEA3E6
:10154A00E0FF4E603ED3EF94FFEE947F400FC296C9
:10155A00E490002CF0E49FFFE49EFE8010D2969067
:10156A00002C7401F0900008E0FEA3E0FFE4FCFD0B
:10157A0090002D1218DD9000311218E900000000C9
:10158A00121DC7900035E06402600302162D900018
:10159A003EE06402600302162D90000AE0FEA3E01A
:1015AA00FF4E6036D3EF94FFEE947F400FC2B3E450
:1015BA00900035F0E49FFFE49EFE8010D2B39000C5
:1015CA00357401F090000AE0FEA3E0FFE4FCFD9010
:1015DA0000361218DD90003A803F90000CE0FEA31E
:1015EA00E0FF4E603ED3EF94FFEE947F400FC2B50A
:1015FA00E490003EF0E49FFFE49EFE8010D2B59096
:10160A00003E7401F090000CE0FEA3E0FFE4FCFD54
:10161A0090003F1218DD9000431218E90000000004
:04162A00121DDA2291
:041B370041007714DE
:10138100900077E014606314700302143114700349
:101391000214761470030214BD240460030214E8DD
:1013A100900023E0640260030214E990002CE064E1
:1013B1000260030214E9900035E064026003021444
:1013C100E990003EE0640260030214E9C2949000D7
:1013D10023F0A31218E9002DC6C09000281218E9C5
:1013E10000000000121DC70214B63080030214E988
:1013F100121A609000237402F0A31218E900000091
:10140100009000281218E900000000C296E4900044
:101411002CF0A31218E9002DC6C09000311218E972
:1014210000000000121DC790001E7401F00214B6E6
:101431003081030214E9121A6090002C7402F0A3A7
:101441001218E9000000009000311218E9000000B4
:1014510000C2B3E4900035F0A31218E9002DC6C014
:1014610090003A1218E900000000121DDA90001EE7
:101471007401F08040208270121A9E90003574022F
:10148100F0A31218E90000000090003A1218E900D8
:10149100000000C2B5E490003EF0A31218E9002D4F
:1014A100C6C09000431218E900000000121DDA9036
:1014B100001E7401F0900077E004F02220832912CD
:1014C1001A9E90003E7402F0A31218E90000000079
:1014D1009000431218E90000000090001E7401F012
:0914E1009000777414F02200223F
:1016EB007B07EBFF3395E0FEEF25E0FFEE33FE7457
:1016FB000E2FF58274003EF583E0FFA3E0900050BF
:10170B00CFF0A3EFF0E4FDC2B0900050E0FEA3E0F9
:10171B00FF13B392B2D2B0EEC313FEEF13FF9000E0
:10172B0050EEF0A3EFF00DEDB410DC1BEBB403B2F5
:10173B00C2B1D2B17B03EBFF3395E0FEEF25E0FFA7
:10174B00EE33FE740E2FF58274003EF583E0FFA39B
:10175B00E0900050CFF0A3EFF0E4FDC2A390005057
:10176B00E0FEA3E0FF13B392A5D2A3EEC313FEEFEB
:10177B0013FF900050EEF0A3EFF00DEDB410DC1B57
:0C178B00C3EB6480948050AEC2A4D2A4D2
:01179700222F
:101B7800E4FEE4FFC2A3D2A5D2A30FEFB410F50E82
:101B8800EEB404EEC2A4D2A47E04E4FFC2B0D2B282
:101B9800D2B00FEFB410F50EEEB408EEC2B1D2B168
:011BA800221A
:10100B0000000099030304500563063506C807204A
:10101B0007460746072606F106AE0663061305C10B
:10102B000571052204D70490044D040D03D3039BD3
:10103B0003670338030C02E202BB029802760257E5
:10104B00023A021F020601EE01D801C401B0019D54
:10105B00018D017C016D015F015101440139012CAE
:10106B0001230117010E010500FC00F400EC00E464
:10107B0000DD00D600CF00C900C300BE00B800B22F
:10108B0000AE00A800A400A0009B00A0009B00984D
:10109B000093008F008C008800850081007F007B0F
:1010AB000078007600720071006D006B00690066BD
:1010BB0000640062005F005E005C0059005800563F
:1010CB00005400530051004F004D004D004A0049A1
:1010DB000048004600450044004200410040003FEC
:1010EB00003E003C003C003A003900380038003626
:1010FB000035003400340032003200310030002F54
:10110B00002E002E002D002C002B002B0029002A76
:10111B000028002800270027002500260024002493
:10112B000024002300220022002100210020001FA8
:10113B000020001E001E001E001D001D001C001CB8
:10114B00001B001B001A001A001A001900190018C6
:10115B0000180017001700170017001600150015D0
:10116B0000150015001400140013001400120013D6
:10117B0000120012001200110011001000110010DB
:10118B00000F0010000F000F000E000E000E000EDF
:10119B00000E000D000D000C000C000D000B000CE0
:1011AB00000B000B000B000B000A000A000A0009E1
:1011BB00000A0009000800090008000800080008E0
:1011CB0000070008000600070007000600060006DF
:1011DB0000050006000500050005000400050004DD
:1011EB0000030004000400030003000300020002DC
:1011FB0000030002000100020001000100010001D8
:06120B00000000000001DC
:0A1B3B00420072006442007400646E
:03000B000203F8F5
:1003F800C0E0C0F0C083C082C0D075D00890002390
:10040800E0FF700320800EEF6401600302054C20BA
:05041800840302054C05
:10041D00900028E0F8A3E0F9A3E0FAA3E0FB900038
:10042D0024E0FCA3E0FDA3E0FEA3E0C39BFFEE9A56
:10043D00FEED99FDEC98FC9000521218DDE47F035F
:10044D007E01FDFC900028E0F8A3E0F9A3E0FAA3FB
:10045D00E0FBC31218B9502C900028A3A3E0FEA313
:10046D00E090100B75F00212191AEE25E02583F5B8
:10047D0083E493FE740193FF900073E02FF09000DE
:10048D0072E03EF0E47F037E01FDFC900052E0F847
:10049D00A3E0F9A3E0FAA3E0FBC31218B9502D9025
:1004AD000052A3A3E0FEA3E090100B75F002121909
:1004BD001AEE25E02583F583E493FE740193FFC3C3
:1004CD00900073E09FF0900072E09EF0900028E0A5
:1004DD00FCA3E0FDA3E0FEA3E02401FFE43EFEE467
:1004ED003DFDE43CFC9000281218DD900024E0FC5A
:1004FD00A3E0FDA3E0FEA3E0FFA3E0F8A3E0F9A3D2
:10050D00E0FAA3E0FBC31218B94023C28C9000722D
:10051D00E4F0A37464F09000237402F0A31218E9C0
:10052D00000000009000281218E900000000900063
:0C053D0072E0FEA3E0F58AEEF58CB295AA
:1005490002072190002CE0FF700320810EEF640167
:0B055900600302069320850302069356
:10056400900031E0F8A3E0F9A3E0FAA3E0FB9000E7
:100574002DE0FCA3E0FDA3E0FEA3E0C39BFFEE9A05
:10058400FEED99FDEC98FC9000521218DDE47F0317
:100594007E01FDFC900031E0F8A3E0F9A3E0FAA3AA
:1005A400E0FBC31218B9502C900031A3A3E0FEA3C2
:1005B400E090100B75F00212191AEE25E02583F570
:1005C40083E493FE740193FF900073E02FF0900096
:1005D40072E03EF0E47F037E01FDFC900052E0F8FF
:1005E400A3E0F9A3E0FAA3E0FBC31218B9502D90DD
:1005F4000052A3A3E0FEA3E090100B75F0021219C1
:100604001AEE25E02583F583E493FE740193FFC37A
:10061400900073E09FF0900072E09EF0900031E053
:10062400FCA3E0FDA3E0FEA3E02401FFE43EFEE41E
:100634003DFDE43CFC9000311218DD90002DE0FCFF
:10064400A3E0FDA3E0FEA3E0FFA3E0F8A3E0F9A389
:10065400E0FAA3E0FBC31218B94023C28C900072E5
:10066400E4F0A37464F090002C7402F0A31218E96F
:10067400000000009000311218E900000000900012
:0C06840072E0FEA3E0F58AEEF58CB29760
:10069000020721900023E0FB700790001E74038086
:1006A00009EBB4012490001E7402F0C28C90007219
:1006B000E4F0A37464F09000237402F0A31218E92C
:1006C00000000000900028805190002CE0FB702476
:1006D00090001E7403F0C28C900072E4F0A3746466
:1006E000F090002C7402F0A31218E90000000090B2
:1006F00000318026EBB4012990001E7402F0C28CF8
:10070000900072E4F0A37464F090002C7402F0A3E3
:100710001218E9000000009000311218E9000000F2
:0C07200000D0D0D082D083D0F0D0E032E6
:03001B0002072CAD
:10072C00C0E0C0F0C083C082C0D075D00890003546
:10073C00E0FF700320820EEF64016003020880204A
:05074C00860302088095
:1007510090003AE0F8A3E0F9A3E0FAA3E0FB9000EF
:1007610036E0FCA3E0FDA3E0FEA3E0C39BFFEE9A0D
:10077100FEED99FDEC98FC9000561218DDE47F0324
:100781007E01FDFC90003AE0F8A3E0F9A3E0FAA3B2
:10079100E0FBC31218B9502C90003AA3A3E0FEA3CA
:1007A100E090100B75F00212191AEE25E02583F581
:1007B10083E493FE740193FF900075E02FF09000A5
:1007C10074E03EF0E47F037E01FDFC900056E0F80A
:1007D100A3E0F9A3E0FAA3E0FBC31218B9502D90EE
:1007E1000056A3A3E0FEA3E090100B75F0021219CE
:1007F1001AEE25E02583F583E493FE740193FFC38C
:10080100900075E09FF0900074E09EF090003AE057
:10081100FCA3E0FDA3E0FEA3E02401FFE43EFEE42F
:100821003DFDE43CFC90003A1218DD900036E0FCFE
:10083100A3E0FDA3E0FEA3E0FFA3E0F8A3E0F9A39A
:10084100E0FAA3E0FBC31218B94023C28E900074F2
:10085100E4F0A37464F09000357402F0A31218E977
:100861000000000090003A1218E90000000090001A
:0C08710074E0FEA3E0F58BEEF58DB2B450
:10087D00020A5590003EE0FF700320830EEF6401E5
:0B088D0060030209C72087030209C7AF
:10089800900043E0F8A3E0F9A3E0FAA3E0FB90009E
:1008A8003FE0FCA3E0FDA3E0FEA3E0C39BFFEE9ABC
:1008B800FEED99FDEC98FC9000561218DDE47F03DC
:1008C8007E01FDFC900043E0F8A3E0F9A3E0FAA361
:1008D800E0FBC31218B9502C900043A3A3E0FEA379
:1008E800E090100B75F00212191AEE25E02583F539
:1008F80083E493FE740193FF900075E02FF090005D
:1009080074E03EF0E47F037E01FDFC900056E0F8C1
:10091800A3E0F9A3E0FAA3E0FBC31218B9502D90A5
:100928000056A3A3E0FEA3E090100B75F002121985
:100938001AEE25E02583F583E493FE740193FFC343
:10094800900075E09FF0900074E09EF0900043E006
:10095800FCA3E0FDA3E0FEA3E02401FFE43EFEE4E7
:100968003DFDE43CFC9000431218DD90003FE0FCA4
:10097800A3E0FDA3E0FEA3E0FFA3E0F8A3E0F9A352
:10098800E0FAA3E0FBC31218B94023C28E900074AA
:10099800E4F0A37464F090003E7402F0A31218E926
:1009A800000000009000431218E9000000009000C9
:0C09B80074E0FEA3E0F58BEEF58DB2B606
:1009C400020A55900035E0FB700790001E74038006
:1009D40009EBB4012490001E7402F0C28E900074DE
:1009E400E4F0A37464F09000357402F0A31218E9E3
:1009F4000000000090003A805190003EE0FB70241B
:100A040090001E7403F0C28E900074E4F0A374642A
:100A1400F090003E7402F0A31218E9000000009068
:100A240000438026EBB4012990001E7402F0C28EAC
:100A3400900074E4F0A37464F090003E7402F0A398
:100A44001218E9000000009000431218E9000000A9
:0C0A540000D0D0D082D083D0F0D0E032AF
:101D6000438E805389F0758A64E4F58CC28DC28CF1
:051D7000C2A9D2AF2260
:101DC700758A64E4F58C900072F0A37464F0D2A96C
:031DD700D28C2289
:101A6000C2A9C28C900072E4F0A37464F0900023C9
:101A70007402F0A31218E900000000900028121868
:101A8000E90000000090002C7402F0A31218E90095
:0E1A90000000009000311218E9000000002252
:101D7500438E40538910758B64E4F58DC28FC28EF6
:051D8500C2ABD2AF2249
:101DDA00758B64E4F58D900074F0A37464F0D2AB53
:031DEA00D28E2274
:101A9E00C28EC2AB900074E4F0A37464F090003573
:101AAE007402F0A31218E90000000090003A121818
:101ABE00E90000000090003E7402F0A31218E90045
:0E1ACE000000009000431218E9000000002202
:101D8A00D2A60000D2A70000000000C2A6000000F0
:051D9A000000C2A722B9
:101DB300C2A600D2A70000000000D2A600000000C7
:041DC30000C2A72291
:101C0500121D8A7FA012001E121C1DEAFF12001E63
:081C1500121C1DAF0312001E9A
:101C1D00C2A6000000D2A70000000000C2A700006D
:011C2D002294
:101DED00D2A6000000D2A70000000000C2A700008C
:011DFD0022C3
:10001E007E08AD07C2A70000000000ED30E704D255
:10002E00A68002C2A6D2A7EF25E0FDFFDEE4C2A79E
:01003E00229F
:101BD800E4FFFE7D08D2A6C2A70000000000D2A73D
:101BE8000000000000EF30A6054401FF800354FE0A
:0C1BF800FFED146005EF25E0FEFFDDDBD3
:011C040022BD
:101D3300EFD394004011E4FDFC0DBD00010CED64F4
:071D43007D4C70F51F80E9E3
:011D4A002276
:101D0200AB07AA06AC05121C05AF0412001E121C7A
:091D12001D121DB37F0F021D33E9
:041C7C00AB07AA0602
:101C8000121C05121D8A7FA112001E121C1D121BA0
:091C9000D8C2A7121DED121DB30C
:011C99002228
:1017A400021211E493A3F8E493A34003F68001F238
:1017B40008DFF48029E493A3F85407240CC8C33346
:1017C400C4540F4420C8834004F456800146F6DF15
:1017D400E4800B0102040810204080901B13E47E77
:1017E400019360BCA3FF543F30E509541FFEE4930A
:1017F400A360010ECF54C025E060A840B8E493A3D1
:10180400FAE493A3F8E493A3C8C582C8CAC583CAFB
:10181400F0A3C8C582C8CAC583CADFE9DEE780BEB3
:011B4500009F
:1018A700EF8DF0A4A8F0CF8CF0A428CE8DF0A42E55
:0218B700FE220F
:1018B900EB9FF5F0EA9E42F0E99D42F0E89C45F085
:0118C90022FC
:1018CA00E8600FECC313FCED13FDEE13FEEF13FFFC
:0318DA00D8F12220
:0C18DD00ECF0A3EDF0A3EEF0A3EFF0227E
:1018E900A8828583F0D083D08212190012190012C0
:1018F9001900121900E473E493A3C583C5F0C583E5
:10190900C8C582C8F0A3C583C5F0C583C8C582C848
:0119190022AB
:0C191A00A42582F582E5F03583F58322D8
:00000001FF
