:030000000218B52E
:0C18B500787FE4F6D8FD7581200218FC55
:100E9200E4900204F0A3F0A3F07FF47E01121D9906
:100EA200121ACD121EAB121E47121E5CE4FFFE1276
:100EB2001DC01200465387DF900205E004F0700661
:100EC200900204E004F0D3900205E0943290020410
:100ED200E094004012900206E0B4010BE4FFFE121F
:100EE2001DC0E4900206F09001E5E06402600C90FF
:100EF20001F5E0640260047F0480159001E5E0B42E
:100F020002089001F5E0640260047F0680027F0A15
:100F12007E00121D99E58730E52A5387DF7F0A7E1E
:100F220000121D99E58730E51B121D49121D7153F0
:100F320087DF12040EE58730E504B29080FC121EB2
:100F420085121E989001E3E0B40106121BD8121C10
:100F52007312159F900000E0B40106121B87020F66
:100F6200F8900000E0B402137F067E00121DC0E478
:100F7200900204F0A3F0A304F0807B900000E0B4A0
:100F820003137F057E00121DC0E4900204F0A3F05B
:100F9200A304F08061900000E0B404137F097E0096
:100FA200121DC0E4900204F0A3F0A304F080479065
:100FB2000000E0B405137F0A7E00121DC0E4900217
:100FC20004F0A3F0A304F0802D900000E0B4061317
:100FD2007F0B7E00121DC0E4900204F0A3F0A30474
:100FE200F08013900000E0FFC39407400EEFD3940B
:100FF2000C50081219CAE4900000F09001E1E0647C
:10100200016003020EBA7F04FE121DC0120953EFE3
:101012007F027003FE80027E00121DC0E49001E197
:04102200F0020EBA10
:10001E00EF1FAC0670011E4C601090020AE004F057
:0A002E0070EE900209E004F080E695
:0100380022A5
:081D9900900207EEF0A3EFF049
:101DA100E4FBFAD3900208E09B900207E09A400E10
:0E1DB1007FDE7E0112001E0BBB00010A80E5E2
:011DBF002201
:1017B600E4900207F0A3F07F0A121E717FFF7E01FC
:1017C600121E1AEF64EE60030218AE900209F0A32F
:1017D600F0E490020BF0A3F090020BE0FAA3E0FB1A
:1017E600C39428EA94004003021886900209E0FE9A
:1017F600A3E0FF7C007D50121A4EAC06AD07EB2528
:10180600E0FFEA33FEED2FFFEC3EFE90020DF0A363
:10181600EFF0121E1AEF7F00FEC007C00690020E00
:10182600E02401FF90020DE03400FE121E1AEFFDC7
:10183600D0E0FCD0E04DFD90020CE025E0FF9002E8
:101846000BE033FE900209E0FAA3E090000175F088
:1018560050121AC1EA75F050A42583F583E5822F4C
:10186600F582E5833EF583ECF0A3EDF090020CE003
:1018760004F060030217DE90020BE004F00217DEAC
:1018860090020AE004F07006900209E004F0C390AA
:10189600020AE09406900209E0940050030217D76A
:0E18A600900207E4F0A304F0900207A3E0FF15
:0118B4002211
:101ACD001217B6EF7043FDFCE4FBFAEB25E0FFEADD
:101ADD0033FE90000175F050ED121AC1EC75F05007
:101AED00A42583F583E5822FF582E5833EF583E416
:101AFD00F0A3F00BBB00010AEB64284A70CD0DBDBD
:101B0D0000010CED64064C70BF9001E37401F0E42C
:0E1B1D009001E2F090000004F0E49001E1F08D
:011B2B002297
:10095300900207E4F0A304F07F0A121E71E4FFFE85
:10096300121E327F0A121E71E4900209F0A3F0E412
:1009730090020BF0A3F0900209E0FAA3E0FB7C00E5
:100983007D50FFAE02121A4EAC06AD0790020CE08A
:1009930025E0FF90020BE033FEED2FFFEC3E9002CB
:1009A3000DF0A3EFF090020CE025E0FF90020BE0C6
:1009B30033FE90000175F050EB121AC1EA75F05046
:1009C300A42583F583E5822FF582E5833EF583E055
:1009D300FD90020DE0FEA3E0FF121E0190020CE069
:1009E30025E0FF90020BE033FE900209E0FCA3E058
:1009F30090000175F050121AC1EC75F050A42583D4
:100A0300F583E5822FF582E5833EF583A3E0FD9030
:100A1300020EE02401FF90020DE03400FE121E01DD
:100A230090020CE004F0700690020BE004F0C39017
:100A3300020CE0942890020BE09400500302097921
:100A430090020AE004F07006900209E004F0C390FB
:100A5300020AE09406900209E0940050030209722E
:100A63007DEE7FFF7E01121E017F0A121E71E4904C
:100A73000209F0A3F0E490020BF0A3F090020BE064
:100A8300FAA3E0FBC39428EA94004003020B3190DD
:100A93000209E0FEA3E0FF7C007D50121A4EAC0673
:100AA300AD07EB25E0FFEA33FEED2FFFEC3EFE90B2
:100AB300020DF0A3EFF0121E1AEF7F00FEC007C075
:100AC3000690020EE02401FF90020DE03400FE12B6
:100AD3001E1AEFFDD0E0FCD0E04DFD90020CE025A6
:100AE300E0FF90020BE033FE900209E0FAA3E090EE
:100AF300000175F050121AC1EA75F050A42583F570
:100B030083E5822FF582E5833EF583E0FEA3E06D66
:100B13007002EE6C6007E4900207F0A3F090020C01
:100B2300E004F0700690020BE004F0020A7F9002EA
:100B33000AE004F07006900209E004F0C390020A90
:100B4300E09406900209E094005003020A789002B0
:040B530007A3E0FF15
:010B5700227B
:100046007FFF7E03121E1AEF64EE60030203A0FF19
:100056007E02121E1A9001E4EFF07F017E02121E4C
:100066001A9001E5EFF07402FFFE121E1A9001E6E7
:10007600EFF07F047E02121E1A7E00EF7810C33363
:10008600CE33CED8F9FFC007C0067F037E02121E0C
:100096001A7E00EF7818C333CE33CED8F9FDD0E000
:1000A6004EFED0E04DFFC007C0067F057E02121E41
:1000B6001AEFFCD0E04CFED0E0FFC007C0067F067A
:1000C6007E02121E1AEFFDD0E0FED0E04DFFE4FCEA
:1000D600FD9001E7121A847F087E02121E1A7E0026
:1000E600EF7810C333CE33CED8F9FFC007C0067FF2
:1000F600077E02121E1A7E00EF7818C333CE33CE67
:10010600D8F9FDD0E04EFED0E04DFFC007C0067F17
:10011600097E02121E1AEFFCD0E04CFED0E0FFC0B2
:1001260007C0067F0A7E02121E1AEFFDD0E0FED03F
:10013600E04DFFE4FCFD9001EB121A847F047E0281
:10014600121E1AEF7F00C454F0FEC007C0067F03DC
:100156007E02121E1AEF33333354F8FCD0E04CFE05
:10016600D0E0FFC007C0067F057E02121E1AEFC44C
:100176003354E0FCD0E04CFED0E0FFC007C0067F61
:100186000E7E02121E1AEFFDD0E0FED0E04DFFE417
:10019600FCFD9001EF121A847F0F7E02121E1A9048
:1001A60001F3EFF07F107E02121E1A9001F4EFF0B9
:1001B6007F117E02121E1A9001F5EFF07F127E0269
:1001C600121E1A9001F6EFF07F047E02121E1A7EAE
:1001D60000EF7814C333CE33CED8F9FFC007C0067C
:1001E6007F037E02121E1A7E00EF7813C333CE33CE
:1001F600CED8F9FDD0E04EFED0E04DFFC007C006D8
:100206007F057E02121E1A7E00EF7815C333CE33A9
:10021600CED8F9FDD0E04EFED0E04DFFC007C006B7
:100226007F167E02121E1AEFFDD0E0FED0E04DFFD3
:10023600E4FCFD9001F7121A847F087E02121E1A52
:100246007E00EF7818C333CE33CED8F9FFC007C08F
:10025600067F077E02121E1A7E00EF7817C333CE82
:1002660033CED8F9FDD0E04EFED0E04DFFC007C03A
:10027600067F097E02121E1A7E00EF7819C333CE5E
:1002860033CED8F9FDD0E04EFED0E04DFFC007C01A
:10029600067F1A7E02121E1AEFFDD0E0FED0E04D58
:1002A600FFE4FCFD9001FB121A847F047E02121EFD
:1002B6001A7E00EF781CC333CE33CED8F9FFC007C1
:1002C600C0067F037E02121E1A7E00EF781BC33320
:1002D600CE33CED8F9FDD0E04EFED0E04DFFC007BC
:1002E600C0067F057E02121E1A7E00EF781DC333FC
:1002F600CE33CED8F9FDD0E04EFED0E04DFFC0079C
:10030600C0067F1E7E02121E1AEFFDD0E0FED0E070
:100316004DFFE4FCFD9001FF121A847F1F7E02123E
:100326001E1A900203EFF07F207E02121E1A900220
:100336002BEFF07F227E02121E1A7E00EF7810C38A
:1003460033CE33CED8F9FFC007C0067F217E021216
:100356001E1A7E00EF7818C333CE33CED8F9FDD0FF
:10036600E04EFED0E04DFFC007C0067F237E02129E
:100376001E1AEFFCD0E04CFED0E0FFC007C0067F9F
:10038600247E02121E1AEFFDD0E0FED0E04DFFE4FF
:10039600FCFD90022C121A848067E49001E4F0A31D
:1003A6007402F0A314F0A3121A900000000090014A
:1003B600EB121A90000000009001EF121A90000054
:1003C6000000E49001F3F0A3F0A37402F0A314F08C
:1003D600A3121A90000000009001FB121A90000070
:1003E60000009001FF121A9000000000E490020342
:1003F600F090022B7402F090022C121A900000006A
:08040600009000007401F022D7
:10040E007F007E02121E327F037E00121D99900124
:10041E00E4E0FD7F007E02121E019001E5E0FD7F0B
:10042E00017E02121E019001E6E0FD7402FFFE1233
:10043E001E019001E7E0FCA3E0FDA3E0FEA3E0FFB8
:10044E007818121A71AD077F037E02121E019001F9
:10045E00E7E0FCA3E0FDA3E0FEA3E0FF7810121A94
:10046E0071AD077F047E02121E019001E7E0FCA32E
:10047E00E0FDA3E0FEA3E0FF7808121A71AD077F3E
:10048E00057E02121E019001E7A3A3A3E0FD7F06E5
:10049E007E02121E019001EBE0FCA3E0FDA3E0FE44
:1004AE00A3E0FF7818121A71AD077F077E02121EA5
:1004BE00019001EBE0FCA3E0FDA3E0FEA3E0FF78DA
:1004CE0010121A71AD077F087E02121E019001EB09
:1004DE00E0FCA3E0FDA3E0FEA3E0FF7808121A7192
:1004EE00AD077F097E02121E019001EBA3A3A3E0CC
:1004FE00FD7F0A7E02121E019001EFE0FCA3E0FDDB
:10050E00A3E0FEA3E0FF7818121A71AD077F0B7EF1
:10051E0002121E019001EFE0FCA3E0FDA3E0FEA39A
:10052E00E0FF7810121A71AD077F0C7E02121E01C9
:10053E009001EFE0FCA3E0FDA3E0FEA3E0FF78084E
:10054E00121A71AD077F0D7E02121E019001EFA3EC
:10055E00A3A3E0FD7F0E7E02121E019001F3E0FDCB
:10056E007F0F7E02121E019001F4E0FD7F107E02CD
:10057E00121E019001F5E0FD7F117E02121E019008
:10058E0001F6E0FD7F127E02121E019001F7E0FCE3
:10059E00A3E0FDA3E0FEA3E0FF7818121A71AD07E9
:1005AE007F137E02121E019001F7E0FCA3E0FDA373
:1005BE00E0FEA3E0FF7810121A71AD077F147E02E1
:1005CE00121E019001F7E0FCA3E0FDA3E0FEA3E004
:1005DE00FF7808121A71AD077F157E02121E019068
:1005EE0001F7A3A3A3E0FD7F167E02121E01900168
:1005FE00FBE0FCA3E0FDA3E0FEA3E0FF7818121AD7
:10060E0071AD077F177E02121E019001FBE0FCA365
:10061E00E0FDA3E0FEA3E0FF7810121A71AD077F94
:10062E00187E02121E019001FBE0FCA3E0FDA3E088
:10063E00FEA3E0FF7808121A71AD077F197E021231
:10064E001E019001FBA3A3A3E0FD7F1A7E02121EE2
:10065E00019001FFE0FCA3E0FDA3E0FEA3E0FF7824
:10066E0018121A71AD077F1B7E02121E019001FF38
:10067E00E0FCA3E0FDA3E0FEA3E0FF7810121A71E8
:10068E00AD077F1C7E02121E019001FFE0FCA3E06D
:10069E00FDA3E0FEA3E0FF7808121A71AD077F1DDF
:1006AE007E02121E019001FFA3A3A3E0FD7F1E7E1A
:1006BE0002121E01900203E0FD7F1F7E02121E0138
:1006CE0090022BE0FD7F207E02121E0190022CE094
:1006DE00FCA3E0FDA3E0FEA3E0FF7818121A71ADB3
:1006EE00077F217E02121E0190022CE0FCA3E0FD8A
:1006FE00A3E0FEA3E0FF7810121A71AD077F227EF1
:10070E0002121E0190022CE0FCA3E0FDA3E0FEA36A
:10071E00E0FF7808121A71AD077F237E02121E01C8
:10072E0090022CA3A3A3E0FD7F247E02121E017D66
:0F073E00EE7FFF7E03121E017F0A7E00021D99CF
:101E7100AE071FEE600DE4FCFD0DED70010C4C6032
:031E8100EF80F6F9
:011E8400223B
:0D000E00E4F5C7F5C5F5C675C380F5C4223D
:101E1A0075C78375C5018FC4EEF5C375C65A75C6F5
:071E2A00A500AFC212000E7B
:011E3100228E
:101E010075C78375C5028FC4EEF5C3AF058FC27563
:091E1100C65A75C6A50002000EB8
:101E320075C78375C5038FC4EEF5C375C65A75C6DB
:051E4200A50002000EE6
:101CB000C1004F021BFFFFFFFFFFFFFFFFFFFFFF02
:101CC000FFFFFFFF41022A0041021A0041021900F2
:0F1EAB00759A50759CFD438E1475AF01D2AF220E
:03004300021D1A81
:101D1A00C0E0C0F0C083C082C0D075D008E59A3058
:101D2A00E008539AFEAF9B121B2CE59A30E105534B
:0F1D3A009AFDC201D0D0D082D083D0F0D0E03259
:101DE700900209E0FCA3E0FDA3E0FEA3E0FF121AC6
:011DF700717A
:091DF8002001FDEFD201F59B2250
:071CE700E02401FDEE33FCD7
:101CEE00AB07AA067F5A121DF87FA5121DF87F05B5
:101CFE00121DF87F82121DF8EAFF121DF8AF0312B3
:0C1D0E001DF8ECFF121DF8AF05021DF8D7
:101C2600AD07AC067F5A121DF87FA5121DF87F0777
:101C3600121DF87F82121DF8ECFF121DF8AF051277
:101C46001DF87818121DE77810121DE7900209E0BA
:101C5600FCA3E0FDA3E0FEA3E0FF7808121A7112D0
:0D1C66001DF8900209A3A3A3E0FF021DF8E2
:101DC000AD07AC067F5A121DF87FA5121DF87F04DF
:101DD000121DF87F80121DF87F03121DF8ECFF1210
:071DE0001DF8AF05021DF81C
:101B2C0090022AE0146011146016146022240370D1
:101B3C0043EF645A70448010EFB4A502800A8035DC
:101B4C00900219EFF0E4A3F090022AE004F0229046
:101B5C00021AE0241BF582E43402F583EFF09002C4
:101B6C001AE004F0900219E0FFA3E0C39F400B12AF
:0B1B7C0011AF800100E490022AF0226B
:1011AF0090021FE0FEA3E0FDEDFF90020FEEF0A313
:1011BF00EFF090021DE0FFB4070F900230E06414CF
:1011CF006003021310F0021310EFB408099001E34B
:1011DF007401F00212C590021DE0FB640A70649066
:1011EF0001E3F09001E4F0A37402F0A314F0A31252
:1011FF001A90000000009001EB121A9000000000FE
:10120F009001EF121A9000000000E49001F3F090AB
:10121F0001F4F0A37402F0A314F0A3121A900000CB
:10122F0000009001FB121A90000000009001FF12C5
:10123F001A9000000000E4900203F090000004F008
:10124F00021310EBB40C119001E3E0640160030290
:10125F00131012131302131090021DE0B40E11900D
:10126F0001E3E06401600302131012102602131051
:10127F0090021DE0B410109001E3E06401600302DE
:10128F001310121941807A90021DE0FFB41E0890CE
:10129F0001E17401F0806AEF64206065EFC394127E
:1012AF00401AEFD3941C501490021DE024EEC31388
:1012BF009001E2F02407900000F0804590021DE0BD
:1012CF00FFC3942E403BEFD3947C503590020FE038
:1012DF00FEA3E0FF9001E2E075F050A42401F58237
:1012EF00E5F03400F583C083C08290021DE024D264
:1012FF00C313D082D08375F002121AC1EEF0A3EFA0
:03130F00F0D20019
:0113120022B8
:1019CA00E4FDFC7F22FE121CEE7F24121CEE7F2611
:1019DA00121CEE7F28121CEE7F2A121CEE7F2C129C
:1019EA001CEE9001E2E025E0FFEE33FEEF2422FF39
:1019FA00E43EFE0D121CEEE4900207F09001E2E0D4
:101A0A0075F050A42401F582E5F03400F583C08313
:101A1A00C082900207E0FFD082D08375F002121ACA
:101A2A00C1E0FCA3E0FDEF25E0FFE433FEEF242E46
:101A3A00FFE43EFE121CEE900207E004F0E0C394BD
:031A4A002840B978
:011A4D002276
:101B87009001E3E0FD7C00E4FFFE121CEE9001F300
:101B97007F01121CE79002037F02121CE79001E409
:101BA700E02401FFEE33FEE4FCFD900209121A84E3
:101BB7007F037E00121C269001F4E02401FFE4332A
:101BC700FEE4FCFD900209121A847F057E00021CC8
:011BD70026E7
:081CD00041023500410236001B
:101BD800900235E0146017146021146033240370F8
:101BE8003B3082032083369002357401F022308224
:101BF800032083229002357402F0222082051213FA
:101C08001380062083031210269002357403F022F5
:0E1C180030820A308307E4900235F022002269
:101C7300900236E014601414601B14602524037072
:101C83002A2084289002367401F0222084179002BF
:101C9300367402F022208403121941900236740331
:0D1CA300F022308407E4900236F022002287
:041CD8004102301481
:10159F00900230E0146061146066147003021669E3
:1015AF00147003021673240460030216B39001E54E
:1015BF00E0640260030216B49001F5E06402600378
:1015CF000216B49001E4E0FF6F60030216B49001BD
:1015DF00F3E0FF6F60030216B4C2949001E5F09040
:1015EF0001E7121A90002DC6C09001EB121A90005D
:1015FF00000000121E8580653080030216B4805DE6
:10160F003080030216B4121D49E49001E4F0A37474
:10161F0002F0A314F0A3121A90000000009001EB47
:10162F00121A90000000009001EF121A90000000B3
:10163F0000E49001F3F0C2959001F5F09001F712DC
:10164F001A90002DC6C09001FB121A9000000000E6
:10165F00121E98900230E0048042208148900230A0
:10166F00E004F02220813E121D71E49001F4F0A3FA
:10167F007402F0A314F0A3121A900000000090015E
:10168F00FB121A90000000009001FF121A90000048
:10169F000000E4900203F09002307414F090000008
:0616AF007401F02200228C
:101313009001E5E0640260030214559001F5E06476
:101323000260030214559001F4E0FF9001E4E06FC2
:101333006003021455900203E0FF9001F3E0FE6F97
:101343006003021455EE30E00302144ED294900170
:10135300E57401F090022BF0E49001E6F09001F3C4
:10136300E075F050A42401F582E5F03400F583C064
:1013730083C0829001E4E0D082D08375F002121A18
:10138300C1A3E025E0FF0582D5820215831582E023
:1013930033FEE4FCFD9001E7121A849001E7E0FCC0
:1013A300A3E0FDA3E0FEA3E0FF90022C121A8490B9
:1013B30001EB121A90000000009001EFE0F8A3E0A7
:1013C300F9A3E0FAA3E0FBA3E075F050A42401F530
:1013D30082E5F03400F583C083C0829001E4E0D05D
:1013E30082D08375F002121AC1E0FEA3E0FFE4FC91
:1013F300FDEB2FFFEA3EFEED39FDEC38FC9001EFEB
:10140300121A849001F3E075F050A42403F582E5E9
:10141300F03400F583C083C0829001E4E0D082D031
:101423008375F002121AC1E0FEA3E04E700D900125
:10143300F3E004F0E49001E4F080069001E4E004BA
:10144300F0121E859000007401F0229000007405D4
:09145300F0229000007406F02262
:101026009001E5E0640260030211A89001F5E06416
:101036000260030211A89001F4E0FF9001E4E06F62
:1010460060030211A8900203E0FF9001F3E0FE6F37
:1010560060030211A8EE20E0030211A1C294E490FD
:1010660001E5F090022BF09001F3E075F050A42416
:1010760001F582E5F03400F583C083C0829001E477
:10108600E0D082D08375F002121AC1A3E025E0FFFA
:101096000582D5820215831582E033FEE4FCFD90BD
:1010A60001E7121A849001E7E0FCA3E0FDA3E0FE4D
:1010B600A3E0FF90022C121A849001EB121A900002
:1010C6000000009001EFE0FCA3E0FDA3E0FEA3E03A
:1010D600FFC006C007A3E075F050A42401F582E521
:1010E600F03400F583C083C0829001E4E0D082D062
:1010F6008375F002121AC1E0FEA3E0FBAA06D00730
:10110600D006C3EF9BFFEE9AFEED9400FDEC940033
:10111600FC9001EF121A849001F3E075F050A424BC
:1011260003F582E5F03400F583C083C0829001E4C4
:10113600E0D082D08375F002121AC1E0FEA3E04E21
:1011460070499001E604F0E49001E4F09001F3E0C8
:1011560004F0E0FFD394054004E4F0803475F050C9
:10116600EFA42401F582E5F03400F583C083C08244
:101176009001E4E0D082D08375F002121AC1E0FE3D
:10118600A3E04E700C9001F3F080069001E4E004B9
:10119600F0121E859000007401F022900000740485
:0911A600F0229000007406F02212
:1016B5009001F5E0640260030217B5900203E03083
:1016C500E0030217AFD2959001F57401F0E4A3F0A1
:1016D500900203E075F050A42401F582E5F0340092
:1016E500F583C083C0829001F4E0D082D08375F089
:1016F50002121AC1A3E025E0FF0582D582021583F7
:101705001582E033FEE4FCFD9001F7121A84900186
:10171500FB121A90000000009001FFE0F8A3E0F929
:10172500A3E0FAA3E0FBA3E075F050A42401F58241
:10173500E5F03400F583C083C0829001F4E0D082E7
:10174500D08375F002121AC1E0FEA3E0FFE4FCFDB0
:10175500EB2FFFEA3EFEED39FDEC38FC9001FF1260
:101765001A84900203E075F050A42403F582E5F095
:101775003400F583C083C0829001F4E0D082D08329
:1017850075F002121AC1E0FEA3E04E700D9002033F
:10179500E004F0E49001F4F080069001F4E004F038
:1017A500121E989000007401F0229000007405F05C
:0117B5002211
:10145C009001F5E06402600302159E900203E02007
:10146C00E003021598C295E49001F5F0900203E0B8
:10147C0075F050A42401F582E5F03400F583C083A7
:10148C00C0829001F4E0D082D08375F002121AC1B0
:10149C00A3E025E0FF0582D5820215831582E03397
:1014AC00FEE4FCFD9001F7121A849001FB121A90D5
:1014BC00000000009001FFE0FCA3E0FDA3E0FEA310
:1014CC00E0FFC006C007A3E075F050A42401F5822C
:1014DC00E5F03400F583C083C0829001F4E0D08243
:1014EC00D08375F002121AC1E0FEA3E0FBAA06D06D
:1014FC0007D006C3EF9BFFEE9AFEED9400FDEC9433
:10150C0000FC9001FF121A84900203E075F050A4C5
:10151C002403F582E5F03400F583C083C08290018A
:10152C00F4E0D082D08375F002121AC1E0FEA3E081
:10153C004E70499001F604F0E49001F4F09002032F
:10154C00E004F0E0FFD394054004E4F0803475F03F
:10155C0050EFA42401F582E5F03400F583C083C07C
:10156C00829001F4E0D082D08375F002121AC1E0AF
:10157C00FEA3E04E700C900203F080069001F4E0A4
:10158C0004F0121E989000007401F0229000007478
:03159C0004F02236
:101941009001E5E0640260030219C99001F5E064C9
:101951000270759001F4E0FF9001E4E0FEB5070C20
:10196100900203E0FF9001F3E06F605C90022BE0D6
:10197100FF24FF92959001F4EEF0A3EFF09001E6C1
:10198100E09001F6F090022CE0FCA3E0FDA3E0FE64
:10199100A3E0FF9001F7121A849001FB121A900044
:1019A1000000009001EFE0FCA3E0FDA3E0FEA3E056
:1019B100FF9001FF121A849001F3E0900203F012EC
:0919C1001E989000007401F02250
:10074D0000000099030304500563063506C8072011
:10075D0007460746072606F106AE0663061305C1D2
:10076D000571052204D70490044D040D03D3039B9A
:10077D0003670338030C02E202BB029802760257AC
:10078D00023A021F020601EE01D801C401B0019D1B
:10079D00018D017C016D015F015101440139012C75
:1007AD0001230117010E010500FC00F400EC00E42B
:1007BD0000DD00D600CF00C900C300BE00B800B2F6
:1007CD0000AE00A800A400A0009B00A0009B009814
:1007DD000093008F008C008800850081007F007BD6
:1007ED000078007600720071006D006B0069006684
:1007FD0000640062005F005E005C00590058005606
:10080D00005400530051004F004D004D004A004967
:10081D000048004600450044004200410040003FB2
:10082D00003E003C003C003A0039003800380036EC
:10083D000035003400340032003200310030002F1A
:10084D00002E002E002D002C002B002B0029002A3D
:10085D00002800280027002700250026002400245A
:10086D000024002300220022002100210020001F6F
:10087D000020001E001E001E001D001D001C001C7F
:10088D00001B001B001A001A001A0019001900188D
:10089D000018001700170017001700160015001597
:1008AD00001500150014001400130014001200139D
:1008BD0000120012001200110011001000110010A2
:1008CD00000F0010000F000F000E000E000E000EA6
:1008DD00000E000D000D000C000C000D000B000CA7
:1008ED00000B000B000B000B000A000A000A0009A8
:1008FD00000A0009000800090008000800080008A7
:10090D0000070008000600070007000600060006A5
:10091D0000050006000500050005000400050004A3
:10092D0000030004000400030003000300020002A2
:10093D00000300020001000200010001000100019E
:06094D00000000000001A3
:0A1CDC00420231006442023300644A
:03000B00020B588D
:100B5800C0E0C0F0C083C082C0D075D0089001E565
:100B6800E0FF700320800EEF64016003020CAD20EB
:050B7800A203020CAD18
:100B7D009001EBE0F8A3E0F9A3E0FAA3E0FB90010C
:100B8D00E7E0FCA3E0FDA3E0FEA3E0C39BFFEE9A2C
:100B9D00FEED99FDEC98FC900211121A84E47F038E
:100BAD007E01FDFC9001EBE0F8A3E0F9A3E0FAA3D0
:100BBD00E0FBC3121A60502C9001EBA3A3E0FEA33F
:100BCD00E090074D75F002121AC1EE25E02583F570
:100BDD0083E493FE740193FF900232E02FF09002B4
:100BED0031E03EF0E47F037E01FDFC900211E0F860
:100BFD00A3E0F9A3E0FAA3E0FBC3121A60502D9015
:100C0D000211A3A3E0FEA3E090074D75F002121AA6
:100C1D00C1EE25E02583F583E493FE740193FFC3B4
:100C2D00900232E09FF0900231E09EF09001EBE0F7
:100C3D00FCA3E0FDA3E0FEA3E02401FFE43EFEE4FF
:100C4D003DFDE43CFC9001EB121A849001E7E0FCC1
:100C5D00A3E0FDA3E0FEA3E0FFA3E0F8A3E0F9A36A
:100C6D00E0FAA3E0FBC3121A604025C28C9002315A
:100C7D00E4F0A37464F09001E57402F09001E712C2
:100C8D001A90000000009001EB121A900000000075
:0E0C9D00900231E0FEA3E0F58AEEF58CB2B4D1
:100CAB00803D9001E5E0FB70079000007403800924
:100CBB00EBB4012B9000007402F0C28C900231E473
:100CCB00F0A37464F09001E57402F09001E7121A3E
:100CDB0090000000009001EB121A9000000000D071
:0A0CEB00D0D082D083D0F0D0E032E8
:03001B00020CF5DF
:100CF500C0E0C0F0C083C082C0D075D0089001F5B7
:100D0500E0FF700320810EEF64016003020E4A20AC
:050D1500A303020E4AD9
:100D1A009001FBE0F8A3E0F9A3E0FAA3E0FB90015D
:100D2A00F7E0FCA3E0FDA3E0FEA3E0C39BFFEE9A7D
:100D3A00FEED99FDEC98FC900215121A84E47F03EB
:100D4A007E01FDFC9001FBE0F8A3E0F9A3E0FAA321
:100D5A00E0FBC3121A60502C9001FBA3A3E0FEA390
:100D6A00E090074D75F002121AC1EE25E02583F5D1
:100D7A0083E493FE740193FF900234E02FF0900213
:100D8A0033E03EF0E47F037E01FDFC900215E0F8BB
:100D9A00A3E0F9A3E0FAA3E0FBC3121A60502D9076
:100DAA000215A3A3E0FEA3E090074D75F002121A04
:100DBA00C1EE25E02583F583E493FE740193FFC316
:100DCA00900234E09FF0900233E09EF09001FBE045
:100DDA00FCA3E0FDA3E0FEA3E02401FFE43EFEE461
:100DEA003DFDE43CFC9001FB121A849001F7E0FC03
:100DFA00A3E0FDA3E0FEA3E0FFA3E0F8A3E0F9A3CC
:100E0A00E0FAA3E0FBC3121A604025C28E900233B7
:100E1A00E4F0A37464F09001F57402F09001F71203
:100E2A001A90000000009001FB121A9000000000C6
:0E0E3A00900233E0FEA3E0F58BEEF58DB2B52D
:100E4800803D9001F5E0FB70079000007403800975
:100E5800EBB4012B9000007402F0C28E900233E4D0
:100E6800F0A37464F09001F57402F09001F7121A7F
:100E780090000000009001FB121A9000000000D0C2
:0A0E8800D0D082D083D0F0D0E03249
:101E4700438E805389F0758A64E4F58CC28DC28C09
:051E5700C2A9D2AF2278
:101E8500758A64E4F58C900231F0A37464F0D2A9EC
:031E9500D28C22CA
:101D4900C2A9C28C900231E4F0A37464F09001E559
:101D59007402F09001E7121A90000000009001EB64
:081D6900121A90000000002294
:101E5C00438E40538910758B64E4F58DC28FC28E0E
:051E6C00C2ABD2AF2261
:101E9800758B64E4F58D900233F0A37464F0D2ABD3
:031EA800D28E22B5
:101D7100C28EC2AB900233E4F0A37464F09001F51B
:101D81007402F09001F7121A90000000009001FB1C
:081D9100121A9000000000226C
:1018C100020E92E493A3F8E493A34003F68001F29D
:1018D10008DFF48029E493A3F85407240CC8C33328
:1018E100C4540F4420C8834004F456800146F6DFF7
:1018F100E4800B0102040810204080901CB0E47EBB
:10190100019360BCA3FF543F30E509541FFEE493EB
:10191100A360010ECF54C025E060A840B8E493A3B2
:10192100FAE493A3F8E493A3C8C582C8CAC583CADD
:10193100F0A3C8C582C8CAC583CADFE9DEE780BE95
:011CE60000FD
:101A4E00EF8DF0A4A8F0CF8CF0A428CE8DF0A42EAC
:021A5E00FE2266
:101A6000EB9FF5F0EA9E42F0E99D42F0E89C45F0DC
:011A70002253
:101A7100E8600FECC313FCED13FDEE13FEEF13FF53
:031A8100D8F12277
:0C1A8400ECF0A3EDF0A3EEF0A3EFF022D5
:101A9000A8828583F0D083D082121AA7121AA712C7
:101AA0001AA7121AA7E473E493A3C583C5F0C583EC
:101AB000C8C582C8F0A3C583C5F0C583C8C582C8A0
:011AC0002203
:0C1AC100A42582F582E5F03583F5832230
:00000001FF
