:030000000218CB18
:0C18CB00787FE4F6D8FD75812002191228
:10122500E490005BF0A3F0A3F07F0AFE121D6612A6
:101235001ABA121CB012167F121F36121E98121EF1
:10124500AD7F017E00121D8D5387DF7F0A7E001260
:101255001D6690005CE004F0700690005BE004F011
:10126500D390005CE094F490005BE094014013900F
:10127500005DE0B4010C7F017E00121D8DE490003D
:101285005DF0E58730E5035387DF900024E0B40186
:1012950003121957121B591213C6900023E0640359
:1012A50070497F05FE121D8D120D9EE4900023F0FE
:1012B5007F03FE121D8D900003E004F07006900080
:1012C50002E004F0900004E0FEA3E0FFD3900003E9
:1012D500E09F900002E09E4005EEF0A3EFF0900045
:1012E500237402F090001E14F08078900023E0B47F
:1012F5000108121DED120A748046900023E0B40522
:1013050046900003E004F07006900002E004F090BF
:101315000004E0FEA3E0FFD3900003E09F900002ED
:10132500E09E4013E4F0A304F0900022E004F07086
:1013350006900021E004F0120A7412152F121C4CBD
:10134500E4900023F0801C900023E0B404157F0591
:101355007E00121D8D121C4CE4900023F07F01FECF
:10136500121D8D900023E0B40208120A74E4900067
:1013750023F090001EE0B40105121761801890005B
:101385001EE0B402197F087E00121D8DE490005BFB
:10139500F0A3F0A304F0E490001EF00212509000B8
:1013A5001EE0640360030212507F07FE121D8DE4E8
:1013B50090005BF0A3F0A304F0E490001EF002128D
:0113C50050D7
:101DD200EF1FAC0670011E4C6010900061E004F031
:0A1DE20070EE900060E004F080E66F
:011DEC0022D4
:081D660090005EEEF0A3EFF027
:101D6E00E4FBFAD390005FE09B90005EE09A400E99
:0E1D7E007FDE7E01121DD20BBB00010A80E544
:011D8C002234
:10167F00E4FFFE121DB4900000EFF0A37402F0120D
:10168F000A74EF705390000004F090000404F0A36C
:10169F007458F0A3E4F0A37464F0A3E4F0A374C847
:1016AF00F0A37401F0A3742CF0A37401F0A3749051
:1016BF00F0A374FFF0A314F0A3747FF0A374FFF0F2
:1016CF00A3F0A3F0A3F0A3F0A3F0A3F0A3F0A3F073
:1016DF00A3F0A3F0A3F0A3F09000257402F0A312DF
:1016EF001A220000000090002A121A2200000000A7
:1016FF0090002E7402F0A3121A2200000000900036
:10170F0033121A22000000009000377402F0A31267
:10171F001A220000000090003C121A220000000064
:10172F009000407402F0A3121A22000000009000F3
:10173F0045121A22000000009000247401F0C2919B
:10174F0090001EF0E4900023F090001FF0A37403AC
:02175F00F02276
:101DED0090005EE4F0A304F0900000E0FDE4FFFE3F
:091DFD00121E3A90005EA3E0FF03
:011E060022B9
:100D9E0090005EE4F0A304F0900000E0FF7E007C83
:100DAE00387D421219E0EF24C0FFEE34C7FE9000EA
:100DBE0060F0A3EFF0900004E0FD121E3A90006187
:100DCE00E02401FF900060E03400FE900004A3E0F8
:100DDE00FD121E3A900002E0FEA3E0FF7C007D189B
:100DEE001219E0900061E02FFF900060E03ECF24EA
:100DFE00EACF34FFFE900062F0A3EFF0900006E021
:100E0E00FD121E3A900063E02401FF900062E03470
:100E1E0000FE900006A3E0FD121E3A900063E0244F
:100E2E0002FF900062E03400FE900008E0FD121E0A
:100E3E003A900063E02403FF900062E03400FE90DD
:100E4E000008A3E0FD121E3A900063E02404FF9018
:100E5E000062E03400FE90000AE0FD121E3A90009F
:100E6E0063E02405FF900062E03400FE90000AA3C8
:100E7E00E0FD121E3A900063E02406FF900062E04F
:100E8E003400FE90000CE0FD121E3A900063E02448
:100E9E0007FF900062E03400FE90000CA3E0FD120C
:100EAE001E3A900063E02408FF900062E03400FEDA
:100EBE0090000EE0FD121E3A900063E02409FF90B0
:100ECE000062E03400FE90000EA3E0FD121E3A9088
:100EDE000063E0240AFF900062E03400FE900010F0
:100EEE00E0FD121E3A900063E0240BFF900062E0DA
:100EFE003400FE900010A3E0FD121E3A900063E055
:100F0E00240CFF900062E03400FE900012E0FD120F
:100F1E001E3A900063E0240DFF900062E03400FE64
:100F2E00900012A3E0FD121E3A900063E0240EFF23
:100F3E00900062E03400FE900014E0FD121E3A9024
:100F4E000063E0240FFF900062E03400FE90001476
:100F5E00A3E0FD121E3A900063E02410FF900062A1
:100F6E00E03400FE900016E0FD121E3A900063E0A1
:100F7E002411FF900062E03400FE900016A3E0FD05
:100F8E00121E3A900063E02412FF900062E03400DB
:100F9E00FE900018E0FD121E3A900063E02413FF4D
:100FAE00900062E03400FE900018A3E0FD121E3A9D
:100FBE00900063E02414FF900062E03400FE900085
:100FCE001AE0FD121E3A900063E02415FF900062B5
:100FDE00E03400FE90001AA3E0FD121E3A9000636A
:100FEE00E02416FF900062E03400FE90001CE0FD4D
:100FFE00121E3A900063E02417FF900062E0340066
:10100E00FE90001CA3E0FD121E3A90005EA3E0FFCE
:01101E0022AF
:100A740090005EE4F0A304F0900000E0FF7E007CB0
:100A8400387D421219E0EF24C0FFEE34C7FE900017
:100A940060F0A3EFF0121DB4EF7F00FEC007C006A4
:100AA400900061E02401FF900060E03400FE121D1C
:100AB400B4EFFDD0E0FFD0E04D900004CFF0A3EF01
:100AC400F0900002E0FEA3E0FF7C007D181219E024
:100AD400900061E02FFF900060E03ECF24EACF3425
:100AE400FFFE900062F0A3EFF0121DB4EF7F00FE52
:100AF400C007C006900063E02401FF900062E03468
:100B040000FE121DB4EFFDD0E0FFD0E04D900006D2
:100B1400CFF0A3EFF0900063E02402FF900062E0C6
:100B24003400FE121DB4EF7F00FEC007C006900023
:100B340063E02403FF900062E03400FE121DB4EF72
:100B4400FDD0E0FFD0E04D900008CFF0A3EFF0908F
:100B54000063E02404FF900062E03400FE121DB440
:100B6400EF7F00FEC007C006900063E02405FF90FD
:100B74000062E03400FE121DB4EFFDD0E0FFD0E0CF
:100B84004D90000ACFF0A3EFF0900063E02406FF3D
:100B9400900062E03400FE121DB4EF7F00FEC00737
:100BA400C006900063E02407FF900062E03400FE7A
:100BB400121DB4EFFDD0E0FFD0E04D90000CCFF05B
:100BC400A3EFF0900063E02408FF900062E034009B
:100BD400FE121DB4EF7F00FEC007C006900063E064
:100BE4002409FF900062E03400FE121DB4EFFDD032
:100BF400E0FFD0E04D90000ECFF0A3EFF090006343
:100C0400E0240AFF900062E03400FE121DB4EF7F7E
:100C140000FEC007C006900063E0240BFF90006252
:100C2400E03400FE121DB4EFFDD0E0FFD0E04D90A3
:100C34000010CFF0A3EFF0900063E0240CFF9000CD
:100C440062E03400FE121DB4EF7F00FEC007C00650
:100C5400900063E0240DFF900062E03400FE121D5A
:100C6400B4EFFDD0E0FFD0E04D900012CFF0A3EF41
:100C7400F0900063E0240EFF900062E03400FE1266
:100C84001DB4EF7F00FEC007C006900063E0240F90
:100C9400FF900062E03400FE121DB4EFFDD0E0FFCF
:100CA400D0E04D900014CFF0A3EFF0900063E02467
:100CB40010FF900062E03400FE121DB4EF7F00FECE
:100CC400C007C006900063E02411FF900062E03486
:100CD40000FE121DB4EFFDD0E0FFD0E04D900016F1
:100CE400CFF0A3EFF0900063E02412FF900062E0E5
:100CF4003400FE121DB4EF7F00FEC007C006900052
:100D040063E02413FF900062E03400FE121DB4EF90
:100D1400FDD0E0FFD0E04D900018CFF0A3EFF090AD
:100D24000063E02414FF900062E03400FE121DB45E
:100D3400EF7F00FEC007C006900063E02415FF901B
:100D44000062E03400FE121DB4EFFDD0E0FFD0E0FD
:100D54004D90001ACFF0A3EFF0900063E02416FF4B
:100D6400900062E03400FE121DB4EF7F00FEC00765
:100D7400C006900063E02417FF900062E03400FE98
:100D8400121DB4EFFDD0E0FFD0E04D90001CCFF079
:090D9400A3EFF090005EA3E0FF64
:010D9D002233
:101ABA007F0A121ED77FF87E7F121DB4EF7F00FEC9
:101ACA00C007C0067FF97E7F121DB4EFFDD0E0FF8C
:101ADA00D0E04D900021CFF0A3EFF07FFA7E7F1285
:101AEA001DB4EF7F00FEC007C0067FFB7E7F121D7C
:101AFA00B4EFFDD0E0FFD0E04D900002CFF0A3EFAD
:021B0A00F022C7
:101C4C00900021E0FD7FF87E7F121E3A900021A3C8
:101C5C00E0FD7FF97E7F121E3A900002E0FD7FFAD4
:101C6C007E7F121E3A900002A3E0FD7FFB7E7F0276
:021C7C001E3A0E
:101ED700AE071FEE600DE4FCFD0DED70010C4C60CC
:031EE700EF80F693
:011EEA0022D5
:0D000E00E4F5C7F5C5F5C675C380F5C4223D
:101E530075C78375C5018FC4EEF5C375C65A75C6BC
:071E6300A500AFC212000E42
:011E6A002255
:101E210075C78375C5028FC4EEF5C3AF058FC27543
:091E3100C65A75C6A50002000E98
:101E830075C78375C5038FC4EEF5C375C65A75C68A
:051E9300A50002000E95
:101C1500C1004F004BFFFFFFFFFFFFFFFFFFFFFF6F
:101C2500FFFFFFFF41005A0041004A004100490003
:0F1F3600759A50759CFD438E1475AF01D2AF2282
:03004300021CE1BB
:101CE100C0E0C0F0C083C082C0D075D008E59A3092
:101CF100E008539AFEAF9B121A5FE59A30E1055353
:0F1D01009AFDC201D0D0D082D083D0F0D0E03292
:101E070090006EE0FCA3E0FDA3E0FEA3E0FF121A42
:011E170003C7
:091E18002001FDEFD201F59B222F
:061C7E00A3E0FCA3E0FD61
:101C8400AB07AA067F5A121E187FA5121E187F05DD
:101C9400121E187F82121E18EAFF121E18AF0312BA
:0C1CA4001E18ECFF121E18AF05021E18DF
:101B0C00AD07AC067F5A121E187FA5121E187F0750
:101B1C00121E187F82121E18ECFF121E18AF05122F
:101B2C001E187818121E077810121E0790006EE00F
:101B3C00FCA3E0FDA3E0FEA3E0FF7808121A031259
:0D1B4C001E1890006EA3A3A3E0FF021E1858
:101D8D00AD07AC067F5A121E187FA5121E187F04D0
:101D9D00121E187F80121E187F03121E18ECFF12E0
:071DAD001E18AF05021E180D
:101A5F0090005AE014601114601614602224037071
:101A6F0043EF645A70448010EFB4A502800A8035AA
:101A7F00900049EFF0E4A3F090005AE004F02290B8
:101A8F00004AE0244BF582E43400F583EFF0900038
:101A9F004AE004F0900049E0FFA3E0C39F400B121F
:0B1AAF000046800100E490005AF02285
:1000460090004FE0FEA3E0FDEDFF90004DE0FDB413
:100056000213D3EF9402EE940040027F0290000058
:10006600EFF00202D5EDB40A05900001803C900045
:100076004DE0FDB4031D900004E0FAA3E0FBC39F2E
:10008600EA9E5004AE02AF03900002EEF0A3EFF03A
:1000960002035BEDB40417D3EF9458EE94024004C8
:1000A6007E027F58900004EEF0A3EF0203769000E4
:1000B6004DE0FDB405059000068075EDB40605908B
:1000C6000008806C90004DE0FDB4070590000A80A2
:1000D6005FEDB4080590000C805690004DE0FDB42D
:1000E600090590000E8049EDB4100590001080407F
:1000F60090004DE0FDB411059000128033EDB4126E
:1001060005900014802A90004DE0FDB41305900080
:1001160016801DEDB41405900018801490004DE073
:10012600FDB4150590001A8007EDB4160B90001C5F
:10013600EEF0A3EFF002040990004DE0FB641770A7
:100146000EC29190002404F090002504020232EBC6
:10015600641860030201DB900024F0D29190002520
:100166007402F0A3121A220000000090002A121A4C
:10017600220000000090002E7402F0A3121A220042
:10018600000000900033121A220000000090003791
:100196007402F0A3121A220000000090003C121A0A
:1001A60022000000009000407402F0A3121A220000
:1001B600000000900045121A220000000090000284
:1001C600E4F0A304F090002304F090001E14F01253
:1001D6001CB002040990004DE0FF641970249000E1
:1001E6001EE06003020409900023E0600302040994
:1001F600900000E004F0E0D3940240037401F002A2
:1002060002D5EF6420700302040990004DE0FF64FC
:10021600217003020409EF64227003020409EF64EB
:10022600237067900024F09000257402F0A3121A40
:10023600220000000090002A121A220000000090FE
:10024600002E7402F0A3121A220000000090003360
:10025600121A22000000009000377402F0A3121A4E
:10026600220000000090003C121A220000000090BC
:1002760000407402F0A3121A22000000009000450C
:10028600121A22000000000203DF90004DE0FFB4C6
:10029600242190001EE06003020409900000E0148F
:1002A600F0E0FED394025003EE7006900000740155
:1002B600F0801CEFB4252590001EE06003020409BF
:1002C600900000E004F0E0D3940240037402F09042
:1002D60000237401F090001EF002040990004DE026
:1002E600FF6426703B90001EE06003020409900044
:1002F60003E024FFF0900002E034FFF0900004E0F9
:10030600FCA3E0FD900002E0FAA3E0FBD39DEA9C8B
:100316005004EB4A7008900002E4F0A304F0803524
:10032600EFB4273F90001EE060030204099000032B
:10033600E004F07006900002E004F0900004E0FE95
:10034600A3E0FFD3900003E09F900002E09E4005EB
:10035600EEF0A3EFF09000237402F090001E14F06C
:1003660002040990004DE0FFB428089000237403AE
:10037600F08066EF64297039900006F0A3F0A3F0D0
:10038600A3F0A3F0A3F0A3F0A3F0A3F0A3F0A3F0CF
:10039600A3F0A3F0A3F0A3F0A3F0A3F0A3F0A3F0BF
:1003A600A3F0A3F0A3F0A3F0A3F090001E04F08046
:1003B60052EFB4302C74FF90000EF0A3F0A3F0A31C
:1003C600F0A3F0A3F0A3F0A3F0A3F0A3F0A3F0A38F
:1003D600F0A3F0A3F0A3F0A3F090001E7401F08048
:1003E60022EFB4310B900078E0B41417E4F08013D8
:1003F60090004DE0FF6432600AEFB43306900023AC
:050406007404F0D200B7
:01040B0022CE
:10176100900024E0FD7C007F0F7E00121C8490001D
:1017710021E0FCA3E0FD7F0E121C84900000E0FD3F
:101781007C007F02121C84A3E0FD7F0A121C847F6F
:1017910003121C7E7F04121C7EA3E0FCA3E0FD7FEC
:1017A10005121C84A3E0FCA3E0FD7F06121C84A3A8
:1017B100E0FCA3E0FD7F07121C84A3E0FCA3E0FD95
:1017C1007F08121C84A3E0FCA3E0FD7F09121C84A6
:1017D100A3E0FCA3E0FD7F10121C84A3E0FCA3E0C6
:1017E100FD7F11121C84A3E0FCA3E0FD7F12121CFB
:1017F10084A3E0FCA3E0FD7F13121C84A3E0FCA3FF
:10180100E0FD7F14121C84A3E0FCA3E0FD7F151210
:0D1811001C84A3E0FCA3E0FD7F16021C84F4
:081C3500410076004100770038
:10195700900076E014601714602114606E24037001
:101967007630A00320A1719000767401F02230A098
:101977000320A15D9000767402F02220A02290003F
:101987001FE07004A3E0640160169000237405F063
:1019970090001E7401F090001FE4F0A304F080246F
:1019A70020A12190001FE07004A3E064026015905D
:1019B70000237405F090001E7401F090001FE4F0FE
:1019C700A37402F09000767403F02230A00A30A1CD
:0919D70007E4900076F0220022E2
:101B5900900077E014601414601B1460282403704B
:101B69002D20A22B9000777401F02220A21A900058
:101B7900777402F02220A2069000237404F09000EA
:101B8900777403F02230A207E4900077F022002254
:10152F0012181E900025E0640260030215D8900087
:10153F002EE0640260030215D83090030215D89094
:10154F000006E0FEA3E0FF4E6036D3EF94FFEE946B
:10155F007F400FC294E4900025F0E49FFFE49EFECD
:10156F008010D2949000257401F0900006E0FEA345
:10157F00E0FFE4FCFD900026121A1690002A803F2F
:10158F00900008E0FEA3E0FF4E603ED3EF94FFEE25
:10159F00947F400FC296E490002EF0E49FFFE49EEC
:1015AF00FE8010D29690002E7401F0900008E0FE9D
:1015BF00A3E0FFE4FCFD90002F121A1690003312E7
:1015CF001A2200000000121EFF900037E064026034
:1015DF000302167E900040E06402600302167E3024
:1015EF00900302167E90000AE0FEA3E0FF4E6036E5
:1015FF00D3EF94FFEE947F400FC2B3E4900037F027
:10160F00E49FFFE49EFE8010D2B39000377401F088
:10161F0090000AE0FEA3E0FFE4FCFD900038121AF0
:10162F001690003C803F90000CE0FEA3E0FF4E6060
:10163F003ED3EF94FFEE947F400FC2B5E49000408D
:10164F00F0E49FFFE49EFE8010D2B590004074013D
:10165F00F090000CE0FEA3E0FFE4FCFD90004112CF
:10166F001A16900045121A2200000000121F1222B3
:041C3D0041007814D6
:1013C600900078E0146063147003021476147003BE
:1013D6000214BB1470030215022404600302152DC7
:1013E600900025E06402600302152E90002EE06452
:1013F60002600302152E900037E0640260030215B6
:101406002E900040E06402600302152EC294900004
:1014160025F0A3121A22002DC6C090002A121A2205
:1014260000000000121EFF0214FB30800302152E7E
:10143600121B999000257402F0A3121A22000000D4
:101446000090002A121A2200000000C296E49000C2
:101456002EF0A3121A22002DC6C0900033121A22B3
:1014660000000000121EFF90001E7401F00214FB23
:1014760030810302152E121B9990002E7402F0A3E0
:10148600121A2200000000900033121A22000000F7
:1014960000C2B3E4900037F0A3121A22002DC6C092
:1014A60090003C121A2200000000121F1290001E2B
:1014B6007401F08040208270121BD79000377402AE
:1014C600F0A3121A220000000090003C121A22001B
:1014D600000000C2B5E4900040F0A3121A22002DCD
:1014E600C6C0900045121A2200000000121F12907A
:1014F600001E7401F0900078E004F0222083291287
:101506001BD79000407402F0A3121A2200000000BC
:10151600900045121A220000000090001E7401F08F
:091526009000787414F0220022F8
:10181E007B07EBFF3395E0FEEF25E0FFEE33FE7422
:10182E000E2FF58274003EF583E0FFA3E090005E7C
:10183E00CFF0A3EFF0E4FDC2B090005EE0FEA3E0B7
:10184E00FF13B392B2D2B0EEC313FEEF13FF9000AC
:10185E005EEEF0A3EFF00DEDB410DC1BEBB403B2B3
:10186E00C2B1D2B17B03EBFF3395E0FEEF25E0FF73
:10187E00EE33FE740E2FF58274003EF583E0FFA367
:10188E00E090005ECFF0A3EFF0E4FDC2A390005E07
:10189E00E0FEA3E0FF13B392A5D2A3EEC313FEEFB7
:1018AE0013FF90005EEEF0A3EFF00DEDB410DC1B15
:0C18BE00C3EB6480948050AEC2A4D2A49E
:0118CA0022FB
:101CB000E4FEE4FFC2A3D2A5D2A30FEFB410F50E49
:101CC000EEB404EEC2A4D2A47E04E4FFC2B0D2B249
:101CD000D2B00FEFB410F50EEEB408EEC2B1D2B12F
:011CE00022E1
:10101F0000000099030304500563063506C8072036
:10102F0007460746072606F106AE0663061305C1F7
:10103F000571052204D70490044D040D03D3039BBF
:10104F0003670338030C02E202BB029802760257D1
:10105F00023A021F020601EE01D801C401B0019D40
:10106F00018D017C016D015F015101440139012C9A
:10107F0001230117010E010500FC00F400EC00E450
:10108F0000DD00D600CF00C900C300BE00B800B21B
:10109F0000AE00A800A400A0009B00A0009B009839
:1010AF000093008F008C008800850081007F007BFB
:1010BF000078007600720071006D006B00690066A9
:1010CF0000640062005F005E005C0059005800562B
:1010DF00005400530051004F004D004D004A00498D
:1010EF000048004600450044004200410040003FD8
:1010FF00003E003C003C003A003900380038003612
:10110F000035003400340032003200310030002F3F
:10111F00002E002E002D002C002B002B0029002A62
:10112F00002800280027002700250026002400247F
:10113F000024002300220022002100210020001F94
:10114F000020001E001E001E001D001D001C001CA4
:10115F00001B001B001A001A001A001900190018B2
:10116F0000180017001700170017001600150015BC
:10117F0000150015001400140013001400120013C2
:10118F0000120012001200110011001000110010C7
:10119F00000F0010000F000F000E000E000E000ECB
:1011AF00000E000D000D000C000C000D000B000CCC
:1011BF00000B000B000B000B000A000A000A0009CD
:1011CF00000A0009000800090008000800080008CC
:1011DF0000070008000600070007000600060006CB
:1011EF0000050006000500050005000400050004C9
:1011FF0000030004000400030003000300020002C8
:10120F0000030002000100020001000100010001C3
:06121F00000000000001C8
:0A1C41004200720064420074006467
:03000B0002040CE0
:10040C00C0E0C0F0C083C082C0D075D00890002579
:10041C00E0FF700320800EEF640160030205602092
:05042C008403020560DD
:1004310090002AE0F8A3E0F9A3E0FAA3E0FB900022
:1004410026E0FCA3E0FDA3E0FEA3E0C39BFFEE9A40
:10045100FEED99FDEC98FC900064121A16E47F03FE
:100461007E01FDFC90002AE0F8A3E0F9A3E0FAA3E5
:10047100E0FBC31219F2502C90002AA3A3E0FEA3C3
:10048100E090101F75F002121A53EE25E02583F556
:1004910083E493FE740193FF900073E02FF09000CA
:1004A10072E03EF0E47F037E01FDFC900064E0F821
:1004B100A3E0F9A3E0FAA3E0FBC31219F2502D90D7
:1004C1000064A3A3E0FEA3E090101F75F002121ACE
:1004D10053EE25E02583F583E493FE740193FFC376
:1004E100900073E09FF0900072E09EF090002AE08F
:1004F100FCA3E0FDA3E0FEA3E02401FFE43EFEE453
:100501003DFDE43CFC90002A121A16900026E0FC06
:10051100A3E0FDA3E0FEA3E0FFA3E0F8A3E0F9A3BD
:10052100E0FAA3E0FBC31219F24023C28C900072DF
:10053100E4F0A37464F09000257402F0A3121A226F
:100541000000000090002A121A2200000000900012
:0C05510072E0FEA3E0F58AEEF58CB29596
:10055D0002073590002EE0FF700320810EEF64013D
:0B056D0060030206A72085030206A71A
:10057800900033E0F8A3E0F9A3E0FAA3E0FB9000D1
:100588002FE0FCA3E0FDA3E0FEA3E0C39BFFEE9AEF
:10059800FEED99FDEC98FC900064121A16E47F03B6
:1005A8007E01FDFC900033E0F8A3E0F9A3E0FAA394
:1005B800E0FBC31219F2502C900033A3A3E0FEA372
:1005C800E090101F75F002121A53EE25E02583F50E
:1005D80083E493FE740193FF900073E02FF0900082
:1005E80072E03EF0E47F037E01FDFC900064E0F8D9
:1005F800A3E0F9A3E0FAA3E0FBC31219F2502D908F
:100608000064A3A3E0FEA3E090101F75F002121A85
:1006180053EE25E02583F583E493FE740193FFC32D
:10062800900073E09FF0900072E09EF0900033E03D
:10063800FCA3E0FDA3E0FEA3E02401FFE43EFEE40A
:100648003DFDE43CFC900033121A1690002FE0FCAC
:10065800A3E0FDA3E0FEA3E0FFA3E0F8A3E0F9A375
:10066800E0FAA3E0FBC31219F24023C28C90007297
:10067800E4F0A37464F090002E7402F0A3121A221E
:1006880000000000900033121A22000000009000C1
:0C06980072E0FEA3E0F58AEEF58CB2974C
:1006A400020735900025E0FB700790001E7403805C
:1006B40009EBB4012490001E7402F0C28C90007205
:1006C400E4F0A37464F09000257402F0A3121A22DB
:1006D4000000000090002A805190002EE0FB70245E
:1006E40090001E7403F0C28C900072E4F0A3746452
:1006F400F090002E7402F0A3121A22000000009061
:1007040000338026EBB4012990001E7402F0C28CE1
:10071400900072E4F0A37464F090002E7402F0A3CD
:10072400121A2200000000900033121A2200000066
:0C07340000D0D0D082D083D0F0D0E032D2
:03001B0002074099
:10074000C0E0C0F0C083C082C0D075D00890003730
:10075000E0FF700320820EEF640160030208942022
:0507600086030208946D
:1007650090003CE0F8A3E0F9A3E0FAA3E0FB9000D9
:1007750038E0FCA3E0FDA3E0FEA3E0C39BFFEE9AF7
:10078500FEED99FDEC98FC900068121A16E47F03C3
:100795007E01FDFC90003CE0F8A3E0F9A3E0FAA39C
:1007A500E0FBC31219F2502C90003CA3A3E0FEA37A
:1007B500E090101F75F002121A53EE25E02583F51F
:1007C50083E493FE740193FF900075E02FF0900091
:1007D50074E03EF0E47F037E01FDFC900068E0F8E4
:1007E500A3E0F9A3E0FAA3E0FBC31219F2502D90A0
:1007F5000068A3A3E0FEA3E090101F75F002121A93
:1008050053EE25E02583F583E493FE740193FFC33E
:10081500900075E09FF0900074E09EF090003CE041
:10082500FCA3E0FDA3E0FEA3E02401FFE43EFEE41B
:100835003DFDE43CFC90003C121A16900038E0FCAB
:10084500A3E0FDA3E0FEA3E0FFA3E0F8A3E0F9A386
:10085500E0FAA3E0FBC31219F24023C28E900074A4
:10086500E4F0A37464F09000377402F0A3121A2226
:100875000000000090003C121A22000000009000C9
:0C08850074E0FEA3E0F58BEEF58DB2B43C
:10089100020A69900040E0FF700320830EEF6401BB
:0B08A10060030209DB2087030209DB73
:1008AC00900045E0F8A3E0F9A3E0FAA3E0FB900088
:1008BC0041E0FCA3E0FDA3E0FEA3E0C39BFFEE9AA6
:1008CC00FEED99FDEC98FC900068121A16E47F037B
:1008DC007E01FDFC900045E0F8A3E0F9A3E0FAA34B
:1008EC00E0FBC31219F2502C900045A3A3E0FEA329
:1008FC00E090101F75F002121A53EE25E02583F5D7
:10090C0083E493FE740193FF900075E02FF0900048
:10091C0074E03EF0E47F037E01FDFC900068E0F89B
:10092C00A3E0F9A3E0FAA3E0FBC31219F2502D9057
:10093C000068A3A3E0FEA3E090101F75F002121A4A
:10094C0053EE25E02583F583E493FE740193FFC3F6
:10095C00900075E09FF0900074E09EF0900045E0F0
:10096C00FCA3E0FDA3E0FEA3E02401FFE43EFEE4D3
:10097C003DFDE43CFC900045121A16900041E0FC51
:10098C00A3E0FDA3E0FEA3E0FFA3E0F8A3E0F9A33E
:10099C00E0FAA3E0FBC31219F24023C28E9000745C
:1009AC00E4F0A37464F09000407402F0A3121A22D5
:1009BC0000000000900045121A2200000000900078
:0C09CC0074E0FEA3E0F58BEEF58DB2B6F2
:1009D800020A69900037E0FB700790001E740380DC
:1009E80009EBB4012490001E7402F0C28E900074CA
:1009F800E4F0A37464F09000377402F0A3121A2292
:100A08000000000090003C8051900040E0FB702402
:100A180090001E7403F0C28E900074E4F0A3746416
:100A2800F09000407402F0A3121A22000000009017
:100A380000458026EBB4012990001E7402F0C28E96
:100A4800900074E4F0A37464F09000407402F0A382
:100A5800121A2200000000900045121A220000001D
:0C0A680000D0D0D082D083D0F0D0E0329B
:101E9800438E805389F0758A64E4F58CC28DC28CB8
:051EA800C2A9D2AF2227
:101EFF00758A64E4F58C900072F0A37464F0D2A933
:031F0F00D28C224F
:101B9900C2A9C28C900072E4F0A37464F09000258D
:101BA9007402F0A3121A220000000090002A121AEF
:101BB900220000000090002E7402F0A3121A2200E5
:0E1BC900000000900033121A220000000022DB
:101EAD00438E40538910758B64E4F58DC28FC28EBD
:051EBD00C2ABD2AF2210
:101F1200758B64E4F58D900074F0A37464F0D2AB19
:031F2200D28E223A
:101BD700C28EC2AB900074E4F0A37464F090003737
:101BE7007402F0A3121A220000000090003C121A9F
:101BF70022000000009000407402F0A3121A220095
:0E1C0700000000900045121A2200000000228A
:101EC200D2A60000D2A70000000000C2A6000000B7
:051ED2000000C2A72280
:101EEB00C2A600D2A70000000000D2A6000000008E
:041EFB0000C2A72258
:101D3D00121EC27FA012001E121D55EAFF12001EB8
:081D4D00121D55AF0312001E28
:101D5500C2A6000000D2A70000000000C2A7000034
:011D6500225B
:101F2500D2A6000000D2A70000000000C2A7000052
:011F35002289
:10001E007E08AD07C2A70000000000ED30E704D255
:10002E00A68002C2A6D2A7EF25E0FDFFDEE4C2A79E
:01003E00229F
:101D1000E4FFFE7D08D2A6C2A70000000000D2A703
:101D20000000000000EF30A6054401FF800354FED0
:0C1D3000FFED146005EF25E0FEFFDDDB99
:011D3C002284
:101E6B00EFD394004011E4FDFC0DBD00010CED64BB
:071E7B007D4C70F51F80E9AA
:011E8200223D
:101E3A00AB07AA06AC05121D3DAF0412001E121D07
:091E4A0055121EEB7F0F021E6B06
:041DB400AB07AA06C9
:101DB800121D3D121EC27FA112001E121D55121DBA
:091DC80010C2A7121F25121EEB28
:011DD10022EF
:1018D700021225E493A3F8E493A34003F68001F2F0
:1018E70008DFF48029E493A3F85407240CC8C33312
:1018F700C4540F4420C8834004F456800146F6DFE1
:10190700E4800B0102040810204080901C15E47E3F
:10191700019360BCA3FF543F30E509541FFEE493D5
:10192700A360010ECF54C025E060A840B8E493A39C
:10193700FAE493A3F8E493A3C8C582C8CAC583CAC7
:10194700F0A3C8C582C8CAC583CADFE9DEE780BE7F
:011C4B000098
:1019E000EF8DF0A4A8F0CF8CF0A428CE8DF0A42E1B
:0219F000FE22D5
:1019F200EB9FF5F0EA9E42F0E99D42F0E89C45F04B
:011A020022C1
:101A0300E8600FECC313FCED13FDEE13FEEF13FFC1
:031A1300D8F122E5
:0C1A1600ECF0A3EDF0A3EEF0A3EFF02243
:101A2200A8828583F0D083D082121A39121A391211
:101A32001A39121A39E473E493A3C583C5F0C58336
:101A4200C8C582C8F0A3C583C5F0C583C8C582C80E
:011A52002271
:0C1A5300A42582F582E5F03583F583229E
:00000001FF
