:030000000215A640
:0C15A600787FE4F6D8FD7581200215ED79
:10135C00E4900059F0A3F0A3F07FF47E011219ABD6
:10136C001216B1121B7B121ADD121AF27F017E00CB
:10137C001219D21217D05387DF7F0A7E001219ABD5
:10138C0090005AE004F07006900059E004F0D390FD
:10139C00005AE094F4900059E09401401390005BE3
:1013AC00E0B4010C7F017E001219D2E490005BF0D6
:1013BC00E58730E5245387DF7F0A7E001219ABE501
:1013CC008730E51512180E12184C5387DF12188A45
:1013DC00E58730E504B29080FC900022E0B4010374
:1013EC001214EC900021E0B40305120D6C801990DE
:1013FC000021E0B40108121A32120A42800A90004D
:10140C0021E0B40208120A42E4900021F090001E80
:10141C00E06401600302138512142FE490001EF0A7
:03142C0002138523
:101A1700EF1FAC0670011E4C601090005FE004F0F1
:0A1A270070EE90005EE004F080E62F
:011A31002292
:0819AB0090005CEEF0A3EFF0E8
:1019B300E4FBFAD390005DE09B90005CE09A400E5C
:0E19C3007FDE7E01121A170BBB00010A80E5C1
:0119D10022F3
:1016B100120A42EF705B90000004F0A304F0A3E46F
:1016C100F0A37403F0A314F0A37458F0A3E4F0A3FF
:1016D1007464F0A3E4F0A374C8F0A37401F0A374DC
:1016E1002CF0A37401F0A37490F0A374FFF0A31481
:1016F100F0A3747FF0A374FFF0A3F0A3F0A3F0A311
:10170100F0A3F0A3F0A3F0A3F0A3F0A3F0A3F0A340
:10171100F0E490001FF0A3F090002204F090001E6E
:07172100F0E4900021F0222A
:101A320090005CE4F0A304F0900000E0FDE4FFFEFF
:091A4200121A7F90005CA3E0FF82
:011A4B002278
:100D6C0090005CE4F0A304F0900000E0FF7E007CB7
:100D7C00387D42121632EF24C0FFEE34C7FE9000CD
:100D8C005EF0A3EFF0900004E0FD121A7F90005F7C
:100D9C00E02401FF90005EE03400FE900004A3E02C
:100DAC00FD121A7F900002E0FEA3E0FF7C007D188C
:100DBC0012163290005FE02FFF90005EE03ECF24D1
:100DCC00EACF34FFFE900060F0A3EFF0900006E055
:100DDC00FD121A7F900061E02401FF900060E03466
:100DEC0000FE900006A3E0FD121A7F900061E02443
:100DFC0002FF900060E03400FE900008E0FD121A43
:100E0C007F900061E02403FF900060E03400FE90CE
:100E1C000008A3E0FD121A7F900061E02404FF900B
:100E2C000060E03400FE90000AE0FD121A7F900092
:100E3C0061E02405FF900060E03400FE90000AA3FE
:100E4C00E0FD121A7F900061E02406FF900060E044
:100E5C003400FE90000CE0FD121A7F900061E0243B
:100E6C0007FF900060E03400FE90000CA3E0FD1240
:100E7C001A7F900061E02408FF900060E03400FECF
:100E8C0090000EE0FD121A7F900061E02409FF90A3
:100E9C000060E03400FE90000EA3E0FD121A7F907B
:100EAC000061E0240AFF900060E03400FE90001026
:100EBC00E0FD121A7F900061E0240BFF900060E0CF
:100ECC003400FE900010A3E0FD121A7F900061E048
:100EDC00240CFF900060E03400FE900012E0FD1244
:100EEC001A7F900061E0240DFF900060E03400FE5A
:100EFC00900012A3E0FD121A7F900061E0240EFF17
:100F0C00900060E03400FE900014E0FD121A7F9017
:100F1C000061E0240FFF900060E03400FE900014AC
:100F2C00A3E0FD121A7F900061E02410FF90006096
:100F3C00E03400FE900016E0FD121A7F900061E094
:100F4C002411FF900060E03400FE900016A3E0FD39
:100F5C00121A7F900061E02412FF900060E03400D0
:100F6C00FE900018E0FD121A7F900061E02413FF40
:100F7C00900060E03400FE900018A3E0FD121A7F90
:100F8C00900061E02414FF900060E03400FE9000BB
:100F9C001AE0FD121A7F900061E02415FF900060AA
:100FAC00E03400FE90001AA3E0FD121A7F9000615D
:100FBC00E02416FF900060E03400FE90001CE0FD81
:100FCC00121A7F900061E02417FF900060E034005B
:100FDC00FE90001CA3E0FD121A7F90005CA3E0FFC2
:010FEC0022E2
:100A420090005CE4F0A304F0900000E0FF7E007CE4
:100A5200387D42121632EF24C0FFEE34C7FE9000FA
:100A62005EF0A3EFF01219F9EF7F00FEC007C00697
:100A720090005FE02401FF90005EE03400FE121956
:100A8200F9EFFDD0E0FFD0E04D900004CFF0A3EFEE
:100A9200F0900002E0FEA3E0FF7C007D1812163207
:100AA20090005FE02FFF90005EE03ECF24EACF345B
:100AB200FFFE900060F0A3EFF01219F9EF7F00FE45
:100AC200C007C006900061E02401FF900060E0349E
:100AD20000FE1219F9EFFDD0E0FFD0E04D900006C4
:100AE200CFF0A3EFF0900061E02402FF900060E0FD
:100AF2003400FE1219F9EF7F00FEC007C006900015
:100B020061E02403FF900060E03400FE1219F9EF67
:100B1200FDD0E0FFD0E04D900008CFF0A3EFF090C1
:100B22000061E02404FF900060E03400FE1219F935
:100B3200EF7F00FEC007C006900061E02405FF9031
:100B42000060E03400FE1219F9EFFDD0E0FFD0E0C2
:100B52004D90000ACFF0A3EFF0900061E02406FF71
:100B6200900060E03400FE1219F9EF7F00FEC0072A
:100B7200C006900061E02407FF900060E03400FEB0
:100B82001219F9EFFDD0E0FFD0E04D90000CCFF04C
:100B9200A3EFF0900061E02408FF900060E03400D1
:100BA200FE1219F9EF7F00FEC007C006900061E057
:100BB2002409FF900060E03400FE1219F9EFFDD025
:100BC200E0FFD0E04D90000ECFF0A3EFF090006177
:100BD200E0240AFF900060E03400FE1219F9EF7F72
:100BE20000FEC007C006900061E0240BFF90006089
:100BF200E03400FE1219F9EFFDD0E0FFD0E04D9095
:100C02000010CFF0A3EFF0900061E0240CFF900001
:100C120060E03400FE1219F9EF7F00FEC007C00643
:100C2200900061E0240DFF900060E03400FE121994
:100C3200F9EFFDD0E0FFD0E04D900012CFF0A3EF2E
:100C4200F0900061E0240EFF900060E03400FE129C
:100C520019F9EF7F00FEC007C006900061E0240F83
:100C6200FF900060E03400FE1219F9EFFDD0E0FFC2
:100C7200D0E04D900014CFF0A3EFF0900061E0249B
:100C820010FF900060E03400FE1219F9EF7F00FEC1
:100C9200C007C006900061E02411FF900060E034BC
:100CA20000FE1219F9EFFDD0E0FFD0E04D900016E2
:100CB200CFF0A3EFF0900061E02412FF900060E01B
:100CC2003400FE1219F9EF7F00FEC007C006900043
:100CD20061E02413FF900060E03400FE1219F9EF86
:100CE200FDD0E0FFD0E04D900018CFF0A3EFF090E0
:100CF2000061E02414FF900060E03400FE1219F954
:100D0200EF7F00FEC007C006900061E02415FF904F
:100D12000060E03400FE1219F9EFFDD0E0FFD0E0F0
:100D22004D90001ACFF0A3EFF0900061E02416FF7F
:100D3200900060E03400FE1219F9EF7F00FEC00758
:100D4200C006900061E02417FF900060E03400FECE
:100D52001219F9EFFDD0E0FFD0E04D90001CCFF06A
:090D6200A3EFF090005CA3E0FF98
:010D6B002265
:1017D0007F0A121B1C7FFF7E01121A98BFEE277F23
:1017E000087E00121A98EF7F00FEC007C0067F092E
:1017F0007E00121A98EFFDD0E0FFD0E04D90001F60
:0E180000CFF0A3EFF022E490001FF0A3F0223F
:10188A007F0A121B1CE4FFFE121AC87F0A121B1CD5
:10189A0090001FE0FD7F087E00121A6690001FA3C9
:1018AA00E0FD7F097E00121A667DEE7FFF7E01123F
:0718BA001A667F0A021B1CE5
:101B1C00AE071FEE600DE4FCFD0DED70010C4C608A
:031B2C00EF80F651
:011B2F002293
:0D000E00E4F5C7F5C5F5C675C380F5C4223D
:101A980075C78375C5018FC4EEF5C375C65A75C67B
:071AA800A500AFC212000E01
:011AAF002214
:101A660075C78375C5028FC4EEF5C3AF058FC27502
:091A7600C65A75C6A50002000E57
:101AC80075C78375C5038FC4EEF5C375C65A75C649
:051AD800A50002000E54
:1018C100C1004F0049FFFFFFFFFFFFFFFFFFFFFFC9
:1018D100FFFFFFFF41005800410048004100470061
:0F1B7B00759A50759CFD438E1475AF01D2AF2241
:0300430002192679
:10192600C0E0C0F0C083C082C0D075D008E59A3050
:10193600E008539AFEAF9B121728E59A30E105534B
:0F1946009AFDC201D0D0D082D083D0F0D0E03251
:101A4C00900077E0FCA3E0FDA3E0FEA3E0FF1216FC
:011A5C005534
:091A5D002001FDEFD201F59B22EE
:0618F400A3E0FCA3E0FDEF
:1018FA00AB07AA067F5A121A5D7FA5121A5D7F05E9
:10190A00121A5D7F82121A5DEAFF121A5DAF031284
:0C191A001A5DECFF121A5DAF05021A5DA9
:10178300AD07AC067F5A121A5D7FA5121A5D7F075B
:10179300121A5D7F82121A5DECFF121A5DAF0512F9
:1017A3001A5D7818121A4C7810121A4C900077E0D0
:1017B300FCA3E0FDA3E0FEA3E0FF78081216551298
:0D17C3001A5D900077A3A3A3E0FF021A5D5A
:1019D200AD07AC067F5A121A5D7FA5121A5D7F040D
:1019E200121A5D7F80121A5D7F03121A5DECFF12DC
:0719F2001A5DAF05021A5D4A
:10172800900058E0146011146016146022240370AD
:1017380043EF645A70448010EFB4A502800A8035E4
:10174800900047EFF0E4A3F0900058E004F02290F6
:101758000048E02449F582E43400F583EFF0900076
:1017680048E004F0900047E0FFA3E0C39F400B125D
:0B1778000046800100E4900058F022C1
:1000460090004DE0FEA3E0FDEDFF90004BE0FDB417
:100056000213D3EF9402EE940040027F0290000058
:10006600EFF0020265EDB40A07900001EF0201BB52
:1000760090004BE0FDB4031D900004E0FAA3E0FB02
:10008600C39FEA9E5004AE02AF03900002EEF0A3B7
:10009600EFF002038DEDB4041DD3EF9458EE9402F5
:1000A60040047E027F58900004EEF0A3EFF090002B
:1000B6002174030201BB90004BE0FDB405109000D3
:1000C60006EEF0A3EFF090002174030201BBEDB43D
:1000D6000610900008EEF0A3EFF0900021740302E2
:1000E60001BB90004BE0FDB4071090000AEEF0A3B0
:1000F600EFF090002174030201BBEDB408109000EC
:100106000CEEF0A3EFF090002174030201BB900007
:100116004BE0FDB4091090000EEEF0A3EFF0900056
:100126002174030201BBEDB4100F900010EEF0A392
:10013600EFF09000217403807C90004BE0FDB41139
:100146000F900012EEF0A3EFF0900021740380658B
:10015600EDB4120F900014EEF0A3EFF090002174AE
:1001660003805290004BE0FDB4130F900016EEF0A2
:10017600A3EFF09000217403803BEDB4140F9000C0
:1001860018EEF0A3EFF09000217403802890004B46
:10019600E0FDB4150F90001AEEF0A3EFF0900021E9
:1001A60074038011EDB4161190001CEEF0A3EFF06D
:1001B6009000217403F00202F090004BE0FFB417A8
:1001C60008B290900022020344EF64187067900012
:1001D60022F09000237402F0A312167400000000AF
:1001E6009000281216740000000090002C7402F093
:1001F600A31216740000000090003112167400005D
:1002060000009000357402F0A3121674000000007E
:1002160090003A1216740000000090003E7402F03E
:10022600A31216740000000090004312167400001A
:1002360000000202F090004BE0FF64197027900066
:100246001EE060030203D7900021E060030203D79B
:10025600900000E004F0E0D3940240037401F090B3
:100266000021020344EF642070030203D790004B81
:10027600E0FF642170030203D7EF642270030203D8
:10028600D7EF6423706D900022F09000237402F083
:10029600A3121674000000009000281216740000C5
:1002A600000090002C7402F0A312167400000000E7
:1002B600900031121674000000009000357402F0B0
:1002C600A31216740000000090003A121674000083
:1002D600000090003E7402F0A312167400000000A5
:1002E6009000431216740000000090001E7401F086
:1002F6000203D790004BE0FFB4242490001EE06078
:10030600030203D7900000E014F0E0FED3940250FD
:1003160003EE70069000007401F0900021801FEF3C
:10032600B4252590001EE060030203D7900000E08C
:1003360004F0E0D3940240037402F09000217401AB
:10034600F090001EF00203D790004BE0FF64267089
:100356004390001EE0707A900003E024FFF09000C6
:1003660002E034FFF0900004E0FCA3E0FD90000200
:10037600E0FAA3E0FBD39DEA9C5004EB4A70089098
:100386000002E4F0A304F09000217402F090001E35
:1003960014F0803DEFB4273990001EE070339000D2
:1003A60003E004F07006900002E004F0900004E020
:1003B600FEA3E0FFD3900003E09F900002E09E4082
:1003C60005EEF0A3EFF09000217402F090001E14E9
:0303D600F0D20062
:0103D9002201
:10142F00900022E0FD7C007F0F7E001218FA9000E2
:10143F001FE0FCA3E0FD7F011218FA900000E0FD11
:10144F007C007F021218FAA3E0FD7F0A1218FA7FC0
:10145F00031218F47F041218F4A3E0FCA3E0FD7F3D
:10146F00051218FAA3E0FCA3E0FD7F061218FAA3F9
:10147F00E0FCA3E0FD7F071218FAA3E0FCA3E0FD58
:10148F007F081218FAA3E0FCA3E0FD7F091218FAF7
:10149F00A3E0FCA3E0FD7F101218FAA3E0FCA3E089
:1014AF00FD7F111218FAA3E0FCA3E0FD7F121218C2
:1014BF00FAA3E0FCA3E0FD7F131218FAA3E0FCA34C
:1014CF00E0FD7F141218FAA3E0FCA3E0FD7F1512D4
:0D14DF0018FAA3E0FCA3E0FD7F160218FA46
:0418E10041007F0043
:1014EC0090007FE014602014602C14700302159897
:1014FC00240360030215A430A00630A1030215A535
:10150C0090007F7401F02230A00320A10790007F8F
:10151C007402F022807C20A03090001EE070669057
:10152C000003E004F07006900002E004F090000468
:10153C00E0FEA3E0FFD3900003E09F900002E09E4A
:10154C004038E4F0A304F0803120A13990001EE073
:10155C007033900003E004F07006900002E004F099
:10156C00900004E0FEA3E0FFD3900003E09F900006
:10157C0002E09E4005E4F0A304F09000217402F018
:10158C0090001E14F090007F7403F02230A00A30FB
:0A159C00A107E490007FF022002276
:0418E50041006A1440
:1011F30090006AE01460631470030212A314700376
:101203000212E814700302132F2404600302135A1A
:10121300900023E06402600302135B90002CE064FF
:1012230002600302135B900035E064026003021363
:101233005B90003EE06402600302135BC294900083
:1012430023F0A3121674002DC6C090002812167442
:1012530000000000121B4402132830800302135BBA
:1012630012180E9000237402F0A3121674000000EB
:101273000090002812167400000000C295E490004C
:101283002CF0A3121674002DC6C0900031121674F0
:1012930000000000121B4490001E7401F00213288A
:1012A30030810302135B12180E90002C7402F0A31A
:1012B3001216740000000090003112167400000032
:1012C30000C296E4900035F0A3121674002DC6C038
:1012D30090003A12167400000000121B5790001E73
:1012E3007401F0804020827012184C900035740213
:1012F300F0A31216740000000090003A1216740056
:10130300000000C297E490003EF0A3121674002D73
:10131300C6C090004312167400000000121B5790C1
:10132300001E7401F090006AE004F0222083291269
:10133300184C90003E7402F0A312167400000000D3
:101343009000431216740000000090001E7401F018
:0913530090006A7414F0220022DB
:100FED0000000099030304500563063506C8072069
:100FFD0007460746072606F106AE0663061305C12A
:10100D000571052204D70490044D040D03D3039BF1
:10101D0003670338030C02E202BB02980276025703
:10102D00023A021F020601EE01D801C401B0019D72
:10103D00018D017C016D015F015101440139012CCC
:10104D0001230117010E010500FC00F400EC00E482
:10105D0000DD00D600CF00C900C300BE00B800B24D
:10106D0000AE00A800A400A0009B00A0009B00986B
:10107D000093008F008C008800850081007F007B2D
:10108D000078007600720071006D006B00690066DB
:10109D0000640062005F005E005C0059005800565D
:1010AD00005400530051004F004D004D004A0049BF
:1010BD000048004600450044004200410040003F0A
:1010CD00003E003C003C003A003900380038003644
:1010DD000035003400340032003200310030002F72
:1010ED00002E002E002D002C002B002B0029002A95
:1010FD0000280028002700270025002600240024B2
:10110D000024002300220022002100210020001FC6
:10111D000020001E001E001E001D001D001C001CD6
:10112D00001B001B001A001A001A001900190018E4
:10113D0000180017001700170017001600150015EE
:10114D0000150015001400140013001400120013F4
:10115D0000120012001200110011001000110010F9
:10116D00000F0010000F000F000E000E000E000EFD
:10117D00000E000D000D000C000C000D000B000CFE
:10118D00000B000B000B000B000A000A000A0009FF
:10119D00000A0009000800090008000800080008FE
:1011AD0000070008000600070007000600060006FD
:1011BD0000050006000500050005000400050004FB
:1011CD0000030004000400030003000300020002FA
:1011DD0000030002000100020001000100010001F6
:0611ED00000000000001FB
:0A18E90042007B006442007D0064B1
:03000B000203DA13
:1003DA00C0E0C0F0C083C082C0D075D008900023AE
:1003EA00E0FF700320800EEF6401600302052E20F7
:0503FA00840302052E42
:1003FF00900028E0F8A3E0F9A3E0FAA3E0FB900057
:10040F0024E0FCA3E0FDA3E0FEA3E0C39BFFEE9A74
:10041F00FEED99FDEC98FC900062121668E47F03E4
:10042F007E01FDFC900028E0F8A3E0F9A3E0FAA319
:10043F00E0FBC3121644502C900028A3A3E0FEA3A8
:10044F00E0900FED75F0021216A5EE25E02583F56D
:10045F0083E493FE740193FF90007CE02FF09000F3
:10046F007BE03EF0E47F037E01FDFC900062E0F84C
:10047F00A3E0F9A3E0FAA3E0FBC3121644502D90BA
:10048F000062A3A3E0FEA3E0900FED75F002121639
:10049F00A5EE25E02583F583E493FE740193FFC356
:1004AF0090007CE09FF090007BE09EF0900028E0B1
:1004BF00FCA3E0FDA3E0FEA3E02401FFE43EFEE485
:1004CF003DFDE43CFC900028121668900024E0FCEF
:1004DF00A3E0FDA3E0FEA3E0FFA3E0F8A3E0F9A3F0
:1004EF00E0FAA3E0FBC31216444023C28C90007BBA
:1004FF00E4F0A37464F09000237402F0A312167456
:10050F0000000000900028121674000000009000F8
:0C051F007BE0FEA3E0F58AEEF58CB2B4A0
:10052B0002070390002CE0FF700320810EEF6401A3
:0B053B006003020675208503020675B0
:10054600900031E0F8A3E0F9A3E0FAA3E0FB900005
:100556002DE0FCA3E0FDA3E0FEA3E0C39BFFEE9A23
:10056600FEED99FDEC98FC900062121668E47F039C
:100576007E01FDFC900031E0F8A3E0F9A3E0FAA3C8
:10058600E0FBC3121644502C900031A3A3E0FEA357
:10059600E0900FED75F0021216A5EE25E02583F525
:1005A60083E493FE740193FF90007CE02FF09000AB
:1005B6007BE03EF0E47F037E01FDFC900062E0F804
:1005C600A3E0F9A3E0FAA3E0FBC3121644502D9072
:1005D6000062A3A3E0FEA3E0900FED75F0021216F1
:1005E600A5EE25E02583F583E493FE740193FFC30E
:1005F60090007CE09FF090007BE09EF0900031E060
:10060600FCA3E0FDA3E0FEA3E02401FFE43EFEE43C
:100616003DFDE43CFC90003112166890002DE0FC94
:10062600A3E0FDA3E0FEA3E0FFA3E0F8A3E0F9A3A7
:10063600E0FAA3E0FBC31216444023C28C90007B71
:10064600E4F0A37464F090002C7402F0A312167404
:1006560000000000900031121674000000009000A7
:0C0666007BE0FEA3E0F58AEEF58CB2B557
:10067200020703900023E0FB700790001E740380C2
:1006820009EBB4012490001E7402F0C28C90007B2E
:10069200E4F0A37464F09000237402F0A3121674C1
:1006A20000000000900028805190002CE0FB702494
:1006B20090001E7403F0C28C90007BE4F0A374647B
:1006C200F090002C7402F0A3121674000000009047
:1006D20000318026EBB4012990001E7402F0C28C16
:1006E20090007BE4F0A37464F090002C7402F0A3F9
:1006F20012167400000000900031121674000000FF
:0C07020000D0D0D082D083D0F0D0E03204
:03001B0002070ECB
:10070E00C0E0C0F0C083C082C0D075D00890003564
:10071E00E0FF700320820EEF640160030208622086
:05072E008603020862D1
:1007330090003AE0F8A3E0F9A3E0FAA3E0FB90000D
:1007430036E0FCA3E0FDA3E0FEA3E0C39BFFEE9A2B
:10075300FEED99FDEC98FC900066121668E47F03A9
:100763007E01FDFC90003AE0F8A3E0F9A3E0FAA3D0
:10077300E0FBC3121644502C90003AA3A3E0FEA35F
:10078300E0900FED75F0021216A5EE25E02583F536
:1007930083E493FE740193FF90007EE02FF09000BA
:1007A3007DE03EF0E47F037E01FDFC900066E0F80F
:1007B300A3E0F9A3E0FAA3E0FBC3121644502D9083
:1007C3000066A3A3E0FEA3E0900FED75F0021216FE
:1007D300A5EE25E02583F583E493FE740193FFC31F
:1007E30090007EE09FF090007DE09EF090003AE064
:1007F300FCA3E0FDA3E0FEA3E02401FFE43EFEE44E
:100803003DFDE43CFC90003A121668900036E0FC93
:10081300A3E0FDA3E0FEA3E0FFA3E0F8A3E0F9A3B8
:10082300E0FAA3E0FBC31216444023C28E90007D7E
:10083300E4F0A37464F09000357402F0A31216740C
:100843000000000090003A121674000000009000AF
:0C0853007DE0FEA3E0F58BEEF58DB2B663
:10085F00020A3790003EE0FF700320830EEF640121
:0B086F0060030209A92087030209A909
:10087A00900043E0F8A3E0F9A3E0FAA3E0FB9000BC
:10088A003FE0FCA3E0FDA3E0FEA3E0C39BFFEE9ADA
:10089A00FEED99FDEC98FC900066121668E47F0361
:1008AA007E01FDFC900043E0F8A3E0F9A3E0FAA37F
:1008BA00E0FBC3121644502C900043A3A3E0FEA30E
:1008CA00E0900FED75F0021216A5EE25E02583F5EE
:1008DA0083E493FE740193FF90007EE02FF0900072
:1008EA007DE03EF0E47F037E01FDFC900066E0F8C7
:1008FA00A3E0F9A3E0FAA3E0FBC3121644502D903B
:10090A000066A3A3E0FEA3E0900FED75F0021216B5
:10091A00A5EE25E02583F583E493FE740193FFC3D6
:10092A0090007EE09FF090007DE09EF0900043E012
:10093A00FCA3E0FDA3E0FEA3E02401FFE43EFEE405
:10094A003DFDE43CFC90004312166890003FE0FC39
:10095A00A3E0FDA3E0FEA3E0FFA3E0F8A3E0F9A370
:10096A00E0FAA3E0FBC31216444023C28E90007D36
:10097A00E4F0A37464F090003E7402F0A3121674BB
:10098A00000000009000431216740000000090005E
:0C099A007DE0FEA3E0F58BEEF58DB2B71A
:1009A600020A37900035E0FB700790001E74038042
:1009B60009EBB4012490001E7402F0C28E90007DF3
:1009C600E4F0A37464F09000357402F0A312167478
:1009D6000000000090003A805190003EE0FB702439
:1009E60090001E7403F0C28E90007DE4F0A3746440
:1009F600F090003E7402F0A31216740000000090FE
:100A060000438026EBB4012990001E7402F0C28ECA
:100A160090007DE4F0A37464F090003E7402F0A3AD
:100A260012167400000000900043121674000000B5
:0C0A360000D0D0D082D083D0F0D0E032CD
:101ADD00438E805389F0758A64E4F58CC28DC28C77
:051AED00C2A9D2AF22E6
:101B4400758A64E4F58C90007BF0A37464F0D2A9E8
:031B5400D28C220E
:10180E00C2A9C28C90007BE4F0A37464F090002314
:10181E007402F0A312167400000000900028121635
:10182E00740000000090002C7402F0A312167400D5
:0E183E0000000090003112167400000000221D
:101AF200438E40538910758B64E4F58DC28FC28E7C
:051B0200C2ABD2AF22CE
:101B5700758B64E4F58D90007DF0A37464F0D2ABCF
:031B6700D28E22F9
:10184C00C28EC2AB90007DE4F0A37464F0900035BE
:10185C007402F0A31216740000000090003A1216E5
:10186C00740000000090003E7402F0A31216740085
:0E187C000000009000431216740000000022CD
:101B0700D2A70000D2A60000000000C2A700000074
:051B17000000C2A6223F
:101B3000C2A700D2A60000000000D2A7000000004B
:041B400000C2A62217
:10198200121B077FA012001E12199AEAFF12001EF4
:0819920012199AAF0312001EA6
:10199A00C2A7000000D2A60000000000C2A60000F4
:0119AA00221A
:101B6A00D2A7000000D2A60000000000C2A6000012
:011B7A002248
:10001E007E08AD07C2A60000000000ED30E704D256
:10002E00A78002C2A7D2A6EF25E0FDFFDEE4C2A69E
:01003E00229F
:10195500E4FFFE7D08D2A7C2A60000000000D2A6C3
:101965000000000000EF30A7054401FF800354FE8E
:0C197500FFED146005EF25E0FEFFDDDB58
:011981002243
:101AB000EFD394004011E4FDFC0DBD00010CED647A
:071AC0007D4C70F51F80E969
:011AC70022FC
:101A7F00AB07AA06AC05121982AF0412001E121989
:091A8F009A121B307F0F021AB0FD
:0419F900AB07AA0688
:1019FD00121982121B077FA112001E12199A1219B9
:091A0D0055C2A6121B6A121B301F
:011A160022AD
:1015B20002135CE493A3F8E493A34003F68001F2E0
:1015C20008DFF48029E493A3F85407240CC8C3333A
:1015D200C4540F4420C8834004F456800146F6DF09
:1015E200E4800B01020408102040809018C1E47EC0
:1015F200019360BCA3FF543F30E509541FFEE493FE
:10160200A360010ECF54C025E060A840B8E493A3C4
:10161200FAE493A3F8E493A3C8C582C8CAC583CAEF
:10162200F0A3C8C582C8CAC583CADFE9DEE780BEA7
:0118F30000F4
:10163200EF8DF0A4A8F0CF8CF0A428CE8DF0A42ECC
:02164200FE2286
:10164400EB9FF5F0EA9E42F0E99D42F0E89C45F0FC
:011654002273
:10165500E8600FECC313FCED13FDEE13FEEF13FF73
:03166500D8F12297
:0C166800ECF0A3EDF0A3EEF0A3EFF022F5
:10167400A8828583F0D083D08212168B12168B1227
:10168400168B12168BE473E493A3C583C5F0C5834C
:10169400C8C582C8F0A3C583C5F0C583C8C582C8C0
:0116A4002223
:0C16A500A42582F582E5F03583F5832250
:00000001FF
