:03000000020BDF11
:0C0BDF00787FE4F6D8FD758120020C261A
:100A1D00E4900069F0A3F0A3F07FF47E01120F952E
:100A2D0012114B12115B1210AD1210C27F017E001C
:100A3D00120FBC120DC05387DF90006AE004F070F6
:100A4D0006900069E004F0D390006AE094329000C3
:100A5D0069E09400401390006BE0B4010C7F017EBF
:100A6D0000120FBCE490006BF0900033E064026064
:100A7D000C90003CE0640260047F0480159000330C
:100A8D00E0B4020890003CE0640260047F0680023E
:100A9D007F0A7E00120F95E58730E52A5387DF7FA9
:100AAD000A7E00120F95E58730E51B120DFE120E22
:100ABD003C5387DF120E7AE58730E504B29080FC57
:100ACD00121114121127900032E0B40103120D809F
:100ADD001208B490002EE0B40105120000801890A9
:100AED00002EE0B402197F067E00120FBCE49000C8
:100AFD0069F0A3F0A304F0E490002EF0020A4690F2
:100B0D00002EE064036003020A467F05FE120FBC4F
:100B1D00E4900069F0A3F0A304F0E490002EF0023D
:020B2D000A4676
:10100100EF1FAC0670011E4C601090006FE004F001
:0A10110070EE90006EE004F080E63F
:01101B0022B2
:080F950090006CEEF0A3EFF0F8
:100F9D00E4FBFAD390006DE09B90006CE09A400E5C
:0E0FAD007FDE7E011210010BBB00010A80E501
:010FBB002213
:10114B009000327401F090002EF0E4900031F02208
:020003007F017B
:0100050022D8
:02000600E4FF15
:0100080022D5
:100DC0007F0A1210EC7FFF7E01121068BFEE277FB2
:100DD000087E00121068EF7F00FEC007C0067F0982
:100DE0007E00121068EFFDD0E0FFD0E04D90002FA4
:0E0DF000CFF0A3EFF022E490002FF0A3F0224A
:100E7A007F0A1210ECE4FFFE1210987F0A1210EC9F
:100E8A0090002FE0FD7F087E0012103690002FA3FD
:100E9A00E0FD7F097E001210367DEE7FFF7E011293
:070EAA0010367F0A0210EC74
:1010EC00AE071FEE600DE4FCFD0DED70010C4C60C5
:0310FC00EF80F68C
:0110FF0022CE
:0D000E00E4F5C7F5C5F5C675C380F5C4223D
:1010680075C78375C5018FC4EEF5C375C65A75C6B5
:07107800A500AFC212000E3B
:01107F00224E
:1010360075C78375C5028FC4EEF5C3AF058FC2753C
:09104600C65A75C6A50002000E91
:1010980075C78375C5038FC4EEF5C375C65A75C683
:0510A800A50002000E8E
:100EB100C1004F0059FFFFFFFFFFFFFFFFFFFFFFD3
:100EC100FFFFFFFF4100680041005800410057004B
:0F115B00759A50759CFD438E1475AF01D2AF226B
:03004300020EE4C6
:100EE400C0E0C0F0C083C082C0D075D008E59A309D
:100EF400E008539AFEAF9B120CD8E59A30E10553F3
:0F0F04009AFDC201D0D0D082D083D0F0D0E0329D
:10101C00900087E0FCA3E0FDA3E0FEA3E0FF120C30
:01102C007C47
:09102D002001FDEFD201F59B2228
:100F4000AB07AA067F5A12102D7FA512102D7F0520
:100F500012102D7F8212102DEAFF12102DAF0312F6
:0C0F6000102DECFF12102DAF0502102D1B
:100D3300AD07AC067F5A12102D7FA512102D7F0729
:100D430012102D7F8212102DECFF12102DAF051201
:100D5300102D781812101C781012101C900087E0C8
:100D6300FCA3E0FDA3E0FEA3E0FF7808120C7C12D5
:0D0D7300102D900087A3A3A3E0FF02102D18
:100FBC00AD07AC067F5A12102D7FA512102D7F04A1
:100FCC0012102D7F8012102D7F0312102DECFF12AA
:070FDC00102DAF0502102DDE
:100CD800900068E0146011146016146022240370F8
:100CE80043EF645A70448010EFB4A502800A80353F
:100CF800900057EFF0E4A3F0900068E004F0229031
:100D08000058E02459F582E43400F583EFF09000B0
:100D180058E004F0900057E0FFA3E0C39F400B1297
:0B0D28000B2F800100E4900068F02217
:100B2F0090005DE0FEA3E0FDEDFF900070EEF0A3FE
:100B3F00EFF090005BE0FFB4070F90007AE06414D1
:100B4F006003020BDCF0020BDCEFB4170EB29090D7
:100B5F0000327401F090002EF0807290005BE06420
:100B6F0018706A900032F09000337402F0A3120CE8
:100B7F009B00000000900038120C9B0000000090BA
:100B8F00003C7402F0A3120C9B0000000090004187
:100B9F00120C9B000000009000457402F0A3120C91
:100BAF009B0000000090004A120C9B000000009078
:100BBF00004E7402F0A3120C9B0000000090005333
:0F0BCF00120C9B0000000090002E7401F0D20069
:010BDE0022F4
:0E116A00900032E0FD7C007F0F7E00020F40FF
:040ED10041008F004D
:100D800090008FE014601714602114602524037014
:100D90002D30A00320A12890008F7401F02230A0F4
:100DA0000320A11490008F7402F02290008F74032E
:100DB000F02230A00A30A107E490008FF022002238
:040ED50041007A144A
:1008B40090007AE0146063147003020964147003F6
:1008C4000209A91470030209F024046003020A1B3C
:1008D400900033E064026003020A1C90003CE06470
:1008E400026003020A1C900045E064026003020AED
:1008F4001C90004EE064026003020A1CC294900043
:1009040033F0A3120C9B002DC6C0900038120C9B30
:10091400000000001211140209E9308003020A1CCD
:10092400120DFE9000337402F0A3120C9B00000021
:1009340000900038120C9B00000000C295E4900067
:100944003CF0A3120C9B002DC6C0900041120C9BDE
:100954000000000012111490002E7401F00209E945
:10096400308103020A1C120DFE90003C7402F0A3B5
:10097400120C9B00000000900041120C9B00000030
:1009840000C296E4900045F0A3120C9B002DC6C053
:1009940090004A120C9B0000000012112790002EB8
:1009A4007401F08040208270120E3C900045740265
:1009B400F0A3120C9B0000000090004A120C9B0054
:1009C400000000C297E490004EF0A3120C9B002D8F
:1009D400C6C0900053120C9B000000001211279017
:1009E400002E7401F090007AE004F0222083291292
:1009F4000E3C90004E7402F0A3120C9B0000000009
:100A0400900053120C9B0000000090002E7401F023
:090A140090007A7414F022002213
:1006AE0000000099030304500563063506C80720B1
:1006BE0007460746072606F106AE0663061305C172
:1006CE000571052204D70490044D040D03D3039B3A
:1006DE0003670338030C02E202BB0298027602574C
:1006EE00023A021F020601EE01D801C401B0019DBB
:1006FE00018D017C016D015F015101440139012C15
:10070E0001230117010E010500FC00F400EC00E4CA
:10071E0000DD00D600CF00C900C300BE00B800B295
:10072E0000AE00A800A400A0009B00A0009B0098B3
:10073E000093008F008C008800850081007F007B75
:10074E000078007600720071006D006B0069006623
:10075E0000640062005F005E005C005900580056A5
:10076E00005400530051004F004D004D004A004907
:10077E000048004600450044004200410040003F52
:10078E00003E003C003C003A00390038003800368C
:10079E000035003400340032003200310030002FBA
:1007AE00002E002E002D002C002B002B0029002ADD
:1007BE0000280028002700270025002600240024FA
:1007CE000024002300220022002100210020001F0F
:1007DE000020001E001E001E001D001D001C001C1F
:1007EE00001B001B001A001A001A0019001900182D
:1007FE000018001700170017001700160015001537
:10080E00001500150014001400130014001200133C
:10081E000012001200120011001100100011001041
:10082E00000F0010000F000F000E000E000E000E45
:10083E00000E000D000D000C000C000D000B000C46
:10084E00000B000B000B000B000A000A000A000947
:10085E00000A000900080009000800080008000846
:10086E000007000800060007000700060006000645
:10087E000005000600050005000500040005000443
:10088E000003000400040003000300030002000242
:10089E00000300020001000200010001000100013E
:0608AE0000000000000143
:0A0ED90042008B006442008D0064AB
:03000B00020046AA
:10004600C0E0C0F0C083C082C0D075D00890003335
:10005600E0FF700320800EEF6401600302019A2026
:05006600840302019A71
:10006B00900038E0F8A3E0F9A3E0FAA3E0FB9000DE
:10007B0034E0FCA3E0FDA3E0FEA3E0C39BFFEE9AFC
:10008B00FEED99FDEC98FC900072120C8FE47F034F
:10009B007E01FDFC900038E0F8A3E0F9A3E0FAA3A1
:1000AB00E0FBC3120C6B502C900038A3A3E0FEA313
:1000BB00E09006AE75F002120CCCEE25E02583F530
:1000CB0083E493FE740193FF90008CE02FF090007B
:1000DB008BE03EF0E47F037E01FDFC900072E0F8C4
:1000EB00A3E0F9A3E0FAA3E0FBC3120C6B502D9035
:1000FB000072A3A3E0FEA3E09006AE75F002120C13
:10010B00CCEE25E02583F583E493FE740193FFC3C6
:10011B0090008CE09FF090008BE09EF0900038E018
:10012B00FCA3E0FDA3E0FEA3E02401FFE43EFEE41C
:10013B003DFDE43CFC900038120C8F900034E0FC49
:10014B00A3E0FDA3E0FEA3E0FFA3E0F8A3E0F9A387
:10015B00E0FAA3E0FBC3120C6B4023C28C90008B24
:10016B00E4F0A37464F09000337402F0A3120C9BC0
:10017B0000000000900038120C9B00000000900063
:0C018B008BE0FEA3E0F58AEEF58CB2B428
:1001970002036F90003CE0FF700320810EEF6401C3
:0B01A70060030202E12085030202E178
:1001B200900041E0F8A3E0F9A3E0FAA3E0FB90008D
:1001C2003DE0FCA3E0FDA3E0FEA3E0C39BFFEE9AAB
:1001D200FEED99FDEC98FC900072120C8FE47F0307
:1001E2007E01FDFC900041E0F8A3E0F9A3E0FAA350
:1001F200E0FBC3120C6B502C900041A3A3E0FEA3C2
:10020200E09006AE75F002120CCCEE25E02583F5E7
:1002120083E493FE740193FF90008CE02FF0900032
:100222008BE03EF0E47F037E01FDFC900072E0F87B
:10023200A3E0F9A3E0FAA3E0FBC3120C6B502D90EC
:100242000072A3A3E0FEA3E09006AE75F002120CCA
:10025200CCEE25E02583F583E493FE740193FFC37E
:1002620090008CE09FF090008BE09EF0900041E0C7
:10027200FCA3E0FDA3E0FEA3E02401FFE43EFEE4D4
:100282003DFDE43CFC900041120C8F90003DE0FCEF
:10029200A3E0FDA3E0FEA3E0FFA3E0F8A3E0F9A33F
:1002A200E0FAA3E0FBC3120C6B4023C28C90008BDC
:1002B200E4F0A37464F090003C7402F0A3120C9B6F
:1002C20000000000900041120C9B00000000900012
:0C02D2008BE0FEA3E0F58AEEF58CB2B5DF
:1002DE0002036F900033E0FB700790002E740380D2
:1002EE0009EBB4012490002E7402F0C28C90008BA6
:1002FE00E4F0A37464F09000337402F0A3120C9B2C
:10030E0000000000900038805190003CE0FB70240B
:10031E0090002E7403F0C28C90008BE4F0A37464F2
:10032E00F090003C7402F0A3120C9B0000000090B1
:10033E0000418026EBB4012990002E7402F0C28C8D
:10034E0090008BE4F0A37464F090003C7402F0A370
:10035E00120C9B00000000900041120C9B0000004C
:0C036E0000D0D0D082D083D0F0D0E0329C
:03001B0002037A63
:10037A00C0E0C0F0C083C082C0D075D008900045EC
:10038A00E0FF700320820EEF640160030204CE20B6
:05039A0086030204CE01
:10039F0090004AE0F8A3E0F9A3E0FAA3E0FB900095
:1003AF0046E0FCA3E0FDA3E0FEA3E0C39BFFEE9AB3
:1003BF00FEED99FDEC98FC900076120C8FE47F0314
:1003CF007E01FDFC90004AE0F8A3E0F9A3E0FAA358
:1003DF00E0FBC3120C6B502C90004AA3A3E0FEA3CA
:1003EF00E09006AE75F002120CCCEE25E02583F5F9
:1003FF0083E493FE740193FF90008EE02FF0900042
:10040F008DE03EF0E47F037E01FDFC900076E0F886
:10041F00A3E0F9A3E0FAA3E0FBC3120C6B502D90FD
:10042F000076A3A3E0FEA3E09006AE75F002120CD7
:10043F00CCEE25E02583F583E493FE740193FFC38F
:10044F0090008EE09FF090008DE09EF090004AE0CB
:10045F00FCA3E0FDA3E0FEA3E02401FFE43EFEE4E5
:10046F003DFDE43CFC90004A120C8F900046E0FCEE
:10047F00A3E0FDA3E0FEA3E0FFA3E0F8A3E0F9A350
:10048F00E0FAA3E0FBC3120C6B4023C28E90008DE9
:10049F00E4F0A37464F09000457402F0A3120C9B77
:1004AF000000000090004A120C9B0000000090001A
:0C04BF008DE0FEA3E0F58BEEF58DB2B6EB
:1004CB000206A390004EE0FF700320830EEF640141
:0B04DB006003020615208703020615CF
:1004E600900053E0F8A3E0F9A3E0FAA3E0FB900044
:1004F6004FE0FCA3E0FDA3E0FEA3E0C39BFFEE9A62
:10050600FEED99FDEC98FC900076120C8FE47F03CB
:100516007E01FDFC900053E0F8A3E0F9A3E0FAA306
:10052600E0FBC3120C6B502C900053A3A3E0FEA378
:10053600E09006AE75F002120CCCEE25E02583F5B0
:1005460083E493FE740193FF90008EE02FF09000F9
:100556008DE03EF0E47F037E01FDFC900076E0F83E
:10056600A3E0F9A3E0FAA3E0FBC3120C6B502D90B5
:100576000076A3A3E0FEA3E09006AE75F002120C8F
:10058600CCEE25E02583F583E493FE740193FFC347
:1005960090008EE09FF090008DE09EF0900053E07A
:1005A600FCA3E0FDA3E0FEA3E02401FFE43EFEE49D
:1005B6003DFDE43CFC900053120C8F90004FE0FC94
:1005C600A3E0FDA3E0FEA3E0FFA3E0F8A3E0F9A308
:1005D600E0FAA3E0FBC3120C6B4023C28E90008DA1
:1005E600E4F0A37464F090004E7402F0A3120C9B26
:1005F60000000000900053120C9B000000009000C9
:0C0606008DE0FEA3E0F58BEEF58DB2B7A1
:100612000206A3900045E0FB700790002E74038051
:1006220009EBB4012490002E7402F0C28E90008D6A
:10063200E4F0A37464F09000457402F0A3120C9BE2
:100642000000000090004A805190004EE0FB7024B0
:1006520090002E7403F0C28E90008DE4F0A37464B7
:10066200F090004E7402F0A3120C9B000000009068
:1006720000538026EBB4012990002E7402F0C28E42
:1006820090008DE4F0A37464F090004E7402F0A325
:10069200120C9B00000000900053120C9B00000003
:0C06A20000D0D0D082D083D0F0D0E03265
:1010AD00438E805389F0758A64E4F58CC28DC28CB1
:0510BD00C2A9D2AF2220
:10111400758A64E4F58C90008BF0A37464F0D2A912
:03112400D28C2248
:100DFE00C2A9C28C90008BE4F0A37464F09000330F
:100E0E007402F0A3120C9B00000000900038120C2C
:100E1E009B0000000090003C7402F0A3120C9B009B
:0E0E2E00000000900041120C9B00000000220A
:1010C200438E40538910758B64E4F58DC28FC28EB6
:0510D200C2ABD2AF2209
:10112700758B64E4F58D90008DF0A37464F0D2ABF9
:03113700D28E2233
:100E3C00C28EC2AB90008DE4F0A37464F0900045B8
:100E4C007402F0A3120C9B0000000090004A120CDC
:100E5C009B0000000090004E7402F0A3120C9B004B
:0E0E6C00000000900053120C9B0000000022BA
:1010D700D2A70000D2A60000000000C2A7000000AF
:0510E7000000C2A6227A
:10110000C2A700D2A60000000000D2A70000000085
:0411100000C2A62251
:100F6C001210D77FA012001E120F84EAFF12001E6F
:080F7C00120F84AF0312001EE6
:100F8400C2A7000000D2A60000000000C2A6000014
:010F9400223A
:10113A00D2A7000000D2A60000000000C2A600004C
:01114A002282
:10001E007E08AD07C2A60000000000ED30E704D256
:10002E00A78002C2A7D2A6EF25E0FDFFDEE4C2A69E
:01003E00229F
:100F1300E4FFFE7D08D2A7C2A60000000000D2A60F
:100F23000000000000EF30A7054401FF800354FEDA
:0C0F3300FFED146005EF25E0FEFFDDDBA4
:010F3F00228F
:10108000EFD394004011E4FDFC0DBD00010CED64B4
:071090007D4C70F51F80E9A3
:011097002236
:10104F00AB07AA06AC05120F6CAF0412001E120FED
:09105F00841211007F14021080BC
:040FE300AB07AA06A8
:100FE700120F6C1210D77FA112001E120F84120F5E
:090FF70013C2A612113A121100F6
:0110000022CD
:100BEB00020A1DE493A3F8E493A34003F68001F2F9
:100BFB0008DFF48029E493A3F85407240CC8C3330B
:100C0B00C4540F4420C8834004F456800146F6DFD9
:100C1B00E4800B0102040810204080900EB1E47EAA
:100C2B00019360BCA3FF543F30E509541FFEE493CE
:100C3B00A360010ECF54C025E060A840B8E493A395
:100C4B00FAE493A3F8E493A3C8C582C8CAC583CAC0
:100C5B00F0A3C8C582C8CAC583CADFE9DEE780BE78
:010EE300000E
:100C6B00EB9FF5F0EA9E42F0E99D42F0E89C45F0DF
:010C7B002256
:100C7C00E8600FECC313FCED13FDEE13FEEF13FF56
:030C8C00D8F1227A
:0C0C8F00ECF0A3EDF0A3EEF0A3EFF022D8
:100C9B00A8828583F0D083D082120CB2120CB212D0
:100CAB000CB2120CB2E473E493A3C583C5F0C583F5
:100CBB00C8C582C8F0A3C583C5F0C583C8C582C8A3
:010CCB002206
:0C0CCC00A42582F582E5F03583F5832233
:00000001FF
