:030000000216C71E
:0C16C700787FE4F6D8FD75812002170E34
:1014E200E4900059F0A3F0A3F07FD07E07121B21F5
:1014F200121753121CF1121C53121C687F017E003A
:10150200121B481219465387DF7F0A7E00121B21E5
:1015120090005AE004F07006900059E004F0D39075
:10152200005AE094F4900059E09401401390005B5B
:10153200E0B4010C7F017E00121B48E490005BF0D6
:10154200E58730E52EB2905387DF7F0A7E00121BBB
:1015520021E58730E51DB2901219841219C2538712
:10156200DF121A00E58730E504B29080FC121CBA43
:10157200121CCD900022E0B401031218FB12137961
:10158200900021E0B403177F057E00121B48120D64
:1015920070E4900021F07F03FE121B48801B900034
:1015A20021E0B40105121BA88007900021E0B402DB
:1015B20008120A46E4900021F090001EE0B40105F2
:1015C20012160A801890001EE0B402197F087E00ED
:1015D200121B48E4900059F0A3F0A304F0E4900039
:1015E2001EF002150B90001EE06403600302150B4F
:1015F2007F07FE121B48E4900059F0A3F0A304F009
:08160200E490001EF002150B3C
:101B8D00EF1FAC0670011E4C601090005FE004F07A
:0A1B9D0070EE90005EE004F080E6B8
:011BA700221B
:081B210090005CEEF0A3EFF070
:101B2900E4FBFAD390005DE09B90005CE09A400EE4
:0E1B39007FDE7E01121B8D0BBB00010A80E5D2
:011B4700227B
:10175300E4FFFE121B6F900000EFF0900002E4F034
:10176300A304F090000104F0120A46EF70539000B6
:101773000004F090000404F0A37458F0A3E4F0A371
:101783007464F0A3E4F0A374C8F0A37401F0A37429
:101793002CF0A37401F0A37490F0A374FFF0A314CE
:1017A300F0A3747FF0A374FFF0A3F0A3F0A3F0A35E
:1017B300F0A3F0A3F0A3F0A3F0A3F0A3F0A3F0A38E
:1017C300F09000227401F090001EF0E4900021F0EC
:0117D30022F3
:101BA80090005CE4F0A304F0900000E0FDE4FFFE88
:091BB800121BF590005CA3E0FF94
:011BC1002201
:100D700090005CE4F0A304F0900000E0FF7E007CB3
:100D8000387D421217D4EF24C0FFEE34C7FE900026
:100D90005EF0A3EFF0900004E0FD121BF590005F01
:100DA000E02401FF90005EE03400FE900004A3E028
:100DB000FD121BF5900002E0FEA3E0FF7C007D1811
:100DC0001217D490005FE02FFF90005EE03ECF242A
:100DD000EACF34FFFE900060F0A3EFF0900006E051
:100DE000FD121BF5900061E02401FF900060E034EB
:100DF00000FE900006A3E0FD121BF5900061E024C8
:100E000002FF900060E03400FE900008E0FD121B3D
:100E1000F5900061E02403FF900060E03400FE9054
:100E20000008A3E0FD121BF5900061E02404FF9090
:100E30000060E03400FE90000AE0FD121BF5900017
:100E400061E02405FF900060E03400FE90000AA3FA
:100E5000E0FD121BF5900061E02406FF900060E0C9
:100E60003400FE90000CE0FD121BF5900061E024C0
:100E700007FF900060E03400FE90000CA3E0FD123C
:100E80001BF5900061E02408FF900060E03400FE54
:100E900090000EE0FD121BF5900061E02409FF9028
:100EA0000060E03400FE90000EA3E0FD121BF59000
:100EB0000061E0240AFF900060E03400FE90001022
:100EC000E0FD121BF5900061E0240BFF900060E054
:100ED0003400FE900010A3E0FD121BF5900061E0CD
:100EE000240CFF900060E03400FE900012E0FD1240
:100EF0001BF5900061E0240DFF900060E03400FEDF
:100F0000900012A3E0FD121BF5900061E0240EFF9B
:100F1000900060E03400FE900014E0FD121BF5909C
:100F20000061E0240FFF900060E03400FE900014A8
:100F3000A3E0FD121BF5900061E02410FF9000601B
:100F4000E03400FE900016E0FD121BF5900061E019
:100F50002411FF900060E03400FE900016A3E0FD35
:100F6000121BF5900061E02412FF900060E0340055
:100F7000FE900018E0FD121BF5900061E02413FFC5
:100F8000900060E03400FE900018A3E0FD121BF515
:100F9000900061E02414FF900060E03400FE9000B7
:100FA0001AE0FD121BF5900061E02415FF9000602F
:100FB000E03400FE90001AA3E0FD121BF5900061E2
:100FC000E02416FF900060E03400FE90001CE0FD7D
:100FD000121BF5900061E02417FF900060E03400E0
:100FE000FE90001CA3E0FD121BF590005CA3E0FF47
:010FF00022DE
:100A460090005CE4F0A304F0900000E0FF7E007CE0
:100A5600387D421217D4EF24C0FFEE34C7FE900053
:100A66005EF0A3EFF0121B6FEF7F00FEC007C0061B
:100A760090005FE02401FF90005EE03400FE121B50
:100A86006FEFFDD0E0FFD0E04D900004CFF0A3EF74
:100A9600F0900002E0FEA3E0FF7C007D181217D460
:100AA60090005FE02FFF90005EE03ECF24EACF3457
:100AB600FFFE900060F0A3EFF0121B6FEF7F00FEC9
:100AC600C007C006900061E02401FF900060E0349A
:100AD60000FE121B6FEFFDD0E0FFD0E04D90000648
:100AE600CFF0A3EFF0900061E02402FF900060E0F9
:100AF6003400FE121B6FEF7F00FEC007C006900099
:100B060061E02403FF900060E03400FE121B6FEFEB
:100B1600FDD0E0FFD0E04D900008CFF0A3EFF090BD
:100B26000061E02404FF900060E03400FE121B6FB9
:100B3600EF7F00FEC007C006900061E02405FF902D
:100B46000060E03400FE121B6FEFFDD0E0FFD0E046
:100B56004D90000ACFF0A3EFF0900061E02406FF6D
:100B6600900060E03400FE121B6FEF7F00FEC007AE
:100B7600C006900061E02407FF900060E03400FEAC
:100B8600121B6FEFFDD0E0FFD0E04D90000CCFF0D0
:100B9600A3EFF0900061E02408FF900060E03400CD
:100BA600FE121B6FEF7F00FEC007C006900061E0DB
:100BB6002409FF900060E03400FE121B6FEFFDD0A9
:100BC600E0FFD0E04D90000ECFF0A3EFF090006173
:100BD600E0240AFF900060E03400FE121B6FEF7FF6
:100BE60000FEC007C006900061E0240BFF90006085
:100BF600E03400FE121B6FEFFDD0E0FFD0E04D9019
:100C06000010CFF0A3EFF0900061E0240CFF9000FD
:100C160060E03400FE121B6FEF7F00FEC007C006C7
:100C2600900061E0240DFF900060E03400FE121B8E
:100C36006FEFFDD0E0FFD0E04D900012CFF0A3EFB4
:100C4600F0900061E0240EFF900060E03400FE1298
:100C56001B6FEF7F00FEC007C006900061E0240F07
:100C6600FF900060E03400FE121B6FEFFDD0E0FF46
:100C7600D0E04D900014CFF0A3EFF0900061E02497
:100C860010FF900060E03400FE121B6FEF7F00FE45
:100C9600C007C006900061E02411FF900060E034B8
:100CA60000FE121B6FEFFDD0E0FFD0E04D90001666
:100CB600CFF0A3EFF0900061E02412FF900060E017
:100CC6003400FE121B6FEF7F00FEC007C0069000C7
:100CD60061E02413FF900060E03400FE121B6FEF0A
:100CE600FDD0E0FFD0E04D900018CFF0A3EFF090DC
:100CF6000061E02414FF900060E03400FE121B6FD8
:100D0600EF7F00FEC007C006900061E02415FF904B
:100D16000060E03400FE121B6FEFFDD0E0FFD0E074
:100D26004D90001ACFF0A3EFF0900061E02416FF7B
:100D3600900060E03400FE121B6FEF7F00FEC007DC
:100D4600C006900061E02417FF900060E03400FECA
:100D5600121B6FEFFDD0E0FFD0E04D90001CCFF0EE
:090D6600A3EFF090005CA3E0FF94
:010D6F002261
:101946007F0A121C927FFF7E01121C0EBFAA277F00
:10195600087E00121C0EEF7F00FEC007C0067F093E
:101966007E00121C0EEFFDD0E0FFD0E04D90001F70
:0E197600CFF0A3EFF022E490001FF0A3F022C8
:101A00007F0A121C92E4FFFE121C3E7F0A121C92F7
:101A100090001FE0FD7F087E00121BDC90001FA3DA
:101A2000E0FD7F097E00121BDC7DAA7FFF7E011294
:071A30001BDC7F0A021C927F
:101C9200AE071FEE600DE4FCFD0DED70010C4C6013
:031CA200EF80F6DA
:011CA500221C
:0D000E00E4F5C7F5C5F5C675C380F5C4223D
:101C0E0075C78375C5018FC4EEF5C375C65A75C603
:071C1E00A500AFC212000E89
:011C2500229C
:101BDC0075C78375C5028FC4EEF5C3AF058FC2758B
:091BEC00C65A75C6A50002000EE0
:101C3E0075C78375C5038FC4EEF5C375C65A75C6D1
:051C4E00A50002000EDC
:101A3700C1004F0049FFFFFFFFFFFFFFFFFFFFFF51
:101A4700FFFFFFFF410058004100480041004700E9
:0F1CF100759A50759CFD438E1475AF01D2AF22CA
:03004300021A9C02
:101A9C00C0E0C0F0C083C082C0D075D008E59A30D9
:101AAC00E008539AFEAF9B121853E59A30E10553A8
:0F1ABC009AFDC201D0D0D082D083D0F0D0E032DA
:101BC20090006CE0FCA3E0FDA3E0FEA3E0FF12178F
:011BD200F71B
:091BD3002001FDEFD201F59B2277
:061A6A00A3E0FCA3E0FD77
:101A7000AB07AA067F5A121BD37FA5121BD37F0583
:101A8000121BD37F82121BD3EAFF121BD3AF0312A8
:0C1A90001BD3ECFF121BD3AF05021BD3CD
:1018AE00AD07AC067F5A121BD37FA5121BD37F0741
:1018BE00121BD37F82121BD3ECFF121BD3AF051268
:1018CE001BD37818121BC27810121BC290006CE04A
:1018DE00FCA3E0FDA3E0FEA3E0FF78081217F712C9
:0D18EE001BD390006CA3A3A3E0FF021BD34B
:101B4800AD07AC067F5A121BD37FA5121BD37F04A7
:101B5800121BD37F80121BD37F03121BD3ECFF12FF
:071B68001BD3AF05021BD3E4
:10185300900058E014601114601614602224037081
:1018630043EF645A70448010EFB4A502800A8035B8
:10187300900047EFF0E4A3F0900058E004F02290CA
:101883000048E02449F582E43400F583EFF090004A
:1018930048E004F0900047E0FFA3E0C39F400B1231
:0B18A3000046800100E4900058F02295
:1000460090004DE0FEA3E0FDEDFF90004BE0FDB417
:100056000213D3EF9402EE940040027F0290000058
:10006600EFF00201F2EDB40A05900001803C900029
:100076004BE0FDB4031D900004E0FAA3E0FBC39F30
:10008600EA9E5004AE02AF03900002EEF0A3EFF03A
:10009600020317EDB40417D3EF9458EE940240040C
:1000A6007E027F58900004EEF0A3EF02036D9000ED
:1000B6004BE0FDB405059000068075EDB40605908D
:1000C6000008806C90004BE0FDB4070590000A80A4
:1000D6005FEDB4080590000C805690004BE0FDB42F
:1000E600090590000E8049EDB4100590001080407F
:1000F60090004BE0FDB411059000128033EDB41270
:1001060005900014802A90004BE0FDB41305900082
:1001160016801DEDB41405900018801490004BE075
:10012600FDB4150590001A8007EDB4160B90001C5F
:10013600EEF0A3EFF00203DB90004BE0FFB41708EC
:10014600C2919000220202CBEF64187075900022D3
:10015600F0D2919000237402F0A31218160000004A
:10016600009000281218160000000090002C74025F
:10017600F0A31218160000000090003112181600A5
:100186000000009000357402F0A31218160000005B
:100196000090003A1218160000000090003E74020B
:1001A600F0A3121816000000009000431218160063
:1001B600000000900002E4F0A304F0900021040285
:1001C600035890004BE0FF6419702790001EE06012
:1001D600030203DB900021E060030203DB900000D2
:1001E600E004F0E0D3940240037401F09000210291
:1001F60002CBEF642070030203DB90004BE0FF6448
:100206002170030203DBEF642270030203DBEF6459
:10021600237067900022F09000237402F0A3121856
:10022600160000000090002812181600000000902A
:10023600002C7402F0A31218160000000090003182
:10024600121816000000009000357402F0A3121870
:10025600160000000090003A1218160000000090E8
:10026600003E7402F0A3121816000000009000432E
:10027600121816000000000203C690004BE0FFB4FF
:10028600242490001EE060030203DB900000E014CB
:10029600F0E0FED394025003EE7006900000740165
:1002A600F0900021801FEFB4252590001EE060032A
:1002B6000203DB900000E004F0E0D39402400374F4
:1002C60002F09000217401F090001EF00203DB9012
:1002D600004BE0FF6426704090001EE060030203BE
:1002E600DB900003E024FFF0900002E034FFF09082
:1002F6000004E0FCA3E0FD900002E0FAA3E0FBD3DB
:100306009DEA9C5004EB4A7008900002E4F0A304B6
:10031600F09000217402803AEFB4273E90001EE070
:1003260060030203DB900003E004F0700690000215
:10033600E004F0900004E0FEA3E0FFD3900003E0A9
:100346009F900002E09E4005EEF0A3EFF0900021A2
:100356007402F090001E14F0807B90004BE0FFB416
:1003660028089000217403F08056EFB4292AE490FF
:10037600000EF0A3F0A3F0A3F0A3F0A3F0A3F0A364
:10038600F0A3F0A3F0A3F0A3F0A3F0A3F0A3F0A3CF
:10039600F090001E04F0803DEFB4302C74FF900006
:1003A6000EF0A3F0A3F0A3F0A3F0A3F0A3F0A3F044
:1003B600A3F0A3F0A3F0A3F0A3F0A3F0A3F0A3F09F
:1003C60090001E7401F0800DEFB43109900075E0C5
:0703D600B41402E4F0D200B0
:0103DD0022FD
:10160A00900022E0FD7C007F0F7E00121A7090008D
:10161A001FE0FCA3E0FD7F0E121A70900000E0FDAF
:10162A007C007F02121A70A3E0FD7F0A121A707FF3
:10163A0003121A6A7F04121A6AA3E0FCA3E0FD7F70
:10164A0005121A70A3E0FCA3E0FD7F06121A70A32C
:10165A00E0FCA3E0FD7F07121A70A3E0FCA3E0FD03
:10166A007F08121A70A3E0FCA3E0FD7F09121A702A
:10167A00A3E0FCA3E0FD7F10121A70A3E0FCA3E034
:10168A00FD7F11121A70A3E0FCA3E0FD7F12121A6B
:10169A0070A3E0FCA3E0FD7F13121A70A3E0FCA381
:1016AA00E0FD7F14121A70A3E0FCA3E0FD7F15127F
:0D16BA001A70A3E0FCA3E0FD7F16021A7079
:041A570041007400D6
:1018FB00900074E01460171460211460302403709E
:10190B003830A00320A1339000747401F02230A072
:10191B000320A11F9000747402F02220A002800308
:10192B0020A1031211F79000747403F02230A00A67
:0B193B0030A107E4900074F0220022AD
:1011F700900023E06402600302129790002CE064E1
:10120700026003021297900006E0FEA3E0FF4E6023
:1012170036D3EF94FFEE947F400FC294E4900023FF
:10122700F0E49FFFE49EFE8010D2949000237401A7
:10123700F0900006E0FEA3E0FFE4FCFD900024121E
:10124700180A900028803F900008E0FEA3E0FF4EB8
:10125700603ED3EF94FFEE947F400FC295E4900079
:101267002CF0E49FFFE49EFE8010D29590002C7432
:1012770001F0900008E0FEA3E0FFE4FCFD90002DE4
:1012870012180A90003112181600000000121CBA3A
:10129700900035E06402600302133790003EE0647B
:1012A70002600302133790000AE0FEA3E0FF4E60DE
:1012B70036D3EF94FFEE947F400FC296E49000354B
:1012C700F0E49FFFE49EFE8010D2969000357401F3
:1012D700F090000AE0FEA3E0FFE4FCFD9000361268
:1012E700180A90003A803F90000CE0FEA3E0FF4E02
:1012F700603ED3EF94FFEE947F400FC297E49000D7
:101307003EF0E49FFFE49EFE8010D29790003E746B
:1013170001F090000CE0FEA3E0FFE4FCFD90003F2D
:1013270012180A90004312181600000000121CCD74
:10133700900003E004F07006900002E004F09000D3
:1013470004E0FEA3E0FFD3900003E09F900002E0DB
:101357009E4013E4F0A304F0900020E004F0700630
:1013670090001FE004F09000217402F090001E141A
:02137700F02262
:041A5B0041007514BD
:10137900900075E01460631470030214291470035B
:1013890002146E1470030214B5240460030214E0FD
:10139900900023E0640260030214E190002CE064F1
:1013A9000260030214E1900035E064026003021454
:1013B900E190003EE0640260030214E1C2949000EF
:1013C90023F0A3121816002DC6C090002812181673
:1013D90000000000121CBA0214AE3080030214E1AE
:1013E9001219849000237402F0A312181600000049
:1013F9000090002812181600000000C295E4900021
:101409002CF0A3121816002DC6C090003112181620
:1014190000000000121CBA90001E7401F00214AE04
:101429003081030214E112198490002C7402F0A394
:101439001218160000000090003112181600000062
:1014490000C296E4900035F0A3121816002DC6C00C
:1014590090003A12181600000000121CCD90001ED0
:101469007401F080402082701219C2900035740214
:10147900F0A31218160000000090003A1218160086
:10148900000000C297E490003EF0A3121816002D48
:10149900C6C090004312181600000000121CCD901F
:1014A900001E7401F0900075E004F02220832912D7
:1014B90019C290003E7402F0A31218160000000031
:1014C9009000431218160000000090001E7401F0ED
:0914D9009000757414F022002249
:100FF10000000099030304500563063506C8072065
:1010010007460746072606F106AE0663061305C125
:101011000571052204D70490044D040D03D3039BED
:1010210003670338030C02E202BB029802760257FF
:10103100023A021F020601EE01D801C401B0019D6E
:10104100018D017C016D015F015101440139012CC8
:1010510001230117010E010500FC00F400EC00E47E
:1010610000DD00D600CF00C900C300BE00B800B249
:1010710000AE00A800A400A0009B00A0009B009867
:101081000093008F008C008800850081007F007B29
:101091000078007600720071006D006B00690066D7
:1010A10000640062005F005E005C00590058005659
:1010B100005400530051004F004D004D004A0049BB
:1010C1000048004600450044004200410040003F06
:1010D100003E003C003C003A003900380038003640
:1010E1000035003400340032003200310030002F6E
:1010F100002E002E002D002C002B002B0029002A91
:1011010000280028002700270025002600240024AD
:101111000024002300220022002100210020001FC2
:101121000020001E001E001E001D001D001C001CD2
:10113100001B001B001A001A001A001900190018E0
:1011410000180017001700170017001600150015EA
:1011510000150015001400140013001400120013F0
:1011610000120012001200110011001000110010F5
:10117100000F0010000F000F000E000E000E000EF9
:10118100000E000D000D000C000C000D000B000CFA
:10119100000B000B000B000B000A000A000A0009FB
:1011A100000A0009000800090008000800080008FA
:1011B10000070008000600070007000600060006F9
:1011C10000050006000500050005000400050004F7
:1011D10000030004000400030003000300020002F6
:1011E10000030002000100020001000100010001F2
:0611F100000000000001F7
:0A1A5F00420070006442007200644F
:03000B000203DE0F
:1003DE00C0E0C0F0C083C082C0D075D008900023AA
:1003EE00E0FF700320800EEF6401600302053220EF
:0503FE0084030205323A
:10040300900028E0F8A3E0F9A3E0FAA3E0FB900052
:1004130024E0FCA3E0FDA3E0FEA3E0C39BFFEE9A70
:10042300FEED99FDEC98FC90006212180AE47F033C
:100433007E01FDFC900028E0F8A3E0F9A3E0FAA315
:10044300E0FBC31217E6502C900028A3A3E0FEA301
:10045300E0900FF175F002121847EE25E02583F5C1
:1004630083E493FE740193FF900071E02FF09000FA
:1004730070E03EF0E47F037E01FDFC900062E0F853
:10048300A3E0F9A3E0FAA3E0FBC31217E6502D9013
:100493000062A3A3E0FEA3E0900FF175F00212182F
:1004A30047EE25E02583F583E493FE740193FFC3B0
:1004B300900071E09FF0900070E09EF0900028E0C3
:1004C300FCA3E0FDA3E0FEA3E02401FFE43EFEE481
:1004D3003DFDE43CFC90002812180A900024E0FC47
:1004E300A3E0FDA3E0FEA3E0FFA3E0F8A3E0F9A3EC
:1004F300E0FAA3E0FBC31217E64023C28C9000701E
:10050300E4F0A37464F09000237402F0A3121816AD
:100513000000000090002812181600000000900050
:0C05230070E0FEA3E0F58AEEF58CB2B4A7
:10052F0002070790002CE0FF700320810EEF64019B
:0B053F006003020679208503020679A4
:10054A00900031E0F8A3E0F9A3E0FAA3E0FB900001
:10055A002DE0FCA3E0FDA3E0FEA3E0C39BFFEE9A1F
:10056A00FEED99FDEC98FC90006212180AE47F03F4
:10057A007E01FDFC900031E0F8A3E0F9A3E0FAA3C4
:10058A00E0FBC31217E6502C900031A3A3E0FEA3B0
:10059A00E0900FF175F002121847EE25E02583F579
:1005AA0083E493FE740193FF900071E02FF09000B2
:1005BA0070E03EF0E47F037E01FDFC900062E0F80B
:1005CA00A3E0F9A3E0FAA3E0FBC31217E6502D90CB
:1005DA000062A3A3E0FEA3E0900FF175F0021218E7
:1005EA0047EE25E02583F583E493FE740193FFC368
:1005FA00900071E09FF0900070E09EF0900031E072
:10060A00FCA3E0FDA3E0FEA3E02401FFE43EFEE438
:10061A003DFDE43CFC90003112180A90002DE0FCEC
:10062A00A3E0FDA3E0FEA3E0FFA3E0F8A3E0F9A3A3
:10063A00E0FAA3E0FBC31217E64023C28C900070D5
:10064A00E4F0A37464F090002C7402F0A31218165C
:10065A0000000000900031121816000000009000FF
:0C066A0070E0FEA3E0F58AEEF58CB2B55E
:10067600020707900023E0FB700790001E740380BA
:1006860009EBB4012490001E7402F0C28C90007035
:10069600E4F0A37464F09000237402F0A312181619
:1006A60000000000900028805190002CE0FB702490
:1006B60090001E7403F0C28C900070E4F0A3746482
:1006C600F090002C7402F0A312181600000000909F
:1006D60000318026EBB4012990001E7402F0C28C12
:1006E600900070E4F0A37464F090002C7402F0A300
:1006F60012181600000000900031121816000000B3
:0C07060000D0D0D082D083D0F0D0E03200
:03001B00020712C7
:10071200C0E0C0F0C083C082C0D075D00890003560
:10072200E0FF700320820EEF64016003020866207E
:050732008603020866C9
:1007370090003AE0F8A3E0F9A3E0FAA3E0FB900009
:1007470036E0FCA3E0FDA3E0FEA3E0C39BFFEE9A27
:10075700FEED99FDEC98FC90006612180AE47F0301
:100767007E01FDFC90003AE0F8A3E0F9A3E0FAA3CC
:10077700E0FBC31217E6502C90003AA3A3E0FEA3B8
:10078700E0900FF175F002121847EE25E02583F58A
:1007970083E493FE740193FF900073E02FF09000C1
:1007A70072E03EF0E47F037E01FDFC900066E0F816
:1007B700A3E0F9A3E0FAA3E0FBC31217E6502D90DC
:1007C7000066A3A3E0FEA3E0900FF175F0021218F4
:1007D70047EE25E02583F583E493FE740193FFC379
:1007E700900073E09FF0900072E09EF090003AE076
:1007F700FCA3E0FDA3E0FEA3E02401FFE43EFEE44A
:100807003DFDE43CFC90003A12180A900036E0FCEB
:10081700A3E0FDA3E0FEA3E0FFA3E0F8A3E0F9A3B4
:10082700E0FAA3E0FBC31217E64023C28E900072E2
:10083700E4F0A37464F09000357402F0A312181664
:100847000000000090003A12181600000000900007
:0C08570072E0FEA3E0F58BEEF58DB2B66A
:10086300020A3B90003EE0FF700320830EEF640119
:0B08730060030209AD2087030209ADFD
:10087E00900043E0F8A3E0F9A3E0FAA3E0FB9000B8
:10088E003FE0FCA3E0FDA3E0FEA3E0C39BFFEE9AD6
:10089E00FEED99FDEC98FC90006612180AE47F03B9
:1008AE007E01FDFC900043E0F8A3E0F9A3E0FAA37B
:1008BE00E0FBC31217E6502C900043A3A3E0FEA367
:1008CE00E0900FF175F002121847EE25E02583F542
:1008DE0083E493FE740193FF900073E02FF0900079
:1008EE0072E03EF0E47F037E01FDFC900066E0F8CE
:1008FE00A3E0F9A3E0FAA3E0FBC31217E6502D9094
:10090E000066A3A3E0FEA3E0900FF175F0021218AB
:10091E0047EE25E02583F583E493FE740193FFC330
:10092E00900073E09FF0900072E09EF0900043E024
:10093E00FCA3E0FDA3E0FEA3E02401FFE43EFEE401
:10094E003DFDE43CFC90004312180A90003FE0FC91
:10095E00A3E0FDA3E0FEA3E0FFA3E0F8A3E0F9A36C
:10096E00E0FAA3E0FBC31217E64023C28E9000729A
:10097E00E4F0A37464F090003E7402F0A312181613
:10098E0000000000900043121816000000009000B6
:0C099E0072E0FEA3E0F58BEEF58DB2B721
:1009AA00020A3B900035E0FB700790001E7403803A
:1009BA0009EBB4012490001E7402F0C28E900072FA
:1009CA00E4F0A37464F09000357402F0A3121816D0
:1009DA000000000090003A805190003EE0FB702435
:1009EA0090001E7403F0C28E900072E4F0A3746447
:1009FA00F090003E7402F0A3121816000000009056
:100A0A0000438026EBB4012990001E7402F0C28EC6
:100A1A00900072E4F0A37464F090003E7402F0A3B4
:100A2A001218160000000090004312181600000069
:0C0A3A0000D0D0D082D083D0F0D0E032C9
:101C5300438E805389F0758A64E4F58CC28DC28CFF
:051C6300C2A9D2AF226E
:101CBA00758A64E4F58C900070F0A37464F0D2A97C
:031CCA00D28C2297
:10198400C2A9C28C900070E4F0A37464F0900023A8
:101994007402F0A312181600000000900028121818
:1019A400160000000090002C7402F0A31218160018
:0E19B400000000900031121816000000002202
:101C6800438E40538910758B64E4F58DC28FC28E04
:051C7800C2ABD2AF2257
:101CCD00758B64E4F58D900072F0A37464F0D2AB63
:031CDD00D28E2282
:1019C200C28EC2AB900072E4F0A37464F090003552
:1019D2007402F0A31218160000000090003A1218C8
:1019E200160000000090003E7402F0A312181600C8
:0E19F2000000009000431218160000000022B2
:101C7D00D2A70000D2A60000000000C2A7000000FD
:051C8D000000C2A622C8
:101CA600C2A700D2A60000000000D2A700000000D4
:041CB60000C2A622A0
:101AF800121C7D7FA012001E121B10EAFF12001E8E
:081B0800121B10AF0312001EB6
:101B1000C2A7000000D2A60000000000C2A600007C
:011B200022A2
:101CE000D2A7000000D2A60000000000C2A600009B
:011CF00022D1
:10001E007E08AD07C2A60000000000ED30E704D256
:10002E00A78002C2A7D2A6EF25E0FDFFDEE4C2A69E
:01003E00229F
:101ACB00E4FFFE7D08D2A7C2A60000000000D2A64C
:101ADB000000000000EF30A7054401FF800354FE17
:0C1AEB00FFED146005EF25E0FEFFDDDBE1
:011AF70022CC
:101C2600EFD394004011E4FDFC0DBD00010CED6402
:071C36007D4C70F51F80E9F1
:011C3D002284
:101BF500AB07AA06AC05121AF8AF0412001E121B99
:091C050010121CA67F0F021C2620
:041B6F00AB07AA0610
:101B7300121AF8121C7D7FA112001E121B10121ADA
:091B8300CBC2A6121CE0121CA644
:011B8C002236
:1016D3000214E2E493A3F8E493A34003F68001F237
:1016E30008DFF48029E493A3F85407240CC8C33318
:1016F300C4540F4420C8834004F456800146F6DFE7
:10170300E4800B0102040810204080901A37E47E25
:10171300019360BCA3FF543F30E509541FFEE493DB
:10172300A360010ECF54C025E060A840B8E493A3A2
:10173300FAE493A3F8E493A3C8C582C8CAC583CACD
:10174300F0A3C8C582C8CAC583CADFE9DEE780BE85
:011A6900007C
:1017D400EF8DF0A4A8F0CF8CF0A428CE8DF0A42E29
:0217E400FE22E3
:1017E600EB9FF5F0EA9E42F0E99D42F0E89C45F059
:0117F60022D0
:1017F700E8600FECC313FCED13FDEE13FEEF13FFD0
:03180700D8F122F3
:0C180A00ECF0A3EDF0A3EEF0A3EFF02251
:10181600A8828583F0D083D08212182D12182D123B
:10182600182D12182DE473E493A3C583C5F0C58360
:10183600C8C582C8F0A3C583C5F0C583C8C582C81C
:01184600227F
:0C184700A42582F582E5F03583F58322AC
:00000001FF
