:030000000217875D
:0C178700787FE4F6D8FD7581200217CEB3
:1014E500E4900059F0A3F0A3F07FD07E07121C64AE
:1014F500121896121813121E34121D96121DAB7F68
:10150500017E00121C8B121A895387DF1211F77F97
:101515000A7E00121C6490005AE004F070069000E8
:1015250059E004F0D390005AE094F4900059E09407
:1015350001401390005BE0B4010C7F017E00121C9A
:101545008BE490005BF0E58730E52EB2905387DFA2
:101555007F0A7E00121C64E58730E51DB290121AE1
:10156500C7121B055387DF121B43E58730E504B21D
:101575009080FC121DFD121E10900022E0B40103A4
:10158500121A3E12137C900021E0B403177F057EEA
:1015950000121C8B120D70E4900021F07F03FE12E7
:1015A5001C8B801B900021E0B40105121CEB800709
:1015B500900021E0B40208120A46E4900021F09060
:1015C500001EE0B40105121613801890001EE0B449
:1015D50002197F087E00121C8BE4900059F0A3F0DD
:1015E500A304F0E490001EF002151490001EE064C0
:1015F5000360030215147F07FE121C8BE49000594B
:0E160500F0A3F0A304F0E490001EF002151410
:101CD000EF1FAC0670011E4C601090005FE004F036
:0A1CE00070EE90005EE004F080E674
:011CEA0022D7
:081C640090005CEEF0A3EFF02C
:101C6C00E4FBFAD390005DE09B90005CE09A400EA0
:0E1C7C007FDE7E01121CD00BBB00010A80E54A
:011C8A002237
:10181300E4FFFE121CB2900000EFF0900002E4F02F
:10182300A304F090000104F0120A46EF70539000F5
:101833000004F090000404F0A37458F0A3E4F0A3B0
:101843007464F0A3E4F0A374C8F0A37401F0A37468
:101853002CF0A37401F0A37490F0A374FFF0A3140D
:10186300F0A3747FF0A374FFF0A3F0A3F0A3F0A39D
:10187300F0A3F0A3F0A3F0A3F0A3F0A3F0A3F0A3CD
:10188300F0E4900022F0C29190001E04F0E4900076
:0318930021F0221F
:101CEB0090005CE4F0A304F0900000E0FDE4FFFE44
:091CFB00121D3890005CA3E0FF0B
:011D040022BC
:100D700090005CE4F0A304F0900000E0FF7E007CB3
:100D8000387D42121917EF24C0FFEE34C7FE9000E1
:100D90005EF0A3EFF0900004E0FD121D3890005FBC
:100DA000E02401FF90005EE03400FE900004A3E028
:100DB000FD121D38900002E0FEA3E0FF7C007D18CC
:100DC00012191790005FE02FFF90005EE03ECF24E5
:100DD000EACF34FFFE900060F0A3EFF0900006E051
:100DE000FD121D38900061E02401FF900060E034A6
:100DF00000FE900006A3E0FD121D38900061E02483
:100E000002FF900060E03400FE900008E0FD121D3B
:100E100038900061E02403FF900060E03400FE9011
:100E20000008A3E0FD121D38900061E02404FF904B
:100E30000060E03400FE90000AE0FD121D389000D2
:100E400061E02405FF900060E03400FE90000AA3FA
:100E5000E0FD121D38900061E02406FF900060E084
:100E60003400FE90000CE0FD121D38900061E0247B
:100E700007FF900060E03400FE90000CA3E0FD123C
:100E80001D38900061E02408FF900060E03400FE0F
:100E900090000EE0FD121D38900061E02409FF90E3
:100EA0000060E03400FE90000EA3E0FD121D3890BB
:100EB0000061E0240AFF900060E03400FE90001022
:100EC000E0FD121D38900061E0240BFF900060E00F
:100ED0003400FE900010A3E0FD121D38900061E088
:100EE000240CFF900060E03400FE900012E0FD1240
:100EF0001D38900061E0240DFF900060E03400FE9A
:100F0000900012A3E0FD121D38900061E0240EFF56
:100F1000900060E03400FE900014E0FD121D389057
:100F20000061E0240FFF900060E03400FE900014A8
:100F3000A3E0FD121D38900061E02410FF900060D6
:100F4000E03400FE900016E0FD121D38900061E0D4
:100F50002411FF900060E03400FE900016A3E0FD35
:100F6000121D38900061E02412FF900060E0340010
:100F7000FE900018E0FD121D38900061E02413FF80
:100F8000900060E03400FE900018A3E0FD121D38D0
:100F9000900061E02414FF900060E03400FE9000B7
:100FA0001AE0FD121D38900061E02415FF900060EA
:100FB000E03400FE90001AA3E0FD121D389000619D
:100FC000E02416FF900060E03400FE90001CE0FD7D
:100FD000121D38900061E02417FF900060E034009B
:100FE000FE90001CA3E0FD121D3890005CA3E0FF02
:010FF00022DE
:100A460090005CE4F0A304F0900000E0FF7E007CE0
:100A5600387D42121917EF24C0FFEE34C7FE90000E
:100A66005EF0A3EFF0121CB2EF7F00FEC007C006D7
:100A760090005FE02401FF90005EE03400FE121C4F
:100A8600B2EFFDD0E0FFD0E04D900004CFF0A3EF31
:100A9600F0900002E0FEA3E0FF7C007D181219171B
:100AA60090005FE02FFF90005EE03ECF24EACF3457
:100AB600FFFE900060F0A3EFF0121CB2EF7F00FE85
:100AC600C007C006900061E02401FF900060E0349A
:100AD60000FE121CB2EFFDD0E0FFD0E04D90000604
:100AE600CFF0A3EFF0900061E02402FF900060E0F9
:100AF6003400FE121CB2EF7F00FEC007C006900055
:100B060061E02403FF900060E03400FE121CB2EFA7
:100B1600FDD0E0FFD0E04D900008CFF0A3EFF090BD
:100B26000061E02404FF900060E03400FE121CB275
:100B3600EF7F00FEC007C006900061E02405FF902D
:100B46000060E03400FE121CB2EFFDD0E0FFD0E002
:100B56004D90000ACFF0A3EFF0900061E02406FF6D
:100B6600900060E03400FE121CB2EF7F00FEC0076A
:100B7600C006900061E02407FF900060E03400FEAC
:100B8600121CB2EFFDD0E0FFD0E04D90000CCFF08C
:100B9600A3EFF0900061E02408FF900060E03400CD
:100BA600FE121CB2EF7F00FEC007C006900061E097
:100BB6002409FF900060E03400FE121CB2EFFDD065
:100BC600E0FFD0E04D90000ECFF0A3EFF090006173
:100BD600E0240AFF900060E03400FE121CB2EF7FB2
:100BE60000FEC007C006900061E0240BFF90006085
:100BF600E03400FE121CB2EFFDD0E0FFD0E04D90D5
:100C06000010CFF0A3EFF0900061E0240CFF9000FD
:100C160060E03400FE121CB2EF7F00FEC007C00683
:100C2600900061E0240DFF900060E03400FE121C8D
:100C3600B2EFFDD0E0FFD0E04D900012CFF0A3EF71
:100C4600F0900061E0240EFF900060E03400FE1298
:100C56001CB2EF7F00FEC007C006900061E0240FC3
:100C6600FF900060E03400FE121CB2EFFDD0E0FF02
:100C7600D0E04D900014CFF0A3EFF0900061E02497
:100C860010FF900060E03400FE121CB2EF7F00FE01
:100C9600C007C006900061E02411FF900060E034B8
:100CA60000FE121CB2EFFDD0E0FFD0E04D90001622
:100CB600CFF0A3EFF0900061E02412FF900060E017
:100CC6003400FE121CB2EF7F00FEC007C006900083
:100CD60061E02413FF900060E03400FE121CB2EFC6
:100CE600FDD0E0FFD0E04D900018CFF0A3EFF090DC
:100CF6000061E02414FF900060E03400FE121CB294
:100D0600EF7F00FEC007C006900061E02415FF904B
:100D16000060E03400FE121CB2EFFDD0E0FFD0E030
:100D26004D90001ACFF0A3EFF0900061E02416FF7B
:100D3600900060E03400FE121CB2EF7F00FEC00798
:100D4600C006900061E02417FF900060E03400FECA
:100D5600121CB2EFFDD0E0FFD0E04D90001CCFF0AA
:090D6600A3EFF090005CA3E0FF94
:010D6F002261
:101A89007F0A121DD57FFF7E01121D51BFAA277F34
:101A9900087E00121D51EF7F00FEC007C0067F09B6
:101AA9007E00121D51EFFDD0E0FFD0E04D90001FE8
:0E1AB900CFF0A3EFF022E490001FF0A3F02284
:101B43007F0A121DD5E4FFFE121D817F0A121DD5E7
:101B530090001FE0FD7F087E00121D1F90001FA351
:101B6300E0FD7F097E00121D1F7DAA7FFF7E01120B
:071B73001D1F7F0A021DD5B2
:101DD500AE071FEE600DE4FCFD0DED70010C4C60CF
:031DE500EF80F696
:011DE80022D8
:0D000E00E4F5C7F5C5F5C675C380F5C4223D
:101D510075C78375C5018FC4EEF5C375C65A75C6BF
:071D6100A500AFC212000E45
:011D68002258
:101D1F0075C78375C5028FC4EEF5C3AF058FC27546
:091D2F00C65A75C6A50002000E9B
:101D810075C78375C5038FC4EEF5C375C65A75C68D
:051D9100A50002000E98
:101B7A00C1004F0049FFFFFFFFFFFFFFFFFFFFFF0D
:101B8A00FFFFFFFF410058004100480041004700A5
:0F1E3400759A50759CFD438E1475AF01D2AF2285
:03004300021BDFBE
:101BDF00C0E0C0F0C083C082C0D075D008E59A3095
:101BEF00E008539AFEAF9B121996E59A30E1055320
:0F1BFF009AFDC201D0D0D082D083D0F0D0E03296
:101D050090006CE0FCA3E0FDA3E0FEA3E0FF121948
:011D15003A93
:091D16002001FDEFD201F59B2232
:061BAD00A3E0FCA3E0FD33
:101BB300AB07AA067F5A121D167FA5121D167F05B5
:101BC300121D167F82121D16EAFF121D16AF031295
:0C1BD3001D16ECFF121D16AF05021D16BA
:1019F100AD07AC067F5A121D167FA5121D167F0773
:101A0100121D167F82121D16ECFF121D16AF051254
:101A11001D167818121D057810121D0590006CE036
:101A2100FCA3E0FDA3E0FEA3E0FF780812193A123F
:0D1A31001D1690006CA3A3A3E0FF021D167C
:101C8B00AD07AC067F5A121D167FA5121D167F04D9
:101C9B00121D167F80121D167F03121D16ECFF12EC
:071CAB001D16AF05021D1616
:10199600900058E01460111460161460222403703D
:1019A60043EF645A70448010EFB4A502800A803574
:1019B600900047EFF0E4A3F0900058E004F0229086
:1019C6000048E02449F582E43400F583EFF0900006
:1019D60048E004F0900047E0FFA3E0C39F400B12ED
:0B19E6000046800100E4900058F02251
:1000460090004DE0FEA3E0FDEDFF90004BE0FDB417
:100056000213D3EF9402EE940040027F0290000058
:10006600EFF00201F2EDB40A05900001803C900029
:100076004BE0FDB4031D900004E0FAA3E0FBC39F30
:10008600EA9E5004AE02AF03900002EEF0A3EFF03A
:10009600020317EDB40417D3EF9458EE940240040C
:1000A6007E027F58900004EEF0A3EF02036D9000ED
:1000B6004BE0FDB405059000068075EDB40605908D
:1000C6000008806C90004BE0FDB4070590000A80A4
:1000D6005FEDB4080590000C805690004BE0FDB42F
:1000E600090590000E8049EDB4100590001080407F
:1000F60090004BE0FDB411059000128033EDB41270
:1001060005900014802A90004BE0FDB41305900082
:1001160016801DEDB41405900018801490004BE075
:10012600FDB4150590001A8007EDB4160B90001C5F
:10013600EEF0A3EFF00203DB90004BE0FFB41708EC
:10014600C2919000220202CBEF64187075900022D3
:10015600F0D2919000237402F0A312195900000006
:10016600009000281219590000000090002C74021B
:10017600F0A312195900000000900031121959001D
:100186000000009000357402F0A312195900000017
:100196000090003A1219590000000090003E7402C7
:1001A600F0A31219590000000090004312195900DB
:1001B600000000900002E4F0A304F0900021040285
:1001C600035890004BE0FF6419702790001EE06012
:1001D600030203DB900021E060030203DB900000D2
:1001E600E004F0E0D3940240037401F09000210291
:1001F60002CBEF642070030203DB90004BE0FF6448
:100206002170030203DBEF642270030203DBEF6459
:10021600237067900022F09000237402F0A3121955
:1002260059000000009000281219590000000090A3
:10023600002C7402F0A3121959000000009000313E
:10024600121959000000009000357402F0A312192B
:10025600590000000090003A121959000000009061
:10026600003E7402F0A312195900000000900043EA
:10027600121959000000000203C690004BE0FFB4BB
:10028600242490001EE060030203DB900000E014CB
:10029600F0E0FED394025003EE7006900000740165
:1002A600F0900021801FEFB4252590001EE060032A
:1002B6000203DB900000E004F0E0D39402400374F4
:1002C60002F09000217401F090001EF00203DB9012
:1002D600004BE0FF6426704090001EE060030203BE
:1002E600DB900003E024FFF0900002E034FFF09082
:1002F6000004E0FCA3E0FD900002E0FAA3E0FBD3DB
:100306009DEA9C5004EB4A7008900002E4F0A304B6
:10031600F09000217402803AEFB4273E90001EE070
:1003260060030203DB900003E004F0700690000215
:10033600E004F0900004E0FEA3E0FFD3900003E0A9
:100346009F900002E09E4005EEF0A3EFF0900021A2
:100356007402F090001E14F0807B90004BE0FFB416
:1003660028089000217403F08056EFB4292AE490FF
:10037600000EF0A3F0A3F0A3F0A3F0A3F0A3F0A364
:10038600F0A3F0A3F0A3F0A3F0A3F0A3F0A3F0A3CF
:10039600F090001E04F0803DEFB4302C74FF900006
:1003A6000EF0A3F0A3F0A3F0A3F0A3F0A3F0A3F044
:1003B600A3F0A3F0A3F0A3F0A3F0A3F0A3F0A3F09F
:1003C60090001E7401F0800DEFB43109900075E0C5
:0703D600B41402E4F0D200B0
:0103DD0022FD
:10161300900022E0FD7C007F0F7E00121BB3900040
:101623001FE0FCA3E0FD7F0E121BB3900000E0FD62
:101633007C007F02121BB3A3E0FD7F0A121BB37F62
:1016430003121BAD7F04121BADA3E0FCA3E0FD7FDF
:1016530005121BB3A3E0FCA3E0FD7F06121BB3A39B
:10166300E0FCA3E0FD7F07121BB3A3E0FCA3E0FDB6
:101673007F08121BB3A3E0FCA3E0FD7F09121BB399
:10168300A3E0FCA3E0FD7F10121BB3A3E0FCA3E0E7
:10169300FD7F11121BB3A3E0FCA3E0FD7F12121B1D
:1016A300B3A3E0FCA3E0FD7F13121BB3A3E0FCA3F1
:1016B300E0FD7F14121BB3A3E0FCA3E0FD7F151232
:0D16C3001BB3A3E0FCA3E0FD7F16021BB3E8
:041B9A004100740092
:101A3E00900074E014601714602114603024037059
:101A4E003830A00320A1339000747401F02230A02E
:101A5E000320A11F9000747402F02220A0028003C4
:101A6E0020A1031211F79000747403F02230A00A23
:0B1A7E0030A107E4900074F022002269
:1011F7001216D0900023E06402600302129A900056
:101207002CE06402600302129A900006E0FEA3E05D
:10121700FF4E6036D3EF94FFEE947F400FC294E405
:10122700900023F0E49FFFE49EFE8010D29490008C
:10123700237401F0900006E0FEA3E0FFE4FCFD90BC
:10124700002412194D900028803F900008E0FEA36B
:10125700E0FF4E603ED3EF94FFEE947F400FC296BF
:10126700E490002CF0E49FFFE49EFE8010D296905D
:10127700002C7401F0900008E0FEA3E0FFE4FCFD01
:1012870090002D12194D90003112195900000000DD
:10129700121DFD900035E06402600302133A9000CE
:1012A7003EE06402600302133A90000AE0FEA3E006
:1012B700FF4E6036D3EF94FFEE947F400FC2B3E446
:1012C700900035F0E49FFFE49EFE8010D2B39000BB
:1012D700357401F090000AE0FEA3E0FFE4FCFD9006
:1012E700003612194D90003A803F90000CE0FEA3A3
:1012F700E0FF4E603ED3EF94FFEE947F400FC2B500
:10130700E490003EF0E49FFFE49EFE8010D2B5908B
:10131700003E7401F090000CE0FEA3E0FFE4FCFD4A
:1013270090003F12194D9000431219590000000018
:10133700121E10900003E004F07006900002E00413
:10134700F0900004E0FEA3E0FFD3900003E09F903D
:101357000002E09E4013E4F0A304F0900020E004B4
:10136700F0700690001FE004F09000217402F090E6
:05137700001E14F0222D
:041B9E004100751479
:10137C00900075E014606314700302142C14700355
:10138C000214711470030214B8240460030214E3F1
:10139C00900023E0640260030214E490002CE064EB
:1013AC000260030214E4900035E06402600302144E
:1013BC00E490003EE0640260030214E4C2949000E6
:1013CC0023F0A3121959002DC6C0900028121959E8
:1013DC0000000000121DFD0214B13080030214E461
:1013EC00121AC79000237402F0A3121959000000BE
:1013FC000090002812195900000000C296E49000D9
:10140C002CF0A3121959002DC6C090003112195995
:10141C0000000000121DFD90001E7401F00214B1BA
:10142C003081030214E4121AC790002C7402F0A34A
:10143C0012195900000000900031121959000000D7
:10144C0000C2B3E4900035F0A3121959002DC6C0A8
:10145C0090003A12195900000000121E1090001E44
:10146C007401F08040208270121B059000357402CC
:10147C00F0A31219590000000090003A12195900FB
:10148C00000000C2B5E490003EF0A3121959002DE3
:10149C00C6C090004312195900000000121E109093
:1014AC00001E7401F0900075E004F02220832912D4
:1014BC001B0590003E7402F0A312195900000000A5
:1014CC009000431219590000000090001E7401F0A6
:0914DC009000757414F022002246
:1016D0007D07E490005CF0C2B0EDFF3395E0FEEFD3
:1016E00025E0FFEE33FE740E2FF58274003EF58385
:1016F000A3E013B392B2D2B0740E2FF58274003E01
:10170000F583C083C082E0C313FFA3E013D082D06F
:1017100083CFF0A3EFF090005CE004F0E0B410B7EA
:101720001DEDB403ADC2A4D2A47D03E490005CF02F
:10173000C2A3EDFF3395E0FEEF25E0FFEE33FE742C
:101740000E2FF58274003EF583A3E013B392A5D269
:10175000A3740E2FF58274003EF583C083C082E02F
:10176000C313FFA3E013D082D083CFF0A3EFF09098
:10177000005CE004F0E0B410B71DC3ED6480948019
:0617800050A9C2B1D2B174
:011786002240
:10189600E4FCE4FDC2A3D2A5D2A3EC25E0240EF518
:1018A60082E43400F583C083C082A3E025E0FF050F
:1018B60082D5820215831582E033D082D083F0A3CD
:1018C600EFF00DEDB410CD0CECB404C6C2A4D2A456
:1018D6007C04E4FDC2B0D2B2D2B0EC25E0240EF511
:1018E60082E43400F583C083C082A3E025E0FF05CF
:1018F60082D5820215831582E033D082D083F0A38D
:10190600EFF00DEDB410CD0CECB408C6C2B1D2B1F7
:0119160022AE
:100FF10000000099030304500563063506C8072065
:1010010007460746072606F106AE0663061305C125
:101011000571052204D70490044D040D03D3039BED
:1010210003670338030C02E202BB029802760257FF
:10103100023A021F020601EE01D801C401B0019D6E
:10104100018D017C016D015F015101440139012CC8
:1010510001230117010E010500FC00F400EC00E47E
:1010610000DD00D600CF00C900C300BE00B800B249
:1010710000AE00A800A400A0009B00A0009B009867
:101081000093008F008C008800850081007F007B29
:101091000078007600720071006D006B00690066D7
:1010A10000640062005F005E005C00590058005659
:1010B100005400530051004F004D004D004A0049BB
:1010C1000048004600450044004200410040003F06
:1010D100003E003C003C003A003900380038003640
:1010E1000035003400340032003200310030002F6E
:1010F100002E002E002D002C002B002B0029002A91
:1011010000280028002700270025002600240024AD
:101111000024002300220022002100210020001FC2
:101121000020001E001E001E001D001D001C001CD2
:10113100001B001B001A001A001A001900190018E0
:1011410000180017001700170017001600150015EA
:1011510000150015001400140013001400120013F0
:1011610000120012001200110011001000110010F5
:10117100000F0010000F000F000E000E000E000EF9
:10118100000E000D000D000C000C000D000B000CFA
:10119100000B000B000B000B000A000A000A0009FB
:1011A100000A0009000800090008000800080008FA
:1011B10000070008000600070007000600060006F9
:1011C10000050006000500050005000400050004F7
:1011D10000030004000400030003000300020002F6
:1011E10000030002000100020001000100010001F2
:0611F100000000000001F7
:0A1BA200420070006442007200640B
:03000B000203DE0F
:1003DE00C0E0C0F0C083C082C0D075D008900023AA
:1003EE00E0FF700320800EEF6401600302053220EF
:0503FE0084030205323A
:10040300900028E0F8A3E0F9A3E0FAA3E0FB900052
:1004130024E0FCA3E0FDA3E0FEA3E0C39BFFEE9A70
:10042300FEED99FDEC98FC90006212194DE47F03F8
:100433007E01FDFC900028E0F8A3E0F9A3E0FAA315
:10044300E0FBC3121929502C900028A3A3E0FEA3BC
:10045300E0900FF175F00212198AEE25E02583F57D
:1004630083E493FE740193FF900071E02FF09000FA
:1004730070E03EF0E47F037E01FDFC900062E0F853
:10048300A3E0F9A3E0FAA3E0FBC3121929502D90CE
:100493000062A3A3E0FEA3E0900FF175F00212192E
:1004A3008AEE25E02583F583E493FE740193FFC36D
:1004B300900071E09FF0900070E09EF0900028E0C3
:1004C300FCA3E0FDA3E0FEA3E02401FFE43EFEE481
:1004D3003DFDE43CFC90002812194D900024E0FC03
:1004E300A3E0FDA3E0FEA3E0FFA3E0F8A3E0F9A3EC
:1004F300E0FAA3E0FBC31219294023C28C900070D9
:10050300E4F0A37464F09000237402F0A312195969
:10051300000000009000281219590000000090000C
:0C05230070E0FEA3E0F58AEEF58CB295C6
:10052F0002070790002CE0FF700320810EEF64019B
:0B053F006003020679208503020679A4
:10054A00900031E0F8A3E0F9A3E0FAA3E0FB900001
:10055A002DE0FCA3E0FDA3E0FEA3E0C39BFFEE9A1F
:10056A00FEED99FDEC98FC90006212194DE47F03B0
:10057A007E01FDFC900031E0F8A3E0F9A3E0FAA3C4
:10058A00E0FBC3121929502C900031A3A3E0FEA36B
:10059A00E0900FF175F00212198AEE25E02583F535
:1005AA0083E493FE740193FF900071E02FF09000B2
:1005BA0070E03EF0E47F037E01FDFC900062E0F80B
:1005CA00A3E0F9A3E0FAA3E0FBC3121929502D9086
:1005DA000062A3A3E0FEA3E0900FF175F0021219E6
:1005EA008AEE25E02583F583E493FE740193FFC325
:1005FA00900071E09FF0900070E09EF0900031E072
:10060A00FCA3E0FDA3E0FEA3E02401FFE43EFEE438
:10061A003DFDE43CFC90003112194D90002DE0FCA8
:10062A00A3E0FDA3E0FEA3E0FFA3E0F8A3E0F9A3A3
:10063A00E0FAA3E0FBC31219294023C28C90007090
:10064A00E4F0A37464F090002C7402F0A312195918
:10065A0000000000900031121959000000009000BB
:0C066A0070E0FEA3E0F58AEEF58CB2977C
:10067600020707900023E0FB700790001E740380BA
:1006860009EBB4012490001E7402F0C28C90007035
:10069600E4F0A37464F09000237402F0A3121959D5
:1006A60000000000900028805190002CE0FB702490
:1006B60090001E7403F0C28C900070E4F0A3746482
:1006C600F090002C7402F0A312195900000000905B
:1006D60000318026EBB4012990001E7402F0C28C12
:1006E600900070E4F0A37464F090002C7402F0A300
:1006F600121959000000009000311219590000002B
:0C07060000D0D0D082D083D0F0D0E03200
:03001B00020712C7
:10071200C0E0C0F0C083C082C0D075D00890003560
:10072200E0FF700320820EEF64016003020866207E
:050732008603020866C9
:1007370090003AE0F8A3E0F9A3E0FAA3E0FB900009
:1007470036E0FCA3E0FDA3E0FEA3E0C39BFFEE9A27
:10075700FEED99FDEC98FC90006612194DE47F03BD
:100767007E01FDFC90003AE0F8A3E0F9A3E0FAA3CC
:10077700E0FBC3121929502C90003AA3A3E0FEA373
:10078700E0900FF175F00212198AEE25E02583F546
:1007970083E493FE740193FF900073E02FF09000C1
:1007A70072E03EF0E47F037E01FDFC900066E0F816
:1007B700A3E0F9A3E0FAA3E0FBC3121929502D9097
:1007C7000066A3A3E0FEA3E0900FF175F0021219F3
:1007D7008AEE25E02583F583E493FE740193FFC336
:1007E700900073E09FF0900072E09EF090003AE076
:1007F700FCA3E0FDA3E0FEA3E02401FFE43EFEE44A
:100807003DFDE43CFC90003A12194D900036E0FCA7
:10081700A3E0FDA3E0FEA3E0FFA3E0F8A3E0F9A3B4
:10082700E0FAA3E0FBC31219294023C28E9000729D
:10083700E4F0A37464F09000357402F0A312195920
:100847000000000090003A121959000000009000C3
:0C08570072E0FEA3E0F58BEEF58DB2B46C
:10086300020A3B90003EE0FF700320830EEF640119
:0B08730060030209AD2087030209ADFD
:10087E00900043E0F8A3E0F9A3E0FAA3E0FB9000B8
:10088E003FE0FCA3E0FDA3E0FEA3E0C39BFFEE9AD6
:10089E00FEED99FDEC98FC90006612194DE47F0375
:1008AE007E01FDFC900043E0F8A3E0F9A3E0FAA37B
:1008BE00E0FBC3121929502C900043A3A3E0FEA322
:1008CE00E0900FF175F00212198AEE25E02583F5FE
:1008DE0083E493FE740193FF900073E02FF0900079
:1008EE0072E03EF0E47F037E01FDFC900066E0F8CE
:1008FE00A3E0F9A3E0FAA3E0FBC3121929502D904F
:10090E000066A3A3E0FEA3E0900FF175F0021219AA
:10091E008AEE25E02583F583E493FE740193FFC3ED
:10092E00900073E09FF0900072E09EF0900043E024
:10093E00FCA3E0FDA3E0FEA3E02401FFE43EFEE401
:10094E003DFDE43CFC90004312194D90003FE0FC4D
:10095E00A3E0FDA3E0FEA3E0FFA3E0F8A3E0F9A36C
:10096E00E0FAA3E0FBC31219294023C28E90007255
:10097E00E4F0A37464F090003E7402F0A3121959CF
:10098E000000000090004312195900000000900072
:0C099E0072E0FEA3E0F58BEEF58DB2B622
:1009AA00020A3B900035E0FB700790001E7403803A
:1009BA0009EBB4012490001E7402F0C28E900072FA
:1009CA00E4F0A37464F09000357402F0A31219598C
:1009DA000000000090003A805190003EE0FB702435
:1009EA0090001E7403F0C28E900072E4F0A3746447
:1009FA00F090003E7402F0A3121959000000009012
:100A0A0000438026EBB4012990001E7402F0C28EC6
:100A1A00900072E4F0A37464F090003E7402F0A3B4
:100A2A0012195900000000900043121959000000E1
:0C0A3A0000D0D0D082D083D0F0D0E032C9
:101D9600438E805389F0758A64E4F58CC28DC28CBB
:051DA600C2A9D2AF222A
:101DFD00758A64E4F58C900070F0A37464F0D2A938
:031E0D00D28C2252
:101AC700C2A9C28C900070E4F0A37464F090002364
:101AD7007402F0A31219590000000090002812198F
:101AE700590000000090002C7402F0A3121959004D
:0E1AF70000000090003112195900000000227A
:101DAB00438E40538910758B64E4F58DC28FC28EC0
:051DBB00C2ABD2AF2213
:101E1000758B64E4F58D900072F0A37464F0D2AB1E
:031E2000D28E223D
:101B0500C28EC2AB900072E4F0A37464F09000350D
:101B15007402F0A31219590000000090003A12193E
:101B2500590000000090003E7402F0A312195900FC
:0E1B3500000000900043121959000000002229
:101DC000D2A60000D2A70000000000C2A6000000BA
:051DD0000000C2A72283
:101DE900C2A600D2A70000000000D2A60000000091
:041DF90000C2A7225B
:101C3B00121DC07FA012001E121C53EAFF12001EC1
:081C4B00121C53AF0312001E2E
:101C5300C2A6000000D2A70000000000C2A7000037
:011C6300225E
:101E2300D2A6000000D2A70000000000C2A7000055
:011E3300228C
:10001E007E08AD07C2A70000000000ED30E704D255
:10002E00A68002C2A6D2A7EF25E0FDFFDEE4C2A79E
:01003E00229F
:101C0E00E4FFFE7D08D2A6C2A70000000000D2A706
:101C1E000000000000EF30A6054401FF800354FED3
:0C1C2E00FFED146005EF25E0FEFFDDDB9C
:011C3A002287
:101D6900EFD394004011E4FDFC0DBD00010CED64BE
:071D79007D4C70F51F80E9AD
:011D80002240
:101D3800AB07AA06AC05121C3BAF0412001E121C0E
:091D480053121DE97F0F021D6911
:041CB200AB07AA06CC
:101CB600121C3B121DC07FA112001E121C53121CC7
:091CC6000EC2A7121E23121DE933
:011CCF0022F2
:101793000214E5E493A3F8E493A34003F68001F273
:1017A30008DFF48029E493A3F85407240CC8C33357
:1017B300C4540F4420C8834004F456800146F6DF26
:1017C300E4800B0102040810204080901B7AE47E21
:1017D300019360BCA3FF543F30E509541FFEE4931B
:1017E300A360010ECF54C025E060A840B8E493A3E2
:1017F300FAE493A3F8E493A3C8C582C8CAC583CA0D
:10180300F0A3C8C582C8CAC583CADFE9DEE780BEC4
:011BAC000038
:10191700EF8DF0A4A8F0CF8CF0A428CE8DF0A42EE4
:02192700FE229E
:10192900EB9FF5F0EA9E42F0E99D42F0E89C45F014
:01193900228B
:10193A00E8600FECC313FCED13FDEE13FEEF13FF8B
:03194A00D8F122AF
:0C194D00ECF0A3EDF0A3EEF0A3EFF0220D
:10195900A8828583F0D083D082121970121970126F
:101969001970121970E473E493A3C583C5F0C58394
:10197900C8C582C8F0A3C583C5F0C583C8C582C8D8
:01198900223B
:0C198A00A42582F582E5F03583F5832268
:00000001FF
