:030000000217F5EF
:0C17F500787FE4F6D8FD75812002183CD6
:10122600E4900047F0A3F0A3F07FD07E07121CCF16
:10123600121C19121ABF121881121E9F121E0112B9
:101246001E167F017E00121CF65387DF7F0A7E0082
:10125600121CCF900048E004F07006900047E004AE
:10126600F0D3900048E094F4900047E094014013D6
:10127600900049E0B4010C7F017E00121CF6E49058
:101286000049F0E58730E51C5387DF7F0A7E0012B0
:101296001CCFE58730E50D5387DF121B79E58730D4
:1012A600E50280FE900022E0B401031219DE121A54
:1012B6007F1213DE900021E0640370497F05FE1261
:1012C6001CF6120D9FE4900021F07F03FE121CF61F
:1012D600900003E004F07006900002E004F0900035
:1012E60004E0FEA3E0FFD3900003E09F900002E03D
:1012F6009E4005EEF0A3EFF09000217402F09000FE
:101306001E14F08075900021E0B40108121D5612DB
:101316000A758043900021E0B40543900003E00481
:10132600F07006900002E004F0900004E0FEA3E0F6
:10133600FFD3900003E09F900002E09E4013E4F08C
:10134600A304F0900020E004F0700690001FE00473
:10135600F0120A75121547E4900021F0801C9000E7
:1013660021E0B404157F057E00121CF6121B79E4F9
:10137600900021F07F01FE121CF6900021E0B402DD
:1013860008120A75E4900021F090001EE0B40105F1
:1013960012168B801890001EE0B402197F087E009A
:1013A600121CF6E4900047F0A3F0A304F0E49000CA
:1013B6001EF002125290001EE064036003021252F5
:1013C6007F07FE121CF6E4900047F0A3F0A304F09A
:0813D600E490001EF002125227
:101D3B00EF1FAC0670011E4C601090004DE004F0DC
:0A1D4B0070EE90004CE004F080E61A
:011D5500226B
:081CCF0090004AEEF0A3EFF0D3
:101CD700E4FBFAD390004BE09B90004AE09A400E59
:0E1CE7007FDE7E01121D3B0BBB00010A80E573
:011CF50022CC
:10188100E4FFFE121D1D900000EFF0900002E4F055
:10189100A304F090000104F0120A75EF7053900058
:1018A1000004F090000404F0A37458F0A3E4F0A342
:1018B1007464F0A3E4F0A374C8F0A37401F0A374FA
:1018C1002CF0A37401F0A37490F0A374FFF0A3149F
:1018D100F0A3747FF0A374FFF0A3F0A3F0A3F0A32F
:1018E100F0A3F0A3F0A3F0A3F0A3F0A3F0A3F0A35F
:1018F100F0E4900022F0C29190001E04F0E4900008
:0319010021F022B0
:101D560090004AE4F0A304F0900000E0FDE4FFFEEA
:091D6600121DA390004AA3E0FF46
:011D6F002251
:100D9F0090004AE4F0A304F0900000E0FF7E007C96
:100DAF00387D42121904EF24C0FFEE34C7FE9000C5
:100DBF004CF0A3EFF0900004E0FD121DA390004D46
:100DCF00E02401FF90004CE03400FE900004A3E00B
:100DDF00FD121DA3900002E0FEA3E0FF7C007D1832
:100DEF0012190490004DE02FFF90004CE03ECF24ED
:100DFF00EACF34FFFE90004EF0A3EFF0900006E034
:100E0F00FD121DA390004FE02401FF90004EE0342F
:100E1F0000FE900006A3E0FD121DA390004FE024FA
:100E2F0002FF90004EE03400FE900008E0FD121D1E
:100E3F00A390004FE02403FF90004EE03400FE909B
:100E4F000008A3E0FD121DA390004FE02404FF90C3
:100E5F00004EE03400FE90000AE0FD121DA390004A
:100E6F004FE02405FF90004EE03400FE90000AA3EF
:100E7F00E0FD121DA390004FE02406FF90004EE00E
:100E8F003400FE90000CE0FD121DA390004FE024F3
:100E9F0007FF90004EE03400FE90000CA3E0FD121F
:100EAF001DA390004FE02408FF90004EE03400FE99
:100EBF0090000EE0FD121DA390004FE02409FF905B
:100ECF00004EE03400FE90000EA3E0FD121DA39033
:100EDF00004FE0240AFF90004EE03400FE90001017
:100EEF00E0FD121DA390004FE0240BFF90004EE099
:100EFF003400FE900010A3E0FD121DA390004FE000
:100F0F00240CFF90004EE03400FE900012E0FD1222
:100F1F001DA390004FE0240DFF90004EE03400FE23
:100F2F00900012A3E0FD121DA390004FE0240EFFCE
:100F3F0090004EE03400FE900014E0FD121DA390CF
:100F4F00004FE0240FFF90004EE03400FE9000149D
:100F5F00A3E0FD121DA390004FE02410FF90004E60
:100F6F00E03400FE900016E0FD121DA390004FE04C
:100F7F002411FF90004EE03400FE900016A3E0FD18
:100F8F00121DA390004FE02412FF90004EE034009A
:100F9F00FE900018E0FD121DA390004FE02413FFF8
:100FAF0090004EE03400FE900018A3E0FD121DA348
:100FBF0090004FE02414FF90004EE03400FE9000AC
:100FCF001AE0FD121DA390004FE02415FF90004E74
:100FDF00E03400FE90001AA3E0FD121DA390004F15
:100FEF00E02416FF90004EE03400FE90001CE0FD60
:100FFF00121DA390004FE02417FF90004EE0340025
:10100F00FE90001CA3E0FD121DA390004AA3E0FF79
:01101F0022AE
:100A750090004AE4F0A304F0900000E0FF7E007CC3
:100A8500387D42121904EF24C0FFEE34C7FE9000F2
:100A95004CF0A3EFF0121D1DEF7F00FEC007C0064E
:100AA50090004DE02401FF90004CE03400FE121D43
:100AB5001DEFFDD0E0FFD0E04D900004CFF0A3EF97
:100AC500F0900002E0FEA3E0FF7C007D18121904FF
:100AD50090004DE02FFF90004CE03ECF24EACF344C
:100AE500FFFE90004EF0A3EFF0121D1DEF7F00FEFC
:100AF500C007C00690004FE02401FF90004EE0348F
:100B050000FE121D1DEFFDD0E0FFD0E04D90000668
:100B1500CFF0A3EFF090004FE02402FF90004EE0ED
:100B25003400FE121D1DEF7F00FEC007C0069000B9
:100B35004FE02403FF90004EE03400FE121D1DEF30
:100B4500FDD0E0FFD0E04D900008CFF0A3EFF0908E
:100B5500004FE02404FF90004EE03400FE121D1DFE
:100B6500EF7F00FEC007C00690004FE02405FF9010
:100B7500004EE03400FE121D1DEFFDD0E0FFD0E079
:100B85004D90000ACFF0A3EFF090004FE02406FF50
:100B950090004EE03400FE121D1DEF7F00FEC007E1
:100BA500C00690004FE02407FF90004EE03400FEA1
:100BB500121D1DEFFDD0E0FFD0E04D90000CCFF0F1
:100BC500A3EFF090004FE02408FF90004EE03400C2
:100BD500FE121D1DEF7F00FEC007C00690004FE00E
:100BE5002409FF90004EE03400FE121D1DEFFDD0DC
:100BF500E0FFD0E04D90000ECFF0A3EFF090004F56
:100C0500E0240AFF90004EE03400FE121D1DEF7F28
:100C150000FEC007C00690004FE0240BFF90004E79
:100C2500E03400FE121D1DEFFDD0E0FFD0E04D9039
:100C35000010CFF0A3EFF090004FE0240CFF9000E0
:100C45004EE03400FE121D1DEF7F00FEC007C006FA
:100C550090004FE0240DFF90004EE03400FE121D81
:100C65001DEFFDD0E0FFD0E04D900012CFF0A3EFD7
:100C7500F090004FE0240EFF90004EE03400FE128D
:100C85001D1DEF7F00FEC007C00690004FE0240F3A
:100C9500FF90004EE03400FE121D1DEFFDD0E0FF79
:100CA500D0E04D900014CFF0A3EFF090004FE0247A
:100CB50010FF90004EE03400FE121D1DEF7F00FE78
:100CC500C007C00690004FE02411FF90004EE034AD
:100CD50000FE121D1DEFFDD0E0FFD0E04D90001687
:100CE500CFF0A3EFF090004FE02412FF90004EE00C
:100CF5003400FE121D1DEF7F00FEC007C0069000E8
:100D05004FE02413FF90004EE03400FE121D1DEF4E
:100D1500FDD0E0FFD0E04D900018CFF0A3EFF090AC
:100D2500004FE02414FF90004EE03400FE121D1D1C
:100D3500EF7F00FEC007C00690004FE02415FF902E
:100D4500004EE03400FE121D1DEFFDD0E0FFD0E0A7
:100D55004D90001ACFF0A3EFF090004FE02416FF5E
:100D650090004EE03400FE121D1DEF7F00FEC0070F
:100D7500C00690004FE02417FF90004EE03400FEBF
:100D8500121D1DEFFDD0E0FFD0E04D90001CCFF00F
:090D9500A3EFF090004AA3E0FF77
:010D9E002232
:101ABF007F0A121E407FFF7E01121DBCBFAA277F27
:101ACF00087E00121DBCEF7F00FEC007C0067F0915
:101ADF007E00121DBCEFFDD0E0FFD0E04D90001F47
:0E1AEF00CFF0A3EFF022E490001FF0A3F0224E
:101B79007F0A121E40E4FFFE121DEC7F0A121E406E
:101B890090001FE0FD7F087E00121D8A90001FA3B0
:101B9900E0FD7F097E00121D8A7DAA7FFF7E01126A
:071BA9001D8A7F0A021E40A5
:101E4000AE071FEE600DE4FCFD0DED70010C4C6063
:031E5000EF80F62A
:011E5300226C
:0D000E00E4F5C7F5C5F5C675C380F5C4223D
:101DBC0075C78375C5018FC4EEF5C375C65A75C654
:071DCC00A500AFC212000EDA
:011DD30022ED
:101D8A0075C78375C5028FC4EEF5C3AF058FC275DB
:091D9A00C65A75C6A50002000E30
:101DEC0075C78375C5038FC4EEF5C375C65A75C622
:051DFC00A50002000E2D
:101BB000C1004F005CFFFFFFFFFFFFFFFFFFFFFFC4
:101BC000FFFFFFFF41006B0041005B0041005A0036
:0F1E9F00759A50759CFD438E1475AF01D2AF221A
:03004300021C4A52
:101C4A00C0E0C0F0C083C082C0D075D008E59A3029
:101C5A00E008539AFEAF9B121983E59A30E10553C7
:0F1C6A009AFDC201D0D0D082D083D0F0D0E0322A
:101D700090006EE0FCA3E0FDA3E0FEA3E0FF1219DB
:011D8000273B
:091D81002001FDEFD201F59B22C7
:061BE700A3E0FCA3E0FDF9
:101BED00AB07AA067F5A121D817FA5121D817F05A5
:101BFD00121D817F82121D81EAFF121D81AF03121A
:0C1C0D001D81ECFF121D81AF05021D813E
:101A3200AD07AC067F5A121D817FA5121D817F075B
:101A4200121D817F82121D81ECFF121D81AF0512D2
:101A52001D817818121D707810121D7090006EE0B2
:101A6200FCA3E0FDA3E0FEA3E0FF78081219271211
:0D1A72001D8190006EA3A3A3E0FF021D8163
:101CF600AD07AC067F5A121D817FA5121D817F0498
:101D0600121D817F80121D817F03121D81ECFF123F
:071D16001D81AF05021D81D4
:1019830090006BE01460111460161460222403703D
:1019930043EF645A70448010EFB4A502800A803587
:1019A30090005AEFF0E4A3F090006BE004F0229073
:1019B300005BE0245CF582E43400F583EFF09000F3
:1019C3005BE004F090005AE0FFA3E0C39F400B12DA
:0B19D3000046800100E490006BF02251
:10004600900060E0FEA3E0FDEDFF90005EE0FDB4F1
:100056000213D3EF9402EE940040027F0290000058
:10006600EFF00202D6EDB40A05900001803C900044
:100076005EE0FDB4031D900004E0FAA3E0FBC39F1D
:10008600EA9E5004AE02AF03900002EEF0A3EFF03A
:1000960002035CEDB40417D3EF9458EE94024004C7
:1000A6007E027F58900004EEF0A3EF0203779000E3
:1000B6005EE0FDB405059000068075EDB40605907A
:1000C6000008806C90005EE0FDB4070590000A8091
:1000D6005FEDB4080590000C805690005EE0FDB41C
:1000E600090590000E8049EDB4100590001080407F
:1000F60090005EE0FDB411059000128033EDB4125D
:1001060005900014802A90005EE0FDB4130590006F
:1001160016801DEDB41405900018801490005EE062
:10012600FDB4150590001A8007EDB4160B90001C5F
:10013600EEF0A3EFF002040A90005EE0B4170EC2E0
:10014600919000227401F01215470203E090005EC0
:10015600E0641860030201DC900022F0D291900066
:10016600237402F0A3121946000000009000281222
:1001760019460000000090002C7402F0A3121946E4
:1001860000000000900031121946000000009000A7
:10019600357402F0A31219460000000090003A12CE
:1001A60019460000000090003E7402F0A3121946A2
:1001B6000000000090004312194600000000900065
:1001C60002E4F0A304F090002104F090001E14F065
:1001D600121C1902040A90005EE0FF641970249054
:1001E600001EE0600302040A900021E0600302049E
:1001F6000A900000E004F0E0D3940240037401F09A
:100206000202D6EF6420700302040A90005EE0FF4B
:100216006421700302040AEF6422700302040AEFE9
:1002260064237067900022F09000237402F0A312FA
:100236001946000000009000281219460000000030
:1002460090002C7402F0A3121946000000009000E2
:1002560031121946000000009000357402F0A31216
:1002660019460000000090003A12194600000000EE
:1002760090003E7402F0A3121946000000009000A0
:1002860043121946000000000203E090005EE0FF02
:10029600B4242190001EE0600302040A900000E0EE
:1002A60014F0E0FED394025003EE70069000007442
:1002B60001F0801CEFB4252590001EE060030204C7
:1002C6000A900000E004F0E0D3940240037402F0C8
:1002D6009000217401F090001EF002040A90005E66
:1002E600E0FF6426703B90001EE0600302040A9063
:1002F6000003E024FFF0900002E034FFF0900004D9
:10030600E0FCA3E0FD900002E0FAA3E0FBD39DEA47
:100316009C5004EB4A7008900002E4F0A304F080BD
:1003260035EFB4273F90001EE0600302040A9000F8
:1003360003E004F07006900002E004F0900004E090
:10034600FEA3E0FFD3900003E09F900002E09E40F2
:1003560005EEF0A3EFF09000217402F090001E1459
:10036600F002040A90005EE0FFB4280890002174B1
:1003760003F08066EF64297039900006F0A3F0A3BD
:10038600F0A3F0A3F0A3F0A3F0A3F0A3F0A3F0A3CF
:10039600F0A3F0A3F0A3F0A3F0A3F0A3F0A3F0A3BF
:1003A600F0A3F0A3F0A3F0A3F0A3F090001E04F0D6
:1003B6008052EFB4302C74FF90000EF0A3F0A3F03F
:1003C600A3F0A3F0A3F0A3F0A3F0A3F0A3F0A3F08F
:1003D600A3F0A3F0A3F0A3F0A3F090001E7401F025
:1003E6008022EFB4310B900078E0B41417E4F0806B
:1003F6001390005EE0FF6432600AEFB433069000AB
:06040600217404F0D20095
:01040C0022CD
:10168B00900022E0FD7C007F0F7E00121BED90008E
:10169B001FE0FCA3E0FD7F0E121BED900000E0FDB0
:1016AB007C007F02121BEDA3E0FD7F0A121BED7F76
:1016BB0003121BE77F04121BE7A3E0FCA3E0FD7FF3
:1016CB0005121BEDA3E0FCA3E0FD7F06121BEDA3AF
:1016DB00E0FCA3E0FD7F07121BEDA3E0FCA3E0FD04
:1016EB007F08121BEDA3E0FCA3E0FD7F09121BEDAD
:1016FB00A3E0FCA3E0FD7F10121BEDA3E0FCA3E035
:10170B00FD7F11121BEDA3E0FCA3E0FD7F12121B6A
:10171B00EDA3E0FCA3E0FD7F13121BEDA3E0FCA304
:10172B00E0FD7F14121BEDA3E0FCA3E0FD7F15127F
:0D173B001BEDA3E0FCA3E0FD7F16021BEDFB
:081BD00041007600410077009E
:1019DE00900076E0146017146021146039240370AF
:1019EE004130A00320A13C9000767401F02230A07B
:1019FE000320A1289000767402F02220A00280031A
:101A0E0020A10C9000217405F090001E7401F0903E
:101A1E0000767403F02230A00A30A107E49000761D
:041A2E00F022002280
:101A7F00900077E014601414601B14602824037026
:101A8F002D20A22B9000777401F02220A21A900033
:101A9F00777402F02220A2069000217404F09000C7
:101AAF00777403F02230A207E4900077F02200222F
:10154700121748900023E0640260030215EA900036
:101557002CE0640260030215EA900006E0FEA3E0B7
:10156700FF4E6036D3EF94FFEE947F400FC294E4B2
:10157700900023F0E49FFFE49EFE8010D294900039
:10158700237401F0900006E0FEA3E0FFE4FCFD9069
:10159700002412193A900028803F900008E0FEA32B
:1015A700E0FF4E603ED3EF94FFEE947F400FC2966C
:1015B700E490002CF0E49FFFE49EFE8010D296900A
:1015C700002C7401F0900008E0FEA3E0FFE4FCFDAE
:1015D70090002D12193A90003112194600000000B0
:1015E700121E68900035E06402600302168A9000BC
:1015F7003EE06402600302168A90000AE0FEA3E060
:10160700FF4E6036D3EF94FFEE947F400FC2B3E4F2
:10161700900035F0E49FFFE49EFE8010D2B3900067
:10162700357401F090000AE0FEA3E0FFE4FCFD90B2
:10163700003612193A90003A803F90000CE0FEA362
:10164700E0FF4E603ED3EF94FFEE947F400FC2B5AC
:10165700E490003EF0E49FFFE49EFE8010D2B59038
:10166700003E7401F090000CE0FEA3E0FFE4FCFDF7
:1016770090003F12193A90004312194600000000EB
:04168700121E7B2292
:041BD800410078143C
:1013DE00900078E014606314700302148E1470038E
:1013EE000214D314700302151A2404600302154567
:1013FE00900023E06402600302154690002CE06426
:10140E00026003021546900035E064026003021587
:10141E004690003EE064026003021546C2949000BE
:10142E0023F0A3121946002DC6C0900028121946AB
:10143E0000000000121E68021513308003021546CC
:10144E00121AFD9000237402F0A312194600000038
:10145E000090002812194600000000C296E4900089
:10146E002CF0A3121946002DC6C090003112194659
:10147E0000000000121E6890001E7401F002151389
:10148E00308103021546121AFD90002C7402F0A34F
:10149E00121946000000009000311219460000009B
:1014AE0000C2B3E4900035F0A3121946002DC6C059
:1014BE0090003A12194600000000121E7B90001E8A
:1014CE007401F08040208270121B3B900035740234
:1014DE00F0A31219460000000090003A12194600BF
:1014EE00000000C2B5E490003EF0A3121946002D94
:1014FE00C6C090004312194600000000121E7B90D9
:10150E00001E7401F0900078E004F022208329126E
:10151E001B3B90003E7402F0A3121946000000001F
:10152E009000431219460000000090001E7401F056
:09153E009000787414F0220022E0
:101748007B07EBFF3395E0FEEF25E0FFEE33FE74F9
:101758000E2FF58274003EF583E0FFA3E090005061
:10176800CFF0A3EFF0E4FDC2B0900050E0FEA3E09C
:10177800FF13B392B2D2B0EEC313FEEF13FF900083
:1017880050EEF0A3EFF00DEDB410DC1BEBB403B298
:10179800C2B1D2B17B03EBFF3395E0FEEF25E0FF4A
:1017A800EE33FE740E2FF58274003EF583E0FFA33E
:1017B800E0900050CFF0A3EFF0E4FDC2A3900050FA
:1017C800E0FEA3E0FF13B392A5D2A3EEC313FEEF8E
:1017D80013FF900050EEF0A3EFF00DEDB410DC1BFA
:0C17E800C3EB6480948050AEC2A4D2A475
:0117F40022D2
:101C1900E4FEE4FFC2A3D2A5D2A30FEFB410F50EE0
:101C2900EEB404EEC2A4D2A47E04E4FFC2B0D2B2E0
:101C3900D2B00FEFB410F50EEEB408EEC2B1D2B1C6
:011C49002278
:1010200000000099030304500563063506C8072035
:1010300007460746072606F106AE0663061305C1F6
:101040000571052204D70490044D040D03D3039BBE
:1010500003670338030C02E202BB029802760257D0
:10106000023A021F020601EE01D801C401B0019D3F
:10107000018D017C016D015F015101440139012C99
:1010800001230117010E010500FC00F400EC00E44F
:1010900000DD00D600CF00C900C300BE00B800B21A
:1010A00000AE00A800A400A0009B00A0009B009838
:1010B0000093008F008C008800850081007F007BFA
:1010C0000078007600720071006D006B00690066A8
:1010D00000640062005F005E005C0059005800562A
:1010E000005400530051004F004D004D004A00498C
:1010F0000048004600450044004200410040003FD7
:10110000003E003C003C003A003900380038003610
:101110000035003400340032003200310030002F3E
:10112000002E002E002D002C002B002B0029002A61
:10113000002800280027002700250026002400247E
:101140000024002300220022002100210020001F93
:101150000020001E001E001E001D001D001C001CA3
:10116000001B001B001A001A001A001900190018B1
:1011700000180017001700170017001600150015BB
:1011800000150015001400140013001400120013C1
:1011900000120012001200110011001000110010C6
:1011A000000F0010000F000F000E000E000E000ECA
:1011B000000E000D000D000C000C000D000B000CCB
:1011C000000B000B000B000B000A000A000A0009CC
:1011D000000A0009000800090008000800080008CB
:1011E00000070008000600070007000600060006CA
:1011F00000050006000500050005000400050004C8
:1012000000030004000400030003000300020002C6
:1012100000030002000100020001000100010001C2
:06122000000000000001C7
:0A1BDC0042007200644200740064CD
:03000B0002040DDF
:10040D00C0E0C0F0C083C082C0D075D0089000237A
:10041D00E0FF700320800EEF640160030205612090
:05042D008403020561DB
:10043200900028E0F8A3E0F9A3E0FAA3E0FB900023
:1004420024E0FCA3E0FDA3E0FEA3E0C39BFFEE9A41
:10045200FEED99FDEC98FC90005212193AE47F03EC
:100462007E01FDFC900028E0F8A3E0F9A3E0FAA3E6
:10047200E0FBC3121916502C900028A3A3E0FEA3A0
:10048200E090102075F002121977EE25E02583F531
:1004920083E493FE740193FF900073E02FF09000C9
:1004A20072E03EF0E47F037E01FDFC900052E0F832
:1004B200A3E0F9A3E0FAA3E0FBC3121916502D90B2
:1004C2000052A3A3E0FEA3E090102075F0021219DF
:1004D20077EE25E02583F583E493FE740193FFC351
:1004E200900073E09FF0900072E09EF0900028E090
:1004F200FCA3E0FDA3E0FEA3E02401FFE43EFEE452
:100502003DFDE43CFC90002812193A900024E0FCE6
:10051200A3E0FDA3E0FEA3E0FFA3E0F8A3E0F9A3BC
:10052200E0FAA3E0FBC31219164023C28C900072BA
:10053200E4F0A37464F09000237402F0A31219464D
:1005420000000000900028121946000000009000F0
:0C05520072E0FEA3E0F58AEEF58CB29595
:10055E0002073690002CE0FF700320810EEF64013D
:0B056E0060030206A82085030206A817
:10057900900031E0F8A3E0F9A3E0FAA3E0FB9000D2
:100589002DE0FCA3E0FDA3E0FEA3E0C39BFFEE9AF0
:10059900FEED99FDEC98FC90005212193AE47F03A4
:1005A9007E01FDFC900031E0F8A3E0F9A3E0FAA395
:1005B900E0FBC3121916502C900031A3A3E0FEA34F
:1005C900E090102075F002121977EE25E02583F5E9
:1005D90083E493FE740193FF900073E02FF0900081
:1005E90072E03EF0E47F037E01FDFC900052E0F8EA
:1005F900A3E0F9A3E0FAA3E0FBC3121916502D906A
:100609000052A3A3E0FEA3E090102075F002121996
:1006190077EE25E02583F583E493FE740193FFC308
:10062900900073E09FF0900072E09EF0900031E03E
:10063900FCA3E0FDA3E0FEA3E02401FFE43EFEE409
:100649003DFDE43CFC90003112193A90002DE0FC8C
:10065900A3E0FDA3E0FEA3E0FFA3E0F8A3E0F9A374
:10066900E0FAA3E0FBC31219164023C28C90007272
:10067900E4F0A37464F090002C7402F0A3121946FC
:10068900000000009000311219460000000090009F
:0C06990072E0FEA3E0F58AEEF58CB2974B
:1006A500020736900023E0FB700790001E7403805C
:1006B50009EBB4012490001E7402F0C28C90007204
:1006C500E4F0A37464F09000237402F0A3121946B9
:1006D50000000000900028805190002CE0FB702461
:1006E50090001E7403F0C28C900072E4F0A3746451
:1006F500F090002C7402F0A312194600000000903F
:1007050000318026EBB4012990001E7402F0C28CE2
:10071500900072E4F0A37464F090002C7402F0A3CE
:100725001219460000000090003112194600000021
:0C07350000D0D0D082D083D0F0D0E032D1
:03001B0002074198
:10074100C0E0C0F0C083C082C0D075D00890003531
:10075100E0FF700320820EEF640160030208952020
:0507610086030208956B
:1007660090003AE0F8A3E0F9A3E0FAA3E0FB9000DA
:1007760036E0FCA3E0FDA3E0FEA3E0C39BFFEE9AF8
:10078600FEED99FDEC98FC90005612193AE47F03B1
:100796007E01FDFC90003AE0F8A3E0F9A3E0FAA39D
:1007A600E0FBC3121916502C90003AA3A3E0FEA357
:1007B600E090102075F002121977EE25E02583F5FA
:1007C60083E493FE740193FF900075E02FF0900090
:1007D60074E03EF0E47F037E01FDFC900056E0F8F5
:1007E600A3E0F9A3E0FAA3E0FBC3121916502D907B
:1007F6000056A3A3E0FEA3E090102075F0021219A4
:1008060077EE25E02583F583E493FE740193FFC319
:10081600900075E09FF0900074E09EF090003AE042
:10082600FCA3E0FDA3E0FEA3E02401FFE43EFEE41A
:100836003DFDE43CFC90003A12193A900036E0FC8B
:10084600A3E0FDA3E0FEA3E0FFA3E0F8A3E0F9A385
:10085600E0FAA3E0FBC31219164023C28E9000747F
:10086600E4F0A37464F09000357402F0A312194604
:100876000000000090003A121946000000009000A7
:0C08860074E0FEA3E0F58BEEF58DB2B43B
:10089200020A6A90003EE0FF700320830EEF6401BB
:0B08A20060030209DC2087030209DC70
:1008AD00900043E0F8A3E0F9A3E0FAA3E0FB900089
:1008BD003FE0FCA3E0FDA3E0FEA3E0C39BFFEE9AA7
:1008CD00FEED99FDEC98FC90005612193AE47F0369
:1008DD007E01FDFC900043E0F8A3E0F9A3E0FAA34C
:1008ED00E0FBC3121916502C900043A3A3E0FEA306
:1008FD00E090102075F002121977EE25E02583F5B2
:10090D0083E493FE740193FF900075E02FF0900047
:10091D0074E03EF0E47F037E01FDFC900056E0F8AC
:10092D00A3E0F9A3E0FAA3E0FBC3121916502D9032
:10093D000056A3A3E0FEA3E090102075F00212195B
:10094D0077EE25E02583F583E493FE740193FFC3D1
:10095D00900075E09FF0900074E09EF0900043E0F1
:10096D00FCA3E0FDA3E0FEA3E02401FFE43EFEE4D2
:10097D003DFDE43CFC90004312193A90003FE0FC31
:10098D00A3E0FDA3E0FEA3E0FFA3E0F8A3E0F9A33D
:10099D00E0FAA3E0FBC31219164023C28E90007437
:1009AD00E4F0A37464F090003E7402F0A3121946B3
:1009BD000000000090004312194600000000900056
:0C09CD0074E0FEA3E0F58BEEF58DB2B6F1
:1009D900020A6A900035E0FB700790001E740380DC
:1009E90009EBB4012490001E7402F0C28E900074C9
:1009F900E4F0A37464F09000357402F0A312194670
:100A09000000000090003A805190003EE0FB702405
:100A190090001E7403F0C28E900074E4F0A3746415
:100A2900F090003E7402F0A31219460000000090F5
:100A390000438026EBB4012990001E7402F0C28E97
:100A4900900074E4F0A37464F090003E7402F0A383
:100A590012194600000000900043121946000000D8
:0C0A690000D0D0D082D083D0F0D0E0329A
:101E0100438E805389F0758A64E4F58CC28DC28C4F
:051E1100C2A9D2AF22BE
:101E6800758A64E4F58C900072F0A37464F0D2A9CA
:031E7800D28C22E7
:101AFD00C2A9C28C900072E4F0A37464F09000232C
:101B0D007402F0A31219460000000090002812196B
:101B1D00460000000090002C7402F0A3121946003C
:0E1B2D00000000900031121946000000002256
:101E1600438E40538910758B64E4F58DC28FC28E54
:051E2600C2ABD2AF22A7
:101E7B00758B64E4F58D900074F0A37464F0D2ABB1
:031E8B00D28E22D2
:101B3B00C28EC2AB900074E4F0A37464F0900035D5
:101B4B007402F0A31219460000000090003A12191B
:101B5B00460000000090003E7402F0A312194600EC
:0E1B6B00000000900043121946000000002206
:101E2B00D2A60000D2A70000000000C2A60000004E
:051E3B000000C2A72217
:101E5400C2A600D2A70000000000D2A60000000025
:041E640000C2A722EF
:101CA600121E2B7FA012001E121CBEEAFF12001E7F
:081CB600121CBEAF0312001E58
:101CBE00C2A6000000D2A70000000000C2A70000CC
:011CCE0022F3
:101E8E00D2A6000000D2A70000000000C2A70000EA
:011E9E002221
:10001E007E08AD07C2A70000000000ED30E704D255
:10002E00A68002C2A6D2A7EF25E0FDFFDEE4C2A79E
:01003E00229F
:101C7900E4FFFE7D08D2A6C2A70000000000D2A79B
:101C89000000000000EF30A6054401FF800354FE68
:0C1C9900FFED146005EF25E0FEFFDDDB31
:011CA500221C
:101DD400EFD394004011E4FDFC0DBD00010CED6453
:071DE4007D4C70F51F80E942
:011DEB0022D5
:101DA300AB07AA06AC05121CA6AF0412001E121C38
:091DB300BE121E547F0F021DD464
:041D1D00AB07AA0660
:101D2100121CA6121E2B7FA112001E121CBE121C19
:091D310079C2A7121E8E121E5485
:011D3A002286
:10180100021226E493A3F8E493A34003F68001F2C5
:1018110008DFF48029E493A3F85407240CC8C333E8
:10182100C4540F4420C8834004F456800146F6DFB7
:10183100E4800B0102040810204080901BB0E47E7C
:10184100019360BCA3FF543F30E509541FFEE493AC
:10185100A360010ECF54C025E060A840B8E493A373
:10186100FAE493A3F8E493A3C8C582C8CAC583CA9E
:10187100F0A3C8C582C8CAC583CADFE9DEE780BE56
:011BE60000FE
:10190400EF8DF0A4A8F0CF8CF0A428CE8DF0A42EF7
:02191400FE22B1
:10191600EB9FF5F0EA9E42F0E99D42F0E89C45F027
:01192600229E
:10192700E8600FECC313FCED13FDEE13FEEF13FF9E
:03193700D8F122C2
:0C193A00ECF0A3EDF0A3EEF0A3EFF02220
:10194600A8828583F0D083D08212195D12195D12A8
:10195600195D12195DE473E493A3C583C5F0C583CD
:10196600C8C582C8F0A3C583C5F0C583C8C582C8EB
:01197600224E
:0C197700A42582F582E5F03583F583227B
:00000001FF
