:030000000218B52E
:0C18B500787FE4F6D8FD7581200218FC55
:100E9200E4900204F0A3F0A3F07FF47E01121D9708
:100EA200121ACD121EA9121E45121E5AE4FFFE127C
:100EB2001DBE1200465387DF900205E004F0700663
:100EC200900204E004F0D3900205E0943290020410
:100ED200E094004012900206E0B4010BE4FFFE121F
:100EE2001DBEE4900206F0900004E06402600C90E3
:100EF2000014E0640260047F048015900004E0B4F2
:100F02000208900014E0640260047F0680027F0AF7
:100F12007E00121D97E58730E52A5387DF7F0A7E20
:100F220000121D97E58730E51B121D47121D6F53F6
:100F320087DF12040EE58730E504B29080FC121EB2
:100F420083121E96900002E0B40106121BD6121CF8
:100F52007112159F900000E0B40106121B85020F6A
:100F6200F8900000E0B402137F067E00121DBEE47A
:100F7200900204F0A3F0A304F0807B900000E0B4A0
:100F820003137F057E00121DBEE4900204F0A3F05D
:100F9200A304F08061900000E0B404137F097E0096
:100FA200121DBEE4900204F0A3F0A304F080479067
:100FB2000000E0B405137F0A7E00121DBEE4900219
:100FC20004F0A3F0A304F0802D900000E0B4061317
:100FD2007F0B7E00121DBEE4900204F0A3F0A30476
:100FE200F08013900000E0FFC39407400EEFD3940B
:100FF2000C50081219CAE4900000F0900001E0645D
:10100200016003020EBA7F04FE121DBE120953EFE5
:101012007F027003FE80027E00121DBEE49000017A
:04102200F0020EBA10
:10001E00EF1FAC0670011E4C601090020AE004F057
:0A002E0070EE900209E004F080E695
:0100380022A5
:081D9700900207EEF0A3EFF04B
:101D9F00E4FBFAD3900208E09B900207E09A400E12
:0E1DAF007FDE7E0112001E0BBB00010A80E5E4
:011DBD002203
:1017B600E4900207F0A3F07F0A121E6F7FFF7E01FE
:1017C600121E18EF64EE60030218AE900209F0A331
:1017D600F0E490020BF0A3F090020BE0FAA3E0FB1A
:1017E600C39428EA94004003021886900209E0FE9A
:1017F600A3E0FF7C007D50121A4EAC06AD07EB2528
:10180600E0FFEA33FEED2FFFEC3EFE90020DF0A363
:10181600EFF0121E18EF7F00FEC007C00690020E02
:10182600E02401FF90020DE03400FE121E18EFFDC9
:10183600D0E0FCD0E04DFD90020CE025E0FF9002E8
:101846000BE033FE900209E0FAA3E090002375F066
:1018560050121AC1EA75F050A42583F583E5822F4C
:10186600F582E5833EF583ECF0A3EDF090020CE003
:1018760004F060030217DE90020BE004F00217DEAC
:1018860090020AE004F07006900209E004F0C390AA
:10189600020AE09406900209E0940050030217D76A
:0E18A600900207E4F0A304F0900207A3E0FF15
:0118B4002211
:101ACD001217B6EF7043FDFCE4FBFAEB25E0FFEADD
:101ADD0033FE90002375F050ED121AC1EC75F050E5
:101AED00A42583F583E5822FF582E5833EF583E416
:101AFD00F0A3F00BBB00010AEB64284A70CD0DBDBD
:101B0D0000010CED64064C70BF9000027401F0E40E
:0C1B1D00900203F090000004F0E4A3F03C
:011B29002299
:10095300900207E4F0A304F07F0A121E6FE4FFFE87
:10096300121E307F0A121E6FE4900209F0A3F0E416
:1009730090020BF0A3F0900209E0FAA3E0FB7C00E5
:100983007D50FFAE02121A4EAC06AD0790020CE08A
:1009930025E0FF90020BE033FEED2FFFEC3E9002CB
:1009A3000DF0A3EFF090020CE025E0FF90020BE0C6
:1009B30033FE90002375F050EB121AC1EA75F05024
:1009C300A42583F583E5822FF582E5833EF583E055
:1009D300FD90020DE0FEA3E0FF121DFF90020CE06C
:1009E30025E0FF90020BE033FE900209E0FCA3E058
:1009F30090002375F050121AC1EC75F050A42583B2
:100A0300F583E5822FF582E5833EF583A3E0FD9030
:100A1300020EE02401FF90020DE03400FE121DFFE0
:100A230090020CE004F0700690020BE004F0C39017
:100A3300020CE0942890020BE09400500302097921
:100A430090020AE004F07006900209E004F0C390FB
:100A5300020AE09406900209E0940050030209722E
:100A63007DEE7FFF7E01121DFF7F0A121E6FE49051
:100A73000209F0A3F0E490020BF0A3F090020BE064
:100A8300FAA3E0FBC39428EA94004003020B3190DD
:100A93000209E0FEA3E0FF7C007D50121A4EAC0673
:100AA300AD07EB25E0FFEA33FEED2FFFEC3EFE90B2
:100AB300020DF0A3EFF0121E18EF7F00FEC007C077
:100AC3000690020EE02401FF90020DE03400FE12B6
:100AD3001E18EFFDD0E0FCD0E04DFD90020CE025A8
:100AE300E0FF90020BE033FE900209E0FAA3E090EE
:100AF300002375F050121AC1EA75F050A42583F54E
:100B030083E5822FF582E5833EF583E0FEA3E06D66
:100B13007002EE6C6007E4900207F0A3F090020C01
:100B2300E004F0700690020BE004F0020A7F9002EA
:100B33000AE004F07006900209E004F0C390020A90
:100B4300E09406900209E094005003020A789002B0
:040B530007A3E0FF15
:010B5700227B
:100046007FFF7E03121E18EF64EE60030203A0FF1B
:100056007E02121E18900003EFF07F017E02121E30
:1000660018900004EFF07402FFFE121E18900005AF
:10007600EFF07F047E02121E187E00EF7810C33365
:10008600CE33CED8F9FFC007C0067F037E02121E0C
:10009600187E00EF7818C333CE33CED8F9FDD0E002
:1000A6004EFED0E04DFFC007C0067F057E02121E41
:1000B60018EFFCD0E04CFED0E0FFC007C0067F067C
:1000C6007E02121E18EFFDD0E0FED0E04DFFE4FCEC
:1000D600FD900006121A847F087E02121E187E000A
:1000E600EF7810C333CE33CED8F9FFC007C0067FF2
:1000F600077E02121E187E00EF7818C333CE33CE69
:10010600D8F9FDD0E04EFED0E04DFFC007C0067F17
:10011600097E02121E18EFFCD0E04CFED0E0FFC0B4
:1001260007C0067F0A7E02121E18EFFDD0E0FED041
:10013600E04DFFE4FCFD90000A121A847F047E0263
:10014600121E18EF7F00C454F0FEC007C0067F03DE
:100156007E02121E18EF33333354F8FCD0E04CFE07
:10016600D0E0FFC007C0067F057E02121E18EFC44E
:100176003354E0FCD0E04CFED0E0FFC007C0067F61
:100186000E7E02121E18EFFDD0E0FED0E04DFFE419
:10019600FCFD90000E121A847F0F7E02121E18902C
:1001A6000012EFF07F107E02121E18900013EFF07F
:1001B6007F117E02121E18900014EFF07F127E024D
:1001C600121E18900015EFF07F047E02121E187E94
:1001D60000EF7814C333CE33CED8F9FFC007C0067C
:1001E6007F037E02121E187E00EF7813C333CE33D0
:1001F600CED8F9FDD0E04EFED0E04DFFC007C006D8
:100206007F057E02121E187E00EF7815C333CE33AB
:10021600CED8F9FDD0E04EFED0E04DFFC007C006B7
:100226007F167E02121E18EFFDD0E0FED0E04DFFD5
:10023600E4FCFD900016121A847F087E02121E1836
:100246007E00EF7818C333CE33CED8F9FFC007C08F
:10025600067F077E02121E187E00EF7817C333CE84
:1002660033CED8F9FDD0E04EFED0E04DFFC007C03A
:10027600067F097E02121E187E00EF7819C333CE60
:1002860033CED8F9FDD0E04EFED0E04DFFC007C01A
:10029600067F1A7E02121E18EFFDD0E0FED0E04D5A
:1002A600FFE4FCFD90001A121A847F047E02121EDF
:1002B600187E00EF781CC333CE33CED8F9FFC007C3
:1002C600C0067F037E02121E187E00EF781BC33322
:1002D600CE33CED8F9FDD0E04EFED0E04DFFC007BC
:1002E600C0067F057E02121E187E00EF781DC333FE
:1002F600CE33CED8F9FDD0E04EFED0E04DFFC0079C
:10030600C0067F1E7E02121E18EFFDD0E0FED0E072
:100316004DFFE4FCFD90001E121A847F1F7E021220
:100326001E18900022EFF07F207E02121E18900207
:100336002BEFF07F227E02121E187E00EF7810C38C
:1003460033CE33CED8F9FFC007C0067F217E021216
:100356001E187E00EF7818C333CE33CED8F9FDD001
:10036600E04EFED0E04DFFC007C0067F237E02129E
:100376001E18EFFCD0E04CFED0E0FFC007C0067FA1
:10038600247E02121E18EFFDD0E0FED0E04DFFE401
:10039600FCFD90022C121A848067E4900003F0A3FF
:1003A6007402F0A314F0A3121A900000000090004B
:1003B6000A121A900000000090000E121A90000017
:1003C6000000E4900012F0A3F0A37402F0A314F06E
:1003D600A3121A900000000090001A121A90000052
:1003E600000090001E121A9000000000E490002207
:1003F600F090022B7402F090022C121A900000006A
:08040600009000007401F022D7
:10040E007F007E02121E307F037E00121D97900029
:10041E0003E0FD7F007E02121DFF900004E0FD7FD1
:10042E00017E02121DFF900005E0FD7402FFFE1218
:10043E001DFF900006E0FCA3E0FDA3E0FEA3E0FF9D
:10044E007818121A71AD077F037E02121DFF9000FD
:10045E0006E0FCA3E0FDA3E0FEA3E0FF7810121A75
:10046E0071AD077F047E02121DFF900006E0FCA313
:10047E00E0FDA3E0FEA3E0FF7808121A71AD077F3E
:10048E00057E02121DFF900006A3A3A3E0FD7F06CA
:10049E007E02121DFF90000AE0FCA3E0FDA3E0FE29
:1004AE00A3E0FF7818121A71AD077F077E02121DA6
:1004BE00FF90000AE0FCA3E0FDA3E0FEA3E0FF78BE
:1004CE0010121A71AD077F087E02121DFF90000AEE
:1004DE00E0FCA3E0FDA3E0FEA3E0FF7808121A7192
:1004EE00AD077F097E02121DFF90000AA3A3A3E0B1
:1004FE00FD7F0A7E02121DFF90000EE0FCA3E0FDC0
:10050E00A3E0FEA3E0FF7818121A71AD077F0B7EF1
:10051E0002121DFF90000EE0FCA3E0FDA3E0FEA37F
:10052E00E0FF7810121A71AD077F0C7E02121DFFCC
:10053E0090000EE0FCA3E0FDA3E0FEA3E0FF780830
:10054E00121A71AD077F0D7E02121DFF90000EA3D1
:10055E00A3A3E0FD7F0E7E02121DFF900012E0FDB0
:10056E007F0F7E02121DFF900013E0FD7F107E02B2
:10057E00121DFF900014E0FD7F117E02121DFF90F0
:10058E000015E0FD7F127E02121DFF900016E0FCAA
:10059E00A3E0FDA3E0FEA3E0FF7818121A71AD07E9
:1005AE007F137E02121DFF900016E0FCA3E0FDA358
:1005BE00E0FEA3E0FF7810121A71AD077F147E02E1
:1005CE00121DFF900016E0FCA3E0FDA3E0FEA3E0E9
:1005DE00FF7808121A71AD077F157E02121DFF906B
:1005EE000016A3A3A3E0FD7F167E02121DFF90004E
:1005FE001AE0FCA3E0FDA3E0FEA3E0FF7818121AB8
:10060E0071AD077F177E02121DFF90001AE0FCA34A
:10061E00E0FDA3E0FEA3E0FF7810121A71AD077F94
:10062E00187E02121DFF90001AE0FCA3E0FDA3E06D
:10063E00FEA3E0FF7808121A71AD077F197E021231
:10064E001DFF90001AA3A3A3E0FD7F1A7E02121DC8
:10065E00FF90001EE0FCA3E0FDA3E0FEA3E0FF7808
:10066E0018121A71AD077F1B7E02121DFF90001E1D
:10067E00E0FCA3E0FDA3E0FEA3E0FF7810121A71E8
:10068E00AD077F1C7E02121DFF90001EE0FCA3E052
:10069E00FDA3E0FEA3E0FF7808121A71AD077F1DDF
:1006AE007E02121DFF90001EA3A3A3E0FD7F1E7EFF
:1006BE0002121DFF900022E0FD7F1F7E02121DFF21
:1006CE0090022BE0FD7F207E02121DFF90022CE097
:1006DE00FCA3E0FDA3E0FEA3E0FF7818121A71ADB3
:1006EE00077F217E02121DFF90022CE0FCA3E0FD8D
:1006FE00A3E0FEA3E0FF7810121A71AD077F227EF1
:10070E0002121DFF90022CE0FCA3E0FDA3E0FEA36D
:10071E00E0FF7808121A71AD077F237E02121DFFCB
:10072E0090022CA3A3A3E0FD7F247E02121DFF7D69
:0F073E00EE7FFF7E03121DFF7F0A7E00021D97D4
:101E6F00AE071FEE600DE4FCFD0DED70010C4C6034
:031E7F00EF80F6FB
:011E8200223D
:0D000E00E4F5C7F5C5F5C675C380F5C4223D
:101E180075C78375C5018FC4EEF5C375C65A75C6F7
:071E2800A500AFC212000E7D
:011E2F002290
:101DFF0075C78375C5028FC4EEF5C3AF058FC27566
:091E0F00C65A75C6A50002000EBA
:101E300075C78375C5038FC4EEF5C375C65A75C6DD
:051E4000A50002000EE8
:101CAE00C1004F021BFFFFFFFFFFFFFFFFFFFFFF04
:101CBE00FFFFFFFF41022A0041021A0041021900F4
:0F1EA900759A50759CFD438E1475AF01D2AF2210
:03004300021D1883
:101D1800C0E0C0F0C083C082C0D075D008E59A305A
:101D2800E008539AFEAF9B121B2AE59A30E105534F
:0F1D38009AFDC201D0D0D082D083D0F0D0E0325B
:101DE500900209E0FCA3E0FDA3E0FEA3E0FF121AC8
:011DF500717C
:091DF6002001FDEFD201F59B2252
:071CE500E02401FDEE33FCD9
:101CEC00AB07AA067F5A121DF67FA5121DF67F05BB
:101CFC00121DF67F82121DF6EAFF121DF6AF0312BB
:0C1D0C001DF6ECFF121DF6AF05021DF6DF
:101C2400AD07AC067F5A121DF67FA5121DF67F077D
:101C3400121DF67F82121DF6ECFF121DF6AF05127F
:101C44001DF67818121DE57810121DE5900209E0C2
:101C5400FCA3E0FDA3E0FEA3E0FF7808121A7112D2
:0D1C64001DF6900209A3A3A3E0FF021DF6E8
:101DBE00AD07AC067F5A121DF67FA5121DF67F04E5
:101DCE00121DF67F80121DF67F03121DF6ECFF1218
:071DDE001DF6AF05021DF622
:101B2A0090022AE0146011146016146022240370D3
:101B3A0043EF645A70448010EFB4A502800A8035DE
:101B4A00900219EFF0E4A3F090022AE004F0229048
:101B5A00021AE0241BF582E43402F583EFF09002C6
:101B6A001AE004F0900219E0FFA3E0C39F400B12B1
:0B1B7A0011AF800100E490022AF0226D
:1011AF0090021FE0FEA3E0FDEDFF90020FEEF0A313
:1011BF00EFF090021DE0FFB4070F900230E06414CF
:1011CF006003021310F0021310EFB408099000022D
:1011DF007401F00212C590021DE0FB640A70649066
:1011EF000002F0900003F0A37402F0A314F0A31216
:1011FF001A900000000090000A121A9000000000E0
:10120F0090000E121A9000000000E4900012F0906F
:10121F000013F0A37402F0A314F0A3121A900000AD
:10122F00000090001A121A900000000090001E1289
:10123F001A9000000000E4900022F090000004F0EB
:10124F00021310EBB40C11900002E0640160030272
:10125F00131012131302131090021DE0B40E11900D
:10126F000002E06401600302131012102602131033
:10127F0090021DE0B41010900002E06401600302C0
:10128F001310121941807A90021DE0FFB41E0890CE
:10129F0000017401F0806AEF64206065EFC394125F
:1012AF00401AEFD3941C501490021DE024EEC31388
:1012BF00900203F02407900000F0804590021DE09B
:1012CF00FFC3942E403BEFD3947C503590020FE038
:1012DF00FEA3E0FF900203E075F050A42423F582F3
:1012EF00E5F03400F583C083C08290021DE024D264
:1012FF00C313D082D08375F002121AC1EEF0A3EFA0
:03130F00F0D20019
:0113120022B8
:1019CA00E4FDFC7F22FE121CEC7F24121CEC7F2615
:1019DA00121CEC7F28121CEC7F2A121CEC7F2C12A2
:1019EA001CEC900203E025E0FFEE33FEEF2422FF19
:1019FA00E43EFE0D121CECE4900207F0900203E0B4
:101A0A0075F050A42423F582E5F03400F583C083F1
:101A1A00C082900207E0FFD082D08375F002121ACA
:101A2A00C1E0FCA3E0FDEF25E0FFE433FEEF242E46
:101A3A00FFE43EFE121CEC900207E004F0E0C394BF
:031A4A002840B978
:011A4D002276
:101B8500900002E0FD7C00E4FFFE121CEC900012C8
:101B95007F01121CE59000227F02121CE5900003D4
:101BA500E02401FFEE33FEE4FCFD900209121A84E5
:101BB5007F037E00121C24900013E02401FFE43310
:101BC500FEE4FCFD900209121A847F057E00021CCA
:011BD50024EB
:081CCE0041023500410236001D
:101BD600900235E0146017146021146033240370FA
:101BE6003B3082032083369002357401F022308226
:101BF600032083229002357402F0222082051213FC
:101C06001380062083031210269002357403F022F7
:0E1C160030820A308307E4900235F02200226B
:101C7100900236E014601414601B14602524037074
:101C81002A2084289002367401F0222084179002C1
:101C9100367402F022208403121941900236740333
:0D1CA100F022308407E4900236F022002289
:041CD6004102301483
:10159F00900230E0146061146066147003021669E3
:1015AF00147003021673240460030216B390000430
:1015BF00E0640260030216B4900014E0640260035A
:1015CF000216B4900003E0FF6F60030216B49000A0
:1015DF0012E0FF6F60030216B4C294900004F09003
:1015EF000006121A90002DC6C090000A121A900021
:1015FF00000000121E8380653080030216B4805DE8
:10160F003080030216B4121D47E4900003F0A37458
:10161F0002F0A314F0A3121A900000000090000A29
:10162F00121A900000000090000E121A9000000095
:10163F0000E4900012F0C295900014F09000161282
:10164F001A90002DC6C090001A121A9000000000C8
:10165F00121E96900230E0048042208148900230A2
:10166F00E004F02220813E121D6FE4900013F0A3DE
:10167F007402F0A314F0A3121A900000000090005F
:10168F001A121A900000000090001E121A9000000B
:10169F000000E4900022F09002307414F0900000EB
:0616AF007401F02200228C
:10131300900004E064026003021455900014E0643A
:10132300026003021455900013E0FF900003E06F86
:101333006003021455900022E0FF900012E0FE6F5C
:101343006003021455EE30E00302144ED294900071
:10135300047401F090022BF0E4900005F090001269
:10136300E075F050A42423F582E5F03400F583C042
:1013730083C082900003E0D082D08375F002121AFA
:10138300C1A3E025E0FF0582D5820215831582E023
:1013930033FEE4FCFD900006121A84900006E0FC84
:1013A300A3E0FDA3E0FEA3E0FF90022C121A8490B9
:1013B300000A121A900000000090000EE0F8A3E06B
:1013C300F9A3E0FAA3E0FBA3E075F050A42423F50E
:1013D30082E5F03400F583C083C082900003E0D03F
:1013E30082D08375F002121AC1E0FEA3E0FFE4FC91
:1013F300FDEB2FFFEA3EFEED39FDEC38FC90000ECD
:10140300121A84900012E075F050A42425F582E5A9
:10141300F03400F583C083C082900003E0D082D013
:101423008375F002121AC1E0FEA3E04E700D900026
:1014330012E004F0E4900003F08006900003E0045F
:10144300F0121E839000007401F0229000007405D6
:09145300F0229000007406F02262
:10102600900004E0640260030211A8900014E064DA
:101036000260030211A8900013E0FF900003E06F26
:1010460060030211A8900022E0FF900012E0FE6FFC
:1010560060030211A8EE20E0030211A1C294E490FD
:101066000004F090022BF0900012E075F050A424DA
:1010760023F582E5F03400F583C083C08290000337
:10108600E0D082D08375F002121AC1A3E025E0FFFA
:101096000582D5820215831582E033FEE4FCFD90BD
:1010A6000006121A84900006E0FCA3E0FDA3E0FE11
:1010B600A3E0FF90022C121A8490000A121A9000E4
:1010C60000000090000EE0FCA3E0FDA3E0FEA3E01C
:1010D600FFC006C007A3E075F050A42423F582E5FF
:1010E600F03400F583C083C082900003E0D082D044
:1010F6008375F002121AC1E0FEA3E0FBAA06D00730
:10110600D006C3EF9BFFEE9AFEED9400FDEC940033
:10111600FC90000E121A84900012E075F050A42480
:1011260025F582E5F03400F583C083C08290000384
:10113600E0D082D08375F002121AC1E0FEA3E04E21
:10114600704990000504F0E4900003F0900012E06E
:1011560004F0E0FFD394054004E4F0803475F050C9
:10116600EFA42423F582E5F03400F583C083C08222
:10117600900003E0D082D08375F002121AC1E0FE1F
:10118600A3E04E700C900012F08006900003E0047D
:10119600F0121E839000007401F022900000740487
:0911A600F0229000007406F02212
:1016B500900014E0640260030217B5900022E03048
:1016C500E0030217AFD2959000147401F0E4A3F083
:1016D500900022E075F050A42423F582E5F0340053
:1016E500F583C083C082900013E0D082D08375F06B
:1016F50002121AC1A3E025E0FF0582D582021583F7
:101705001582E033FEE4FCFD900016121A84900069
:101715001A121A900000000090001EE0F8A3E0F9EC
:10172500A3E0FAA3E0FBA3E075F050A42423F5821F
:10173500E5F03400F583C083C082900013E0D082C9
:10174500D08375F002121AC1E0FEA3E0FFE4FCFDB0
:10175500EB2FFFEA3EFEED39FDEC38FC90001E1242
:101765001A84900022E075F050A42425F582E5F056
:101775003400F583C083C082900013E0D082D0830B
:1017850075F002121AC1E0FEA3E04E700D90002222
:10179500E004F0E4900013F08006900013E004F0FC
:1017A500121E969000007401F0229000007405F05E
:0117B5002211
:10145C00900014E06402600302159E900022E020CC
:10146C00E003021598C295E4900014F0900022E07D
:10147C0075F050A42423F582E5F03400F583C08385
:10148C00C082900013E0D082D08375F002121AC192
:10149C00A3E025E0FF0582D5820215831582E03397
:1014AC00FEE4FCFD900016121A8490001A121A9099
:1014BC000000000090001EE0FCA3E0FDA3E0FEA3F2
:1014CC00E0FFC006C007A3E075F050A42423F5820A
:1014DC00E5F03400F583C083C082900013E0D08225
:1014EC00D08375F002121AC1E0FEA3E0FBAA06D06D
:1014FC0007D006C3EF9BFFEE9AFEED9400FDEC9433
:10150C0000FC90001E121A84900022E075F050A48A
:10151C002425F582E5F03400F583C083C082900069
:10152C0013E0D082D08375F002121AC1E0FEA3E062
:10153C004E704990001504F0E4900013F0900022D6
:10154C00E004F0E0FFD394054004E4F0803475F03F
:10155C0050EFA42423F582E5F03400F583C083C05A
:10156C0082900013E0D082D08375F002121AC1E091
:10157C00FEA3E04E700C900022F08006900013E069
:10158C0004F0121E969000007401F022900000747A
:03159C0004F02236
:10194100900004E0640260030219C9900014E0648D
:10195100027075900013E0FF900003E0FEB5070CE4
:10196100900022E0FF900012E06F605C90022BE09B
:10197100FF24FF9295900013EEF0A3EFF090000585
:10198100E0900015F090022CE0FCA3E0FDA3E0FE46
:10199100A3E0FF900016121A8490001A121A900008
:1019A10000000090000EE0FCA3E0FDA3E0FEA3E038
:1019B100FF90001E121A84900012E0900022F01293
:0919C1001E969000007401F02252
:10074D0000000099030304500563063506C8072011
:10075D0007460746072606F106AE0663061305C1D2
:10076D000571052204D70490044D040D03D3039B9A
:10077D0003670338030C02E202BB029802760257AC
:10078D00023A021F020601EE01D801C401B0019D1B
:10079D00018D017C016D015F015101440139012C75
:1007AD0001230117010E010500FC00F400EC00E42B
:1007BD0000DD00D600CF00C900C300BE00B800B2F6
:1007CD0000AE00A800A400A0009B00A0009B009814
:1007DD000093008F008C008800850081007F007BD6
:1007ED000078007600720071006D006B0069006684
:1007FD0000640062005F005E005C00590058005606
:10080D00005400530051004F004D004D004A004967
:10081D000048004600450044004200410040003FB2
:10082D00003E003C003C003A0039003800380036EC
:10083D000035003400340032003200310030002F1A
:10084D00002E002E002D002C002B002B0029002A3D
:10085D00002800280027002700250026002400245A
:10086D000024002300220022002100210020001F6F
:10087D000020001E001E001E001D001D001C001C7F
:10088D00001B001B001A001A001A0019001900188D
:10089D000018001700170017001700160015001597
:1008AD00001500150014001400130014001200139D
:1008BD0000120012001200110011001000110010A2
:1008CD00000F0010000F000F000E000E000E000EA6
:1008DD00000E000D000D000C000C000D000B000CA7
:1008ED00000B000B000B000B000A000A000A0009A8
:1008FD00000A0009000800090008000800080008A7
:10090D0000070008000600070007000600060006A5
:10091D0000050006000500050005000400050004A3
:10092D0000030004000400030003000300020002A2
:10093D00000300020001000200010001000100019E
:06094D00000000000001A3
:0A1CDA00420231006442023300644C
:03000B00020B588D
:100B5800C0E0C0F0C083C082C0D075D00890000447
:100B6800E0FF700320800EEF64016003020CAD20EB
:050B7800A203020CAD18
:100B7D0090000AE0F8A3E0F9A3E0FAA3E0FB9000EF
:100B8D0006E0FCA3E0FDA3E0FEA3E0C39BFFEE9A0D
:100B9D00FEED99FDEC98FC900211121A84E47F038E
:100BAD007E01FDFC90000AE0F8A3E0F9A3E0FAA3B2
:100BBD00E0FBC3121A60502C90000AA3A3E0FEA321
:100BCD00E090074D75F002121AC1EE25E02583F570
:100BDD0083E493FE740193FF900232E02FF09002B4
:100BED0031E03EF0E47F037E01FDFC900211E0F860
:100BFD00A3E0F9A3E0FAA3E0FBC3121A60502D9015
:100C0D000211A3A3E0FEA3E090074D75F002121AA6
:100C1D00C1EE25E02583F583E493FE740193FFC3B4
:100C2D00900232E09FF0900231E09EF090000AE0D9
:100C3D00FCA3E0FDA3E0FEA3E02401FFE43EFEE4FF
:100C4D003DFDE43CFC90000A121A84900006E0FC85
:100C5D00A3E0FDA3E0FEA3E0FFA3E0F8A3E0F9A36A
:100C6D00E0FAA3E0FBC3121A604025C28C9002315A
:100C7D00E4F0A37464F09000047402F09000061286
:100C8D001A900000000090000A121A900000000057
:0E0C9D00900231E0FEA3E0F58AEEF58CB2B4D1
:100CAB00803D900004E0FB70079000007403800906
:100CBB00EBB4012B9000007402F0C28C900231E473
:100CCB00F0A37464F09000047402F0900006121A02
:100CDB00900000000090000A121A9000000000D053
:0A0CEB00D0D082D083D0F0D0E032E8
:03001B00020CF5DF
:100CF500C0E0C0F0C083C082C0D075D00890001499
:100D0500E0FF700320810EEF64016003020E4A20AC
:050D1500A303020E4AD9
:100D1A0090001AE0F8A3E0F9A3E0FAA3E0FB900040
:100D2A0016E0FCA3E0FDA3E0FEA3E0C39BFFEE9A5E
:100D3A00FEED99FDEC98FC900215121A84E47F03EB
:100D4A007E01FDFC90001AE0F8A3E0F9A3E0FAA303
:100D5A00E0FBC3121A60502C90001AA3A3E0FEA372
:100D6A00E090074D75F002121AC1EE25E02583F5D1
:100D7A0083E493FE740193FF900234E02FF0900213
:100D8A0033E03EF0E47F037E01FDFC900215E0F8BB
:100D9A00A3E0F9A3E0FAA3E0FBC3121A60502D9076
:100DAA000215A3A3E0FEA3E090074D75F002121A04
:100DBA00C1EE25E02583F583E493FE740193FFC316
:100DCA00900234E09FF0900233E09EF090001AE027
:100DDA00FCA3E0FDA3E0FEA3E02401FFE43EFEE461
:100DEA003DFDE43CFC90001A121A84900016E0FCC7
:100DFA00A3E0FDA3E0FEA3E0FFA3E0F8A3E0F9A3CC
:100E0A00E0FAA3E0FBC3121A604025C28E900233B7
:100E1A00E4F0A37464F09000147402F090001612C7
:100E2A001A900000000090001A121A9000000000A8
:0E0E3A00900233E0FEA3E0F58BEEF58DB2B52D
:100E4800803D900014E0FB70079000007403800957
:100E5800EBB4012B9000007402F0C28E900233E4D0
:100E6800F0A37464F09000147402F0900016121A43
:100E7800900000000090001A121A9000000000D0A4
:0A0E8800D0D082D083D0F0D0E03249
:101E4500438E805389F0758A64E4F58CC28DC28C0B
:051E5500C2A9D2AF227A
:101E8300758A64E4F58C900231F0A37464F0D2A9EE
:031E9300D28C22CC
:101D4700C2A9C28C900231E4F0A37464F09000043D
:101D57007402F0900006121A900000000090000A2A
:081D6700121A90000000002296
:101E5A00438E40538910758B64E4F58DC28FC28E10
:051E6A00C2ABD2AF2263
:101E9600758B64E4F58D900233F0A37464F0D2ABD5
:031EA600D28E22B7
:101D6F00C28EC2AB900233E4F0A37464F0900014FF
:101D7F007402F0900016121A900000000090001AE2
:081D8F00121A9000000000226E
:1018C100020E92E493A3F8E493A34003F68001F29D
:1018D10008DFF48029E493A3F85407240CC8C33328
:1018E100C4540F4420C8834004F456800146F6DFF7
:1018F100E4800B0102040810204080901CAEE47EBD
:10190100019360BCA3FF543F30E509541FFEE493EB
:10191100A360010ECF54C025E060A840B8E493A3B2
:10192100FAE493A3F8E493A3C8C582C8CAC583CADD
:10193100F0A3C8C582C8CAC583CADFE9DEE780BE95
:011CE40000FF
:101A4E00EF8DF0A4A8F0CF8CF0A428CE8DF0A42EAC
:021A5E00FE2266
:101A6000EB9FF5F0EA9E42F0E99D42F0E89C45F0DC
:011A70002253
:101A7100E8600FECC313FCED13FDEE13FEEF13FF53
:031A8100D8F12277
:0C1A8400ECF0A3EDF0A3EEF0A3EFF022D5
:101A9000A8828583F0D083D082121AA7121AA712C7
:101AA0001AA7121AA7E473E493A3C583C5F0C583EC
:101AB000C8C582C8F0A3C583C5F0C583C8C582C8A0
:011AC0002203
:0C1AC100A42582F582E5F03583F5832230
:00000001FF
