:030000000218A83B
:0C18A800787FE4F6D8FD75817A0218EF15
:1012F300E4F566F567F5687FF47E0112001E1219A6
:10130300B3121E5E121DD8121DEDE4FFFE121D6FF7
:101313001208B75387DF0567E56770020566D39444
:1013230032E5669400400EE568B40109E4FFFE125D
:101333001D6FE4F568E5266402600AE53664026021
:10134300047F048011E526B40206E53664026004D6
:101353007F0680027F0A7E0012001EE58730E52AA1
:101363005387DF7F0A7E0012001EE58730E51B12DC
:101373001CAD121CDF5387DF12103EE58730E504F6
:10138300B29080FC121E3E121E4EE524B4010612DA
:101393001B4F121BA1120EACE521B40105121A2C2E
:1013A300804DE521B402047F068022E521B40304C5
:1013B3007F058019E521B404047F098010E521B479
:1013C30005047F0A8007E521B406137F0B7E001214
:1013D3001D6FE4F566F567756801F5218014E52155
:1013E300C39407400DE521D3940C500612181AE458
:1013F300F521E522640160030213197F04FE121D27
:101403006F120046EF7F027003FE80027E00121D02
:071413006FE4F5220213193A
:101DC300EF1FAC0670011E4C600A056AE56A70F0ED
:041DD300056980EC32
:011DD70022E9
:04001E00AB07AA067C
:10002200900000C3E5829BE5839A500A7FDE7E0141
:06003200121DC3A380EDC6
:0100380022A5
:1011CA00E4F569F56A7F0A121E027FFF7E01121D8D
:1011DA0096EF64EE60030212F07FFF7E05121D9601
:1011EA00EF64EE60030212F0F56BF56CE4F56DF551
:1011FA006EAE6BAF6C7C007D50121934AC06AD0735
:10120A00E56E25E0FFE56D33FEED2FF570EC3EF55A
:10121A006FAF70FE121D96EF7F00FEC007C006E595
:10122A00702401FFE4356FFE121D96EFFDD0E0FC3D
:10123A00D0E04DFDE56E25E0FFE56D33FE90000040
:10124A0075F050E56C1219A7E56B75F050A425836B
:10125A00F583E5822FF582E5833EF583ECF0A3ED75
:10126A00F0E42570FFE56F3404FE121D96EF7F004F
:10127A00FEC007C006E5702401FFE56F3404FE12C4
:10128A001D96EFFDD0E0FCD0E04DFDE56E25E0FFB8
:10129A00E56D33FE9001E075F050E56C1219A7E593
:1012AA006B75F050A42583F583E5822FF582E583DB
:1012BA003EF583ECF0A3EDF0056EE56E7002056D68
:1012CA00C39428E56D940050030211FB056CE56C8C
:1012DA007002056BC39406E56B940050030211F685
:0812EA00756900756A01AF6A25
:0112F20022D9
:1019B3001211CAEF7064FDFCE4FBFAEB25E0FFEAC9
:1019C30033FE90000075F050ED1219A7EC75F0503E
:1019D300A42583F583E5822FF582E5833EF583E431
:1019E300F0A3F09001E075F050ED1219A7EC75F03B
:1019F30050A42583F583E5822FF582E5833EF583A5
:101A0300E4F0A3F00BBB00010AEB64284A70AC0DB1
:101A1300BD00010CED64064C709E752401E4F523B2
:081A2300756501752101F52232
:011A2B002298
:10004600756900756A017F0A121E02E4FFFE121E20
:10005600167F0A121E02E4F56BF56CE4F56DF56E7B
:10006600AE6BAF6C7C007D50121934AC06AD07E563
:100076006E25E0FFE56D33FEED2FF570EC3EF56F76
:10008600E56E25E0FFE56D33FE90000075F050E566
:100096006C1219A7E56B75F050A42583F583E582EC
:1000A6002FF582E5833EF583E0FDAF70AE6F121D3E
:1000B600ADE56E25E0FFE56D33FE90000075F0506E
:1000C600E56C1219A7E56B75F050A42583F583E559
:1000D600822FF582E5833EF583A3E0FDE5702401DA
:1000E600FFE4356FFE121DAD056EE56E7002056DFF
:1000F600C39428E56D94005003020066056CE56C18
:100106007002056BC39406E56B9400500302006110
:100116007DEE7FFF7E01121DAD7F0A121E02E4F501
:100126006BF56CE4F56DF56EAE6BAF6C7C007D50D7
:10013600121934AC06AD07E56E25E0FFE56D33FE1A
:10014600ED2FF570EC3EF56FAF70FE121D96EF7F4A
:1001560000FEC007C006E5702401FFE4356FFE12FD
:100166001D96EFFDD0E0FCD0E04DFDE56E25E0FFED
:10017600E56D33FE90000075F050E56C1219A7E5A9
:100186006B75F050A42583F583E5822FF582E58310
:100196003EF583E0FEA3E06D7002EE6C6005E4F5CB
:1001A60069F56A056EE56E7002056DC39428E56D06
:1001B6009400500302012E056CE56C7002056BC3BA
:1001C6009406E56B940050030201297F0A121E0271
:1001D6007F007E04121E167F0A121E02E4F56BF5DE
:1001E6006CE4F56DF56EAE6BAF6C7C007D5012194C
:1001F60034AC06AD07E56E25E0FFE56D33FEED2F69
:10020600F570EC3EF56FE56E25E0FFE56D33FE908B
:1002160001E075F050E56C1219A7E56B75F050A476
:100226002583F583E5822FF582E5833EF583E0FDA0
:10023600E42570FFE56F3404FE121DADE56E25E082
:10024600FFE56D33FE9001E075F050E56C1219A7DD
:10025600E56B75F050A42583F583E5822FF582E5DD
:10026600833EF583A3E0FDE5702401FFE56F3404CA
:10027600FE121DAD056EE56E7002056DC39428E590
:100286006D940050030201EC056CE56C7002056B81
:10029600C39406E56B940050030201E77DEE7FFFF1
:1002A6007E05121DAD7F0A121E02E4F56BF56CE4A5
:1002B600F56DF56EAE6BAF6C7C007D50121934ACEB
:1002C60006AD07E56E25E0FFE56D33FEED2FF57013
:1002D600EC3EF56FE42570FFE56F3404FE121D96C3
:1002E600EF7F00FEC007C006E5702401FFE56F340E
:1002F60004FE121D96EFFDD0E0FCD0E04DFDE56E4C
:1003060025E0FFE56D33FE9001E075F050E56C12D7
:1003160019A7E56B75F050A42583F583E5822FF5C3
:1003260082E5833EF583E0FEA3E06D7002EE6C602D
:1003360005E4F569F56A056EE56E7002056DC39410
:1003460028E56D940050030202BA056CE56C700254
:10035600056BC39406E56B940050030202B5AF6AC1
:010366002274
:1008B7007FFF7E03121D96EF64EE6003020A3AFF84
:1008C7007E02121D968F257F017E02121D968F26AE
:1008D7007402FFFE121D968F277F037E02121D965C
:1008E7008F347F147E02121D968F357F157E02127C
:1008F7001D968F367F167E02121D968F377F177EC5
:1009070002121D968F447F287E02121D968F457F07
:10091700297E02121D968F467F2A7E02121D968F10
:10092700477F2B7E02121D968F547F3C7E02121D3D
:10093700968F557F3D7E02121D968F567F3E7E0213
:10094700121D968F577F3F7E02121D968F647F522E
:100957007E02121D969003CFEFF07F547E02121D88
:10096700967E00EF7810C333CE33CED8F9FFC00799
:10097700C0067F537E02121D967E00EF7818C333A0
:10098700CE33CED8F9FDD0E04EFED0E04DFFC00704
:10099700C0067F557E02121D96EFFCD0E04CFED0BC
:1009A700E0FFC007C0067F567E02121D96EFFDD0FE
:1009B700E0FED0E04DFFE4FCFD9003D012196A7F02
:1009C700577E02121D969003D4EFF07F597E0212D4
:1009D7001D967E00EF7810C333CE33CED8F9FFC013
:1009E70007C0067F587E02121D967E00EF7818C357
:1009F70033CE33CED8F9FDD0E04EFED0E04DFFC068
:100A070007C0067F5A7E02121D96EFFCD0E04CFE0F
:100A1700D0E0FFC007C0067F5B7E02121D96EFFD88
:100A2700D0E0FED0E04DFFE4FCFD9003D512196A3B
:100A3700020AE3E4F525752602752701F52BF52A49
:100A4700F529F528F52FF52EF52DF52CF533F5328B
:100A5700F531F530F534F535753602753701F53B67
:100A6700F53AF539F538F53FF53EF53DF53CF543F3
:100A7700F542F541F540F544F545754602754701E0
:100A8700F54BF54AF549F548F54FF54EF54DF54C5B
:100A9700F553F552F551F550F554F5557556027560
:100AA7005701F55BF55AF559F558F55FF55EF55DB4
:100AB700F55CF563F562F561F560F5649003CF7455
:100AC70002F09003D0121976000000009003D4744E
:100AD70002F09003D512197600000000752101225B
:10103E007F007E02121E167F037E0012001EAD255B
:10104E007F007E02121DADAD267F017E02121DAD08
:10105E00AD277402FFFE121DADAD347F037E02126A
:10106E001DADAD357F147E02121DADAD367F157EE2
:10107E0002121DADAD377F167E02121DADAD447F3F
:10108E00177E02121DADAD457F287E02121DADAD3D
:10109E00467F297E02121DADAD477F2A7E02121DAC
:1010AE00ADAD547F2B7E02121DADAD557F3C7E0241
:1010BE00121DADAD567F3D7E02121DADAD577F3E6A
:1010CE007E02121DADAD647F3F7E02121DAD9003F8
:1010DE00CFE0FD7F527E02121DAD9003D0E0FCA347
:1010EE00E0FDA3E0FEA3E0FF7818121957AD077FCD
:1010FE00537E02121DAD9003D0E0FCA3E0FDA3E0F1
:10110E00FEA3E0FF7810121957AD077F547E02122E
:10111E001DAD9003D0E0FCA3E0FDA3E0FEA3E0FF35
:10112E007808121957AD077F557E02121DAD900338
:10113E00D0A3A3A3E0FD7F567E02121DAD9003D473
:10114E00E0FD7F577E02121DAD9003D5E0FCA3E0BB
:10115E00FDA3E0FEA3E0FF7818121957AD077F58E4
:10116E007E02121DAD9003D5E0FCA3E0FDA3E0FED0
:10117E00A3E0FF7810121957AD077F597E02121D9A
:10118E00AD9003D5E0FCA3E0FDA3E0FEA3E0FF7865
:10119E0008121957AD077F5A7E02121DAD9003D566
:1011AE00A3A3A3E0FD7F5B7E02121DAD7DEE7FFF4C
:0C11BE007E03121DAD7F0A7E0002001EA1
:101E0200AE071FEE600DE4FCFD0DED70010C4C60A1
:031E1200EF80F668
:011E150022AA
:0D000E00E4F5C7F5C5F5C675C380F5C4223D
:101D960075C78375C5018FC48EC375C65A75C6A52A
:061DA60000AFC212000EA6
:011DAC002214
:101DAD0075C78375C5028FC48EC38DC275C65A752E
:061DBD00C6A50002000EA5
:101E160075C78375C5038FC48EC375C65A75C6A5A7
:041E26000002000EA8
:101D4000C1004F03C0FFFFFFFFFFFFFFFFFFFFFFCB
:0D1D5000FFFFFFFF011C00011B00011A0036
:0F1E5E00759A50759CFD438E1475AF01D2AF225B
:03004300021D118A
:101D1100C0E0C0F0C083C082C0D075D008E59A3061
:101D2100E008539AFEAF9B121BF3E59A30E105538D
:0F1D31009AFDC201D0D0D082D083D0F0D0E03262
:0B1E2A00AF15AE14AD13AC1212195727
:091E35002001FDEFD201F59B2212
:061C7B002401FDEE33FC24
:101C8100AB07AA067F5A121E357FA5121E357F05A6
:101C9100121E357F82121E35AF02121E35AF03129E
:0C1CA1001E35AF04121E35AF05021E35C3
:101C3A00AD07AC067F5A121E357FA5121E357F07E7
:101C4A00121E357F82121E35AF04121E35AF0512E1
:101C5A001E357818121E2A7810121E2AAF15AE14D5
:101C6A00AD13AC127808121957121E35AF15021EA1
:011C7A003534
:101D6F00AD07AC067F5A121E357FA5121E357F04B4
:101D7F00121E357F80121E357F03121E35AF0412DF
:071D8F001E35AF05021E35F1
:101BF300E51C14601214601714601C24037033EF87
:101C0300645A7032051C22BFA503051C2280248F51
:101C13001AE4F51B051C2274C0251BF582E434036A
:101C2300F583EFF0051BE51BC3951A4009120CED74
:071C3300800100E4F51C2212
:100CED009003C4E0FEA3E0FDEEF571EDF572900307
:100CFD00C2E0FFB4070EE51F64146003020EA9F5F0
:100D0D001F020EA9EFB40806752401020DADEF64A4
:100D1D000A6003020DB3F524F5257526027527012A
:100D2D00F52BF52AF529F528F52FF52EF52DF52CB2
:100D3D00F533F532F531F530F534F5357536027597
:100D4D003701F53BF53AF539F538F53FF53EF53D0B
:100D5D00F53CF543F542F541F540F544F54575464D
:100D6D0002754701F54BF54AF549F548F54FF54E36
:100D7D00F54DF54CF553F552F551F550F554F55536
:100D8D00755602755701F55BF55AF559F558F55F2E
:100D9D00F55EF55DF55CF563F562F561F560F5649D
:100DAD00752101020EA99003C2E0B40C1AE524646A
:100DBD00016003020EA9E565B40106121648020E84
:100DCD00A9121731020EA99003C2E0B40E1AE52440
:100DDD0064016003020EA9E565B4010612141A023E
:100DED000EA9121531020EA99003C2E0B4101AE536
:100DFD002464016003020EA9E565B40106121A9B75
:100E0D00020EA9121AF5020EA99003C2E0FFB41E3C
:100E1D0006752201020EA9EF64207003020EA9EFE0
:100E2D00B48411E565B4010575650280037565012E
:100E3D00E5238013EFC394124013EFD3941C500D90
:100E4D00EF24EEC313F5232407F521804F9003C241
:100E5D00E0FFC3942E4045EFD3947C503FE565757C
:100E6D00F050B4010DE523A42400F582E5F0340023
:100E7D00800BE523A424E0F582E5F03401F583C071
:100E8D0083C0829003C2E024D2C313D082D0837575
:0E0E9D00F0021219A7E571F0A3E572F0D20081
:010EAB002224
:10181A00E4FDFC7F22FE121C817F24121C817F269C
:10182A00121C817F28121C817F2A121C817F2C1294
:10183A001C81E52325E0FFEE33FEEF2422FFE43E80
:10184A00FE0D121C81E565FD7F857E00121C81E478
:10185A00F569E565640175F050700DE523A424006F
:10186A00F582E5F03400800BE523A424E0F582E557
:10187A00F03401F58375F002E5691219A7E0FCA3BB
:10188A00E0FDE56925E0FFE433FEEF242EFFE43EA8
:0D189A00FE121C810569E569C3942840B564
:0118A700221E
:101A2C00E524FD7C00E4FFFE121C81E565FD7F854D
:101A3C00121C81E5347F01121C7BE5447F02121CD1
:101A4C007BE5252401FDEE33FC7F03121C81E5357B
:101A5C002401FDEE33FC7F05121C81E5542401FDAD
:101A6C00EE33FC7F80121C81E5642401FDEE33FC17
:101A7C007F81121C81E5452401FDEE33FC7F82122F
:0F1A8C001C81E5552401FDEE33FC7F83021C8194
:061D5D00011D00011E0043
:101B4F00E51D1460171460211460382403704130B0
:101B5F008206308303208439751D012230820630BE
:101B6F008303208427751D022220820512164880C8
:101B7F000E20830512141A8006208403121A9B75F7
:101B8F001D032230820B308308308405E4F51D22BB
:021B9F00002222
:101BA100E51E14601714602114603824037041305D
:101BB100870630A00320A139751E01223087063027
:101BC100A00320A127751E0222208705121731804C
:101BD1000E20A005121531800620A103121AF575F9
:101BE1001E032230870B30A00830A105E4F51E2228
:021BF1000022D0
:031D6300011F1449
:100EAC00E51F147003020F32147003020F7B1470D1
:100EBC0003020FC314700302100C2404600302100D
:100ECC003CE5266402600302103DE53664026003D3
:100EDC0002103DE5466402600302103DE5566402D3
:100EEC00600302103DE5256535600302103DE545C4
:100EFC006555600302103DE5346544600302103D06
:100F0C00E5546564600302103DC294F526752BC050
:100F1C00752AC675292DF528F52FF52EF52DF52CEE
:100F2C00121E3E051F2230800302103D121CADE440
:100F3C00F525752602752701F52BF52AF529F528D7
:100F4C00F52FF52EF52DF52CF533F532F531F53071
:100F5C00F534C295F536753BC0753AC675392DF525
:100F6C0038F53FF53EF53DF53C121E3E02100630BD
:100F7C00810302103D121CADE4F535753602753750
:100F8C0001F53BF53AF539F538F53FF53EF53DF50C
:100F9C003CF543F542F541F540F544C296F54675EE
:100FAC004BC0754AC675492DF548F54FF54EF54DB4
:100FBC00F54C121E4E8043208577121CDFE4F5455C
:100FCC00754602754701F54BF54AF549F548F54F5D
:100FDC00F54EF54DF54CF553F552F551F550F554DC
:100FEC00C297F556755BC0755AC675592DF558F5EF
:100FFC005FF55EF55DF55C121E4E752101051F2235
:10100C0020862E121CDFE4F555755602755701F536
:10101C005BF55AF559F558F55FF55EF55DF55CF540
:10102C0063F562F561F560F564752101751F142295
:02103C00002290
:10164800E5266402600302172DE536640260030292
:10165800172DE5256535600302172DE534654460CF
:101668000302172DE53430E003021729D2947526BA
:10167800019003CF7401F0E4F52775F050E534A428
:101688002400F582E5F03400F58375F002E52512B3
:1016980019A7A3E025E0FF0582D5820215831582EC
:1016A800E033FEE48F2B8E2AF529F528AD29AC28E6
:1016B8009003D012196AE4F52FF52EF52DF52C7547
:1016C800F050E534A42400F582E5F03400F5837584
:1016D800F002E5251219A7E0FEA3E0FFE4FCFDE512
:1016E800332FF533E5323EF532ED3531F531EC3552
:1016F80030F53075F050E534A42402F582E5F03475
:1017080000F58375F002E5251219A7E0FEA3E04E67
:1017180070060534F52580020525121E3E75210147
:091728002275210522752106221B
:10141A00E5266402600302152DE5366402600302C4
:10142A00152DE5256535600302152DE53465446003
:10143A000302152DE53420E003021529C294E4F5D0
:10144A00269003CFF075F050E534A42400F582E528
:10145A00F03400F58375F002E5251219A7A3E025FB
:10146A00E0FF0582D5820215831582E033FEE48F00
:10147A002B8E2AF529F528AD29AC289003D012190C
:10148A006AE4F52FF52EF52DF52C75F050E534A408
:10149A002400F582E5F03400F58375F002E52512A3
:1014AA0019A7E0FEA3E0FFFBAA06C3E5339BF533C9
:1014BA00E5329AF532E5319400F531E5309400F5DC
:1014CA003075F050E534A42402F582E5F03400F5D5
:1014DA008375F002E5251219A7E0FEA3E04E7036E7
:1014EA00752701F5250534E534D394054005E4F55F
:1014FA0034802575F050E534A42400F582E5F034F3
:10150A0000F58375F002E5251219A7E0FEA3E04E67
:10151A007006F53480020525121E3E7521012275DA
:07152A0021042275210622B5
:101A9B00E52664027053E5366402704DE525B535D5
:101AAB0006E534654460429003CFE0FF24FF929536
:101ABB008525358F36852737A3E0FCA3E0FDA3E012
:101ACB00FEA3E0F53B8E3A8D398C38E4F53FF53EBD
:101ADB00F53DF53C853343853242853141853040B8
:0A1AEB00853444121E3E75210122CD
:10173100E54664026003021816E55664026003027E
:101741001816E54565556003021816E55465646091
:1017510003021816E55430E003021812D2967546BA
:10176100019003D47401F0E4F54775F050E554A4F9
:1017710024E0F582E5F03401F58375F002E54512C8
:1017810019A7A3E025E0FF0582D582021583158202
:10179100E033FEE48F4B8E4AF549F548AD49AC483C
:1017A1009003D512196AE4F54FF54EF54DF54C75D8
:1017B100F050E554A424E0F582E5F03401F5837599
:1017C100F002E5451219A7E0FEA3E0FFE4FCFDE508
:1017D100532FF553E5523EF552ED3551F551EC35A8
:1017E10050F55075F050E554A424E2F582E5F0344B
:1017F10001F58375F002E5451219A7E0FEA3E04E5D
:1018010070060554F54580020545121E4E752101ED
:0918110022752105227521062231
:10153100E54664026003021644E556640260030254
:101541001644E54565556003021644E5546564603B
:1015510003021644E55420E003021640C296E4F566
:10156100469003D4F075F050E554A424E0F582E5EB
:10157100F03401F58375F002E5451219A7A3E025C2
:10158100E0FF0582D5820215831582E033FEE48FE8
:101591004B8E4AF549F548AD49AC489003D512192F
:1015A1006AE4F54FF54EF54DF54C75F050E554A450
:1015B10024E0F582E5F03401F58375F002E545128A
:1015C10019A7E0FEA3E0FFFBAA06C3E5539BF55371
:1015D100E5529AF552E5519400F551E5509400F524
:1015E1005075F050E554A424E2F582E5F03401F59C
:1015F1008375F002E5451219A7E0FEA3E04E7036AF
:10160100754701F5450554E554D394054005E4F5C6
:1016110054802575F050E554A424E0F582E5F034BA
:1016210001F58375F002E5451219A7E0FEA3E04E2E
:101631007006F55480020545121E4E752101227572
:07164100210422752106229D
:101AF500E54664027053E5566402704DE545B555FB
:101B050006E554656460429003D4E0FF24FF929794
:101B15008545558F56854757A3E0FCA3E0FDA3E017
:101B2500FEA3E0F55B8E5A8D598C58E4F55FF55EA2
:101B3500F55DF55C8553638552628551618550601D
:0A1B4500855464121E4E7521012222
:100AE70000000099030304500563063506C8072074
:100AF70007460746072606F106AE0663061305C135
:100B07000571052204D70490044D040D03D3039BFC
:100B170003670338030C02E202BB0298027602570E
:100B2700023A021F020601EE01D801C401B0019D7D
:100B3700018D017C016D015F015101440139012CD7
:100B470001230117010E010500FC00F400EC00E48D
:100B570000DD00D600CF00C900C300BE00B800B258
:100B670000AE00A800A400A0009B00A0009B009876
:100B77000093008F008C008800850081007F007B38
:100B87000078007600720071006D006B00690066E6
:100B970000640062005F005E005C00590058005668
:100BA700005400530051004F004D004D004A0049CA
:100BB7000048004600450044004200410040003F15
:100BC700003E003C003C003A00390038003800364F
:100BD7000035003400340032003200310030002F7D
:100BE700002E002E002D002C002B002B0029002AA0
:100BF70000280028002700270025002600240024BD
:100C07000024002300220022002100210020001FD1
:100C17000020001E001E001E001D001D001C001CE1
:100C2700001B001B001A001A001A001900190018EF
:100C370000180017001700170017001600150015F9
:100C470000150015001400140013001400120013FF
:100C57000012001200120011001100100011001004
:100C6700000F0010000F000F000E000E000E000E08
:100C7700000E000D000D000C000C000D000B000C09
:100C8700000B000B000B000B000A000A000A00090A
:100C9700000A000900080009000800080008000809
:100CA7000007000800060007000700060006000608
:100CB7000005000600050005000500040005000406
:100CC7000003000400040003000300030002000205
:100CD7000003000200010002000100010001000101
:060CE70000000000000106
:081D660002160064021800647B
:03000B0002036786
:10036700C0E0C0F0C083C082C0D075D008E5267059
:100377000320800FE5266401600302046D20A203B9
:0303870002046D00
:10038A00C3E52B952FF576E52A952EF575E5299582
:10039A002DF574E528952CF573E47F037E01FDFCA9
:1003AA00AB2FAA2EA92DA82CC31219465022900AA7
:1003BA00E775F002E52F1219A7E52E25E02583F54A
:1003CA0083E493FE7401932517F517EE3516F51697
:1003DA00E47F037E01FDFCAB76AA75A974A873C3FA
:1003EA001219465025900AE775F002E5761219A708
:1003FA00E57525E02583F583E493FE740193FFC335
:10040A00E5179FF517E5169EF516E52F2401F52F3A
:10041A00E4352EF52EE4352DF52DE4352CF52CAFEB
:10042A002BAE2AAD29AC28AB2FAA2EA92DF8C312C0
:10043A0019464023C28C7516007517647526027515
:10044A002B00752A00752900752800752F00752E56
:10045A0000752D00752C0085178AE516F58CB2B447
:10046A00020604E536700320810FE5366401600355
:09047A0002056620A303020566D9
:10048300C3E53B953FF576E53A953EF575E5399538
:100493003DF574E538953CF573E47F037E01FDFC7F
:1004A300AB3FAA3EA93DA83CC31219465022900A6D
:1004B300E775F002E53F1219A7E53E25E02583F530
:1004C30083E493FE7401932517F517EE3516F5169D
:1004D300E47F037E01FDFCAB76AA75A974A873C300
:1004E3001219465025900AE775F002E5761219A70E
:1004F300E57525E02583F583E493FE740193FFC33B
:10050300E5179FF517E5169EF516E53F2401F53F20
:10051300E4353EF53EE4353DF53DE4353CF53CAF91
:100523003BAE3AAD39AC38AB3FAA3EA93DF8C31256
:1005330019464023C28C751600751764753602750B
:100543003B00753A00753900753800753F00753EFC
:1005530000753D00753C0085178AE516F58CB2B52C
:10056300020604E526701F752103C28CF516751764
:1005730064752602F52BF52AF529F528F52FF52EB6
:10058300F52DF52C807BE526B40128752102C28C5C
:10059300751600751764752602752B00752A00758C
:1005A3002900752800752F00752E00752D00752CF8
:1005B30000804EE536701F752103C28CF516751742
:1005C30064753602F53BF53AF539F538F53FF53EF6
:1005D300F53DF53C802BE536B40126752102C28C2E
:1005E300751600751764753602753B00753A00750C
:1005F3003900753800753F00753E00753D00753C48
:0C06030000D0D0D082D083D0F0D0E03204
:03001B0002060FCB
:10060F00C0E0C0F0C083C082C0D075D008E546708E
:10061F000320850FE5466401600302071520A4033C
:03062F00020715AA
:10063200C3E54B954FF57AE54A954EF579E549952F
:100642004DF578E548954CF577E47F037E01FDFC96
:10065200AB4FAA4EA94DA84CC31219465022900A7C
:10066200E775F002E54F1219A7E54E25E02583F55F
:1006720083E493FE7401932519F519EE3518F518E4
:10068200E47F037E01FDFCAB7AAA79A978A877C33F
:100692001219465025900AE775F002E57A1219A759
:1006A200E57925E02583F583E493FE740193FFC386
:1006B200E5199FF519E5189EF518E54F2401F54F48
:1006C200E4354EF54EE4354DF54DE4354CF54CAF81
:1006D2004BAE4AAD49AC48AB4FAA4EA94DF8C31236
:1006E20019464023C28E7518007519647546027545
:1006F2004B00754A00754900754800754F00754EEC
:1007020000754D00754C0085198BE518F58DB2B654
:100712000208ACE556700320860FE55664016003BB
:0907220002080E20A50302080ED6
:10072B00C3E55B955FF57AE55A955EF579E55995E5
:10073B005DF578E558955CF577E47F037E01FDFC6C
:10074B00AB5FAA5EA95DA85CC31219465022900A42
:10075B00E775F002E55F1219A7E55E25E02583F545
:10076B0083E493FE7401932519F519EE3518F518EA
:10077B00E47F037E01FDFCAB7AAA79A978A877C345
:10078B001219465025900AE775F002E57A1219A75F
:10079B00E57925E02583F583E493FE740193FFC38C
:1007AB00E5199FF519E5189EF518E55F2401F55F2E
:1007BB00E4355EF55EE4355DF55DE4355CF55CAF27
:1007CB005BAE5AAD59AC58AB5FAA5EA95DF8C312CC
:1007DB0019464023C28E751800751964755602753B
:1007EB005B00755A00755900755800755F00755E92
:1007FB0000755D00755C0085198BE518F58DB2B73A
:10080B000208ACE546701F752103C28EF5187519E9
:10081B0064754602F54BF54AF549F548F54FF54E2B
:10082B00F54DF54C807BE546B40128752102C28E4F
:10083B00751800751964754602754B00754A00757D
:10084B004900754800754F00754E00754D00754C8D
:10085B0000804EE556701F752103C28EF518751971
:10086B0064755602F55BF55AF559F558F55FF55E6B
:10087B00F55DF55C802BE556B40126752102C28E21
:10088B00751800751964755602755B00755A0075FD
:10089B005900755800755F00755E00755D00755CDD
:0C08AB0000D0D0D082D083D0F0D0E0325A
:101DD800438E805389F0758A64E4F58CC28DC28C79
:051DE800C2A9D2AF22E8
:101E3E00758A64E4F58CF516751764D2A9D28C22D6
:101CAD00C2A9C28C751600751764752602E4F52B52
:101CBD00F52AF529F528F52FF52EF52DF52C753688
:101CCD0002F53BF53AF539F538F53FF53EF53DF5BD
:021CDD003C22A7
:101DED00438E40538910758B64E4F58DC28FC28E7E
:051DFD00C2ABD2AF22D1
:101E4E00758B64E4F58DF518751964D2ABD28E22BC
:101CDF00C28EC2AB751800751964754602E4F54BD8
:101CEF00F54AF549F548F54FF54EF54DF54C755656
:101CFF0002F55BF55AF559F558F55FF55EF55DF5AB
:021D0F005C2254
:1018B4000212F3E493A3F8E493A34003F68001F245
:1018C40008DFF48029E493A3F85407240CC8C33335
:1018D400C4540F4420C8834004F456800146F6DF04
:1018E400E4800B0102040810204080901D40E47E37
:1018F400019360BCA3FF543F30E509541FFEE493F9
:10190400A360010ECF54C025E060A840B8E493A3BF
:10191400FAE493A3F8E493A3C8C582C8CAC583CAEA
:10192400F0A3C8C582C8CAC583CADFE9DEE780BEA2
:011D6E000074
:10193400EF8DF0A4A8F0CF8CF0A428CE8DF0A42EC7
:02194400FE2281
:10194600EB9FF5F0EA9E42F0E99D42F0E89C45F0F7
:01195600226E
:10195700E8600FECC313FCED13FDEE13FEEF13FF6E
:03196700D8F12292
:0C196A00ECF0A3EDF0A3EEF0A3EFF022F0
:10197600A8828583F0D083D08212198D12198D1218
:10198600198D12198DE473E493A3C583C5F0C5833D
:10199600C8C582C8F0A3C583C5F0C583C8C582C8BB
:0119A600221E
:0C19A700A42582F582E5F03583F583224B
:00000001FF
