:030000000202E613
:0C02E600787FE4F6D8FD75812002032D1E
:0100030022DA
:0A061B007FF47E011204C70200F410
:10057A00EF1FAC0670011E4C6010900208E004F0F8
:0A058A0070EE900207E004F080E636
:010594002244
:0804C700900205EEF0A3EFF036
:1004CF00E4FBFAD3900206E09B900205E09A400EFF
:0E04DF007FDE7E0112057A0BBB00010A80E56C
:0104ED0022EC
:10004600E4900201F07F0AFE1204C77FFF7E0112D0
:1000560005AEEF64EE60030200EE900202F0E4905B
:100066000203F0900203E0FFC394285066EF25E0F8
:10007600FF900202E075F050A42FFF900204F07E7C
:10008600001205AEEF7F00FEC007C006900204E036
:100096002401FFE433FE1205AEEFFDD0E0FED0E012
:1000A6004DFF900202E075F050A42402F582E5F0BF
:1000B6003400F583C083C082900203E0D082D083EF
:1000C60075F00212054EEEF0A3EFF0900203E00485
:1000D600F08090900202E004F0E0C3940650030220
:0D00E60000649002017401F0900201E0FF3F
:0100F30022EA
:1000F400C2947F0A1205DBE4FFFE1205C6E49002F7
:1001040005F0A3F0900205E0FEA3E0FFC3EE940225
:1001140050171205AEEFF4707C900206E004F07004
:10012400E3900205E004F080DBC2957F0A1205DB50
:10013400E4900205F0A3F0900205E0FEA3E0FFFDC9
:10014400120595900206E004F07006900205E004A2
:10015400F0C3900205E0940240DDC2967F0A1205C6
:10016400DBE4900205F0A3F0900205E0FEA3E0FFBB
:10017400C3EE9402501B1205AE900205A3E0B5072E
:1001840014900206E004F070DF900205E004F080B1
:0A019400D7C29780FE53907F80FED3
:10019E007F0A7E001204C7E4FFFE1205C6E4900239
:1001AE0009F0E490020AF090020AE0FB25E0FE90CE
:1001BE000209E0FD75F050A42E90020BF075F05080
:1001CE00EDA42402F582E5F03400F58375F002EB20
:1001DE0012054EE0FD90020BE0FF7E001205959099
:1001EE000209E075F050A42402F582E5F03400F522
:1001FE0083C083C08290020AE0D082D08375F00261
:10020E0012054EA3E0FD90020BE02401FFE433FE45
:10021E0012059590020AE004F0E0C39428408890FD
:10022E000209E004F0E0C3940650030201B07DEE33
:09023E007FFF7E011205957F018E
:010247002294
:1005DB00AE071FEE600DE4FCFD0DED70010C4C60E1
:0305EB00EF80F6A8
:0105EE0022EA
:0D060E00E4F5C7F5C5F5C675C380F5C42237
:1005AE0075C78375C5018FC4EEF5C375C65A75C67A
:0705BE00A500AFC212060EFA
:0105C5002213
:1005950075C78375C5028FC4EEF5C3AF058FC275E8
:0905A500C65A75C6A50002060E37
:1005C60075C78375C5038FC4EEF5C375C65A75C660
:0505D600A50002060E65
:10049000C1004101E4004F01E6FFFFFFFFFFFFFF46
:1004A000FFFFFFFFFFFFFFFF4101F5004101E500F6
:0404B0004101E30023
:0F05FF00759A50759CFD438E1475AF01D2AF22D3
:0300430002000EAA
:10000E00C0E0C0F0C083C082C0D075D008E59A3081
:10001E00E008539AFEAF9B1203F6E59A30E10553C2
:0F002E009AFDC201D0D0D082D083D0F0D0E03282
:0705EF007F5A1205F67FA5FB
:0905F6002001FDEFD201F59B226A
:1004EE00AB07AA061205EF7F051205F67F821205ED
:1004FE00F6EAFF1205F6AF031205F6ECFF1205F64B
:05050E00AF050205F637
:10055A00AD07AC061205EF7F041205F67F8012057F
:10056A00F67F031205F6ECFF1205F6AF050205F653
:1003F6009001F5E014601114601614602424037053
:1004060047EF645A70488012EFB4A502800C803919
:100416009001E3EFF0E49001E5F09001F5E004F0DF
:10042600229001E5E024E6F582E43401F583EFF05D
:100436009001E5E004F09001E3E0FF9001E5E0C300
:0F0446009F400B120248800100E49001F5F02264
:100248009001EAE0FEA3E0FDEDFF9001E8E0FD6427
:100258000670030202E3ED640870030202E3ED6432
:100268000A6078ED640C6073ED6410606EEDB41E86
:10027800089001E47401F08062ED6420605DEDC3D4
:100288009412401AEDD3941C50149001E8E024EE27
:10029800C3139001E2F02402900000F0803D900129
:1002A800E8E0FDC3942E4033EDD3947C502D9001AB
:1002B800E2E075F050A42402F582E5F03400F583FD
:1002C800C083C0829001E8E024D2C313D082D083D7
:0D02D80075F00212054EEEF0A3EFF0D2001B
:0102E50022F6
:10037200E4FDFC7F22FE1204EE7F241204EE7F26AF
:100382001204EE7F281204EE7F2A1204EE7F2C1252
:1003920004EE9001E2E025E0FFEE33FEEF2422FFBF
:1003A200E43EFE0D1204EEE490020CF09001E2E055
:1003B20075F050A42402F582E5F03400F583C08381
:1003C200C08290020CE0FFD082D08375F002120549
:1003D2004EE0FCA3E0FDEF25E0FFE433FEEF242E28
:1003E200FFE43EFE1204EE90020CE004F0E0C3943F
:0303F2002840B9E7
:0103F50022E5
:0100040022D9
:0404B40041020D00F4
:0100050022D8
:0E04B8004201FF00004201FD00004101FC1462
:0100060022D7
:03000B0002045597
:10045500C0E0C0F0C083C082C0D075D008758A8B5B
:10046500758CFC9001F674FFF5F012053845F070B7
:100475000F9001F8E0FFA3E09001F6CFF0A3EFF0B5
:0B048500D0D0D082D083D0F0D0E03285
:10051300438E80758901758A8B758CFCD28CD2A928
:10052300D2AFE49001F6F0A3F0A3F0A37432F0E4A9
:05053300A3F0A3F0227B
:1002F20002061BE493A3F8E493A34003F68001F201
:1003020008DFF48029E493A3F85407240CC8C3330C
:10031200C4540F4420C8834004F456800146F6DFDB
:10032200E4800B0102040810204080900490E47ED7
:10033200019360BCA3FF543F30E509541FFEE493D0
:10034200A360010ECF54C025E060A840B8E493A397
:10035200FAE493A3F8E493A3C8C582C8CAC583CAC2
:10036200F0A3C8C582C8CAC583CADFE9DEE780BE7A
:0104C6000035
:10053800A3F8E0C5F025F0F0E58215827002158376
:06054800E0C838F0E822D3
:0C054E00A42582F582E5F03583F58322B8
:00000001FF
