:030000000217A242
:0C17A200787FE4F6D8FD7581200217E97D
:10121100E4900059F0A3F0A3F07FD07E07121C8860
:101221001218B1121AAD12182E121E58121DBA122E
:101231001DCF7F017E00121CAF5387DF7F0A7E0026
:10124100121C8890005AE004F07006900059E004E6
:10125100F0D390005AE094F4900059E094014013C7
:1012610090005BE0B4010C7F017E00121CAFE490A2
:10127100005BF0E58730E52EB2905387DF7F0A7E71
:1012810000121C88E58730E51DB290121AEB121B83
:10129100295387DF121B67E58730E504B29080FC94
:1012A100121E21121E34900022E0B40103121A0C06
:1012B100121381900021E0B403177F057E00121CF8
:1012C100AF120D8AE4900021F07F03FE121CAF8063
:1012D10060900021E0B40105121D0F8007900021EC
:1012E100E0B40205120A608043900021E0B4054198
:1012F100900003E004F07006900002E004F090001A
:1013010004E0FEA3E0FFD3900003E09F900002E021
:101311009E4013E4F0A304F0900020E004F0700676
:1013210090001FE004F0120A601214EAE490002118
:10133100F090001EE0B4010512162E801890001ED8
:10134100E0B402197F087E00121CAFE4900059F04E
:10135100A3F0A304F0E490001EF002123D90001EE1
:10136100E06403600302123D7F07FE121CAFE490AC
:101371000059F0A3F0A304F0E490001EF002123D26
:101CF400EF1FAC0670011E4C601090005FE004F012
:0A1D040070EE90005EE004F080E64F
:011D0E0022B2
:081C880090005CEEF0A3EFF008
:101C9000E4FBFAD390005DE09B90005CE09A400E7C
:0E1CA0007FDE7E01121CF40BBB00010A80E502
:011CAE002213
:10182E00E4FFFE121CD6900000EFF0900002E4F0F0
:10183E00A304F090000104F0120A60EF70539000C0
:10184E000004F090000404F0A37458F0A3E4F0A395
:10185E007464F0A3E4F0A374C8F0A37401F0A3744D
:10186E002CF0A37401F0A37490F0A374FFF0A314F2
:10187E00F0A3747FF0A374FFF0A3F0A3F0A3F0A382
:10188E00F0A3F0A3F0A3F0A3F0A3F0A3F0A3F0A3B2
:10189E00F0E4900022F0C29190001E04F0E490005B
:0318AE0021F02204
:101D0F0090005CE4F0A304F0900000E0FDE4FFFE1F
:091D1F00121D5C90005CA3E0FFC2
:011D28002298
:100D8A0090005CE4F0A304F0900000E0FF7E007C99
:100D9A00387D42121932EF24C0FFEE34C7FE9000AC
:100DAA005EF0A3EFF0900004E0FD121D5C90005F7E
:100DBA00E02401FF90005EE03400FE900004A3E00E
:100DCA00FD121D5C900002E0FEA3E0FF7C007D188E
:100DDA0012193290005FE02FFF90005EE03ECF24B0
:100DEA00EACF34FFFE900060F0A3EFF0900006E037
:100DFA00FD121D5C900061E02401FF900060E03468
:100E0A0000FE900006A3E0FD121D5C900061E02444
:100E1A0002FF900060E03400FE900008E0FD121D21
:100E2A005C900061E02403FF900060E03400FE90D3
:100E3A000008A3E0FD121D5C900061E02404FF900D
:100E4A000060E03400FE90000AE0FD121D5C900094
:100E5A0061E02405FF900060E03400FE90000AA3E0
:100E6A00E0FD121D5C900061E02406FF900060E046
:100E7A003400FE90000CE0FD121D5C900061E0243D
:100E8A0007FF900060E03400FE90000CA3E0FD1222
:100E9A001D5C900061E02408FF900060E03400FED1
:100EAA0090000EE0FD121D5C900061E02409FF90A5
:100EBA000060E03400FE90000EA3E0FD121D5C907D
:100ECA000061E0240AFF900060E03400FE90001008
:100EDA00E0FD121D5C900061E0240BFF900060E0D1
:100EEA003400FE900010A3E0FD121D5C900061E04A
:100EFA00240CFF900060E03400FE900012E0FD1226
:100F0A001D5C900061E0240DFF900060E03400FE5B
:100F1A00900012A3E0FD121D5C900061E0240EFF18
:100F2A00900060E03400FE900014E0FD121D5C9019
:100F3A000061E0240FFF900060E03400FE9000148E
:100F4A00A3E0FD121D5C900061E02410FF90006098
:100F5A00E03400FE900016E0FD121D5C900061E096
:100F6A002411FF900060E03400FE900016A3E0FD1B
:100F7A00121D5C900061E02412FF900060E03400D2
:100F8A00FE900018E0FD121D5C900061E02413FF42
:100F9A00900060E03400FE900018A3E0FD121D5C92
:100FAA00900061E02414FF900060E03400FE90009D
:100FBA001AE0FD121D5C900061E02415FF900060AC
:100FCA00E03400FE90001AA3E0FD121D5C9000615F
:100FDA00E02416FF900060E03400FE90001CE0FD63
:100FEA00121D5C900061E02417FF900060E034005D
:100FFA00FE90001CA3E0FD121D5C90005CA3E0FFC4
:01100A0022C3
:100A600090005CE4F0A304F0900000E0FF7E007CC6
:100A7000387D42121932EF24C0FFEE34C7FE9000D9
:100A80005EF0A3EFF0121CD6EF7F00FEC007C00699
:100A900090005FE02401FF90005EE03400FE121C35
:100AA000D6EFFDD0E0FFD0E04D900004CFF0A3EFF3
:100AB000F0900002E0FEA3E0FF7C007D18121932E6
:100AC00090005FE02FFF90005EE03ECF24EACF343D
:100AD000FFFE900060F0A3EFF0121CD6EF7F00FE47
:100AE000C007C006900061E02401FF900060E03480
:100AF00000FE121CD6EFFDD0E0FFD0E04D900006C6
:100B0000CFF0A3EFF0900061E02402FF900060E0DE
:100B10003400FE121CD6EF7F00FEC007C006900016
:100B200061E02403FF900060E03400FE121CD6EF69
:100B3000FDD0E0FFD0E04D900008CFF0A3EFF090A3
:100B40000061E02404FF900060E03400FE121CD637
:100B5000EF7F00FEC007C006900061E02405FF9013
:100B60000060E03400FE121CD6EFFDD0E0FFD0E0C4
:100B70004D90000ACFF0A3EFF0900061E02406FF53
:100B8000900060E03400FE121CD6EF7F00FEC0072C
:100B9000C006900061E02407FF900060E03400FE92
:100BA000121CD6EFFDD0E0FFD0E04D90000CCFF04E
:100BB000A3EFF0900061E02408FF900060E03400B3
:100BC000FE121CD6EF7F00FEC007C006900061E059
:100BD0002409FF900060E03400FE121CD6EFFDD027
:100BE000E0FFD0E04D90000ECFF0A3EFF090006159
:100BF000E0240AFF900060E03400FE121CD6EF7F74
:100C000000FEC007C006900061E0240BFF9000606A
:100C1000E03400FE121CD6EFFDD0E0FFD0E04D9096
:100C20000010CFF0A3EFF0900061E0240CFF9000E3
:100C300060E03400FE121CD6EF7F00FEC007C00645
:100C4000900061E0240DFF900060E03400FE121C73
:100C5000D6EFFDD0E0FFD0E04D900012CFF0A3EF33
:100C6000F0900061E0240EFF900060E03400FE127E
:100C70001CD6EF7F00FEC007C006900061E0240F85
:100C8000FF900060E03400FE121CD6EFFDD0E0FFC4
:100C9000D0E04D900014CFF0A3EFF0900061E0247D
:100CA00010FF900060E03400FE121CD6EF7F00FEC3
:100CB000C007C006900061E02411FF900060E0349E
:100CC00000FE121CD6EFFDD0E0FFD0E04D900016E4
:100CD000CFF0A3EFF0900061E02412FF900060E0FD
:100CE0003400FE121CD6EF7F00FEC007C006900045
:100CF00061E02413FF900060E03400FE121CD6EF88
:100D0000FDD0E0FFD0E04D900018CFF0A3EFF090C1
:100D10000061E02414FF900060E03400FE121CD655
:100D2000EF7F00FEC007C006900061E02415FF9031
:100D30000060E03400FE121CD6EFFDD0E0FFD0E0F2
:100D40004D90001ACFF0A3EFF0900061E02416FF61
:100D5000900060E03400FE121CD6EF7F00FEC0075A
:100D6000C006900061E02417FF900060E03400FEB0
:100D7000121CD6EFFDD0E0FFD0E04D90001CCFF06C
:090D8000A3EFF090005CA3E0FF7A
:010D89002247
:101AAD007F0A121DF97FFF7E01121D75BFAA277FC8
:101ABD00087E00121D75EF7F00FEC007C0067F096E
:101ACD007E00121D75EFFDD0E0FFD0E04D90001FA0
:0E1ADD00CFF0A3EFF022E490001FF0A3F02260
:101B67007F0A121DF9E4FFFE121DA57F0A121DF957
:101B770090001FE0FD7F087E00121D4390001FA309
:101B8700E0FD7F097E00121D437DAA7FFF7E0112C3
:071B97001D437F0A021DF946
:101DF900AE071FEE600DE4FCFD0DED70010C4C60AB
:031E0900EF80F671
:011E0C0022B3
:0D000E00E4F5C7F5C5F5C675C380F5C4223D
:101D750075C78375C5018FC4EEF5C375C65A75C69B
:071D8500A500AFC212000E21
:011D8C002234
:101D430075C78375C5028FC4EEF5C3AF058FC27522
:091D5300C65A75C6A50002000E77
:101DA50075C78375C5038FC4EEF5C375C65A75C669
:051DB500A50002000E74
:101B9E00C1004F0049FFFFFFFFFFFFFFFFFFFFFFE9
:101BAE00FFFFFFFF41005800410048004100470081
:0F1E5800759A50759CFD438E1475AF01D2AF2261
:03004300021C0399
:101C0300C0E0C0F0C083C082C0D075D008E59A3070
:101C1300E008539AFEAF9B1219B1E59A30E10553E0
:0F1C23009AFDC201D0D0D082D083D0F0D0E03271
:101D290090006DE0FCA3E0FDA3E0FEA3E0FF121923
:011D39005554
:091D3A002001FDEFD201F59B220E
:061BD100A3E0FCA3E0FD0F
:101BD700AB07AA067F5A121D3A7FA5121D3A7F0549
:101BE700121D3A7F82121D3AEAFF121D3AAF031205
:0C1BF7001D3AECFF121D3AAF05021D3A2A
:101A6000AD07AC067F5A121D3A7FA5121D3A7F07BB
:101A7000121D3A7F82121D3AECFF121D3AAF051279
:101A80001D3A7818121D297810121D2990006DE05A
:101A9000FCA3E0FDA3E0FEA3E0FF780812195512B5
:0D1AA0001D3A90006DA3A3A3E0FF021D3AC4
:101CAF00AD07AC067F5A121D3A7FA5121D3A7F046D
:101CBF00121D3A7F80121D3A7F03121D3AECFF125C
:071CCF001D3AAF05021D3AAA
:1019B100900058E014601114601614602224037022
:1019C10043EF645A70448010EFB4A502800A803559
:1019D100900047EFF0E4A3F0900058E004F022906B
:1019E1000048E02449F582E43400F583EFF09000EB
:1019F10048E004F0900047E0FFA3E0C39F400B12D2
:0B1A01000046800100E4900058F02235
:1000460090004DE0FEA3E0FDEDFF90004BE0FDB417
:100056000213D3EF9402EE940040027F0290000058
:10006600EFF00202D6EDB40A05900001803C900044
:100076004BE0FDB4031D900004E0FAA3E0FBC39F30
:10008600EA9E5004AE02AF03900002EEF0A3EFF03A
:1000960002035CEDB40417D3EF9458EE94024004C7
:1000A6007E027F58900004EEF0A3EF0203779000E3
:1000B6004BE0FDB405059000068075EDB40605908D
:1000C6000008806C90004BE0FDB4070590000A80A4
:1000D6005FEDB4080590000C805690004BE0FDB42F
:1000E600090590000E8049EDB4100590001080407F
:1000F60090004BE0FDB411059000128033EDB41270
:1001060005900014802A90004BE0FDB41305900082
:1001160016801DEDB41405900018801490004BE075
:10012600FDB4150590001A8007EDB4160B90001C5F
:10013600EEF0A3EFF00203F590004BE0B4170EC209
:10014600919000227401F01214EA0203E090004B31
:10015600E0641860030201DC900022F0D291900066
:10016600237402F0A31219740000000090002812F4
:1001760019740000000090002C7402F0A312197488
:100186000000000090003112197400000000900079
:10019600357402F0A31219740000000090003A12A0
:1001A60019740000000090003E7402F0A312197446
:1001B6000000000090004312197400000000900037
:1001C60002E4F0A304F090002104F090001E14F065
:1001D6001218B10203F590004BE0FF6419702490E9
:1001E600001EE060030203F5900021E060030203B5
:1001F600F5900000E004F0E0D3940240037401F0AF
:100206000202D6EF642070030203F590004BE0FF74
:10021600642170030203F5EF642270030203F5EF15
:1002260064237067900022F09000237402F0A312FA
:1002360019740000000090002812197400000000D4
:1002460090002C7402F0A3121974000000009000B4
:1002560031121974000000009000357402F0A312E8
:1002660019740000000090003A1219740000000092
:1002760090003E7402F0A312197400000000900072
:1002860043121974000000000203E090004BE0FFE7
:10029600B4242190001EE060030203F5900000E004
:1002A60014F0E0FED394025003EE70069000007442
:1002B60001F0801CEFB4252590001EE060030203C8
:1002C600F5900000E004F0E0D3940240037402F0DD
:1002D6009000217401F090001EF00203F590004B8F
:1002E600E0FF6426703B90001EE060030203F59079
:1002F6000003E024FFF0900002E034FFF0900004D9
:10030600E0FCA3E0FD900002E0FAA3E0FBD39DEA47
:100316009C5004EB4A7008900002E4F0A304F080BD
:1003260035EFB4273F90001EE060030203F590000E
:1003360003E004F07006900002E004F0900004E090
:10034600FEA3E0FFD3900003E09F900002E09E40F2
:1003560005EEF0A3EFF09000217402F090001E1459
:10036600F00203F590004BE0FFB4280890002174DA
:1003760003F08066EF64297039900006F0A3F0A3BD
:10038600F0A3F0A3F0A3F0A3F0A3F0A3F0A3F0A3CF
:10039600F0A3F0A3F0A3F0A3F0A3F0A3F0A3F0A3BF
:1003A600F0A3F0A3F0A3F0A3F0A3F090001E04F0D6
:1003B600803DEFB4302C74FF90000EF0A3F0A3F054
:1003C600A3F0A3F0A3F0A3F0A3F0A3F0A3F0A3F08F
:1003D600A3F0A3F0A3F0A3F0A3F090001E7401F025
:1003E600800DEFB43109900076E0B41402E4F0D247
:0103F6000006
:0103F70022E3
:10162E00900022E0FD7C007F0F7E00121BD7900001
:10163E001FE0FCA3E0FD7F0E121BD7900000E0FD23
:10164E007C007F02121BD7A3E0FD7F0A121BD77FFF
:10165E0003121BD17F04121BD1A3E0FCA3E0FD7F7C
:10166E0005121BD7A3E0FCA3E0FD7F06121BD7A338
:10167E00E0FCA3E0FD7F07121BD7A3E0FCA3E0FD77
:10168E007F08121BD7A3E0FCA3E0FD7F09121BD736
:10169E00A3E0FCA3E0FD7F10121BD7A3E0FCA3E0A8
:1016AE00FD7F11121BD7A3E0FCA3E0FD7F12121BDE
:1016BE00D7A3E0FCA3E0FD7F13121BD7A3E0FCA38E
:1016CE00E0FD7F14121BD7A3E0FCA3E0FD7F1512F3
:0D16DE001BD7A3E0FCA3E0FD7F16021BD785
:041BBE00410075006D
:101A0C00900075E014601714602114603924037081
:101A1C004130A00320A13C9000757401F02230A04D
:101A2C000320A1289000757402F02220A0028003EC
:101A3C0020A10C9000217405F090001E7401F09010
:101A4C0000757403F02230A00A30A107E4900075F1
:041A5C00F022002252
:1014EA001216EB900023E06402600302158D90004F
:1014FA002CE06402600302158D900006E0FEA3E072
:10150A00FF4E6036D3EF94FFEE947F400FC294E40F
:10151A00900023F0E49FFFE49EFE8010D294900096
:10152A00237401F0900006E0FEA3E0FFE4FCFD90C6
:10153A000024121968900028803F900008E0FEA35A
:10154A00E0FF4E603ED3EF94FFEE947F400FC296C9
:10155A00E490002CF0E49FFFE49EFE8010D2969067
:10156A00002C7401F0900008E0FEA3E0FFE4FCFD0B
:10157A0090002D12196890003112197400000000B1
:10158A00121E21900035E06402600302162D9000BD
:10159A003EE06402600302162D90000AE0FEA3E01A
:1015AA00FF4E6036D3EF94FFEE947F400FC2B3E450
:1015BA00900035F0E49FFFE49EFE8010D2B39000C5
:1015CA00357401F090000AE0FEA3E0FFE4FCFD9010
:1015DA00003612196890003A803F90000CE0FEA392
:1015EA00E0FF4E603ED3EF94FFEE947F400FC2B50A
:1015FA00E490003EF0E49FFFE49EFE8010D2B59096
:10160A00003E7401F090000CE0FEA3E0FFE4FCFD54
:10161A0090003F12196890004312197400000000EC
:04162A00121E342236
:041BC2004100761454
:10138100900076E01460631470030214311470034A
:101391000214761470030214BD240460030214E8DD
:1013A100900023E0640260030214E990002CE064E1
:1013B1000260030214E9900035E064026003021444
:1013C100E990003EE0640260030214E9C2949000D7
:1013D10023F0A3121974002DC6C0900028121974AD
:1013E10000000000121E210214B63080030214E92D
:1013F100121AEB9000237402F0A31219740000007A
:101401000090002812197400000000C296E49000B8
:101411002CF0A3121974002DC6C09000311219745A
:1014210000000000121E2190001E7401F00214B68B
:101431003081030214E9121AEB90002C7402F0A31C
:10144100121974000000009000311219740000009C
:1014510000C2B3E4900035F0A3121974002DC6C088
:1014610090003A12197400000000121E3490001E00
:101471007401F08040208270121B299000357402A3
:10148100F0A31219740000000090003A12197400C0
:10149100000000C2B5E490003EF0A3121974002DC3
:1014A100C6C090004312197400000000121E34904F
:1014B100001E7401F0900076E004F02220832912CE
:1014C1001B2990003E7402F0A31219740000000061
:1014D1009000431219740000000090001E7401F086
:0914E1009000767414F022002240
:1016EB007D07E4900062F0C2B0EDFF3395E0FEEFB2
:1016FB0025E0FFEE33FE740E2FF58274003EF5836A
:10170B00A3E013B392B2D2B0740E2FF58274003EE5
:10171B00F583C083C082E0C313FFA3E013D082D054
:10172B0083CFF0A3EFF0900062E004F0E0B410B7C9
:10173B001DEDB403ADC2A4D2A47D03E4900062F00E
:10174B00C2A3EDFF3395E0FEEF25E0FFEE33FE7411
:10175B000E2FF58274003EF583A3E013B392A5D24E
:10176B00A3740E2FF58274003EF583C083C082E014
:10177B00C313FFA3E013D082D083CFF0A3EFF0907D
:10178B000062E004F0E0B410B71DC3ED64809480F8
:06179B0050A9C2B1D2B159
:0117A1002225
:1018B100E4FCE4FDC2A3D2A5D2A3EC25E0240EF5FD
:1018C10082E43400F583C083C082A3E025E0FF05F4
:1018D10082D5820215831582E033D082D083F0A3B2
:1018E100EFF00DEDB410CD0CECB404C6C2A4D2A43B
:1018F1007C04E4FDC2B0D2B2D2B0EC25E0240EF5F6
:1019010082E43400F583C083C082A3E025E0FF05B3
:1019110082D5820215831582E033D082D083F0A371
:10192100EFF00DEDB410CD0CECB408C6C2B1D2B1DC
:011931002293
:10100B0000000099030304500563063506C807204A
:10101B0007460746072606F106AE0663061305C10B
:10102B000571052204D70490044D040D03D3039BD3
:10103B0003670338030C02E202BB029802760257E5
:10104B00023A021F020601EE01D801C401B0019D54
:10105B00018D017C016D015F015101440139012CAE
:10106B0001230117010E010500FC00F400EC00E464
:10107B0000DD00D600CF00C900C300BE00B800B22F
:10108B0000AE00A800A400A0009B00A0009B00984D
:10109B000093008F008C008800850081007F007B0F
:1010AB000078007600720071006D006B00690066BD
:1010BB0000640062005F005E005C0059005800563F
:1010CB00005400530051004F004D004D004A0049A1
:1010DB000048004600450044004200410040003FEC
:1010EB00003E003C003C003A003900380038003626
:1010FB000035003400340032003200310030002F54
:10110B00002E002E002D002C002B002B0029002A76
:10111B000028002800270027002500260024002493
:10112B000024002300220022002100210020001FA8
:10113B000020001E001E001E001D001D001C001CB8
:10114B00001B001B001A001A001A001900190018C6
:10115B0000180017001700170017001600150015D0
:10116B0000150015001400140013001400120013D6
:10117B0000120012001200110011001000110010DB
:10118B00000F0010000F000F000E000E000E000EDF
:10119B00000E000D000D000C000C000D000B000CE0
:1011AB00000B000B000B000B000A000A000A0009E1
:1011BB00000A0009000800090008000800080008E0
:1011CB0000070008000600070007000600060006DF
:1011DB0000050006000500050005000400050004DD
:1011EB0000030004000400030003000300020002DC
:1011FB0000030002000100020001000100010001D8
:06120B00000000000001DC
:0A1BC60042007100644200730064E5
:03000B000203F8F5
:1003F800C0E0C0F0C083C082C0D075D00890002390
:10040800E0FF700320800EEF6401600302054C20BA
:05041800840302054C05
:10041D00900028E0F8A3E0F9A3E0FAA3E0FB900038
:10042D0024E0FCA3E0FDA3E0FEA3E0C39BFFEE9A56
:10043D00FEED99FDEC98FC900063121968E47F03C2
:10044D007E01FDFC900028E0F8A3E0F9A3E0FAA3FB
:10045D00E0FBC3121944502C900028A3A3E0FEA387
:10046D00E090100B75F0021219A5EE25E02583F52D
:10047D0083E493FE740193FF900072E02FF09000DF
:10048D0071E03EF0E47F037E01FDFC900063E0F837
:10049D00A3E0F9A3E0FAA3E0FBC3121944502D9099
:1004AD000063A3A3E0FEA3E090100B75F0021219F8
:1004BD00A5EE25E02583F583E493FE740193FFC338
:1004CD00900072E09FF0900071E09EF0900028E0A7
:1004DD00FCA3E0FDA3E0FEA3E02401FFE43EFEE467
:1004ED003DFDE43CFC900028121968900024E0FCCE
:1004FD00A3E0FDA3E0FEA3E0FFA3E0F8A3E0F9A3D2
:10050D00E0FAA3E0FBC31219444023C28C900071A2
:10051D00E4F0A37464F09000237402F0A312197434
:10052D0000000000900028121974000000009000D7
:0C053D0071E0FEA3E0F58AEEF58CB295AB
:1005490002072190002CE0FF700320810EEF640167
:0B055900600302069320850302069356
:10056400900031E0F8A3E0F9A3E0FAA3E0FB9000E7
:100574002DE0FCA3E0FDA3E0FEA3E0C39BFFEE9A05
:10058400FEED99FDEC98FC900063121968E47F037A
:100594007E01FDFC900031E0F8A3E0F9A3E0FAA3AA
:1005A400E0FBC3121944502C900031A3A3E0FEA336
:1005B400E090100B75F0021219A5EE25E02583F5E5
:1005C40083E493FE740193FF900072E02FF0900097
:1005D40071E03EF0E47F037E01FDFC900063E0F8EF
:1005E400A3E0F9A3E0FAA3E0FBC3121944502D9051
:1005F4000063A3A3E0FEA3E090100B75F0021219B0
:10060400A5EE25E02583F583E493FE740193FFC3EF
:10061400900072E09FF0900071E09EF0900031E055
:10062400FCA3E0FDA3E0FEA3E02401FFE43EFEE41E
:100634003DFDE43CFC90003112196890002DE0FC73
:10064400A3E0FDA3E0FEA3E0FFA3E0F8A3E0F9A389
:10065400E0FAA3E0FBC31219444023C28C9000715A
:10066400E4F0A37464F090002C7402F0A3121974E3
:100674000000000090003112197400000000900086
:0C06840071E0FEA3E0F58AEEF58CB29761
:10069000020721900023E0FB700790001E74038086
:1006A00009EBB4012490001E7402F0C28C9000711A
:1006B000E4F0A37464F09000237402F0A3121974A0
:1006C00000000000900028805190002CE0FB702476
:1006D00090001E7403F0C28C900071E4F0A3746467
:1006E000F090002C7402F0A3121974000000009026
:1006F00000318026EBB4012990001E7402F0C28CF8
:10070000900071E4F0A37464F090002C7402F0A3E4
:1007100012197400000000900031121974000000DA
:0C07200000D0D0D082D083D0F0D0E032E6
:03001B0002072CAD
:10072C00C0E0C0F0C083C082C0D075D00890003546
:10073C00E0FF700320820EEF64016003020880204A
:05074C00860302088095
:1007510090003AE0F8A3E0F9A3E0FAA3E0FB9000EF
:1007610036E0FCA3E0FDA3E0FEA3E0C39BFFEE9A0D
:10077100FEED99FDEC98FC900067121968E47F0387
:100781007E01FDFC90003AE0F8A3E0F9A3E0FAA3B2
:10079100E0FBC3121944502C90003AA3A3E0FEA33E
:1007A100E090100B75F0021219A5EE25E02583F5F6
:1007B10083E493FE740193FF900074E02FF09000A6
:1007C10073E03EF0E47F037E01FDFC900067E0F8FA
:1007D100A3E0F9A3E0FAA3E0FBC3121944502D9062
:1007E1000067A3A3E0FEA3E090100B75F0021219BD
:1007F100A5EE25E02583F583E493FE740193FFC301
:10080100900074E09FF0900073E09EF090003AE059
:10081100FCA3E0FDA3E0FEA3E02401FFE43EFEE42F
:100821003DFDE43CFC90003A121968900036E0FC72
:10083100A3E0FDA3E0FEA3E0FFA3E0F8A3E0F9A39A
:10084100E0FAA3E0FBC31219444023C28E90007367
:10085100E4F0A37464F09000357402F0A3121974EB
:100861000000000090003A1219740000000090008E
:0C08710073E0FEA3E0F58BEEF58DB2B451
:10087D00020A5590003EE0FF700320830EEF6401E5
:0B088D0060030209C72087030209C7AF
:10089800900043E0F8A3E0F9A3E0FAA3E0FB90009E
:1008A8003FE0FCA3E0FDA3E0FEA3E0C39BFFEE9ABC
:1008B800FEED99FDEC98FC900067121968E47F033F
:1008C8007E01FDFC900043E0F8A3E0F9A3E0FAA361
:1008D800E0FBC3121944502C900043A3A3E0FEA3ED
:1008E800E090100B75F0021219A5EE25E02583F5AE
:1008F80083E493FE740193FF900074E02FF090005E
:1009080073E03EF0E47F037E01FDFC900067E0F8B1
:10091800A3E0F9A3E0FAA3E0FBC3121944502D9019
:100928000067A3A3E0FEA3E090100B75F002121974
:10093800A5EE25E02583F583E493FE740193FFC3B8
:10094800900074E09FF0900073E09EF0900043E008
:10095800FCA3E0FDA3E0FEA3E02401FFE43EFEE4E7
:100968003DFDE43CFC90004312196890003FE0FC18
:10097800A3E0FDA3E0FEA3E0FFA3E0F8A3E0F9A352
:10098800E0FAA3E0FBC31219444023C28E9000731F
:10099800E4F0A37464F090003E7402F0A31219749A
:1009A800000000009000431219740000000090003D
:0C09B80073E0FEA3E0F58BEEF58DB2B607
:1009C400020A55900035E0FB700790001E74038006
:1009D40009EBB4012490001E7402F0C28E900073DF
:1009E400E4F0A37464F09000357402F0A312197457
:1009F4000000000090003A805190003EE0FB70241B
:100A040090001E7403F0C28E900073E4F0A374642B
:100A1400F090003E7402F0A31219740000000090DC
:100A240000438026EBB4012990001E7402F0C28EAC
:100A3400900073E4F0A37464F090003E7402F0A399
:100A44001219740000000090004312197400000091
:0C0A540000D0D0D082D083D0F0D0E032AF
:101DBA00438E805389F0758A64E4F58CC28DC28C97
:051DCA00C2A9D2AF2206
:101E2100758A64E4F58C900071F0A37464F0D2A912
:031E3100D28C222E
:101AEB00C2A9C28C900071E4F0A37464F09000233F
:101AFB007402F0A312197400000000900028121950
:101B0B00740000000090002C7402F0A312197400F2
:0E1B1B0000000090003112197400000000223A
:101DCF00438E40538910758B64E4F58DC28FC28E9C
:051DDF00C2ABD2AF22EF
:101E3400758B64E4F58D900073F0A37464F0D2ABF9
:031E4400D28E2219
:101B2900C28EC2AB900073E4F0A37464F0900035E8
:101B39007402F0A31219740000000090003A1219FF
:101B4900740000000090003E7402F0A312197400A2
:0E1B59000000009000431219740000000022EA
:101DE400D2A60000D2A70000000000C2A600000096
:051DF4000000C2A7225F
:101E0D00C2A600D2A70000000000D2A6000000006C
:041E1D0000C2A72236
:101C5F00121DE47FA012001E121C77EAFF12001E55
:081C6F00121C77AF0312001EE6
:101C7700C2A6000000D2A70000000000C2A7000013
:011C8700223A
:101E4700D2A6000000D2A70000000000C2A7000031
:011E57002268
:10001E007E08AD07C2A70000000000ED30E704D255
:10002E00A68002C2A6D2A7EF25E0FDFFDEE4C2A79E
:01003E00229F
:101C3200E4FFFE7D08D2A6C2A70000000000D2A7E2
:101C42000000000000EF30A6054401FF800354FEAF
:0C1C5200FFED146005EF25E0FEFFDDDB78
:011C5E002263
:101D8D00EFD394004011E4FDFC0DBD00010CED649A
:071D9D007D4C70F51F80E989
:011DA400221C
:101D5C00AB07AA06AC05121C5FAF0412001E121CC6
:091D6C0077121E0D7F0F021D8D80
:041CD600AB07AA06A8
:101CDA00121C5F121DE47FA112001E121C77121C37
:091CEA0032C2A7121E47121E0DA2
:011CF30022CE
:1017AE00021211E493A3F8E493A34003F68001F22E
:1017BE0008DFF48029E493A3F85407240CC8C3333C
:1017CE00C4540F4420C8834004F456800146F6DF0B
:1017DE00E4800B0102040810204080901B9EE47EE2
:1017EE00019360BCA3FF543F30E509541FFEE49300
:1017FE00A360010ECF54C025E060A840B8E493A3C7
:10180E00FAE493A3F8E493A3C8C582C8CAC583CAF1
:10181E00F0A3C8C582C8CAC583CADFE9DEE780BEA9
:011BD0000014
:10193200EF8DF0A4A8F0CF8CF0A428CE8DF0A42EC9
:02194200FE2283
:10194400EB9FF5F0EA9E42F0E99D42F0E89C45F0F9
:011954002270
:10195500E8600FECC313FCED13FDEE13FEEF13FF70
:03196500D8F12294
:0C196800ECF0A3EDF0A3EEF0A3EFF022F2
:10197400A8828583F0D083D08212198B12198B121E
:10198400198B12198BE473E493A3C583C5F0C58343
:10199400C8C582C8F0A3C583C5F0C583C8C582C8BD
:0119A4002220
:0C19A500A42582F582E5F03583F583224D
:00000001FF
