:030000000215A640
:0C15A600787FE4F6D8FD7581200215ED79
:1014E0007FF47E01121A461217B7121B58121AF413
:1014F000121B09E4FFFE121A6D1200465387DF909B
:101500000004E06402600C900014E0640260047F58
:10151000048015900004E0B40208900014E0640216
:1015200060047F0680027F0A7E00121A46E587303B
:10153000E51E5387DF7F0A7E00121A46E58730E5F5
:101540000F5387DF12038DE58730E504B29480FCEA
:1015500012186F1219611210E6900000E0B4010534
:101560001218C38013900000E0FFC39404400EEFF4
:10157000D394095008121632E4900000F090000154
:10158000E0640160030214FF7F04FE121A6D12086A
:1015900063EF7F027003FE80027E00121A6DE490FA
:0615A0000001F00214FF3F
:10001E00EF1FAC0670011E4C6010900219E004F048
:0A002E0070EE900218E004F080E686
:0100380022A5
:081A4600900216EEF0A3EFF090
:101A4E00E4FBFAD3900217E09B900216E09A400E48
:0E1A5E007FDE7E0112001E0BBB00010A80E538
:011A6C002257
:1011FC00E4900216F0A3F07F0A121B1E7FFF7E0103
:10120C00121AC7EF64EE60030212F4900218F0A3F6
:10121C00F0E490021AF0A3F090021AE0FAA3E0FBBB
:10122C00C39428EA940040030212CC900218E0FE0A
:10123C00A3E0FF7C007D50121738AC06AD07EB2500
:10124C00E0FFEA33FEED2FFFEC3EFE90021CF0A314
:10125C00EFF0121AC7EF7F00FEC007C00690021D08
:10126C00E02401FF90021CE03400FE121AC7EFFDCF
:10127C00D0E0FCD0E04DFD90021BE025E0FF900299
:10128C001AE033FE900218E0FAA3E090002375F008
:10129C00501217ABEA75F050A42583F583E5822F25
:1012AC00F582E5833EF583ECF0A3EDF090021BE0B4
:1012BC0004F0600302122490021AE004F0021224DB
:1012CC00900219E004F07006900218E004F0C3904C
:1012DC000219E09406900218E09400500302121DCB
:0E12EC00900216E4F0A304F0900216A3E0FFB7
:0112FA0022D1
:1017B7001211FCEF7043FDFCE4FBFAEB25E0FFEAB6
:1017C70033FE90002375F050ED1217ABEC75F05017
:1017D700A42583F583E5822FF582E5833EF583E42F
:1017E700F0A3F00BBB00010AEB64284A70CD0DBDD6
:1017F70000010CED64064C70BF9000027401F0E428
:0C180700900203F090000004F0E4A3F055
:0118130022B2
:10086300900216E4F0A304F07F0A121B1EE4FFFEBD
:10087300121ADF7F0A121B1EE4900218F0A3F0E4A1
:1008830090021AF0A3F0900218E0FAA3E0FB7C00B8
:100893007D50FFAE02121738AC06AD0790021BE085
:1008A30025E0FF90021AE033FEED2FFFEC3E9002AD
:1008B3001CF0A3EFF090021BE025E0FF90021AE08A
:1008C30033FE90002375F050EB1217ABEA75F0502E
:1008D300A42583F583E5822FF582E5833EF583E046
:1008E300FD90021CE0FEA3E0FF121AAE90021BE093
:1008F30025E0FF90021AE033FE900218E0FCA3E02B
:1009030090002375F0501217ABEC75F050A42583BB
:10091300F583E5822FF582E5833EF583A3E0FD9021
:10092300021DE02401FF90021CE03400FE121AAE07
:1009330090021BE004F0700690021AE004F0C390EA
:10094300021BE0942890021AE094005003020889E5
:10095300900219E004F07006900218E004F0C390CE
:100963000219E09406900218E094005003020882F2
:100973007DEE7FFF7E01121AAE7F0A121B1EE490EA
:100983000218F0A3F0E490021AF0A3F090021AE028
:10099300FAA3E0FBC39428EA94004003020A4190BF
:1009A3000218E0FEA3E0FF7C007D50121738AC066E
:1009B300AD07EB25E0FFEA33FEED2FFFEC3EFE90A3
:1009C300021CF0A3EFF0121AC7EF7F00FEC007C0AE
:1009D3000690021DE02401FF90021CE03400FE1289
:1009E3001AC7EFFDD0E0FCD0E04DFD90021BE025DF
:1009F300E0FF90021AE033FE900218E0FAA3E090C1
:100A0300002375F0501217ABEA75F050A42583F557
:100A130083E5822FF582E5833EF583E0FEA3E06D57
:100A23007002EE6C6007E4900216F0A3F090021BD4
:100A3300E004F0700690021AE004F002098F9002BD
:100A430019E004F07006900218E004F0C390021954
:100A5300E09406900218E094005003020988900283
:040A630016A3E0FFF7
:010A6700226C
:100046007FFF7E03121AC7EF64EE600302032FFFE1
:100056007E02121AC7900003EFF07F017E02121A89
:10006600C7900004EFF07402FFFE121AC790000555
:10007600EFF07F047E02121AC77E00EF7810C333BA
:10008600CE33CED8F9FFC007C0067F037E02121A10
:10009600C77E00EF7818C333CE33CED8F9FDD0E053
:1000A6004EFED0E04DFFC007C0067F057E02121A45
:1000B600C7EFFCD0E04CFED0E0FFC007C0067F06CD
:1000C6007E02121AC7EFFDD0E0FED0E04DFFE4FC41
:1000D600FD90000612176E7F087E02121AC77E0078
:1000E600EF7810C333CE33CED8F9FFC007C0067FF2
:1000F600077E02121AC77E00EF7818C333CE33CEBE
:10010600D8F9FDD0E04EFED0E04DFFC007C0067F17
:10011600097E02121AC7EFFCD0E04CFED0E0FFC009
:1001260007C0067F0A7E02121AC7EFFDD0E0FED096
:10013600E04DFFE4FCFD90000A12176E7F047E027C
:10014600121AC7EF7F00C454F0FEC007C0067F0333
:100156007E02121AC7EF33333354F8FCD0E04CFE5C
:10016600D0E0FFC007C0067F057E02121AC7EFC4A3
:100176003354E0FCD0E04CFED0E0FFC007C0067F61
:100186000E7E02121AC7EFFDD0E0FED0E04DFFE46E
:10019600FCFD90000E12176E7F0F7E02121AC7909A
:1001A6000012EFF07F107E02121AC7900013EFF0D4
:1001B6007F117E02121AC7900014EFF07F127E02A2
:1001C600121AC7900015EFF07F047E02121AC77E3E
:1001D60000EF7814C333CE33CED8F9FFC007C0067C
:1001E6007F037E02121AC77E00EF7813C333CE3325
:1001F600CED8F9FDD0E04EFED0E04DFFC007C006D8
:100206007F057E02121AC77E00EF7815C333CE3300
:10021600CED8F9FDD0E04EFED0E04DFFC007C006B7
:100226007F167E02121AC7EFFDD0E0FED0E04DFF2A
:10023600E4FCFD90001612176E7F087E02121AC7A4
:100246007E00EF7818C333CE33CED8F9FFC007C08F
:10025600067F077E02121AC77E00EF7817C333CED9
:1002660033CED8F9FDD0E04EFED0E04DFFC007C03A
:10027600067F097E02121AC77E00EF7819C333CEB5
:1002860033CED8F9FDD0E04EFED0E04DFFC007C01A
:10029600067F1A7E02121AC7EFFDD0E0FED0E04DAF
:1002A600FFE4FCFD90001A12176E7F047E02121AFC
:1002B600C77E00EF781CC333CE33CED8F9FFC00714
:1002C600C0067F037E02121AC77E00EF781BC33377
:1002D600CE33CED8F9FDD0E04EFED0E04DFFC007BC
:1002E600C0067F057E02121AC77E00EF781DC33353
:1002F600CE33CED8F9FDD0E04EFED0E04DFFC0079C
:10030600C0067F1E7E02121AC7EFFDD0E0FED0E0C7
:100316004DFFE4FCFD90001E12176E7F1F7E021239
:100326001AC7900022EFF08057E4900003F0A37400
:1003360002F0A314F0A312177A0000000090000A3E
:1003460012177A0000000090000E12177A000000C3
:1003560000E4900012F0A3F0A37402F0A314F0A33B
:1003660012177A0000000090001A12177A00000097
:100376000090001E12177A00000000E4900022F0A0
:070386009000007401F02259
:10038D007F007E02121ADF7F037E00121A46900054
:10039D0003E0FD7F007E02121AAE900004E0FD7FA7
:1003AD00017E02121AAE900005E0FD7402FFFE12EE
:1003BD001AAE900006E0FCA3E0FDA3E0FEA3E0FF73
:1003CD00781812175BAD077F037E02121AAE9000EC
:1003DD0006E0FCA3E0FDA3E0FEA3E0FF78101217FA
:1003ED005BAD077F047E02121AAE900006E0FCA3FF
:1003FD00E0FDA3E0FEA3E0FF780812175BAD077FD9
:10040D00057E02121AAE900006A3A3A3E0FD7F069F
:10041D007E02121AAE90000AE0FCA3E0FDA3E0FEFE
:10042D00A3E0FF781812175BAD077F077E02121A43
:10043D00AE90000AE0FCA3E0FDA3E0FEA3E0FF7890
:10044D001012175BAD077F087E02121AAE90000ADC
:10045D00E0FCA3E0FDA3E0FEA3E0FF780812175B2C
:10046D00AD077F097E02121AAE90000AA3A3A3E086
:10047D00FD7F0A7E02121AAE90000EE0FCA3E0FD95
:10048D00A3E0FEA3E0FF781812175BAD077F0B7E8C
:10049D0002121AAE90000EE0FCA3E0FDA3E0FEA355
:1004AD00E0FF781012175BAD077F0C7E02121AAEBB
:1004BD0090000EE0FCA3E0FDA3E0FEA3E0FF7808B2
:1004CD0012175BAD077F0D7E02121AAE90000EA3C0
:1004DD00A3A3E0FD7F0E7E02121AAE900012E0FD86
:1004ED007F0F7E02121AAE900013E0FD7F107E0288
:1004FD00121AAE900014E0FD7F117E02121AAE901A
:10050D000015E0FD7F127E02121AAE900016E0FC7F
:10051D00A3E0FDA3E0FEA3E0FF781812175BAD0783
:10052D007F137E02121AAE900016E0FCA3E0FDA32D
:10053D00E0FEA3E0FF781012175BAD077F147E027B
:10054D00121AAE900016E0FCA3E0FDA3E0FEA3E0BE
:10055D00FF780812175BAD077F157E02121AAE9059
:10056D000016A3A3A3E0FD7F167E02121AAE900023
:10057D001AE0FCA3E0FDA3E0FEA3E0FF781812173C
:10058D005BAD077F177E02121AAE90001AE0FCA336
:10059D00E0FDA3E0FEA3E0FF781012175BAD077F2F
:1005AD00187E02121AAE90001AE0FCA3E0FDA3E043
:1005BD00FEA3E0FF780812175BAD077F197E0212CC
:1005CD001AAE90001AA3A3A3E0FD7F1A7E02121AA1
:1005DD00AE90001EE0FCA3E0FDA3E0FEA3E0FF78DB
:1005ED001812175BAD077F1B7E02121AAE90001E0C
:1005FD00E0FCA3E0FDA3E0FEA3E0FF781012175B83
:10060D00AD077F1C7E02121AAE90001EE0FCA3E027
:10061D00FDA3E0FEA3E0FF780812175BAD077F1D79
:10062D007E02121AAE90001EA3A3A3E0FD7F1E7ED4
:10063D0002121AAE900022E0FD7F1F7E02121AAE4A
:10064D007DEE7FFF7E03121AAE7F0A7E00021A46F0
:101B1E00AE071FEE600DE4FCFD0DED70010C4C6088
:031B2E00EF80F64F
:011B31002291
:0D000E00E4F5C7F5C5F5C675C380F5C4223D
:101AC70075C78375C5018FC4EEF5C375C65A75C64C
:071AD700A500AFC212000ED2
:011ADE0022E5
:101AAE0075C78375C5028FC4EEF5C3AF058FC275BA
:091ABE00C65A75C6A50002000E0F
:101ADF0075C78375C5038FC4EEF5C375C65A75C632
:051AEF00A50002000E3D
:1019AD00C1004F0206FFFFFFFFFFFFFFFFFFFFFF1D
:1019BD00FFFFFFFF41021500410205004102040037
:0F1B5800759A50759CFD438E1475AF01D2AF2264
:03004300021A1787
:101A1700C0E0C0F0C083C082C0D075D008E59A305E
:101A2700E008539AFEAF9B121814E59A30E105536C
:0F1A37009AFDC201D0D0D082D083D0F0D0E0325F
:101A9400900218E0FCA3E0FDA3E0FEA3E0FF121710
:011AA4005BE6
:091AA5002001FDEFD201F59B22A6
:0719E400E02401FDEE33FCDD
:1019EB00AB07AA067F5A121AA57FA5121AA57F0567
:1019FB00121AA57F82121AA5EAFF121AA5AF0312BB
:0C1A0B001AA5ECFF121AA5AF05021AA5DF
:10191400AD07AC067F5A121AA57FA5121AA57F0738
:10192400121AA57F82121AA5ECFF121AA5AF05128E
:101934001AA57818121A947810121A94900218E0C2
:10194400FCA3E0FDA3E0FEA3E0FF780812175B12FE
:0D1954001AA5900218A3A3A3E0FF021AA594
:101A6D00AD07AC067F5A121AA57FA5121AA57F04E1
:101A7D00121AA57F80121AA57F03121AA5ECFF1268
:071A8D001AA5AF05021AA51E
:10181400900215E014601114601614602224037001
:1018240043EF645A70448010EFB4A502800A8035F7
:10183400900204EFF0E4A3F0900215E004F022908B
:101844000205E02406F582E43402F583EFF0900209
:1018540005E004F0900204E0FFA3E0C39F400B12F4
:0B18640013F5800100E4900215F02253
:1013F50090020AE0FEA3E0FDEDFF90021EEEF0A3D1
:10140500EFF0900208E0FFB4070F90022DE064149E
:1014150060030214DDF00214DDEFB4080890000249
:101425007401F08068900208E0FFB40A0DE49000B2
:1014350002F090000004F00214DDEFB40C05120F69
:10144500AB8016900208E0B40E05120A68800A9077
:101455000208E0B410081216B6900000800B900246
:1014650008E0FFB41E089000017401F0806AEF6483
:10147500206065EFC39412401AEFD3941C5014906A
:101485000208E024EEC313900203F0240490000048
:10149500F08045900208E0FFC3942E403BEFD394C3
:1014A5007C503590021EE0FEA3E0FF900203E0753C
:1014B500F050A42423F582E5F03400F583C083C001
:1014C50082900208E024D2C313D082D08375F00243
:0A14D5001217ABEEF0A3EFF0D20007
:0114DF0022EA
:10163200E4FDFC7F22FE1219EB7F241219EB7F26B8
:101642001219EB7F281219EB7F2A1219EB7F2C1249
:1016520019EB900203E025E0FFEE33FEEF2422FFB8
:10166200E43EFE0D1219EBE4900216F0900203E044
:1016720075F050A42423F582E5F03400F583C0838D
:10168200C082900216E0FFD082D08375F00212175A
:10169200ABE0FCA3E0FDEF25E0FFE433FEEF242EF8
:1016A200FFE43EFE1219EB900216E004F0E0C39450
:0316B2002840B914
:0116B5002212
:1018C300900002E0FD7C00E4FFFE1219EB90001291
:1018D3007F011219E49000227F021219E4900003A1
:1018E300E02401FFEE33FEE4FCFD90021812176EB4
:1018F3007F037E00121914900013E02401FFE433E8
:10190300FEE4FCFD90021812176E7F057E0002199B
:0119130014BF
:0819CD00410232004102330027
:10186F00900232E014601714602114603924037061
:10187F004130820320833C9002327401F022308287
:10188F00032083289002327402F022208205120F67
:10189F00AB8006208303120A689000007401F09059
:1018AF0002327403F02230820A308307E49002324E
:0418BF00F0220022F1
:10196100900233E014601714602114603124037075
:10197100393084032085349002337401F02230849D
:10198100032085209002337402F022208403121672
:10199100B69000007401F09002337403F022308499
:0C19A1000A308507E4900233F022002297
:0419D50041022D148A
:1010E60090022DE01460611460661470030211B062
:1010F6001470030211BA240460030211FA9000046A
:10110600E0640260030211FB900014E064026003D5
:101116000211FB900003E0FF6F60030211FB9000D9
:1011260012E0FF6F60030211FBC290900004F09082
:10113600000612177A002DC6C090000A12177A0010
:10114600000000121B3280653080030211FB805DB7
:101156003080030211FB120003E4900003F0A37435
:1011660002F0A314F0A312177A0000000090000A00
:1011760012177A0000000090000E12177A00000085
:1011860000E4900012F0C2A0900014F09000161235
:10119600177A002DC6C090001A12177A00000000B8
:1011A600121B4590022DE004804220814890022DBA
:1011B600E004F02220813E120039E4900013F0A3EF
:1011C6007402F0A314F0A312177A00000000900036
:1011D6001A12177A0000000090001E12177A0000FB
:1011E6000000E4900022F090022D7414F0900000AC
:0611F6007401F02200224A
:100FAB00900004E0640260030210E5900014E0641A
:100FBB000260030210E5900013E0FF900003E06F66
:100FCB0060030210E5900022E0FF900012E0FE6F3C
:100FDB0060030210E5EE30E0030210DFD2909000C8
:100FEB00047401F0900228F0E4900005F0900012D8
:100FFB00E075F050A42423F582E5F03400F583C0AE
:10100B0083C082900003E0D082D08375F002121768
:10101B00ABA3E025E0FF0582D5820215831582E0A4
:10102B0033FEE4FCFD90000612176E900006E0FC08
:10103B00A3E0FDA3E0FEA3E0FF90022912176E9040
:10104B00000A12177A0000000090000EE0F8A3E0EF
:10105B00F9A3E0FAA3E0FBA3E075F050A42423F579
:10106B0082E5F03400F583C083C082900003E0D0AA
:10107B0082D08375F0021217ABE0FEA3E0FFE4FC15
:10108B00FDEB2FFFEA3EFEED39FDEC38FC90000E38
:10109B0012176E900012E075F050A42425F582E52E
:1010AB00F03400F583C083C082900003E0D082D07F
:1010BB008375F0021217ABE0FEA3E04E700D9000AB
:1010CB0012E004F0E4900003F08006900003E004CB
:0B10DB00F0021B329000007402F022B3
:100A6800900004E064026003020BE2900014E0646A
:100A7800026003020BE2900013E0FF900003E06FB6
:100A88006003020BE2900022E0FF900012E0FE6F8C
:100A98006003020BE2EE20E003020BDCC290E4905C
:100AA8000004F0900228F0900012E075F050A424A1
:100AB80023F582E5F03400F583C083C082900003FB
:100AC800E0D082D08375F0021217ABA3E025E0FFD7
:100AD8000582D5820215831582E033FEE4FCFD9081
:100AE800000612176E900006E0FCA3E0FDA3E0FEEE
:100AF800A3E0FF90022912176E90000A12177A00DD
:100B080000000090000EE0FCA3E0FDA3E0FEA3E0DF
:100B1800FFC006C007A3E075F050A42423F582E5C2
:100B2800F03400F583C083C082900003E0D082D007
:100B38008375F0021217ABE0FEA3E0FBAA06D0070C
:100B4800D006C3EF9BFFEE9AFEED9400FDEC9400F7
:100B5800FC90000E12176E900012E075F050A4245D
:100B680025F582E5F03400F583C083C08290000348
:100B7800E0D082D08375F0021217ABE0FEA3E04EFE
:100B8800704990000504F0E4900003F0900012E032
:100B980004F0E0FFD394054004E4F0803475F0508D
:100BA800EFA42423F582E5F03400F583C083C082E6
:100BB800900003E0D082D08375F0021217ABE0FEFC
:100BC800A3E04E700C900012F08006900003E00441
:0B0BD800F0021B329000007403F022BA
:1012FB00900014E0640260030213F4900022E030CB
:10130B00E0030213EED2A09000147401F0E4A3F0FA
:10131B00900022E075F050A42423F582E5F0340010
:10132B00F583C083C082900013E0D082D08375F028
:10133B00021217ABA3E025E0FF0582D582021583CD
:10134B001582E033FEE4FCFD90001612176E900040
:10135B001A12177A0000000090001EE0F8A3E0F9C3
:10136B00A3E0FAA3E0FBA3E075F050A42423F582DD
:10137B00E5F03400F583C083C082900013E0D08287
:10138B00D08375F0021217ABE0FEA3E0FFE4FCFD87
:10139B00EB2FFFEA3EFEED39FDEC38FC90001E1200
:1013AB00176E900022E075F050A42425F582E5F02D
:1013BB003400F583C083C082900013E0D082D083C9
:1013CB0075F0021217ABE0FEA3E04E700D900022F9
:1013DB00E004F0E4900013F08006900013E004F0BA
:0A13EB00021B459000007402F0227E
:100E6F00900014E064026003020FAA900022E020B9
:100E7F00E003020FA4C2A0E4900014F0900022E05F
:100E8F0075F050A42423F582E5F03400F583C08378
:100E9F00C082900013E0D082D08375F0021217AB9E
:100EAF00A3E025E0FF0582D5820215831582E0338A
:100EBF00FEE4FCFD90001612176E90001A12177ABE
:100ECF000000000090001EE0FCA3E0FDA3E0FEA3E5
:100EDF00E0FFC006C007A3E075F050A42423F582FD
:100EEF00E5F03400F583C083C082900013E0D08218
:100EFF00D08375F0021217ABE0FEA3E0FBAA06D079
:100F0F0007D006C3EF9BFFEE9AFEED9400FDEC9425
:100F1F0000FC90001E12176E900022E075F050A496
:100F2F002425F582E5F03400F583C083C08290005C
:100F3F0013E0D082D08375F0021217ABE0FEA3E06E
:100F4F004E704990001504F0E4900013F0900022C9
:100F5F00E004F0E0FFD394054004E4F0803475F032
:100F6F0050EFA42423F582E5F03400F583C083C04D
:100F7F0082900013E0D082D08375F0021217ABE09D
:100F8F00FEA3E04E700C900022F08006900013E05C
:0C0F9F0004F0021B459000007403F022D7
:1016B600900004E064027079900014E06402707196
:1016C600900013E0FF900003E0FEB5070E900022A5
:1016D600E0FF900012E0B507020022900228E0FF2A
:1016E60024FF92A0900013EEF0A3EFF0900005E027
:1016F600900015F0900229E0FCA3E0FDA3E0FEA314
:10170600E0FF90001612176E90001A12177A00006A
:10171600000090000EE0FCA3E0FDA3E0FEA3E0FFC6
:1017260090001E12176E900012E0900022F0121B1D
:0217360045224A
:10065D0000000099030304500563063506C8072002
:10066D0007460746072606F106AE0663061305C1C3
:10067D000571052204D70490044D040D03D3039B8B
:10068D0003670338030C02E202BB0298027602579D
:10069D00023A021F020601EE01D801C401B0019D0C
:1006AD00018D017C016D015F015101440139012C66
:1006BD0001230117010E010500FC00F400EC00E41C
:1006CD0000DD00D600CF00C900C300BE00B800B2E7
:1006DD0000AE00A800A400A0009B00A0009B009805
:1006ED000093008F008C008800850081007F007BC7
:1006FD000078007600720071006D006B0069006675
:10070D0000640062005F005E005C005900580056F6
:10071D00005400530051004F004D004D004A004958
:10072D000048004600450044004200410040003FA3
:10073D00003E003C003C003A0039003800380036DD
:10074D000035003400340032003200310030002F0B
:10075D00002E002E002D002C002B002B0029002A2E
:10076D00002800280027002700250026002400244B
:10077D000024002300220022002100210020001F60
:10078D000020001E001E001E001D001D001C001C70
:10079D00001B001B001A001A001A0019001900187E
:1007AD000018001700170017001700160015001588
:1007BD00001500150014001400130014001200138E
:1007CD000012001200120011001100100011001093
:1007DD00000F0010000F000F000E000E000E000E97
:1007ED00000E000D000D000C000C000D000B000C98
:1007FD00000B000B000B000B000A000A000A000999
:10080D00000A000900080009000800080008000897
:10081D000007000800060007000700060006000696
:10082D000005000600050005000500040005000494
:10083D000003000400040003000300030002000293
:10084D00000300020001000200010001000100018F
:06085D0000000000000194
:0A19D90042022E0064420230006456
:03000B00020BE302
:0D0BE300C0E0C0F0C083C082C0D075D00853
:100BF00090000AE0F8A3E0F9A3E0FAA3E0FB90007C
:100C000006E0FCA3E0FDA3E0FEA3E0C39BFFEE9A99
:100C1000FEED99FDEC98FC90022012176EE47F0324
:100C20007E01FDFC90000AE0F8A3E0F9A3E0FAA33E
:100C3000E0FBC312174A502C90000AA3A3E0FEA3C6
:100C4000E090065D75F0021217ABEE25E02583F506
:100C500083E493FE740193FF90022FE02FF0900243
:100C60002EE03EF0E47F037E01FDFC900220E0F8E0
:100C7000A3E0F9A3E0FAA3E0FBC312174A502D90BA
:100C80000220A3A3E0FEA3E090065D75F002121718
:100C9000ABEE25E02583F583E493FE740193FFC357
:100CA00090022FE09FF090022EE09EF090000AE06C
:100CB000FCA3E0FDA3E0FEA3E02401FFE43EFEE48C
:100CC0003DFDE43CFC90000A12176E900006E0FC2B
:100CD000A3E0FDA3E0FEA3E0FFA3E0F8A3E0F9A3F7
:100CE000E0FAA3E0FBC312174A4025C28C90022E03
:100CF000E4F0A37464F09000047402F09000061213
:100D0000177A0000000090000A12177A0000000015
:0E0D100090022EE0FEA3E0F58AEEF58CB2A66E
:0B0D1E00D0D0D082D083D0F0D0E032E3
:03001B00020D29AA
:0D0D2900C0E0C0F0C083C082C0D075D0080B
:100D360090001AE0F8A3E0F9A3E0FAA3E0FB900024
:100D460016E0FCA3E0FDA3E0FEA3E0C39BFFEE9A42
:100D5600FEED99FDEC98FC90022412176EE47F03D9
:100D66007E01FDFC90001AE0F8A3E0F9A3E0FAA3E7
:100D7600E0FBC312174A502C90001AA3A3E0FEA36F
:100D8600E090065D75F0021217ABEE25E02583F5BF
:100D960083E493FE740193FF900231E02FF09002FA
:100DA60030E03EF0E47F037E01FDFC900224E0F893
:100DB600A3E0F9A3E0FAA3E0FBC312174A502D9073
:100DC6000224A3A3E0FEA3E090065D75F0021217CD
:100DD600ABEE25E02583F583E493FE740193FFC310
:100DE600900231E09FF0900230E09EF090001AE011
:100DF600FCA3E0FDA3E0FEA3E02401FFE43EFEE445
:100E06003DFDE43CFC90001A12176E900016E0FCC3
:100E1600A3E0FDA3E0FEA3E0FFA3E0F8A3E0F9A3AF
:100E2600E0FAA3E0FBC312174A4025C28E900230B7
:100E3600E4F0A37464F09000147402F090001612AB
:100E4600177A0000000090001A12177A00000000BE
:0E0E5600900230E0FEA3E0F58BEEF58DB2A128
:0B0E6400D0D0D082D083D0F0D0E0329C
:101AF400438E805389F0758A64E4F58CC28DC28C60
:051B0400C2A9D2AF22CE
:101B3200758A64E4F58C90022EF0A37464F0D2A945
:031B4200D28C2220
:05000300C2A9C28C221D
:101B0900438E40538910758B64E4F58DC28FC28E64
:051B1900C2ABD2AF22B7
:101B4500758B64E4F58D900230F0A37464F0D2AB2C
:031B5500D28E220B
:05003900C28EC2AB22E3
:1015B2000214E0E493A3F8E493A34003F68001F25B
:1015C20008DFF48029E493A3F85407240CC8C3333A
:1015D200C4540F4420C8834004F456800146F6DF09
:1015E200E4800B01020408102040809019ADE47ED3
:1015F200019360BCA3FF543F30E509541FFEE493FE
:10160200A360010ECF54C025E060A840B8E493A3C4
:10161200FAE493A3F8E493A3C8C582C8CAC583CAEF
:10162200F0A3C8C582C8CAC583CADFE9DEE780BEA7
:0119E3000003
:10173800EF8DF0A4A8F0CF8CF0A428CE8DF0A42EC5
:02174800FE227F
:10174A00EB9FF5F0EA9E42F0E99D42F0E89C45F0F5
:01175A00226C
:10175B00E8600FECC313FCED13FDEE13FEEF13FF6C
:03176B00D8F12290
:0C176E00ECF0A3EDF0A3EEF0A3EFF022EE
:10177A00A8828583F0D083D0821217911217911212
:10178A001791121791E473E493A3C583C5F0C58337
:10179A00C8C582C8F0A3C583C5F0C583C8C582C8B9
:0117AA00221C
:0C17AB00A42582F582E5F03583F5832249
:00000001FF
