:0300000002162DB8
:0C162D00787FE4F6D8FD75812002167469
:1010FB00E4900204F0A3F0A3F07FF47E01121ACA6D
:10110B00121847121BDC121B78121B8DE4FFFE1208
:10111B001AF11200465387DF900205E004F07006C7
:10112B00900204E004F0D3900205E0946490020472
:10113B00E094004012900206E0B4010BE4FFFE12B3
:10114B001AF1E4900206F0900004E06402600C9047
:10115B000014E0640260047F048015900004E0B486
:10116B000208900014E0640260047F0680027F0A8C
:10117B007E00121ACAE58730E51E5387DF7F0A7E91
:10118B0000121ACAE58730E50F5387DF12038DE58E
:10119B008730E504B29480FC1219501219EB12122D
:1011AB002D900000E0B401051218FF80479000005D
:1011BB00E0B402137F067E00121AF1E4900204F0F1
:1011CB00A3F0A304F0802D900000E0B403137F057F
:1011DB007E00121AF1E4900204F0A3F0A304F08055
:1011EB0013900000E0FFC39404400EEFD39409501A
:1011FB0008121744E4900000F0900001E0640160D5
:10120B00030211237F04FE121AF1120863EF7F020F
:10121B007003FE80027E00121AF1E4900001F002CE
:02122B0011238D
:10001E00EF1FAC0670011E4C601090020AE004F057
:0A002E0070EE900209E004F080E695
:0100380022A5
:081ACA00900207EEF0A3EFF01B
:101AD200E4FBFAD3900208E09B900207E09A400EE2
:0E1AE2007FDE7E0112001E0BBB00010A80E5B4
:011AF00022D3
:10144400E4900207F0A3F07F0A121BA27FFF7E0143
:10145400121B4BEF64EE600302153C900209F0A3EB
:10146400F0E490020BF0A3F090020BE0FAA3E0FB8F
:10147400C39428EA94004003021514900209E0FE84
:10148400A3E0FF7C007D501217C8AC06AD07EB2526
:10149400E0FFEA33FEED2FFFEC3EFE90020DF0A3D9
:1014A400EFF0121B4BEF7F00FEC007C00690020E48
:1014B400E02401FF90020DE03400FE121B4BEFFD0F
:1014C400D0E0FCD0E04DFD90020CE025E0FF90025E
:1014D4000BE033FE900209E0FAA3E090002375F0DC
:1014E4005012183BEA75F050A42583F583E5822F4A
:1014F400F582E5833EF583ECF0A3EDF090020CE079
:1015040004F0600302146C90020BE004F002146C0B
:1015140090020AE004F07006900209E004F0C3901F
:10152400020AE09406900209E09400500302146554
:0E153400900207E4F0A304F0900207A3E0FF8A
:011542002286
:10184700121444EF7043FDFCE4FBFAEB25E0FFEADA
:1018570033FE90002375F050ED12183BEC75F050F5
:10186700A42583F583E5822FF582E5833EF583E49E
:10187700F0A3F00BBB00010AEB64284A70CD0DBD45
:1018870000010CED64064C70BF9000027401F0E497
:0C189700900203F090000004F0E4A3F0C5
:0118A3002222
:10086300900207E4F0A304F07F0A121BA2E4FFFE48
:10087300121B637F0A121BA2E4900209F0A3F0E4A7
:1008830090020BF0A3F0900209E0FAA3E0FB7C00D6
:100893007D50FFAE021217C8AC06AD0790020CE004
:1008A30025E0FF90020BE033FEED2FFFEC3E9002BC
:1008B3000DF0A3EFF090020CE025E0FF90020BE0B7
:1008C30033FE90002375F050EB12183BEA75F0509D
:1008D300A42583F583E5822FF582E5833EF583E046
:1008E300FD90020DE0FEA3E0FF121B3290020CE02C
:1008F30025E0FF90020BE033FE900209E0FCA3E049
:1009030090002375F05012183BEC75F050A425832A
:10091300F583E5822FF582E5833EF583A3E0FD9021
:10092300020EE02401FF90020DE03400FE121B32A0
:1009330090020CE004F0700690020BE004F0C39008
:10094300020CE0942890020BE09400500302088903
:1009530090020AE004F07006900209E004F0C390EC
:10096300020AE09406900209E09400500302088210
:100973007DEE7FFF7E01121B327F0A121BA2E490E1
:100983000209F0A3F0E490020BF0A3F090020BE055
:10099300FAA3E0FBC39428EA94004003020A4190BF
:1009A3000209E0FEA3E0FF7C007D501217C8AC06ED
:1009B300AD07EB25E0FFEA33FEED2FFFEC3EFE90A3
:1009C300020DF0A3EFF0121B4BEF7F00FEC007C038
:1009D3000690020EE02401FF90020DE03400FE12A7
:1009E3001B4BEFFDD0E0FCD0E04DFD90020CE02569
:1009F300E0FF90020BE033FE900209E0FAA3E090DF
:100A0300002375F05012183BEA75F050A42583F5C6
:100A130083E5822FF582E5833EF583E0FEA3E06D57
:100A23007002EE6C6007E4900207F0A3F090020CF2
:100A3300E004F0700690020BE004F002098F9002CC
:100A43000AE004F07006900209E004F0C390020A81
:100A5300E09406900209E094005003020988900292
:040A630007A3E0FF06
:010A6700226C
:100046007FFF7E03121B4BEF64EE600302032FFF5C
:100056007E02121B4B900003EFF07F017E02121B03
:100066004B900004EFF07402FFFE121B4B9000054C
:10007600EFF07F047E02121B4B7E00EF7810C33335
:10008600CE33CED8F9FFC007C0067F037E02121B0F
:100096004B7E00EF7818C333CE33CED8F9FDD0E0CF
:1000A6004EFED0E04DFFC007C0067F057E02121B44
:1000B6004BEFFCD0E04CFED0E0FFC007C0067F0649
:1000C6007E02121B4BEFFDD0E0FED0E04DFFE4FCBC
:1000D600FD9000061217FE7F087E02121B4B7E0063
:1000E600EF7810C333CE33CED8F9FFC007C0067FF2
:1000F600077E02121B4B7E00EF7818C333CE33CE39
:10010600D8F9FDD0E04EFED0E04DFFC007C0067F17
:10011600097E02121B4BEFFCD0E04CFED0E0FFC084
:1001260007C0067F0A7E02121B4BEFFDD0E0FED011
:10013600E04DFFE4FCFD90000A1217FE7F047E02EC
:10014600121B4BEF7F00C454F0FEC007C0067F03AE
:100156007E02121B4BEF33333354F8FCD0E04CFED7
:10016600D0E0FFC007C0067F057E02121B4BEFC41E
:100176003354E0FCD0E04CFED0E0FFC007C0067F61
:100186000E7E02121B4BEFFDD0E0FED0E04DFFE4E9
:10019600FCFD90000E1217FE7F0F7E02121B4B9085
:1001A6000012EFF07F107E02121B4B900013EFF04F
:1001B6007F117E02121B4B900014EFF07F127E021D
:1001C600121B4B900015EFF07F047E02121B4B7E34
:1001D60000EF7814C333CE33CED8F9FFC007C0067C
:1001E6007F037E02121B4B7E00EF7813C333CE33A0
:1001F600CED8F9FDD0E04EFED0E04DFFC007C006D8
:100206007F057E02121B4B7E00EF7815C333CE337B
:10021600CED8F9FDD0E04EFED0E04DFFC007C006B7
:100226007F167E02121B4BEFFDD0E0FED0E04DFFA5
:10023600E4FCFD9000161217FE7F087E02121B4B8F
:100246007E00EF7818C333CE33CED8F9FFC007C08F
:10025600067F077E02121B4B7E00EF7817C333CE54
:1002660033CED8F9FDD0E04EFED0E04DFFC007C03A
:10027600067F097E02121B4B7E00EF7819C333CE30
:1002860033CED8F9FDD0E04EFED0E04DFFC007C01A
:10029600067F1A7E02121B4BEFFDD0E0FED0E04D2A
:1002A600FFE4FCFD90001A1217FE7F047E02121B6B
:1002B6004B7E00EF781CC333CE33CED8F9FFC00790
:1002C600C0067F037E02121B4B7E00EF781BC333F2
:1002D600CE33CED8F9FDD0E04EFED0E04DFFC007BC
:1002E600C0067F057E02121B4B7E00EF781DC333CE
:1002F600CE33CED8F9FDD0E04EFED0E04DFFC0079C
:10030600C0067F1E7E02121B4BEFFDD0E0FED0E042
:100316004DFFE4FCFD90001E1217FE7F1F7E0212A9
:100326001B4B900022EFF08057E4900003F0A3747B
:1003360002F0A314F0A312180A0000000090000AAD
:1003460012180A0000000090000E12180A000000A1
:1003560000E4900012F0A3F0A37402F0A314F0A33B
:1003660012180A0000000090001A12180A00000075
:100376000090001E12180A00000000E4900022F00F
:070386009000007401F02259
:10038D007F007E02121B637F037E00121ACA90004B
:10039D0003E0FD7F007E02121B32900004E0FD7F22
:1003AD00017E02121B32900005E0FD7402FFFE1269
:1003BD001B32900006E0FCA3E0FDA3E0FEA3E0FFEE
:1003CD0078181217EBAD077F037E02121B329000D7
:1003DD0006E0FCA3E0FDA3E0FEA3E0FF78101217FA
:1003ED00EBAD077F047E02121B32900006E0FCA3EA
:1003FD00E0FDA3E0FEA3E0FF78081217EBAD077F49
:10040D00057E02121B32900006A3A3A3E0FD7F061A
:10041D007E02121B3290000AE0FCA3E0FDA3E0FE79
:10042D00A3E0FF78181217EBAD077F077E02121BB2
:10043D003290000AE0FCA3E0FDA3E0FEA3E0FF780C
:10044D00101217EBAD077F087E02121B3290000AC7
:10045D00E0FCA3E0FDA3E0FEA3E0FF78081217EB9C
:10046D00AD077F097E02121B3290000AA3A3A3E001
:10047D00FD7F0A7E02121B3290000EE0FCA3E0FD10
:10048D00A3E0FEA3E0FF78181217EBAD077F0B7EFC
:10049D0002121B3290000EE0FCA3E0FDA3E0FEA3D0
:1004AD00E0FF78101217EBAD077F0C7E02121B32A6
:1004BD0090000EE0FCA3E0FDA3E0FEA3E0FF7808B2
:1004CD001217EBAD077F0D7E02121B3290000EA3AB
:1004DD00A3A3E0FD7F0E7E02121B32900012E0FD01
:1004ED007F0F7E02121B32900013E0FD7F107E0203
:1004FD00121B32900014E0FD7F117E02121B329010
:10050D000015E0FD7F127E02121B32900016E0FCFA
:10051D00A3E0FDA3E0FEA3E0FF78181217EBAD07F3
:10052D007F137E02121B32900016E0FCA3E0FDA3A8
:10053D00E0FEA3E0FF78101217EBAD077F147E02EB
:10054D00121B32900016E0FCA3E0FDA3E0FEA3E039
:10055D00FF78081217EBAD077F157E02121B329044
:10056D000016A3A3A3E0FD7F167E02121B3290009E
:10057D001AE0FCA3E0FDA3E0FEA3E0FF781812173C
:10058D00EBAD077F177E02121B3290001AE0FCA321
:10059D00E0FDA3E0FEA3E0FF78101217EBAD077F9F
:1005AD00187E02121B3290001AE0FCA3E0FDA3E0BE
:1005BD00FEA3E0FF78081217EBAD077F197E02123C
:1005CD001B3290001AA3A3A3E0FD7F1A7E02121B1B
:1005DD003290001EE0FCA3E0FDA3E0FEA3E0FF7857
:1005ED00181217EBAD077F1B7E02121B3290001EF7
:1005FD00E0FCA3E0FDA3E0FEA3E0FF78101217EBF3
:10060D00AD077F1C7E02121B3290001EE0FCA3E0A2
:10061D00FDA3E0FEA3E0FF78081217EBAD077F1DE9
:10062D007E02121B3290001EA3A3A3E0FD7F1E7E4F
:10063D0002121B32900022E0FD7F1F7E02121B3240
:10064D007DEE7FFF7E03121B327F0A7E00021ACAE7
:101BA200AE071FEE600DE4FCFD0DED70010C4C6004
:031BB200EF80F6CB
:011BB500220D
:0D000E00E4F5C7F5C5F5C675C380F5C4223D
:101B4B0075C78375C5018FC4EEF5C375C65A75C6C7
:071B5B00A500AFC212000E4D
:011B62002260
:101B320075C78375C5028FC4EEF5C3AF058FC27535
:091B4200C65A75C6A50002000E8A
:101B630075C78375C5038FC4EEF5C375C65A75C6AD
:051B7300A50002000EB8
:101A3100C1004F021BFFFFFFFFFFFFFFFFFFFFFF83
:101A4100FFFFFFFF41022A0041021A004102190073
:0F1BDC00759A50759CFD438E1475AF01D2AF22E0
:03004300021A9B03
:101A9B00C0E0C0F0C083C082C0D075D008E59A30DA
:101AAB00E008539AFEAF9B1218A4E59A30E1055358
:0F1ABB009AFDC201D0D0D082D083D0F0D0E032DB
:101B1800900209E0FCA3E0FDA3E0FEA3E0FF12179A
:011B2800EBD1
:091B29002001FDEFD201F59B2221
:071A6800E02401FDEE33FC58
:101A6F00AB07AA067F5A121B297FA5121B297F05D8
:101A7F00121B297F82121B29EAFF121B29AF0312A7
:0C1A8F001B29ECFF121B29AF05021B29CC
:10199E00AD07AC067F5A121B297FA5121B297F07A4
:1019AE00121B297F82121B29ECFF121B29AF051275
:1019BE001B297818121B187810121B18900209E0B8
:1019CE00FCA3E0FDA3E0FEA3E0FF78081217EB12E4
:0D19DE001B29900209A3A3A3E0FF021B290F
:101AF100AD07AC067F5A121B297FA5121B297F0453
:101B0100121B297F80121B297F03121B29ECFF1254
:071B11001B29AF05021B298F
:1018A40090022AE01460111460161460222403705C
:1018B40043EF645A70448010EFB4A502800A803567
:1018C400900219EFF0E4A3F090022AE004F02290D1
:1018D400021AE0241BF582E43402F583EFF090024F
:1018E4001AE004F0900219E0FFA3E0C39F400B123A
:0B18F4001543800100E490022AF0225E
:1015430090021FE0FEA3E0FDEDFF90020FEEF0A37B
:10155300EFF090021DE0FFB4070F900230E0641437
:10156300600302162AF002162AEFB408089000025C
:101573007401F0806790021DE0FFB40A0DE490004F
:1015830002F090000004F002162AEFB40C06120FCA
:10159300B902162A90021DE0B40E06120A6802165A
:1015A3002A90021DE0B410051216B9807A90021D2C
:1015B300E0FFB41E089000017401F0806AEF64201C
:1015C3006065EFC39412401AEFD3941C5014900239
:1015D3001DE024EEC313900203F02404900000F0F6
:1015E300804590021DE0FFC3942E403BEFD3947CD3
:1015F300503590020FE0FEA3E0FF900203E075F088
:1016030050A42423F582E5F03400F583C083C0821F
:1016130090021DE024D2C313D082D08375F002124E
:09162300183BEEF0A3EFF0D20039
:01162C00229B
:10174400E4FDFC7F22FE121A6F7F24121A6F7F269B
:10175400121A6F7F28121A6F7F2A121A6F7F2C12A7
:101764001A6F900203E025E0FFEE33FEEF2422FF20
:10177400E43EFE0D121A6FE4900207F0900203E0BB
:1017840075F050A42423F582E5F03400F583C0837A
:10179400C082900207E0FFD082D08375F002121855
:1017A4003BE0FCA3E0FDEF25E0FFE433FEEF242E55
:1017B400FFE43EFE121A6F900207E004F0E0C394C7
:0317C4002840B901
:0117C70022FF
:1018FF00900002E0FD7C00E4FFFE121A6F900012D0
:10190F007F01121A689000227F02121A689000035A
:10191F00E02401FFEE33FEE4FCFD9002091217FEF6
:10192F007F037E0012199E900013E02401FFE43321
:10193F00FEE4FCFD9002091217FE7F057E000219DE
:01194F009EF9
:081A510041023500410236009C
:10195000900235E014601714602114603324037082
:101960003B3082032083369002357401F0223082AE
:10197000032083229002357402F022208205120F88
:10198000B98006208303120A689002357403F0229E
:0E19900030820A308307E4900235F0220022F4
:1019EB00900236E014601714602114602B240370EE
:1019FB003330840320852E9002367401F02230841C
:101A0B000320851A9002367402F0222084031216EA
:101A1B00B99002367403F02230840A308507E490C3
:061A2B000236F022002249
:041A59004102301402
:10122D00900230E01460611460661470030212F7CE
:10123D00147003021301240460030213419000048F
:10124D00E064026003021342900014E06402600344
:10125D00021342900003E0FF6F60030213429000FF
:10126D0012E0FF6F6003021342C290900004F090F1
:10127D00000612180A002DC6C090000A12180A00A6
:10128D00000000121BB68065308003021342805DA2
:10129D00308003021342120003E4900003F0A374A4
:1012AD0002F0A314F0A312180A0000000090000A27
:1012BD0012180A0000000090000E12180A0000001B
:1012CD0000E4900012F0C2A0900014F090001612ED
:1012DD00180A002DC6C090001A12180A000000004E
:1012ED00121BC9900230E0048042208148900230E8
:1012FD00E004F02220813E120039E4900013F0A3A7
:10130D007402F0A314F0A312180A0000000090005C
:10131D001A12180A0000000090001E12180A000090
:10132D000000E4900022F09002307414F090000060
:06133D007401F022002201
:100FB900900004E0640260030210FA900014E064F7
:100FC9000260030210FA900013E0FF900003E06F43
:100FD90060030210FA900022E0FF900012E0FE6F19
:100FE90060030210FAEE30E0030210F4D290900090
:100FF900047401F090022BF0E4900005F0900012C7
:10100900E075F050A42423F582E5F03400F583C09F
:1010190083C082900003E0D082D08375F002121859
:101029003BA3E025E0FF0582D5820215831582E006
:1010390033FEE4FCFD9000061217FE900006E0FC6A
:10104900A3E0FDA3E0FEA3E0FF90022C1217FE909F
:10105900000A12180A0000000090000EE0F8A3E050
:10106900F9A3E0FAA3E0FBA3E075F050A42423F56B
:1010790082E5F03400F583C083C082900003E0D09C
:1010890082D08375F00212183BE0FEA3E0FFE4FC76
:10109900FDEB2FFFEA3EFEED39FDEC38FC90000E2A
:1010A9001217FE900012E075F050A42425F582E590
:1010B900F03400F583C083C082900003E0D082D071
:1010C9008375F00212183BE0FEA3E04E700D90000C
:1010D90012E004F0E4900003F08006900003E004BD
:1010E900F0121BB69000007401F022900000740207
:0210F900F022E3
:100A6800900004E064026003020BE9900014E06463
:100A7800026003020BE9900013E0FF900003E06FAF
:100A88006003020BE9900022E0FF900012E0FE6F85
:100A98006003020BE9EE20E003020BE3C290E4904E
:100AA8000004F090022BF0900012E075F050A4249E
:100AB80023F582E5F03400F583C083C082900003FB
:100AC800E0D082D08375F00212183BA3E025E0FF46
:100AD8000582D5820215831582E033FEE4FCFD9081
:100AE80000061217FE900006E0FCA3E0FDA3E0FE5E
:100AF800A3E0FF90022C1217FE90000A12180A00B9
:100B080000000090000EE0FCA3E0FDA3E0FEA3E0DF
:100B1800FFC006C007A3E075F050A42423F582E5C2
:100B2800F03400F583C083C082900003E0D082D007
:100B38008375F00212183BE0FEA3E0FBAA06D0077B
:100B4800D006C3EF9BFFEE9AFEED9400FDEC9400F7
:100B5800FC90000E1217FE900012E075F050A424CD
:100B680025F582E5F03400F583C083C08290000348
:100B7800E0D082D08375F00212183BE0FEA3E04E6D
:100B8800704990000504F0E4900003F0900012E032
:100B980004F0E0FFD394054004E4F0803475F0508D
:100BA800EFA42423F582E5F03400F583C083C082E6
:100BB800900003E0D082D08375F00212183BE0FE6B
:100BC800A3E04E700C900012F08006900003E00441
:100BD800F0121BB69000007401F02290000074031C
:020BE800F022F9
:10134300900014E064026003021443900022E03032
:10135300E00302143DD2A09000147401F0E4A3F062
:10136300900022E075F050A42423F582E5F03400C8
:10137300F583C083C082900013E0D082D08375F0E0
:101383000212183BA3E025E0FF0582D582021583F4
:101393001582E033FEE4FCFD9000161217FE900068
:1013A3001A12180A0000000090001EE0F8A3E0F9EA
:1013B300A3E0FAA3E0FBA3E075F050A42423F58295
:1013C300E5F03400F583C083C082900013E0D0823F
:1013D300D08375F00212183BE0FEA3E0FFE4FCFDAE
:1013E300EB2FFFEA3EFEED39FDEC38FC90001E12B8
:1013F30017FE900022E075F050A42425F582E5F055
:101403003400F583C083C082900013E0D082D08380
:1014130075F00212183BE0FEA3E04E700D9000221F
:10142300E004F0E4900013F08006900013E004F071
:10143300121BC99000007401F0229000007402F0A6
:011443002286
:100E7600900014E064026003020FB8900022E020A4
:100E8600E003020FB2C2A0E4900014F0900022E04A
:100E960075F050A42423F582E5F03400F583C08371
:100EA600C082900013E0D082D08375F00212183B06
:100EB600A3E025E0FF0582D5820215831582E03383
:100EC600FEE4FCFD9000161217FE90001A12180A96
:100ED6000000000090001EE0FCA3E0FDA3E0FEA3DE
:100EE600E0FFC006C007A3E075F050A42423F582F6
:100EF600E5F03400F583C083C082900013E0D08211
:100F0600D08375F00212183BE0FEA3E0FBAA06D0E0
:100F160007D006C3EF9BFFEE9AFEED9400FDEC941E
:100F260000FC90001E1217FE900022E075F050A4FF
:100F36002425F582E5F03400F583C083C082900055
:100F460013E0D082D08375F00212183BE0FEA3E0D6
:100F56004E704990001504F0E4900013F0900022C2
:100F6600E004F0E0FFD394054004E4F0803475F02B
:100F760050EFA42423F582E5F03400F583C083C046
:100F860082900013E0D082D08375F00212183BE005
:100F9600FEA3E04E700C900022F08006900013E055
:100FA60004F0121BC99000007401F0229000007436
:030FB60003F02223
:1016B900900004E064026003021743900014E064A0
:1016C900027077900013E0FF900003E0FEB5070E6B
:1016D900900022E0FF900012E0B50702002290027C
:1016E9002BE0FF24FF92A0900013EEF0A3EFF090FF
:1016F9000005E0900015F090022CE0FCA3E0FDA3AA
:10170900E0FEA3E0FF9000161217FE90001A1218CF
:101719000A0000000090000EE0FCA3E0FDA3E0FE3B
:10172900A3E0FF90001E1217FE900012E090002225
:0B173900F0121BC99000007401F022A8
:10065D0000000099030304500563063506C8072002
:10066D0007460746072606F106AE0663061305C1C3
:10067D000571052204D70490044D040D03D3039B8B
:10068D0003670338030C02E202BB0298027602579D
:10069D00023A021F020601EE01D801C401B0019D0C
:1006AD00018D017C016D015F015101440139012C66
:1006BD0001230117010E010500FC00F400EC00E41C
:1006CD0000DD00D600CF00C900C300BE00B800B2E7
:1006DD0000AE00A800A400A0009B00A0009B009805
:1006ED000093008F008C008800850081007F007BC7
:1006FD000078007600720071006D006B0069006675
:10070D0000640062005F005E005C005900580056F6
:10071D00005400530051004F004D004D004A004958
:10072D000048004600450044004200410040003FA3
:10073D00003E003C003C003A0039003800380036DD
:10074D000035003400340032003200310030002F0B
:10075D00002E002E002D002C002B002B0029002A2E
:10076D00002800280027002700250026002400244B
:10077D000024002300220022002100210020001F60
:10078D000020001E001E001E001D001D001C001C70
:10079D00001B001B001A001A001A0019001900187E
:1007AD000018001700170017001700160015001588
:1007BD00001500150014001400130014001200138E
:1007CD000012001200120011001100100011001093
:1007DD00000F0010000F000F000E000E000E000E97
:1007ED00000E000D000D000C000C000D000B000C98
:1007FD00000B000B000B000B000A000A000A000999
:10080D00000A000900080009000800080008000897
:10081D000007000800060007000700060006000696
:10082D000005000600050005000500040005000494
:10083D000003000400040003000300030002000293
:10084D00000300020001000200010001000100018F
:06085D0000000000000194
:0A1A5D0042023100644202330064CB
:03000B00020BEAFB
:0D0BEA00C0E0C0F0C083C082C0D075D0084C
:100BF70090000AE0F8A3E0F9A3E0FAA3E0FB900075
:100C070006E0FCA3E0FDA3E0FEA3E0C39BFFEE9A92
:100C1700FEED99FDEC98FC9002111217FEE47F039C
:100C27007E01FDFC90000AE0F8A3E0F9A3E0FAA337
:100C3700E0FBC31217DA502C90000AA3A3E0FEA32F
:100C4700E090065D75F00212183BEE25E02583F56E
:100C570083E493FE740193FF900232E02FF0900239
:100C670031E03EF0E47F037E01FDFC900211E0F8E5
:100C7700A3E0F9A3E0FAA3E0FBC31217DA502D9023
:100C87000211A3A3E0FEA3E090065D75F00212181F
:100C97003BEE25E02583F583E493FE740193FFC3C0
:100CA700900232E09FF0900231E09EF090000AE05F
:100CB700FCA3E0FDA3E0FEA3E02401FFE43EFEE485
:100CC7003DFDE43CFC90000A1217FE900006E0FC94
:100CD700A3E0FDA3E0FEA3E0FFA3E0F8A3E0F9A3F0
:100CE700E0FAA3E0FBC31217DA4025C28C90023169
:100CF700E4F0A37464F09000047402F0900006120C
:100D0700180A0000000090000A12180A00000000EC
:0E0D1700900231E0FEA3E0F58AEEF58CB2A664
:0B0D2500D0D0D082D083D0F0D0E032DC
:03001B00020D30A3
:0D0D3000C0E0C0F0C083C082C0D075D00804
:100D3D0090001AE0F8A3E0F9A3E0FAA3E0FB90001D
:100D4D0016E0FCA3E0FDA3E0FEA3E0C39BFFEE9A3B
:100D5D00FEED99FDEC98FC9002151217FEE47F0351
:100D6D007E01FDFC90001AE0F8A3E0F9A3E0FAA3E0
:100D7D00E0FBC31217DA502C90001AA3A3E0FEA3D8
:100D8D00E090065D75F00212183BEE25E02583F527
:100D9D0083E493FE740193FF900234E02FF09002F0
:100DAD0033E03EF0E47F037E01FDFC900215E0F898
:100DBD00A3E0F9A3E0FAA3E0FBC31217DA502D90DC
:100DCD000215A3A3E0FEA3E090065D75F0021218D4
:100DDD003BEE25E02583F583E493FE740193FFC379
:100DED00900234E09FF0900233E09EF090001AE004
:100DFD00FCA3E0FDA3E0FEA3E02401FFE43EFEE43E
:100E0D003DFDE43CFC90001A1217FE900016E0FC2C
:100E1D00A3E0FDA3E0FEA3E0FFA3E0F8A3E0F9A3A8
:100E2D00E0FAA3E0FBC31217DA4025C28E9002331D
:100E3D00E4F0A37464F09000147402F090001612A4
:100E4D00180A0000000090001A12180A0000000095
:0E0E5D00900233E0FEA3E0F58BEEF58DB2A11E
:0B0E6B00D0D0D082D083D0F0D0E03295
:101B7800438E805389F0758A64E4F58CC28DC28CDB
:051B8800C2A9D2AF224A
:101BB600758A64E4F58C900231F0A37464F0D2A9BE
:031BC600D28C229C
:05000300C2A9C28C221D
:101B8D00438E40538910758B64E4F58DC28FC28EE0
:051B9D00C2ABD2AF2233
:101BC900758B64E4F58D900233F0A37464F0D2ABA5
:031BD900D28E2287
:05003900C28EC2AB22E3
:101639000210FBE493A3F8E493A34003F68001F2BC
:1016490008DFF48029E493A3F85407240CC8C333B2
:10165900C4540F4420C8834004F456800146F6DF81
:10166900E4800B0102040810204080901A31E47EC6
:10167900019360BCA3FF543F30E509541FFEE49376
:10168900A360010ECF54C025E060A840B8E493A33D
:10169900FAE493A3F8E493A3C8C582C8CAC583CA68
:1016A900F0A3C8C582C8CAC583CADFE9DEE780BE20
:011A6700007E
:1017C800EF8DF0A4A8F0CF8CF0A428CE8DF0A42E35
:0217D800FE22EF
:1017DA00EB9FF5F0EA9E42F0E99D42F0E89C45F065
:0117EA0022DC
:1017EB00E8600FECC313FCED13FDEE13FEEF13FFDC
:0317FB00D8F12200
:0C17FE00ECF0A3EDF0A3EEF0A3EFF0225E
:10180A00A8828583F0D083D082121821121821125F
:10181A001821121821E473E493A3C583C5F0C58384
:10182A00C8C582C8F0A3C583C5F0C583C8C582C828
:01183A00228B
:0C183B00A42582F582E5F03583F58322B8
:00000001FF
