:030000000218499A
:0C184900787FE4F6D8FD7581200218902D
:10128500E4900049F0A3F0A3F07F0AFE121D991225
:10129500195E121CE31219E3121F69121ECB121EEE
:1012A500E07F017E00121DC05387DF7F0A7E00129A
:1012B5001D9990004AE004F07006900049E004F0A2
:1012C500D390004AE094F4900049E09401401390D3
:1012D500004BE0B4010C7F017E00121DC0E49000BC
:1012E5004BF0E58730E5035387DF900024E0B40138
:1012F500031218D5121B8C121426900023E06403E8
:1013050070497F05FE121DC0120DFEE4900023F00A
:101315007F03FE121DC0900003E004F070069000EC
:1013250002E004F0900004E0FEA3E0FFD390000388
:10133500E09F900002E09E4005EEF0A3EFF09000E4
:10134500237402F090001E14F08078900023E0B41E
:101355000108121E20120AD48046900023E0B4052D
:1013650046900003E004F07006900002E004F0905F
:101375000004E0FEA3E0FFD3900003E09F9000028D
:10138500E09E4013E4F0A304F0900022E004F07026
:1013950006900021E004F0120AD412158F121C7F6A
:1013A500E4900023F0801C900023E0B404157F0531
:1013B5007E00121DC0121C7FE4900023F07F01FE09
:1013C500121DC0900023E0B40208120AD4E4900074
:1013D50023F090001EE0B401051216DF801890007E
:1013E5001EE0B402197F087E00121DC0E49000497A
:1013F500F0A3F0A304F0E490001EF00212B09000F8
:101405001EE0640360030212B07F07FE121DC0E4F4
:10141500900049F0A3F0A304F0E490001EF002123E
:01142500B016
:101E0500EF1FAC0670011E4C601090004FE004F00F
:0A1E150070EE90004EE004F080E64D
:011E1F0022A0
:081D990090004CEEF0A3EFF006
:101DA100E4FBFAD390004DE09B90004CE09A400E8A
:0E1DB1007FDE7E01121E050BBB00010A80E5DD
:011DBF002201
:1019E300E4FFFE121DE7900000EFF0A37402F01273
:1019F3000AD4EF705390000004F090000404F0A3A5
:101A03007458F0A3E4F0A37464F0A3E4F0A374C8DF
:101A1300F0A37401F0A3742CF0A37401F0A37490E9
:101A2300F0A374FFF0A314F0A3747FF0A374FFF08A
:101A3300A3F0A3F0A3F0A3F0A3F0A3F0A3F0A3F00B
:101A4300A3F0A3F0A3F0A3F0E4900024F0C29190DC
:101A5300001E04F0E4900023F090001FF0A3740331
:021A6300F0226F
:101E200090004CE4F0A304F0900000E0FDE4FFFE1D
:091E3000121E6D90004CA3E0FFAE
:011E39002286
:100DFE0090004CE4F0A304F0900000E0FF7E007C35
:100E0E00387D42121A65EF24C0FFEE34C7FE900003
:100E1E004EF0A3EFF0900004E0FD121E6D90004F17
:100E2E00E02401FF90004EE03400FE900004A3E0A9
:100E3E00FD121E6D900002E0FEA3E0FF7C007D1807
:100E4E00121A6590004FE02FFF90004EE03ECF2427
:100E5E00EACF34FFFE900050F0A3EFF0900006E0D2
:100E6E00FD121E6D900051E02401FF900050E03401
:100E7E0000FE900006A3E0FD121E6D900051E024CE
:100E8E0002FF900050E03400FE900008E0FD121EBC
:100E9E006D900051E02403FF900050E03400FE906E
:100EAE000008A3E0FD121E6D900051E02404FF9097
:100EBE000050E03400FE90000AE0FD121E6D90001E
:100ECE0051E02405FF900050E03400FE90000AA38C
:100EDE00E0FD121E6D900051E02406FF900050E0E0
:100EEE003400FE90000CE0FD121E6D900051E024C7
:100EFE0007FF900050E03400FE90000CA3E0FD12BE
:100F0E001E6D900051E02408FF900050E03400FE6A
:100F1E0090000EE0FD121E6D900051E02409FF902E
:100F2E000050E03400FE90000EA3E0FD121E6D9006
:100F3E000051E0240AFF900050E03400FE900010B3
:100F4E00E0FD121E6D900051E0240BFF900050E06A
:100F5E003400FE900010A3E0FD121E6D900051E0D3
:100F6E00240CFF900050E03400FE900012E0FD12C1
:100F7E001E6D900051E0240DFF900050E03400FEF5
:100F8E00900012A3E0FD121E6D900051E0240EFFA2
:100F9E00900050E03400FE900014E0FD121E6D90A3
:100FAE000051E0240FFF900050E03400FE9000143A
:100FBE00A3E0FD121E6D900051E02410FF90005032
:100FCE00E03400FE900016E0FD121E6D900051E020
:100FDE002411FF900050E03400FE900016A3E0FDB7
:100FEE00121E6D900051E02412FF900050E034006C
:100FFE00FE900018E0FD121E6D900051E02413FFCC
:10100E00900050E03400FE900018A3E0FD121E6D1B
:10101E00900051E02414FF900050E03400FE900048
:10102E001AE0FD121E6D900051E02415FF90005045
:10103E00E03400FE90001AA3E0FD121E6D900051E8
:10104E00E02416FF900050E03400FE90001CE0FDFE
:10105E00121E6D900051E02417FF900050E03400F6
:10106E00FE90001CA3E0FD121E6D90004CA3E0FF4D
:01107E00224F
:100AD40090004CE4F0A304F0900000E0FF7E007C62
:100AE400387D42121A65EF24C0FFEE34C7FE900031
:100AF4004EF0A3EFF0121DE7EF7F00FEC007C00623
:100B040090004FE02401FF90004EE03400FE121DDF
:100B1400E7EFFDD0E0FFD0E04D900004CFF0A3EF6D
:100B2400F0900002E0FEA3E0FF7C007D18121A653D
:100B340090004FE02FFF90004EE03ECF24EACF34E8
:100B4400FFFE900050F0A3EFF0121DE7EF7F00FED0
:100B5400C007C006900051E02401FF900050E0342B
:100B640000FE121DE7EFFDD0E0FFD0E04D9000063F
:100B7400CFF0A3EFF0900051E02402FF900050E08A
:100B84003400FE121DE7EF7F00FEC007C006900090
:100B940051E02403FF900050E03400FE121DE7EF03
:100BA400FDD0E0FFD0E04D900008CFF0A3EFF0902F
:100BB4000051E02404FF900050E03400FE121DE7D1
:100BC400EF7F00FEC007C006900051E02405FF90AF
:100BD4000050E03400FE121DE7EFFDD0E0FFD0E04E
:100BE4004D90000ACFF0A3EFF0900051E02406FFEF
:100BF400900050E03400FE121DE7EF7F00FEC007B6
:100C0400C006900051E02407FF900050E03400FE3D
:100C1400121DE7EFFDD0E0FFD0E04D90000CCFF0C7
:100C2400A3EFF0900051E02408FF900050E034005E
:100C3400FE121DE7EF7F00FEC007C006900051E0E2
:100C44002409FF900050E03400FE121DE7EFFDD0B0
:100C5400E0FFD0E04D90000ECFF0A3EFF0900051F4
:100C6400E0240AFF900050E03400FE121DE7EF7FFD
:100C740000FEC007C006900051E0240BFF90005016
:100C8400E03400FE121DE7EFFDD0E0FFD0E04D9010
:100C94000010CFF0A3EFF0900051E0240CFF90007F
:100CA40050E03400FE121DE7EF7F00FEC007C006CF
:100CB400900051E0240DFF900050E03400FE121D1E
:100CC400E7EFFDD0E0FFD0E04D900012CFF0A3EFAE
:100CD400F0900051E0240EFF900050E03400FE122A
:100CE4001DE7EF7F00FEC007C006900051E0240F0F
:100CF400FF900050E03400FE121DE7EFFDD0E0FF4E
:100D0400D0E04D900014CFF0A3EFF0900051E02418
:100D140010FF900050E03400FE121DE7EF7F00FE4C
:100D2400C007C006900051E02411FF900050E03449
:100D340000FE121DE7EFFDD0E0FFD0E04D9000165D
:100D4400CFF0A3EFF0900051E02412FF900050E0A8
:100D54003400FE121DE7EF7F00FEC007C0069000BE
:100D640051E02413FF900050E03400FE121DE7EF21
:100D7400FDD0E0FFD0E04D900018CFF0A3EFF0904D
:100D84000051E02414FF900050E03400FE121DE7EF
:100D9400EF7F00FEC007C006900051E02415FF90CD
:100DA4000050E03400FE121DE7EFFDD0E0FFD0E07C
:100DB4004D90001ACFF0A3EFF0900051E02416FFFD
:100DC400900050E03400FE121DE7EF7F00FEC007E4
:100DD400C006900051E02417FF900050E03400FE5C
:100DE400121DE7EFFDD0E0FFD0E04D90001CCFF0E6
:090DF400A3EFF090004CA3E0FF16
:010DFD0022D3
:10195E007F0A121F0A7FF87E7F121DE7EF7F00FEBF
:10196E00C007C0067FF97E7F121DE7EFFDD0E0FFB6
:10197E00D0E04D900021CFF0A3EFF07FFA7E7F12E2
:10198E001DE7EF7F00FEC007C0067FFB7E7F121DA6
:10199E00E7EFFDD0E0FFD0E04D900002CFF0A3EFD7
:1019AE00F0E004F07006900002E004F0900004E015
:1019BE00FEA3E0FFD3900003E09F900002E09E4064
:1019CE0013E4F0A304F0900022E004F070069000FF
:0519DE0021E004F022ED
:101C7F00900021E0FD7FF87E7F121E6D900021A362
:101C8F00E0FD7FF97E7F121E6D900002E0FD7FFA6E
:101C9F007E7F121E6D900002A3E0FD7FFB7E7F0210
:021CAF001E6DA8
:101F0A00AE071FEE600DE4FCFD0DED70010C4C6098
:031F1A00EF80F65F
:011F1D0022A1
:0D000E00E4F5C7F5C5F5C675C380F5C4223D
:101E860075C78375C5018FC4EEF5C375C65A75C689
:071E9600A500AFC212000E0F
:011E9D002222
:101E540075C78375C5028FC4EEF5C3AF058FC27510
:091E6400C65A75C6A50002000E65
:101EB60075C78375C5038FC4EEF5C375C65A75C657
:051EC600A50002000E62
:101C4800C1004F005EFFFFFFFFFFFFFFFFFFFFFF29
:101C5800FFFFFFFF41006D0041005D0041005C0097
:0F1F6900759A50759CFD438E1475AF01D2AF224F
:03004300021D1487
:101D1400C0E0C0F0C083C082C0D075D008E59A305E
:101D2400E008539AFEAF9B121AE4E59A30E105539A
:0F1D34009AFDC201D0D0D082D083D0F0D0E0325F
:101E3A00900070E0FCA3E0FDA3E0FEA3E0FF121A0D
:011E4A00880F
:091E4B002001FDEFD201F59B22FC
:061CB100A3E0FCA3E0FD2E
:101CB700AB07AA067F5A121E4B7FA5121E4B7F0544
:101CC700121E4B7F82121E4BEAFF121E4BAF0312EE
:0C1CD7001E4BECFF121E4BAF05021E4B13
:101B3F00AD07AC067F5A121E4B7FA5121E4B7F07B7
:101B4F00121E4B7F82121E4BECFF121E4BAF051263
:101B5F001E4B7818121E3A7810121E3A900070E041
:101B6F00FCA3E0FDA3E0FEA3E0FF7808121A8812A1
:0D1B7F001E4B900070A3A3A3E0FF021E4BBD
:101DC000AD07AC067F5A121E4B7FA5121E4B7F0437
:101DD000121E4B7F80121E4B7F03121E4BECFF1214
:071DE0001E4BAF05021E4B74
:101AE40090006DE0146011146016146022240370D9
:101AF40043EF645A70448010EFB4A502800A803525
:101B040090005CEFF0E4A3F090006DE004F022900C
:101B1400005DE0245EF582E43400F583EFF090008C
:101B24005DE004F090005CE0FFA3E0C39F400B1273
:0B1B34000046800100E490006DF022EC
:10004600900062E0FEA3E0FDEDFF900060E0FDB4ED
:100056000213D3EF9402EE940040027F0290000058
:10006600EFF0020335EDB40A05900001803C9000E4
:1000760060E0FDB4031D900004E0FAA3E0FBC39F1B
:10008600EA9E5004AE02AF03900002EEF0A3EFF03A
:100096000203BBEDB40417D3EF9458EE9402400468
:1000A6007E027F58900004EEF0A3EF0203D6900084
:1000B60060E0FDB405059000068075EDB406059078
:1000C6000008806C900060E0FDB4070590000A808F
:1000D6005FEDB4080590000C8056900060E0FDB41A
:1000E600090590000E8049EDB4100590001080407F
:1000F600900060E0FDB411059000128033EDB4125B
:1001060005900014802A900060E0FDB4130590006D
:1001160016801DEDB414059000188014900060E060
:10012600FDB4150590001A8007EDB4160B90001C5F
:10013600EEF0A3EFF0020469900060E06417706CC3
:10014600C29190002404F090002504F0A3121AA78F
:100156000000000090002A121AA70000000090007C
:100166002E7402F0A3121AA70000000090003312AA
:100176001AA7000000009000377402F0A3121AA715
:100186000000000090003C121AA70000000090003A
:10019600407402F0A3121AA7000000009000451256
:1001A6001AA70000000012158F02043F900060E0BD
:1001B6006418600302023B900024F0D2919000255F
:1001C6007402F0A3121AA70000000090002A121A67
:1001D600A70000000090002E7402F0A3121AA700D8
:1001E600000000900033121AA700000000900037AC
:1001F6007402F0A3121AA70000000090003C121A25
:10020600A7000000009000407402F0A3121AA70095
:10021600000000900045121AA7000000009000029E
:10022600E4F0A304F090002304F090001E14F012F2
:100236001CE3020469900060E0FF641970249000DA
:100246001EE06003020469900023E0600302046973
:10025600900000E004F0E0D3940240037401F00241
:100266000335EF64207003020469900060E0FF64C8
:10027600217003020469EF64227003020469EF64CB
:10028600237067900024F09000257402F0A3121AE0
:10029600A70000000090002A121AA7000000009094
:1002A600002E7402F0A3121AA7000000009000337B
:1002B600121AA7000000009000377402F0A3121A69
:1002C600A70000000090003C121AA7000000009052
:1002D60000407402F0A3121AA70000000090004527
:1002E600121AA70000000002043F900060E0FFB46D
:1002F600242190001EE06003020469900000E014CF
:10030600F0E0FED394025003EE70069000007401F4
:10031600F0801CEFB4252590001EE06003020469FE
:10032600900000E004F0E0D3940240037402F090E1
:1003360000237401F090001EF0020469900060E052
:10034600FF6426703B90001EE06003020469900083
:1003560003E024FFF0900002E034FFF0900004E098
:10036600FCA3E0FD900002E0FAA3E0FBD39DEA9C2B
:100376005004EB4A7008900002E4F0A304F08035C4
:10038600EFB4273F90001EE060030204699000036B
:10039600E004F07006900002E004F0900004E0FE35
:1003A600A3E0FFD3900003E09F900002E09E40058B
:1003B600EEF0A3EFF09000237402F090001E14F00C
:1003C600020469900060E0FFB428089000237403DB
:1003D600F08066EF64297039900006F0A3F0A3F070
:1003E600A3F0A3F0A3F0A3F0A3F0A3F0A3F0A3F06F
:1003F600A3F0A3F0A3F0A3F0A3F0A3F0A3F0A3F05F
:10040600A3F0A3F0A3F0A3F0A3F090001E04F080E5
:1004160052EFB4302C74FF90000EF0A3F0A3F0A3BB
:10042600F0A3F0A3F0A3F0A3F0A3F0A3F0A3F0A32E
:10043600F0A3F0A3F0A3F0A3F090001E7401F080E7
:1004460022EFB4310B90007AE0B41417E4F0801375
:10045600900060E0FF6432600AEFB4330690002338
:050466007404F0D20057
:01046B00226E
:1016DF00900024E0FD7C007F0F7E00121CB790006D
:1016EF0021E0FCA3E0FD7F0E121CB7900000E0FD8F
:1016FF007C007F02121CB7A3E0FD7F0A121CB77F8C
:10170F0003121CB17F04121CB1A3E0FCA3E0FD7F08
:10171F0005121CB7A3E0FCA3E0FD7F06121CB7A3C4
:10172F00E0FCA3E0FD7F07121CB7A3E0FCA3E0FDE4
:10173F007F08121CB7A3E0FCA3E0FD7F09121CB7C2
:10174F00A3E0FCA3E0FD7F10121CB7A3E0FCA3E015
:10175F00FD7F11121CB7A3E0FCA3E0FD7F12121C4A
:10176F00B7A3E0FCA3E0FD7F13121CB7A3E0FCA31B
:10177F00E0FD7F14121CB7A3E0FCA3E0FD7F151260
:0D178F001CB7A3E0FCA3E0FD7F16021CB711
:081C6800410078004100790001
:1018D500900078E014601714602114606E24037082
:1018E5007630A00320A1719000787401F02230A019
:1018F5000320A15D9000787402F02220A0229000C0
:101905001FE07004A3E0640160169000237405F0E5
:1019150090001E7401F090001FE4F0A304F08024F1
:1019250020A12190001FE07004A3E06402601590DF
:1019350000237405F090001E7401F090001FE4F080
:10194500A37402F09000787403F02230A00A30A14D
:0919550007E4900078F022002262
:101B8C00900079E014601414601B14602824037016
:101B9C002D20A22B9000797401F02220A21A900023
:101BAC00797402F02220A2069000237404F09000B5
:101BBC00797403F02230A207E4900079F02200221D
:10158F0012179C900025E064026003021638900049
:10159F002EE0640260030216383090030216389072
:1015AF000006E0FEA3E0FF4E6036D3EF94FFEE940B
:1015BF007F400FC294E4900025F0E49FFFE49EFE6D
:1015CF008010D2949000257401F0900006E0FEA3E5
:1015DF00E0FFE4FCFD900026121A9B90002A803F4A
:1015EF00900008E0FEA3E0FF4E603ED3EF94FFEEC5
:1015FF00947F400FC296E490002EF0E49FFFE49E8C
:10160F00FE8010D29690002E7401F0900008E0FE3C
:10161F00A3E0FFE4FCFD90002F121A9B9000331201
:10162F001AA700000000121F32900037E06402601A
:10163F00030216DE900040E0640260030216DE3003
:10164F0090030216DE90000AE0FEA3E0FF4E603624
:10165F00D3EF94FFEE947F400FC2B3E4900037F0C6
:10166F00E49FFFE49EFE8010D2B39000377401F028
:10167F0090000AE0FEA3E0FFE4FCFD900038121A90
:10168F009B90003C803F90000CE0FEA3E0FF4E607B
:10169F003ED3EF94FFEE947F400FC2B5E49000402D
:1016AF00F0E49FFFE49EFE8010D2B59000407401DD
:1016BF00F090000CE0FEA3E0FFE4FCFD900041126F
:1016CF001A9B900045121AA700000000121F452216
:041C700041007A14A1
:1014260090007AE01460631470030214D6147003FB
:1014360002151B1470030215622404600302158D45
:10144600900025E06402600302158E90002EE06491
:1014560002600302158E900037E0640260030215F5
:101466008E900040E06402600302158EC2949000E4
:1014760025F0A3121AA7002DC6C090002A121AA79B
:1014860000000000121F3202155B30800302158E29
:10149600121BCC9000257402F0A3121AA7000000BC
:1014A6000090002A121AA700000000C296E49000DD
:1014B6002EF0A3121AA7002DC6C0900033121AA749
:1014C60000000000121F3290001E7401F002155B2E
:1014D60030810302158E121BCC90002E7402F0A3ED
:1014E600121AA700000000900033121AA70000008D
:1014F60000C2B3E4900037F0A3121AA7002DC6C0AD
:1015060090003C121AA700000000121F4590001E12
:101516007401F08040208270121C0A900037740219
:10152600F0A3121AA70000000090003C121AA700B0
:10153600000000C2B5E4900040F0A3121AA7002DE7
:10154600C6C0900045121AA700000000121F459061
:10155600001E7401F090007AE004F0222083291224
:101566001C0A9000407402F0A3121AA700000000A3
:10157600900045121AA70000000090001E7401F0AA
:0915860090007A7414F022002296
:10179C007B07EBFF3395E0FEEF25E0FFEE33FE74A5
:1017AC000E2FF58274003EF583E0FFA3E09000520B
:1017BC00CFF0A3EFF0E4FDC2B0900052E0FEA3E046
:1017CC00FF13B392B2D2B0EEC313FEEF13FF90002F
:1017DC0052EEF0A3EFF00DEDB410DC1BEBB403B242
:1017EC00C2B1D2B17B03EBFF3395E0FEEF25E0FFF6
:1017FC00EE33FE740E2FF58274003EF583E0FFA3EA
:10180C00E0900052CFF0A3EFF0E4FDC2A3900052A1
:10181C00E0FEA3E0FF13B392A5D2A3EEC313FEEF39
:10182C0013FF900052EEF0A3EFF00DEDB410DC1BA3
:0C183C00C3EB6480948050AEC2A4D2A420
:01184800227D
:101CE300E4FEE4FFC2A3D2A5D2A30FEFB410F50E16
:101CF300EEB404EEC2A4D2A47E04E4FFC2B0D2B216
:101D0300D2B00FEFB410F50EEEB408EEC2B1D2B1FB
:011D130022AD
:10107F0000000099030304500563063506C80720D6
:10108F0007460746072606F106AE0663061305C197
:10109F000571052204D70490044D040D03D3039B5F
:1010AF0003670338030C02E202BB02980276025771
:1010BF00023A021F020601EE01D801C401B0019DE0
:1010CF00018D017C016D015F015101440139012C3A
:1010DF0001230117010E010500FC00F400EC00E4F0
:1010EF0000DD00D600CF00C900C300BE00B800B2BB
:1010FF0000AE00A800A400A0009B00A0009B0098D9
:10110F000093008F008C008800850081007F007B9A
:10111F000078007600720071006D006B0069006648
:10112F0000640062005F005E005C005900580056CA
:10113F00005400530051004F004D004D004A00492C
:10114F000048004600450044004200410040003F77
:10115F00003E003C003C003A0039003800380036B1
:10116F000035003400340032003200310030002FDF
:10117F00002E002E002D002C002B002B0029002A02
:10118F00002800280027002700250026002400241F
:10119F000024002300220022002100210020001F34
:1011AF000020001E001E001E001D001D001C001C44
:1011BF00001B001B001A001A001A00190019001852
:1011CF00001800170017001700170016001500155C
:1011DF000015001500140014001300140012001362
:1011EF000012001200120011001100100011001067
:1011FF00000F0010000F000F000E000E000E000E6B
:10120F00000E000D000D000C000C000D000B000C6B
:10121F00000B000B000B000B000A000A000A00096C
:10122F00000A00090008000900080008000800086B
:10123F00000700080006000700070006000600066A
:10124F000005000600050005000500040005000468
:10125F000003000400040003000300030002000267
:10126F000003000200010002000100010001000163
:06127F0000000000000168
:0A1C74004200740064420076006430
:03000B0002046C80
:10046C00C0E0C0F0C083C082C0D075D00890002519
:10047C00E0FF700320800EEF640160030205C020D2
:05048C0084030205C01D
:1004910090002AE0F8A3E0F9A3E0FAA3E0FB9000C2
:1004A10026E0FCA3E0FDA3E0FEA3E0C39BFFEE9AE0
:1004B100FEED99FDEC98FC900054121A9BE47F0329
:1004C1007E01FDFC90002AE0F8A3E0F9A3E0FAA385
:1004D100E0FBC3121A77502C90002AA3A3E0FEA3DD
:1004E100E090107F75F002121AD8EE25E02583F511
:1004F10083E493FE740193FF900075E02FF0900068
:1005010074E03EF0E47F037E01FDFC900054E0F8CE
:10051100A3E0F9A3E0FAA3E0FBC3121A77502D90F0
:100521000054A3A3E0FEA3E090107F75F002121A1D
:10053100D8EE25E02583F583E493FE740193FFC390
:10054100900075E09FF0900074E09EF090002AE02A
:10055100FCA3E0FDA3E0FEA3E02401FFE43EFEE4F2
:100561003DFDE43CFC90002A121A9B900026E0FC21
:10057100A3E0FDA3E0FEA3E0FFA3E0F8A3E0F9A35D
:10058100E0FAA3E0FBC3121A774023C28C900074F7
:10059100E4F0A37464F09000257402F0A3121AA78A
:1005A1000000000090002A121AA70000000090002D
:0C05B10074E0FEA3E0F58AEEF58CB29534
:1005BD0002079590002EE0FF700320810EEF64017D
:0B05CD006003020707208503020707F8
:1005D800900033E0F8A3E0F9A3E0FAA3E0FB900071
:1005E8002FE0FCA3E0FDA3E0FEA3E0C39BFFEE9A8F
:1005F800FEED99FDEC98FC900054121A9BE47F03E1
:100608007E01FDFC900033E0F8A3E0F9A3E0FAA333
:10061800E0FBC3121A77502C900033A3A3E0FEA38B
:10062800E090107F75F002121AD8EE25E02583F5C8
:1006380083E493FE740193FF900075E02FF090001F
:1006480074E03EF0E47F037E01FDFC900054E0F886
:10065800A3E0F9A3E0FAA3E0FBC3121A77502D90A8
:100668000054A3A3E0FEA3E090107F75F002121AD5
:10067800D8EE25E02583F583E493FE740193FFC348
:10068800900075E09FF0900074E09EF0900033E0D9
:10069800FCA3E0FDA3E0FEA3E02401FFE43EFEE4AA
:1006A8003DFDE43CFC900033121A9B90002FE0FCC7
:1006B800A3E0FDA3E0FEA3E0FFA3E0F8A3E0F9A315
:1006C800E0FAA3E0FBC3121A774023C28C900074AF
:1006D800E4F0A37464F090002E7402F0A3121AA739
:1006E80000000000900033121AA7000000009000DC
:0C06F80074E0FEA3E0F58AEEF58CB297EA
:10070400020795900025E0FB700790001E7403809B
:1007140009EBB4012490001E7402F0C28C900074A2
:10072400E4F0A37464F09000257402F0A3121AA7F5
:100734000000000090002A805190002EE0FB7024FD
:1007440090001E7403F0C28C900074E4F0A37464EF
:10075400F090002E7402F0A3121AA700000000907B
:1007640000338026EBB4012990001E7402F0C28C81
:10077400900074E4F0A37464F090002E7402F0A36B
:10078400121AA700000000900033121AA7000000FC
:0C07940000D0D0D082D083D0F0D0E03272
:03001B000207A039
:1007A000C0E0C0F0C083C082C0D075D008900037D0
:1007B000E0FF700320820EEF640160030208F42062
:0507C00086030208F4AD
:1007C50090003CE0F8A3E0F9A3E0FAA3E0FB900079
:1007D50038E0FCA3E0FDA3E0FEA3E0C39BFFEE9A97
:1007E500FEED99FDEC98FC900058121A9BE47F03EE
:1007F5007E01FDFC90003CE0F8A3E0F9A3E0FAA33C
:10080500E0FBC3121A77502C90003CA3A3E0FEA393
:10081500E090107F75F002121AD8EE25E02583F5D9
:1008250083E493FE740193FF900077E02FF090002E
:1008350076E03EF0E47F037E01FDFC900058E0F891
:10084500A3E0F9A3E0FAA3E0FBC3121A77502D90B9
:100855000058A3A3E0FEA3E090107F75F002121AE2
:10086500D8EE25E02583F583E493FE740193FFC359
:10087500900077E09FF0900076E09EF090003CE0DD
:10088500FCA3E0FDA3E0FEA3E02401FFE43EFEE4BB
:100895003DFDE43CFC90003C121A9B900038E0FCC6
:1008A500A3E0FDA3E0FEA3E0FFA3E0F8A3E0F9A326
:1008B500E0FAA3E0FBC3121A774023C28E900076BC
:1008C500E4F0A37464F09000377402F0A3121AA741
:1008D5000000000090003C121AA7000000009000E4
:0C08E50076E0FEA3E0F58BEEF58DB2B4DA
:1008F100020AC9900040E0FF700320830EEF6401FB
:0B0901006003020A3B208703020A3B50
:10090C00900045E0F8A3E0F9A3E0FAA3E0FB900027
:10091C0041E0FCA3E0FDA3E0FEA3E0C39BFFEE9A45
:10092C00FEED99FDEC98FC900058121A9BE47F03A5
:10093C007E01FDFC900045E0F8A3E0F9A3E0FAA3EA
:10094C00E0FBC3121A77502C900045A3A3E0FEA342
:10095C00E090107F75F002121AD8EE25E02583F591
:10096C0083E493FE740193FF900077E02FF09000E6
:10097C0076E03EF0E47F037E01FDFC900058E0F849
:10098C00A3E0F9A3E0FAA3E0FBC3121A77502D9071
:10099C000058A3A3E0FEA3E090107F75F002121A9A
:1009AC00D8EE25E02583F583E493FE740193FFC311
:1009BC00900077E09FF0900076E09EF0900045E08C
:1009CC00FCA3E0FDA3E0FEA3E02401FFE43EFEE473
:1009DC003DFDE43CFC900045121A9B900041E0FC6C
:1009EC00A3E0FDA3E0FEA3E0FFA3E0F8A3E0F9A3DE
:1009FC00E0FAA3E0FBC3121A774023C28E90007674
:100A0C00E4F0A37464F09000407402F0A3121AA7EF
:100A1C0000000000900045121AA700000000900092
:0C0A2C0076E0FEA3E0F58BEEF58DB2B68F
:100A3800020AC9900037E0FB700790001E7403801B
:100A480009EBB4012490001E7402F0C28E90007667
:100A5800E4F0A37464F09000377402F0A3121AA7AC
:100A68000000000090003C8051900040E0FB7024A2
:100A780090001E7403F0C28E900076E4F0A37464B4
:100A8800F09000407402F0A3121AA7000000009032
:100A980000458026EBB4012990001E7402F0C28E36
:100AA800900076E4F0A37464F09000407402F0A320
:100AB800121AA700000000900045121AA7000000B3
:0C0AC80000D0D0D082D083D0F0D0E0323B
:101ECB00438E805389F0758A64E4F58CC28DC28C85
:051EDB00C2A9D2AF22F4
:101F3200758A64E4F58C900074F0A37464F0D2A9FD
:031F4200D28C221C
:101BCC00C2A9C28C900074E4F0A37464F090002558
:101BDC007402F0A3121AA70000000090002A121A37
:101BEC00A70000000090002E7402F0A3121AA700A8
:0E1BFC00000000900033121AA7000000002223
:101EE000438E40538910758B64E4F58DC28FC28E8A
:051EF000C2ABD2AF22DD
:101F4500758B64E4F58D900076F0A37464F0D2ABE4
:031F5500D28E2207
:101C0A00C28EC2AB900076E4F0A37464F090003701
:101C1A007402F0A3121AA70000000090003C121AE6
:101C2A00A7000000009000407402F0A3121AA70057
:0E1C3A00000000900045121AA70000000022D2
:101EF500D2A60000D2A70000000000C2A600000084
:051F05000000C2A7224C
:101F1E00C2A600D2A70000000000D2A6000000005A
:041F2E0000C2A72224
:101D7000121EF57FA012001E121D88EAFF12001E1F
:081D8000121D88AF0312001EC2
:101D8800C2A6000000D2A70000000000C2A7000001
:011D98002228
:101F5800D2A6000000D2A70000000000C2A700001F
:011F68002256
:10001E007E08AD07C2A70000000000ED30E704D255
:10002E00A68002C2A6D2A7EF25E0FDFFDEE4C2A79E
:01003E00229F
:101D4300E4FFFE7D08D2A6C2A70000000000D2A7D0
:101D53000000000000EF30A6054401FF800354FE9D
:0C1D6300FFED146005EF25E0FEFFDDDB66
:011D6F002251
:101E9E00EFD394004011E4FDFC0DBD00010CED6488
:071EAE007D4C70F51F80E977
:011EB500220A
:101E6D00AB07AA06AC05121D70AF0412001E121DA1
:091E7D0088121F1E7F0F021E9E39
:041DE700AB07AA0696
:101DEB00121D70121EF57FA112001E121D88121DEE
:091DFB0043C2A7121F58121F1E5B
:011E040022BB
:10185500021285E493A3F8E493A34003F68001F212
:1018650008DFF48029E493A3F85407240CC8C33394
:10187500C4540F4420C8834004F456800146F6DF63
:10188500E4800B0102040810204080901C48E47E8F
:10189500019360BCA3FF543F30E509541FFEE49358
:1018A500A360010ECF54C025E060A840B8E493A31F
:1018B500FAE493A3F8E493A3C8C582C8CAC583CA4A
:1018C500F0A3C8C582C8CAC583CADFE9DEE780BE02
:011C7E000065
:101A6500EF8DF0A4A8F0CF8CF0A428CE8DF0A42E95
:021A7500FE224F
:101A7700EB9FF5F0EA9E42F0E99D42F0E89C45F0C5
:011A8700223C
:101A8800E8600FECC313FCED13FDEE13FEEF13FF3C
:031A9800D8F12260
:0C1A9B00ECF0A3EDF0A3EEF0A3EFF022BE
:101AA700A8828583F0D083D082121ABE121ABE1282
:101AB7001ABE121ABEE473E493A3C583C5F0C583A7
:101AC700C8C582C8F0A3C583C5F0C583C8C582C889
:011AD70022EC
:0C1AD800A42582F582E5F03583F5832219
:00000001FF
